:020000040800F2
:10000000C8090024B1020008573100083D3000083B
:1000100055310008A5040008F5460008000000005E
:10002000000000000000000000000000033F000886
:10003000A70400080000000059310008053F00082F
:10004000CF020008CF020008CF020008CF0200084C
:10005000CF020008CF020008CF020008CF0200083C
:10006000CF020008CF020008CF020008CF0200082C
:10007000CF020008CF020008CF020008CF0200081C
:10008000CF020008CF020008CF020008CF0200080C
:10009000CF020008CF020008CF020008CF020008FC
:1000A000CF020008CF020008CF020008CF020008EC
:1000B000CF020008CF020008CF020008CF020008DC
:1000C000CF020008CF020008CF020008CF020008CC
:1000D000CF020008CF020008CF020008CF020008BC
:1000E000CF020008CF02000800000000CF02000885
:1000F000CF020008CF020008CF020008CF0200089C
:10010000CF020008CF020008CF020008CF0200088B
:10011000CF020008CF020008CF020008CF0200087B
:10012000CF020008CF020008CF020008CF0200086B
:10013000CF020008CF020008CF020008CF0200085B
:1001400000000000000000000000000000000000AF
:10015000CF020008CF020008CF020008CF0200083B
:10016000CF020008CF020008CF020008CF0200082B
:10017000CF020008CF020008CF020008CF0200081B
:10018000CF020008CF020008CF020008CF0200080B
:10019000CF020008CF020008CF020008CF020008FB
:1001A000CF020008CF020008CF020008CF020008EB
:1001B000CF020008CF020008CF020008CF020008DB
:1001C000CF020008CF020008CF020008CF020008CB
:1001D000CF020008CF020008CF020008CF020008BB
:1001E000CF020008CF020008CF020008CF020008AB
:1001F000CF020008CF020008CF020008CF0200089B
:10020000CF020008CF020008CF020008CF0200088A
:10021000CF020008CF020008CF020008CF0200087A
:10022000CF020008CF020008CF0200080000000043
:10023000CF020008CF02000800000000CF02000833
:10024000CF020008CF020008CF020008CF0200084A
:10025000CF020008CF020008CF020008CF0200083A
:10026000CF020008CF020008CF020008CF0200082A
:10027000CF020008CF020008CF02000800000000F3
:10028000CF020008CF020008CF02000800000000E3
:1002900000000000CF020008DFF810D000F09EF848
:1002A0000048004751590008AFF30080C8090024F6
:1002B000074880470748804707480047FEE7FEE7B2
:1002C000FEE7FEE7FEE7FEE7FEE7FEE7FEE7FEE706
:1002D000AD040008B13F0008990200082DE9F05F65
:1002E0000546002092469B468846064681464024A5
:1002F0001BE0284641464746224600F05EF853463A
:100300005A46C01A914110D311461846224600F0B1
:1003100045F82D1A67EB01084F46224601200021BF
:1003200000F03CF817EB00094E41201EA4F1010437
:10033000DFDC484631462A464346BDE8F09FD2B24C
:1003400001E000F8012B491EFBD270470022F6E7BE
:1003500010B513460A4604461946FFF7F0FF20463B
:1003600010BD421C10F8011B0029FBD1801A7047F8
:1003700030B50B46014600202022012409E021FA75
:1003800002F59D4205D303FA02F5491B04FA02F572
:100390002844151EA2F10102F1DC30BD202A04DB45
:1003A000203A00FA02F1002070479140C2F1200388
:1003B00020FA03F3194390407047202A04DB203AC7
:1003C00021FA02F00021704721FA02F3D040C2F175
:1003D000200291400843194670470000064C074D23
:1003E00006E0E06840F0010394E807009847103405
:1003F000AC42F6D3FFF754FFDC5F0008FC5F000857
:100400000146014802F06EB928000024044810B5E6
:1004100002F07AF9042801D0012010BD002010BD9F
:100420002800002410B500F015F8012801D00220A2
:1004300010BD074802F0E4F9040006D104484FF467
:10044000804101F0ADFF00B10124204610BD000045
:100450002800002408B501208DF800009DF8000058
:1004600008BD000038B50024009313460A46014633
:10047000034802F0C3FA00B10124204638BD000051
:100480002800002438B50024009313460A4601468C
:10049000034802F095FB00B10124204638BD00005E
:1004A00028000024FEE7704772B6FEE705480549BC
:1004B0000839026842F00202026008688004FCD534
:1004C000704700000C480258002200F001B80000FC
:1004D0000E4B70B505465C7A0120002C14D15E7A73
:1004E00003F108009C555E7A03EB860675605D7A21
:1004F0002A54587A421C5A723A232F2230300870FC
:100500004B7020468A70CC7070BD0000B805002486
:1005100070B5044600F02AF90546601C02D0044874
:100520000078044400F022F9401BA042FAD370BDC9
:10053000080000242DE9F84F03247D4D00234FF0DF
:1005400001094FF0B04B4FF00F0AE9E009FA03F749
:100550003A4076D00E7906F00306012E01D0022E25
:1005600018D1D0F808C04FEA430ECE6804FA0EF84E
:100570002CEA080C06FA0EF646EA0C068660D0F85D
:1005800004C00E792CEA070CC6F300169E4046EA1A
:100590000C0646600E79F643B6070BD0C6684FEAE4
:1005A00043088F6804FA08FC26EA0C0607FA08F7E5
:1005B0003743C7600E7906F00306022E12D1DE081B
:1005C0000F694FEA437C00EB8606B646366A4FEA6F
:1005D000DC6C0AFA0CF807FA0CF726EA080637432F
:1005E000CEF820700F7906684FEA430807F003073A
:1005F00004FA08FC07FA08F726EA0C0637430760F6
:100600004E6816F4403F1CD04A4E376847F0020748
:10061000376036689F0706F00206009623F003064F
:1006200006F1B046B6463F0FD6F80864DFF80881F9
:100630000AFA07FC404526EA0C0603D14FF0000CED
:1006400041E06CE0DFF8F4C0604502D14FF0010CEE
:1006500039E0DFF8ECC0604502D14FF0020C32E027
:10066000DFF8E0C0604502D14FF0030C2BE0DFF86B
:10067000D8C0604502D14FF0040C24E0DFF8CCC0B4
:10068000604502D14FF0050C1DE0DFF8C4C06045A5
:1006900002D14FF0060C16E0DFF8B8C0604502D179
:1006A0004FF0070C0FE0DFF8B0C0604502D14FF00B
:1006B000080C08E0DFF8A4C0604502D14FF0090C37
:1006C00001E04FF00A0C0CFA07FC4CEA060CCEF8DD
:1006D00008C44F68DBF80060FF0226EA020600D576
:1006E00016435F46CBF80060D1F804C0DBF8046025
:1006F0005FEA8C2C26EA020600D516437E606E68FF
:100700004F6826EA0206BF0300D516436E602E68C6
:100710004F6826EA0206FF0300D516432E605B1CD5
:100720000A6832FA03F67FF411AFBDE8F88F0000D3
:1007300080000058F4440258000002580004025897
:1007400000080258000C0258001002580014025809
:1007500000180258001C02580020025800240258B9
:1007600001480068000C70470010005C0148806878
:100770007047000008000024024881680278114494
:100780008160704708000024032010B500F0C6F80F
:1007900001F0A8FA0F4A104914681368C4F3032241
:1007A00003F00F038A5CC95C02F01F0201F01F0115
:1007B000D0400A4A20FA01F11160094908600F206F
:1007C00000F010F808B1012010BD00F079F8002009
:1007D00010BD000018440258305F000818000024C3
:1007E0001400002470B50D4D04462878A0B14FF4D4
:1007F0007A71B1FBF0F00A490968B1FBF0F002F040
:10080000CDFA48B9102C07D200222146501E00F024
:1008100065F800206C6070BD012070BD08000024E8
:1008200014000024154BF0B5083B427813491A60B8
:100830000B680A1F23F001030B6043681360057BFC
:10084000C67A827A437B2D07847B45EA0665C77B9F
:1008500090F809C0067A90F800E045EAC24040EA04
:10086000834040EA444040EA074040EA0C2040EA26
:10087000460040EA0E000860F0BD0000A0ED00E078
:10088000BFF35F8F044800210368034A23F48033D9
:10089000036070321160704724ED00E0074A40F0B9
:1008A0000100064970321060086840F4803008602A
:1008B000BFF34F8FBFF36F8F7047000024ED00E050
:1008C000054808B5016841F002010160006800F0C8
:1008D0000200009008BD0000F44402580E4BF0B432
:1008E0001B680D46C3F30223C3F10706042E00D98B
:1008F0000426191D072901D2002300E0DB1E012474
:1009000004FA06F19C40491E2940641E9940144097
:100910002143F0BC03F000BF0CED00E0064900F0FD
:10092000070210B54FF6FF040868044B204040EA68
:1009300002201843086010BD0CED00E00000FA052D
:10094000134970B50A68D243520705D5096801F00A
:100950000701814213D118E00A6822F0070202431E
:100960000A60FFF703FF0A4D4FF47A760446083D0C
:1009700007E000BFFFF7FAFE001BB04201D90120DB
:1009800070BD2868C0438004F4D4002070BD00000E
:100990000C48025810B501F05FF905490968054A8D
:1009A000C1F30211515C01F01F01C84010BD0000ED
:1009B00020440258305F00084A4930B5494C0B1DAD
:1009C0000A680C3409681D68246802F0030305F006
:1009D0000102C1F30511C4F3CC04002914FB02F297
:1009E00000EE102AF8EE400A76D0414A9FED3E1AFA
:1009F000DFED3E1AB7EE000A23B1012B5AD0022BCD
:100A000018D15CE0374C283C23689B0612D5394B43
:100A1000246801EE901A1168C4F3C104F8EE612A4B
:100A2000E34001EE903AC1F30801F8EE611A81EE5D
:100A3000A22A07E002EE101A1168F8EE422A81EEAF
:100A4000A22A45E001EE901A1168F8EE611A40EE14
:100A5000811A71EE800A62EE200AC1F3462101EE8E
:100A6000101AB8EE411A31EE001AC0EE811ABCEE2F
:100A7000E11A80ED001A1168C1F3064101EE101A67
:100A8000B8EE411A31EE001AC0EE811ABCEEE11A3E
:100A900080ED011A1168C1F3066101EE101AB8EE7B
:100AA000411A31EE000A80EE801ABCEEC10A80EDD8
:100AB000020A30BD01EE901ADFED0F2A03E001EECD
:100AC000901ADFED0E2A1168F8EE611A82EEA12A63
:100AD000C1F30801B6E7FFE70021016041608160D2
:100AE00030BD000028440258000000390024744C36
:100AF000304402580090D0030024744A20BCBE4BFE
:100B0000494930B5484C0B1D0A68143409681D6802
:100B1000246802F00303C5F30012C1F30531C4F3E6
:100B2000CC04002914FB02F200EE102AF8EE400A71
:100B300075D03F4A9FED3D1AB7EE000A6BB1DFED6D
:100B40003D1A012B01D0022B64D002EE101A11685D
:100B5000F8EE422A81EEA22A21E0334C283C236899
:100B60009B0612D5344B246801EE901A1168C4F329
:100B7000C104F8EE612AE34001EE903AC1F30801A6
:100B8000F8EE611A81EEA22A0BE001EE901ADFED79
:100B90002B2A00BFF8EE611A116882EEA12AC1F378
:100BA000080101EE901A1168F8EE611A40EE811A00
:100BB00071EE800A62EE200AC1F3462101EE101A9E
:100BC000B8EE411A31EE001AC0EE811ABCEEE11AFD
:100BD00080ED001A1168C1F3064101EE101AB8EE5B
:100BE000411A31EE001AC0EE811ABCEEE11A80ED16
:100BF000011A1168C1F3066101EE101AB8EE411A2C
:100C000031EE000A80EE801ABCEEC10A80ED020AC5
:100C100030BD04E001EE901ADFED092ABAE70021A9
:100C2000016041608160F3E7284402580000003908
:100C3000384402580024744A0090D0030024744CB5
:100C400020BCBE4B494930B5484C0B1D0A681C34CA
:100C500009681D68246802F00303C5F30022C1F38C
:100C60000551C4F3CC04002914FB02F200EE102A53
:100C7000F8EE400A75D03F4A9FED3D1AB7EE000AE4
:100C80006BB1DFED3D1A012B01D0022B64D002EED7
:100C9000101A1168F8EE422A81EEA22A21E0334CA4
:100CA000283C23689B0612D5344B246801EE901A29
:100CB0001168C4F3C104F8EE612AE34001EE903AF2
:100CC000C1F30801F8EE611A81EEA22A0BE001EEF1
:100CD000901ADFED2B2A00BFF8EE611A116882EE40
:100CE000A12AC1F3080101EE901A1168F8EE611A09
:100CF00040EE811A71EE800A62EE200AC1F34621AD
:100D000001EE101AB8EE411A31EE001AC0EE811A47
:100D1000BCEEE11A80ED001A1168C1F3064101EE44
:100D2000101AB8EE411A31EE001AC0EE811ABCEE6C
:100D3000E11A80ED011A1168C1F3066101EE101A83
:100D4000B8EE411A31EE000A80EE801ABCEEC10AFC
:100D500080ED020A30BD04E001EE901ADFED092AB1
:100D6000BAE70021016041608160F3E7284402583E
:100D700000000039404402580024744A0090D00317
:100D80000024744C20BCBE4B2DE9F04FAC4A054604
:100D9000DFF8A8A280F48070DFF8AC9289B013115C
:100DA000AA4C0843A748AAF104064FF0805C4FF014
:100DB00000582CD085F400770F4357D0DFF87CB271
:100DC00085F480670F430BF1080B61D085F4006751
:100DD0000F4374D085F480570F436ED085F40057CD
:100DE0000F434FF480394FF4003E67D085F400275D
:100DF0000F4371D085F480370F436ED085F4804661
:100E00000E436BD085F400420A4368D02AE0DAF83A
:100E1000001001F00701052924D2DFE801F075BCBC
:100E20007D25B10006A8FFF7C7FD079809B0BDE80A
:100E3000F08F6846FFF764FE0098F7E703A8FFF716
:100E400001FF0398F2E72068C0F3C10022FA00F026
:100E5000ECE72268D20571D561456FD11846E5E708
:100E60004145E3D00020E1E74846DFE7DAF800102B
:100E700001F4E07180294FD004DC002944D04029DE
:100E8000F0D188E0C029EFD0B1F5807FEAD177E0DA
:100E9000DBF8001001F46001B1F5800F3CD004DCF8
:100EA00091B3B1F5001FDDD175E0B1F5C00FDBD016
:100EB000B1F5000FD6D163E001E018E030E0DBF8D7
:100EC000001001F0E061B1F1007F25D008DCD9B15C
:100ED000B1F1807FC6D15EE049E06CE079E09CE052
:100EE000B1F1407FC0D0B1F1806FBBD148E0DAF8FA
:100EF000001001F4E041B1F5005F0DD005DC19B13F
:100F0000B1F5805FAED146E094E0B1F5405FABD083
:100F1000B1F5804FA6D133E020688000A2D58DE7DF
:100F2000DAF8001001F4E021B1F5403F6CD006DCA6
:100F300061B149457AD0714594D157E037E0B1F5B8
:100F4000802F65D0B1F5A02F8CD10CE000F0A6FE6B
:100F50006CE76846FFF7D4FD019867E703A8FFF741
:100F600071FE049862E721688903F1D47AE7DBF81F
:100F7000001011F440310ED0494510D07145F5D123
:100F80003168256801F040516D077FF562AF002997
:100F90007FF45FAF57E720680001E7D549E7206895
:100FA0008000E3D503A8FFF74DFE05983EE72268D1
:100FB0009203DBD554E7306810F480303AD04845CE
:100FC000D4D120680001D1D56846FFF799FD029879
:100FD0002CE7DBF8001001F0E041B1F1405F13D0E5
:100FE00008DC71B1614521D04145BFD12068800046
:100FF000B4D437E7B1F1804F0AD0B1F1A04FB2D0ED
:1010000030E7FFF7C7FC11E720684007AED51AE7C5
:101010002068C005AAD521E708E0DAF8001011F031
:101020004051A0D0614505D041459FD120680001C5
:101030008FD417E72068800198D5F3E65044025812
:101040000090D00340787D010080BB00004402582E
:101050002DE9FE4F0546DFF8E48350F8081B002415
:10106000F64FC943019005F12800264608F12408EF
:10107000009008011DD4A86E50B1B0F5801F0CD0AF
:10108000B0F5001F0ED0B0F5401F1ED001240FE0B8
:10109000386840F40030386017E00198022102F00F
:1010A0005DF803E00098022102F0E8F804000CD09B
:1010B00026462888C043C00523D4A86D05281ED223
:1010C000DFE800F00C11161B1B00AA6ED8F8001008
:1010D00021F440111143C8F80010EAE7386840F4E1
:1010E0000030386009E00198002102F037F803E091
:1010F0000098002102F0C2F8044674B100E0012417
:1011000026462888C043800528D4E86D80281ED054
:101110000CDC90B140280ED114E0AA6DD8F8001074
:1011200021F007011143C8F80010EAE7C02813D0E6
:10113000B0F5807F10D001240FE0386840F4003013
:10114000386009E00198002102F008F803E00098F7
:10115000002102F093F804469CB126462888DFF867
:10116000DC92C04309F12C0940052CD4D5F8A80025
:10117000B0F5800F20D00DDCA0B1B0F5001F0FD16D
:1011800015E0EA6DD8F8001021F4E0711143C8F8B9
:101190000010E3E7B0F5C00F13D0B0F5000F10D08A
:1011A00001240FE0386840F40030386009E001980D
:1011B000002101F0D3FF03E00098002102F05EF867
:1011C00004467CB126462888C04300052DD4D5F8B6
:1011D000AC00B0F1007F21D00EDCA8B1B0F1807F6F
:1011E00010D116E0D5F8A820D9F8001021F460013C
:1011F0001143C9F80010E6E7B0F1407F13D0B0F119
:10120000806F10D001240FE0386840F4003038605F
:1012100009E00198002101F0A1FF03E000980021FE
:1012200002F02CF8044674B126462868C0438001B9
:101230001FD4E86CD8B110280FD0202812D0302845
:1012400015D0012414E0D5F8AC20D9F8001021F015
:10125000E0611143C9F80010E7E7386840F4003056
:10126000386004E00198022101F078FF044674B16F
:1012700026462888C043C0042BD4286EB0F5005FF2
:1012800020D00DDCA0B1B0F5805F0FD115E06B4828
:10129000EA6C2030016821F0300111430160E8E779
:1012A000B0F5405F13D0B0F5804F10D001240FE0AF
:1012B000386840F40030386009E00198002101F0FE
:1012C0004DFF03E00098002101F0D8FF04468CB1E7
:1012D00026462888C043800429D4686EB0F5403F74
:1012E00023D010DC08B3B0F5803F14D0B0F5003F38
:1012F0000FD115E02A6ED8F8001021F4E041114317
:10130000C8F80010E5E7B0F5802F0ED0B0F5A02F9B
:101310000BD001240AE00198012101F01FFF03E036
:101320000098012101F0AAFF044694B126462888BE
:10133000C04340042AD4D5F8B000B0F1405F23D0B8
:1013400010DC08B3B0F1805F14D0B0F1005F0FD1B2
:1013500015E06A6ED8F8001021F4E0211143C8F8B6
:101360000010E4E7B0F1804F0ED0B0F1A04F0BD0E9
:1013700001240AE00198012101F0F0FE03E0009849
:10138000012101F07BFF044674B126462888C04342
:1013900000041FD4286FD8B1B0F1805F0ED0B0F137
:1013A000005F10D0012414E0D5F8B020D9F8001067
:1013B00021F0E0411143C9F80010E7E7386840F434
:1013C0000030386004E00198012101F0C7FE0446B6
:1013D00074B126462868C043C0011ED4A86CD0B1A1
:1013E00001280ED0022811D0032814D0012413E0C4
:1013F0002A6FD8F8001021F040511143C8F80010AE
:10140000E8E7386840F40030386004E001980221D1
:1014100001F0A4FE0446ACB126462868DFF81CB0F3
:10142000C043ABF11C0B400252D40548016841F4A3
:1014300080710160FFF79AF9824611E02C4402584E
:1014400000480258FA48AA6C016821F003011143D0
:101450000160E2E7FFF78AF9A0EB0A00642835D8BB
:10146000F4480068C005F5D58CBBDFF8C4A3B5F817
:10147000B4100AF1240ADAF8000001F4407100F413
:101480004070884211D0DAF80010DAF8002021F418
:10149000407142F48032CAF80020DAF8002022F4C9
:1014A0008032CAF80020CAF80010D5F8B400B0F5B0
:1014B000807F1AD1FFF75AF9029012E0FFF756F930
:1014C0000299411A41F2883081420AD90324264602
:1014D0002878DFF85CA3C0430AF1080AC00721D0CE
:1014E0003CE0DAF800008007E8D5D5F8B410C1F385
:1014F0000120032858460DD0016821F47C51016079
:10150000B5F8B420DAF80010C2F30B021143CAF8A0
:101510000010DDE7C84A036802EA111223F47C5187
:101520001143ECE7E86F182816D005DCA0B10828B5
:1015300008D0102804D10AE020280DD028280BD08C
:1015400001240AE00198012101F008FE03E000985F
:10155000012101F093FE044664B126462878C04379
:1015600080071ED4A86F062819D2DFE800F0160CF9
:1015700011161616EA6FDAF8001021F0380111433F
:10158000CAF80010EAE70198012101F0E7FD03E045
:101590000098012101F072FE04467CB100E00124B4
:1015A00026462878C04340071FD4D5F89400062863
:1015B00019D2DFE800F0160C11161616AA6FDAF829
:1015C000001021F007011143CAF80010E9E7019863
:1015D000012101F0C3FD03E00098012101F04EFE5E
:1015E0000446A4B100E0012426462878C0438006C2
:1015F0002BD4D5F89000B0F1405F24D011DC10B3AB
:10160000B0F1805F15D0B0F1005F10D116E0D5F8D1
:101610009420D9F8001021F007011143C9F80010F7
:10162000E3E7B0F1804F0ED0B0F1A04F0BD0012412
:101630000AE00198002101F091FD03E000980221E9
:1016400001F01CFE044694B126462878C0434006AB
:101650002BD4D5F89C00B0F5406F24D011DC10B32A
:10166000B0F5806F15D0B0F5006F10D116E0D5F849
:101670009020DAF8001021F0E0411143CAF8001080
:10168000E3E7B0F5805F0ED0B0F5A05F0BD001248A
:101690000AE00198002101F061FD03E000980221B9
:1016A00001F0ECFD044694B126462878C0430006BC
:1016B0002BD4D5F8A000B0F5C04F24D011DC10B366
:1016C000B0F5005F15D0B0F5804F10D116E0D5F819
:1016D0009C20D9F8001021F4E0511143C9F8001002
:1016E000E3E7B0F5004F0ED0B0F5204F0BD001244A
:1016F0000AE00198002101F031FD03E00098022189
:1017000001F0BCFD044654B126462878C0430007CA
:101710001ED4D5F88400B0F5805F0AD00FE0D5F86C
:10172000A020D9F8001021F460411143C9F800103D
:10173000EBE70098022101F0A1FD00B10126D5F8E8
:101740008420DAF8001021F440511143CAF8001047
:101750002878C043C00613D4D5F89800B0F5807F30
:1017600005D10098022101F089FD00B10126D5F8CC
:101770009820D9F8001021F440711143C9F80010E5
:101780002868C043000316D4D5F8A40038B1B0F5DA
:10179000803F09D0B0F5003F0BD001240AE001984A
:1017A000002101F0DBFC03E00098022101F066FD5E
:1017B00004468CB126462868C043400322D4D5F89D
:1017C0008800B0F5801F11D0B0F5001F13D0B0F520
:1017D000401F15D0012414E0D5F8A420D9F800103A
:1017E00021F440311143C9F80010E4E7386840F4AF
:1017F0000030386004E00098012101F03FFD04460C
:101800005CB126462868C043C00323D4286DA8B124
:10181000B0F5803F17D001241BE0D5F88820DAF816
:10182000001021F440111143CAF80010EAE700004B
:101830004C44025800480258CFFFFF00386840F47B
:101840000030386004E00198022101F087FC044672
:10185000E4B126462868C043800005D400980221E0
:1018600001F00CFD00B101262868C04380031BD4A1
:10187000D5F88000B0B1B0F5807F0FD0B0F5007F13
:1018800010D0B0F5407F0DD001240CE05A482A6DED
:10189000016821F4803111430160DBE7386840F4CE
:1018A00000303860ECB326462868C043C00207D435
:1018B0006A6FD8F8001021F000411143C8F80010F9
:1018C0002868C043C00008D4D5F8B820DBF8001061
:1018D00021F480411143CBF800102868C0438002F6
:1018E00007D4EA6ED8F8001021F080711143C8F8CF
:1018F00000102868C04340000CD4DBF8001021F42D
:101900000041CBF80010DBF80010D5F8BC201143E3
:10191000CBF800102868C04308D437486A6D0168C6
:1019200000E018E021F04051114301602868C043F5
:10193000000208D4D5F88C20DAF8001021F4400118
:101940001143CAF8001028790024C04300F00100B8
:1019500020430AD00FE0D5F88020DAF8001021F4F7
:1019600040711143CAF800109EE70198002101F070
:10197000F5FB00B106462879C04300F00200204381
:1019800005D10198012101F0E9FB00B10646287953
:10199000C04300F00400204305D10198022101F06A
:1019A000DDFB00B106462879C04300F00800204363
:1019B00005D10098002101F061FC00B106462879AC
:1019C000C04300F01000204305D10098012101F030
:1019D00055FC00B106462879C04300F020000443BE
:1019E00004D10098022101F049FC00B916B1012090
:1019F000BDE8FE8F0020FBE74C4402582DE9F05F64
:101A000004000F467ED0DFF83882D8F8000000F0DE
:101A10000F00B8420CD2D8F8001021F00F01394362
:101A2000C8F80010D8F8000000F00F00B84269D1E3
:101A30002078844D40070AD52069296801F070019B
:101A4000884204D9296821F0700101432960207877
:101A50007C4E361D00070AD56069316801F07001BF
:101A6000884204D9316821F0700101433160207847
:101A7000C0060AD5A069316801F4E061884204D942
:101A8000316821F4E061014331602078DFF8B4B1BE
:101A900080060BF1080B0CD5E1695846DBF80020F5
:101AA00002F07002914204D9026822F070020A43E7
:101AB0000260207880070AD5E068296801F00F01EC
:101AC000884204D9296821F00F0101432960207858
:101AD000C0073ED05B49A2682868183920F47060BE
:101AE000104328606068022818D0032819D00968BC
:101AF000012819D0490700294ADADFF848A1AAF1DC
:101B0000080A00E044E0DAF8002022F0070202436D
:101B1000CAF80020FEF72AFE814612E00968890310
:101B2000E9E709688901E6E7C905E4E7FEF71EFE73
:101B3000A0EB090141F28830814202D90320BDE8BF
:101B4000F09F6168DAF8000000F03800B0EBC10FD8
:101B5000ECD1207880070AD5E068296801F00F01F0
:101B6000884204D2296821F00F0101432960D8F886
:101B70000010404601F00F01B9420BD9016821F075
:101B80000F0139430160006800F00F00B84201D036
:101B90000120D4E7207840070AD52069296801F0A0
:101BA0007001884204D2296821F070010143296044
:101BB000207800070AD56069316801F07001884219
:101BC00004D2316821F07001014331602078C006F1
:101BD0000AD5A069316801F4E061884204D2316815
:101BE00021F4E06101433160207880060CD5E16981
:101BF0005846DBF8002002F07002914204D20268DD
:101C000022F070020A43026000F06CF80E492A6864
:101C10002B68C2F3032203F00F038A5CC95C02F055
:101C20001F0201F01F01D040084A20FA01F11160A3
:101C30000749086007480068BDE8F05FFEF7D2BDBD
:101C40000020005218440258305F00081800002499
:101C5000140000240C00002430B500F043F80B4AB7
:101C60000B490C4B15681468C5F3032204F00F04EC
:101C70008A5C095D02F01F0201F01F01D040064A94
:101C800020FA01F119601060084630BD184402586E
:101C9000305F0008180000241400002400B5FFF78E
:101CA000DBFF05490968054AC1F30211515C01F0E7
:101CB0001F01C84000BD00001C440258305F0008EE
:101CC00000B5FFF7C9FF05490968054AC1F30221BC
:101CD000515C01F01F01C84000BD00001C440258C7
:101CE000305F0008454970B545480968434B103BD3
:101CF00011F0380208D00111082A03D0102A0BD0A5
:101D0000182A0BD0084670BD19688906FBD51968DA
:101D1000C1F3C101C84070BD3A4870BD3749374D65
:101D200018310C1D24350A68096826682D6802F0F0
:101D3000030406F00102C1F30511C5F3CC0515FB40
:101D400002F200EE102AB8EE400AE9B32F4ADFEDA6
:101D50002E0AB7EE001A6CB1DFED2D1A012C01D05E
:101D6000022C43D002EE101A1068F8EE422A81EEDF
:101D7000A22A1EE01C68A40611D51B6801EE901A69
:101D80001168C3F3C103F8EE612AD84001EE900A4E
:101D9000C1F30800F8EE611A81EEA22A0BE001EE11
:101DA000901ADFED1C2A00BFF8EE611A106882EE6F
:101DB000A12AC0F3080001EE900AF8EE611A40EE85
:101DC000201A31EE810A00E015E022EE000A1068C8
:101DD000C0F34620401C00EE900AF8EE600A80EE48
:101DE000201ABCEEC10A10EE100A70BD01EE901A66
:101DF000DFED092AD8E7002070BD0000104402582A
:101E00000090D00340787D01000000393044025832
:101E10000024744A0024744C20BCBE4B2DE9F05FB2
:101E200004007DD0FF4F2078FE4D1837DFF8F49383
:101E3000103DC00748D0D9F80000396800F03800DC
:101E4000102815D0182803D101F0030002280FD064
:101E50006068B0F5803F12D010B1B0F5A02F18D057
:101E6000286820F480302860286820F4802009E069
:101E70002868800328D560680028D2D024E028682C
:101E800040F480302860606888B1FEF76FFC064639
:101E900009E0286840F480202860F0E7FEF766FC3F
:101EA000801B64286FD828688003F7D50CE0FEF704
:101EB0005DFC064605E000BFFEF758FC801B642869
:101EC000F0D828688003F7D4207841F20308D54E73
:101ED0000C3E800769D5D9F80000396810F0380049
:101EE0000ED0182801D188070AD0E06890B329687D
:101EF00021F0190101432960FEF738FC824631E0E8
:101F00002868400702D5E06800288AD0E168286880
:101F100020F0190008432860FEF728FC824607E0FD
:101F2000DFE000BFFEF722FCA0EB0A000228B9D8D0
:101F300028684007F6D500BFFEF712FC40451BD8C5
:101F40002069402812D0316821F47C3141EA003008
:101F500030602AE018E000BFFEF708FCA0EB0A00A2
:101F600002289FD828684007F6D5E5E7306820F4B6
:101F70007C3040F40030EBE7207C316821F0FE41FA
:101F800041EA0060E4E70DE1286820F001002860E4
:101F9000FEF7ECFB824605E0FEF7E8FBA0EB0A004B
:101FA00002288DD828684007F6D42078C0065DD571
:101FB000D9F80000DFF86CB2396800F03800ABF1F6
:101FC000040B082810D0182803D101F003000128C1
:101FD0000AD0E0690028286838D040F080002860E6
:101FE000FEF7C4FB824623E02868C00523D5E069DC
:101FF000802876D11FE0206A202821D0316821F086
:10200000F84141EA8060306030E000BF94F8201071
:10201000DBF8002022F07C5242EA0161CBF800108C
:1020200024E000BFFEF7A2FBA0EB0A00022898D82C
:102030002868C005F6D5FEF793FB4045E6D8DAE7F9
:10204000306820F0F84040F08040DCE720F080006D
:102050002860FEF78BFB064605E000BFFEF786FB17
:10206000801B02289DD82868C005F7D42078000777
:1020700029D56C486169643000298046016811D017
:1020800041F001010160FEF771FB064605E000BF6B
:10209000FEF76CFB801B0228C9D8D8F80000800727
:1020A000F6D510E021F001010160FEF75FFB064666
:1020B00005E000BFFEF75AFB801B022872D8D8F853
:1020C00000008007F6D42078800623D5A069002878
:1020D000286810D040F480502860FEF747FB064681
:1020E00005E036E1FEF742FB801B02285AD828683B
:1020F0008004F7D50EE020F480502860FEF736FB10
:10210000064604E0FEF732FB801B02284AD8286806
:102110008004F7D4207840074FD5DFF80C81D8F839
:10212000001041F48071C8F80010FEF71FFB06464E
:1021300005E000BFFEF71AFB801B642832D8D8F8F0
:102140000000C005F6D5374EA068603601280AD0D9
:1021500008B1052813D0306820F0010030603068E5
:1021600020F0040002E0306840F001003060A06818
:1021700041F2883A90B1FEF7F9FA80460AE03068F9
:1021800040F004003060EEE7FEF7F0FAA0EB080143
:10219000514507D830688007F6D50EE0FEF7E6FA1D
:1021A000804607E084E000BFFEF7E0FAA0EB0801FC
:1021B00051457DD830688007F6D4606AB0B3DFF847
:1021C0006480D9F8001008F120084FF6F87B08F178
:1021D0000409C1F3C2010329A8F1040A69D0022845
:1021E000286820F08070286003D0FEF7BFFA04460C
:1021F00084E0FEF7BBFA064605E000BFFEF7B6FA3C
:10220000801B022877D828688001F7D4E26A40F260
:10221000F331386854F8283F884340EA02101843E5
:10222000386004E01044025800480258B5E0217BB1
:10223000434622894FF4FE0C208A4FF0FE474902A4
:10224000267D521E401EA1F50071C2F308088AB215
:10225000761E0CEA004042EA08020243504607EAB2
:1022600006610A431A60DAF8002022F00102CAF877
:102270000020D9F80020266A22EA0B0242EAC602B0
:10228000C9F80020DAF80010A26921F00C0111430E
:10229000CAF800100168E26921F0020111430160EF
:1022A000016841F480310160016841F4003101E0CE
:1022B00021E027E00160016841F4802101600168AC
:1022C00041F001010160286840F080702860FEF74D
:1022D0004DFA044605E000BFFEF748FA001B02284D
:1022E00009D828688001F7D557E000BFFEF73EFA0D
:1022F000001B022802D90320BDE8F09F2868800156
:10230000F4D44AE039680128D8F8000021D0A26A44
:1023100001F0030393421CD1E26AC1F305118A4222
:1023200017D1216BC0F30802491E8A4211D1616B9B
:10233000C0F34622491E91420BD1A16BC0F3064265
:10234000491E914205D1E16BC0F30660491E8142EE
:1023500001D00120D0E7A16C4E46D9F80000C0F3AF
:10236000CC00814219D0DAF80000554620F0010077
:10237000CAF80000FEF7FAF94FEA0007FEF7F6F98F
:10238000B842FBD0A26C306820EA0B0040EAC200E1
:102390003060286840F0010028600020ACE70000B1
:1023A0002DE9FC5F0446806B0E46032184F8301053
:1023B000002703285CD0B6F5004F59D0B6F5804F02
:1023C0004FF000054FF400684FF0806904D006B369
:1023D000606B40F000603FE00095002101952068AF
:1023E00001F028FB80011CD46946204601F06AFBFD
:1023F00070BB019840032DD5B4F84410206809043F
:1024000000F0CCFF20BB206802211DE0606B284358
:1024100022E0009500210195206801F00BFB80016E
:1024200001D54546F2E76946204601F04BFB78B9F5
:102430000198C0030ED5B4F844102068090400F0D8
:10244000ADFF28B92068002100F0F2FF0028DDD0A0
:102450000546DBE74D46D9E76063606B4FF4007BD0
:10246000DFF8B8A040B121680127C1F838A042E0E8
:10247000606B40F08050EFE700214FF48030FEF7B2
:1024800083FC010032D0264D3346D4E904C0B1FBB1
:10249000F5F8D4E90192804510D9A66D5E450DD0BE
:1024A000B6F5807F11D04FEA6506E0B14FEA4008EB
:1024B000B1FBF8F8B04501D9B1FBF5F04946CDE9DB
:1024C00000C0206801F0BAFA15E0164E30B14FEAAC
:1024D0004008B1FBF8F8A84502D8EFE7A942EDD9CA
:1024E000B1FBF6F0EAE7B142E6D8E7E7606B012717
:1024F00040F0006060632068594600F080FF30B112
:1025000022680127C2F838A0616B01436163012092
:1025100084F830003846BDE8FC9F0000FF0FE01F44
:1025200080F0FA0200E1F505F0B5C26D920F0A7075
:10253000C26DC2F383624A70C26DC2F301628A70D7
:10254000C26D120CCA70B0F85C20120A0A7190F8C1
:102550005C204A71026E120DCA80026EC2F3034201
:102560000A72B0F86020C2F3C0324A72B0F860203C
:10257000C2F380328A72B0F86020C2F34032CA726D
:10258000B0F860200026C2F300320A734E730122B5
:10259000836B4FF4007463B1012B3AD00368504948
:1025A0009963416B41F08051416380F830200120F4
:1025B000F0BDB0F86030456E9B051B0D43EA957386
:1025C0000B61436EC3F3C2630B75436EC3F30263C7
:1025D0004B75436EC3F342538B75436EC3F3824313
:1025E000CB75436EC3F3C2330B760D696D1C8564E6
:1025F0000B7E03F007039B1C9D4085640B7A4465AA
:1026000003F00F0302FA03F35F0A7D43C0E91335B9
:102610000EE090F86050436EAD06AD0A45EA1343F4
:102620000B610B695B1C9B028364C0E91343446527
:10263000B0F86430C3F380334B76B0F86430C3F342
:10264000C6138B7690F8643003F07F03CB76836EED
:10265000DB0F0B77836EC3F341734B77836EC3F34A
:1026600082638B77836EC3F38353CB77836EC3F31D
:10267000405381F8203081F82160836EC3F300431A
:1026800081F82230B0F86830C3F3C03381F82330CA
:10269000B0F86830C3F3803381F82430B0F8683084
:1026A000C3F3403381F82530B0F86830C3F300330A
:1026B00081F82630B0F86830C3F3812381F82730E1
:1026C000B0F86830C3F3012381F8283090F868002F
:1026D000C0F3460081F8290081F82A200020F0BDCF
:1026E000FF0FE01F826B0A60C26B4A60026C8A6057
:1026F000426CCA60826C0A61C26C4A61026D8A6176
:10270000406DC8610020704770B5B0F844100025D6
:1027100004460068090400F078FF18B1616B0143BA
:10272000616304E02068002101F084F90546C5F3E7
:10273000432070BD2DE9F041054690F8300090B07F
:102740000C460026032810D06946284601F002FBFB
:102750002A4F4FF0010860B12A68012697636A6B1F
:1027600002436A6385F8308039E0012010B0BDE88B
:10277000F08100994FF47F40C1F3811121700099DD
:10278000C1F340116170009900EA112242EA11611F
:102790006180019909BA6160029921720299090A5E
:1027A00061720299C1F30351A172DDE9022100EACD
:1027B0001240C9B20843A0810398C0F38520A073DA
:1027C0000398C0F30120E0730398C0F30310207452
:1027D000039800F00F0060740498000EA07428683D
:1027E0004FF4007100F00BFE28B12A6801269763B0
:1027F000686385F830803046B8E70000FF0FE01FBF
:10280000F0B5040085B020D094F83000002518B948
:102810002046257600F098F8042084F83000204601
:1028200000F03CF888B969462046FFF783FF60B99D
:102830009DF81010A26B9DF81100012A08D0A56523
:102840002046E168FFF7ACFD58B1012005B0F0BDAE
:10285000014302D04FF4007001E04FF48070A06596
:10286000EEE7FDF783FF0127064604E0FDF77EFF54
:10287000801B401C0AD02046FFF746FF0428F5D1F4
:102880006563E56284F830700020DFE74FF00040B8
:10289000606384F830700320D8E700002DE9FC4124
:1028A0004FF0000804464FF480304146FEF76CFAC2
:1028B00005004FF0010723D02048434642464146D9
:1028C000B5FBF0F6CDE90086206801F0B7F8206886
:1028D00001F0C4F81EB17000B5FBF0F52DB1184839
:1028E000B0FBF5F0401CFDF713FE204601F0D8F9CF
:1028F00060B100BF84F83070616B0143616319E01F
:102900004FF0006084F83070606313E0204601F0FF
:102910004BF90028EED120684FF4007100F06FFDF4
:10292000002808D0226807499163616B0143616305
:1029300084F830700120BDE8FC81000000350C00F7
:1029400010210100FF0FE01FF0B5B7B004461421BD
:1029500030A8FDF7FBFCC0216846FDF7F7FC2349D2
:10296000206888423FD1002014904FF48031044603
:10297000CDE900106846FEF76BFB08B1FDF794FD4A
:102980001B48016841F480310160006800F4803028
:10299000359017480C30016841F00401016001686E
:1029A00001F004013591016841F0080101600068FF
:1029B000022532AA00F0080035904FF4F850CDE916
:1029C000300503260B480C2782E8D00030A9FDF71C
:1029D000B1FD042032AACDE93005074830A982E8CC
:1029E000D000FDF7A7FD37B0F0BD00000070005229
:1029F000D444025800080258000C02582DE9F04F48
:102A000087B0994617460D460446FDF7AFFE06907F
:102A10003DB194F83000012807D0606B40F00050C1
:102A20000DE0606B40F0006009E0226D002007EBD4
:102A300009016063914204D9606B40F000706063EB
:102A4000A8E0032184F830102168C862A16B012935
:102A500000D07F024FF0020ACDE903A090264FF08C
:102A6000FF324FEA492305908DE84C0080462068EC
:102A7000694600F075FE2068B9F1010F4FF00106BC
:102A8000C16841F04001C16006D9C4F82CA03946A4
:102A9000206800F025FD04E0E6623946206800F079
:102AA00039FDDFF814A150B12368C3F838A0616B79
:102AB0000143616384F83060C4F82C806AE0DDF87B
:102AC00004B01FE0406B000414D5BBF1200F11D3FC
:102AD0000027206800F0C8FF020A2870010C6A7005
:102AE000030EA9707F1CEB70082F05F10405F0D3CD
:102AF000ABF1200BFDF73AFE0699411A109881427E
:102B000021D200B32068416B11F4957FDAD0C168FF
:102B100021F04001C1602068416BC90522D5B9F19F
:102B2000010F1FD9A16B03291CD000F0BBFDC8B158
:102B30002368C3F838A0626B0243626384F8306094
:102B4000C4F82C8026E02268C2F838A0606B40F000
:102B50000040606384F83060C4F82C80032007B024
:102B6000BDE8F08F2068416B090706D5C0F838A092
:102B7000616B404641F0080108E0416B89070BD5C5
:102B8000C0F838A0616B404641F00201616384F8EF
:102B90003060E0620120E2E7416B890606D5C0F8AB
:102BA00038A0616B404641F02001EFE703498163A3
:102BB00084F830600020D2E7FF0FE01F3A0F0018C2
:102BC0002DE9F04F89B09A4616460D460446FDF7AA
:102BD000CDFD06903DB194F83000012807D0606B20
:102BE00040F000500DE0606B40F0006009E0226DA5
:102BF000002006EB0A016063914204D9606B40F04B
:102C000000706063B2E0032184F830102168C8626C
:102C1000A16B012900D076024FF0FF314FEA4A2222
:102C2000059090230490CDE90230CDE90012804652
:102C30002068694600F094FD2068C168BAF1010F70
:102C400041F04002C26006D92020E062206831468F
:102C500000F052FD05E01020E0622068314600F0EF
:102C600065FDDFF830B106004FF001090AD0236896
:102C7000C3F838B0606B3043606384F83090C4F8B8
:102C80002C8073E00198089027E0406B40041CD52D
:102C90000898202819D3002728780790697840EAF7
:102CA00001200790A97840EA01400790E9782D1D9E
:102CB00040EA01600790206807A900F0EDFE7F1C44
:102CC000082FE9D3089820380890FDF74FFD0699A2
:102CD000411A1298814221D200B32068416B11F44D
:102CE0008D7FD2D0C16821F04001C1602068416B66
:102CF000C90521D5BAF1010F1ED9A16B03291BD03B
:102D000000F0D0FCC0B12568C5F838B0616B014354
:102D1000616384F83090C4F82C8027E02368C3F8FE
:102D200038B0626B3243626384F83090C4F82C8010
:102D3000032009B0BDE8F08F2068416B090707D573
:102D40004946C0F838B0626B404642F0080209E0DC
:102D5000416B89070CD54946C0F838B0626B4046D4
:102D600042F00202626384F83010E0620120E0E782
:102D7000416BC90607D54946C0F838B0626B40467A
:102D800042F01002EEE7044A826384F8309000209B
:102D9000CFE70000FF0FE01F3A0F0018401EB0F110
:102DA000807F10B501D3012010BD4FF0E024606199
:102DB0000F21601701F0B0FC0020A0610721216104
:102DC00010BD30B590F88410012918D0012280F888
:102DD00084202421C0F888100022202401680B6878
:102DE0000D6823F0005325F001050D60426601686F
:102DF0000B60C0F8884080F88420104630BD022067
:102E000030BD70B5044690F8840001281DD0012221
:102E100084F884202420C4F88800206805680268AB
:102E200022F0010202602068826822F060620A4398
:102E30008260204601F038F92268202100201560C8
:102E4000C4F8881084F8840070BD022070BD70B58D
:102E5000044690F8840001281DD0012284F88420C3
:102E60002420C4F8880020680568026822F0010266
:102E700002602068826822F060420A438260204635
:102E800001F012F92268202100201560C4F8881092
:102E900084F8840070BD022070BD10B5040003D01A
:102EA000D4F8880010B107E0012010BD002084F89C
:102EB0008400204600F026F82420C4F8880020680A
:102EC000016821F001010160A06A10B1204601F003
:102ED0000DF9204601F0EEF90128E6D0206841689E
:102EE00021F4904141602068816821F02A018160CD
:102EF0002068016841F0010101602046BDE81040F2
:102F000001F058B910B5B6B00446142130A8FDF749
:102F10001DFAC0216846FDF719FA19492068884250
:102F20002BD100201F9001210446CDE900106846F6
:102F3000FEF78EF808B1FDF7B7FA1248016841F0C4
:102F400010010160006800F0100035900D48103845
:102F5000016841F002010160006830AB022100F01D
:102F6000020035904FF44040042283E813000648E5
:102F700030A9CDE93342FDF7DDFA36B010BD0000CF
:102F800000100140F0440258000402582DE9F843B3
:102F90000446D0F88800984616460D46202802D0F0
:102FA0000220BDE8F883A5B19EB10021C4F89010BD
:102FB0002120C4F888001834FDF7D8FB814654F866
:102FC000100CA687E6872027183CB0F5805F02D05A
:102FD00003E00120E5E7206910B12E46002510E04E
:102FE00000260EE08021204601F03AFBC0B9DEB198
:102FF00016F8010B21688862B4F85600401EA4F848
:103000005600B4F856004B464FF00002CDF8008051
:103010000028E7D14FF04001204601F021FB48B1E4
:10302000C4F888700320BCE735F8020B2168C0F3B0
:103030000800E0E7C4F888700020B2E7FEE700006F
:103040000449054810B5FDF73FFA0249491E0870CA
:1030500010BD000002000024F45E0008154808B509
:10306000016841F004010160016801F00401009170
:10307000016841F080010160016801F08001009168
:10308000016841F002010160016801F00201009154
:10309000016841F001010160016801F00101009146
:1030A000016841F008010160006800F0080000902C
:1030B00008BD0000E04402580B4800214FF4804353
:1030C00010B5084C0622C0E90041C0E90213C0E96E
:1030D0000412FFF795FB002803D0BDE81040FDF770
:1030E000E3B910BD007000522800002418480021E8
:1030F00010B5164C0C224FF4E1330460C0E90131E5
:10310000C160C0E904128161C161016241628162F2
:10311000FFF7C3FE08B1FDF7C7F90D480021FFF71F
:1031200096FE08B1FDF7C0F909480021FFF769FED6
:1031300008B1FDF7B9F90648FFF743FE002803D0B0
:10314000BDE81040FDF7B0B910BD0000001001400F
:10315000A4000024FEE7FEE7704700002DE9F047D9
:10316000454D044689464FF0000A2868C043800751
:103170000AD0414E283E306820F080603060FDF774
:10318000F5FA0746B04608E00120BDE8F08700BF29
:10319000FDF7ECFAC01B022867D8D8F80000000140
:1031A000F6D4206829684FF4FE0721F47C313E02F2
:1031B00041EA00302860207AA389B4F804C04002B4
:1031C0002D4D2D495B1E227CACF1010C1035091DE3
:1031D000A0F5007080B2521ECCF3080C07EA03433E
:1031E00040EA0C00184306EA0262104328600868AF
:1031F000626920F0C000104308600A68A06922F0EC
:10320000200202430A60281D0A6822F010020A60A8
:1032100002684FF6F873E4699A4342EAC402026016
:103220000868B9F1000F40F010020A6011D0086878
:10323000B9F1010F11D040F400100860D8F8000077
:10324000444640F08060C8F80000FDF78FFA05465C
:103250000DE0086840F40020EFE740F48010ECE750
:10326000FDF784FA401B022801D903208DE720686E
:103270000001F5D5504688E7284402582DE9F0476B
:10328000454D044689464FF0000A2868C043800730
:103290000AD0414E283E306820F080503060FDF763
:1032A00065FA0746B04608E00120BDE8F08700BF98
:1032B000FDF75CFAC01B022867D8D8F80000800030
:1032C000F6D4208829684FF4FE0721F07C713E0275
:1032D00041EA00502860207AA389B4F804C0400273
:1032E0002D4D2D495B1E227CACF1010C1835091DBA
:1032F000A0F5007080B2521ECCF3080C07EA03431D
:1033000040EA0C00184306EA02621043286008688D
:10331000626920F44060104308600A68A06922F4E2
:10332000007202430A60281D0A6822F480720A6053
:1033300002684FF6F873E4699A4342EAC4020260F5
:103340000868B9F1000F40F480720A6011D0086873
:10335000B9F1010F11D040F080700860D8F800007A
:10336000444640F08050C8F80000FDF7FFF90546DC
:103370000DE0086840F48000EFE740F40000ECE75F
:10338000FDF7F4F9401B022801D903208DE72068DE
:103390008000F5D5504688E72844025830B585B0FE
:1033A000044637204FF480720DF1080CCDE900106F
:1033B00000236946150120468CE82C0000F058FBDC
:1033C000372141F28832204600F0DEF905B030BDE9
:1033D00030B585B0044629204FF480720DF1080CF9
:1033E000CDE9001000236946150120468CE82C0029
:1033F00000F03EFB204600F083FA05B030BD30B54A
:103400000446102085B00DF1080C02010502CDE93B
:103410000010002369468CE82C00204600F028FBB1
:10342000102141F28832204600F0AEF905B030BDDF
:1034300030B585B0044606204FF480720DF1080CBB
:10344000CDE9001000236946150120468CE82C00C8
:1034500000F00EFB062141F28832204600F094F97C
:1034600005B030BD30B585B00546002469464FF43F
:103470008050009401940294CDE90340284600F066
:10348000F7FA0B4A4FF4FA5041F288311268B2FB56
:10349000F0F04843401E03D24FF0004005B030BD6D
:1034A000696B0906F6D503492046A963F6E70000D3
:1034B00014000024C500200030B50821044685B062
:1034C0004FF4D5704A0100234D028DE82F00694664
:1034D000204600F0CDFA204600F07CFA05B030BD61
:1034E00030B585B0044612204FF480720DF1080CFF
:1034F000CDE9001000236946150120468CE82C0018
:1035000000F0B6FA122141F28832204600F03CF970
:1035100005B030BD30B585B0044611204FF480723F
:103520000DF1080CCDE90010002369461501204675
:103530008CE82C0000F09CFA112141F288322046E0
:1035400000F022F905B030BD30B585B00446072043
:103550004FF480720DF1080CCDE90010002369468C
:10356000150120468CE82C0000F082FA072141F278
:103570008832204600F008F905B030BD10B585B09E
:103580000446002102204FF44072C3020493CDE9A7
:103590000010CDE902216946204600F069FA204674
:1035A00000F084F905B010BD30B585B0044609209F
:1035B0000DF1080C0023CDE900104FF4407269466C
:1035C0004FF4805520468CE82C0000F051FA20463C
:1035D00000F06CF905B030BD10B585B0044600218F
:1035E00033204FF48072CDE90221CDE900101301A0
:1035F00069462046049300F03BFA332141F28832B9
:10360000204600F0C1F805B010BD30B585B00446C5
:103610000D204FF480720DF1080CCDE9001000234D
:103620006946150120468CE82C0000F021FA0D2196
:1036300041F28832204600F0A7F805B030BD30B521
:1036400085B00C460021054603204FF48072CDE979
:103650000221CDE90010130169462846049300F0C9
:1036600007FA03212246284600F06EF905B030BD66
:1036700010B585B0044600210D204FF48072CDE9CD
:103680000221CDE90010130169462046049300F0A1
:10369000EFF90D2141F28832204600F075F805B0AF
:1036A00010BD000010B585B004464FF480720020B4
:1036B0000C2113018DE80700CDE90303E06840F019
:1036C0008000E060E06820F04000E060694620464D
:1036D00000F0CEF9074A0C21204600F055F8E168C9
:1036E000B0F1007F21F08001E16000D1002005B041
:1036F00010BD000000E1F50530B585B00446192085
:103700004FF480720DF1080CCDE9001000236946DA
:10371000150120468CE82C0000F0AAF9192141F28D
:103720008832204600F030F805B030BD30B585B0A5
:10373000044618204FF480720DF1080CCDE90010FA
:1037400000236946150120468CE82C0000F090F912
:10375000182141F28832204600F016F805B030BD3D
:1037600070B50A6842624A688262C46AD1E9022579
:10377000D1E9043624F0FF012A4333431A431143AD
:10378000C162002070BD000030B5464D4FF4FA53C1
:10379000434C2D68B5FBF3F353435B1E02D24FF04D
:1037A000004030BD426B2242F7D09204F5D4426B08
:1037B000520703D504218163084630BD426BD2070E
:1037C00002D00121816306E0354A803282630269BA
:1037D000D2B28A4201D0012030BD002100F02AF986
:1037E0003149084201D1002030BD002802DA4FF0F3
:1037F000007030BD410001D5402030BD810001D5B1
:10380000802030BDC10002D54FF4807030BD010171
:1038100002D54FF4007030BD410102D54FF48060F5
:1038200030BDC10102D54FF4006030BD010202D5A8
:103830004FF4805030BD410202D54FF4005030BDEE
:10384000810202D54FF4804030BDC10202D54FF451
:10385000004030BD410302D54FF4003030BD81033C
:1038600002D54FF4802030BDC10302D54FF40020B3
:1038700030BD010402D54FF4801030BD410402D5A3
:103880004FF4001030BD810402D54FF4800030BDEC
:10389000000702D54FF4000030BD4FF4803030BD3A
:1038A000450020001400002408E0FFFD124B4FF4F7
:1038B000FA5141F288321B68B3FBF1F15143491EC2
:1038C00002D24FF000407047426B12F0450FF6D025
:1038D0009204F4D4416B490703D50421816308465F
:1038E0007047416BC90703D00121816308467047C7
:1038F000024981630020704714000024C5002000A5
:103900000F4B4FF4FA5141F288321B68B3FBF1F1CF
:103910005143491E02D24FF000407047426B12F0F3
:10392000450FF6D09204F4D4416B490703D5042126
:103930008163084670470349816300207047000097
:1039400014000024C500200030B5204D4FF4FA5378
:1039500041F288342D68B5FBF3F363435B1E02D25A
:103960004FF0004030BD446B14F0450FF6D0A40476
:10397000F4D4436B5B0703D504218163084630BD53
:10398000436BDB0702D00121816303E00369DBB2F3
:103990008B4201D0012030BD0D498163002100F030
:1039A00049F810F4604F04D0410406D54FF400509C
:1039B00030BD000C1080002030BD000402D54FF453
:1039C000805030BD4FF4803030BD00001400002422
:1039D000C5002000144B4FF4FA5141F288321B68A5
:1039E000B3FBF1F15143491E02D24FF00040704742
:1039F000426B12F0450FF6D09204F4D4416B4907A4
:103A000003D50421816308467047416BC90703D081
:103A10000121816308467047416B490601D5402169
:103A2000816300207047000014000024006800F04B
:103A300003007047084440697047000030B51143E7
:103A40004268DDE903542B43034D194321432A40C7
:103A50000A434260002030BD002CC0FF016841F0E5
:103A60000301016000207047D0F88000704700001B
:103A700070B5084D0A688260C368D1E90126D1E9B2
:103A800003412B4032430C4322431343C3600020C5
:103A900070BD0000C0E0FEFF0968C0F88010002083
:103AA0007047000010B5064C01202070FCF7AEFCFA
:103AB00018B9207820F001002070207810BD000097
:103AC000000000242DE9F04F87B00D460446FCF7B6
:103AD0004DFE0026069020680821B3463746FFF7C2
:103AE0008EFC002833D1B4F8441020680904FFF795
:103AF00055FC00282BD1431E4FF008094FF0020A55
:103B00004FF0300C4FF00108CDF80CA08DE80812F2
:103B1000CDE9046820686946FFF722FE2068FFF7B8
:103B20005BFD002813D140F22A582068416B11EA4E
:103B3000080F06D1416B090315D4BBF1000F09D062
:103B400011E0416B090717D5C0F83890082007B07D
:103B5000BDE8F08FFFF788FF06462068FFF784FF77
:103B600007464FF0010BFCF701FE0699401A401C76
:103B7000DBD14FF00040EAE7416B890703D5C0F87D
:103B800038A00220E3E7416B890603D52021816339
:103B90000846DCE7034A39BA33BA82630020C5E934
:103BA0000013D4E73A0F001870B58CB0044600201B
:103BB000ADF82C00FCF7DAFD05462068FFF736FF6C
:103BC000002853D0A06B032841D02068FFF7D6FC13
:103BD000002849D120680021FFF72CFFE06604216E
:103BE0002068FFF727FF206708212068FFF722FFE2
:103BF00060670C212068FFF71DFFA16BA0670329F8
:103C000025D041F2883600BFBDF82C0088B3A06BE8
:103C100003281CD0BDF82C10616420680904FFF74C
:103C2000C3FC002820D120680021FFF703FFE065D6
:103C300004212068FFF7FEFE206608212068FFF7B8
:103C4000F9FE60660C212068FFF7F4FEA0660421EF
:103C50002068FFF7EFFE000D694620642046FEF75E
:103C600063FCA8B14FF080500CB070BD4FF0806085
:103C7000FAE7FFE720680BA9FFF7E1FC0028F3D182
:103C8000FCF774FD401BB042BED34FF00040EBE7A1
:103C9000B4F8441020680904FFF756FCE4E700007C
:103CA0002DE9F84F002604463546B04600960068D8
:103CB000FFF7D8FB002829D12068FFF7FDFBB0F102
:103CC000004F4FF001094FF0805B4FF6FF7702D0B5
:103CD000C4F83C9008E0E6632068FFF7C3FB0028C7
:103CE00014D1E06B01281ED120680021FFF756FB9C
:103CF00058B918E020680021FFF750FB002805D1D3
:103D000020685146FFF764FB10B15846BDE8F88FB4
:103D100020680021FFF78EFE4FEAD0780546009814
:103D2000401C009002E0DFF828A00098B84202D2C0
:103D3000B8F1000FDED00098B84202D34FF0807087
:103D4000E4E76800A66301D5C4F838900020DDE7F9
:103D5000000010C12DE9F04186B00D460446FCF785
:103D600005FD002107462068FFF764FE800104D5A9
:103D70004FF4006006B0BDE8F08120684021FFF7F5
:103D80003EFBC0B9B4F8441020680904FFF706FBF5
:103D900088B940214FF0FF3060224FF0010C022320
:103DA00000268DE84F1020686946FFF7D9FC20688F
:103DB000FFF75EFC98B1616B6163DBE7406B000469
:103DC00007D500262068FFF74FFE761C082E01C598
:103DD000F8D3FCF7CBFCC01B401C02D127E04FF00E
:103DE00000482068416B11F4957FE7D0416B0907CB
:103DF00001D50820BEE7416B890701D50220B9E74C
:103E0000406B80060AD52020B4E700BFFFF72CFEE8
:103E100001C5FCF7ABFCC01B401C08D02068416BFF
:103E2000C904F3D40146034888630020A2E7404652
:103E3000A0E700003A0F001870B5064C05460120B7
:103E40002070FCF7EFFA18B92846FFF72BFE207018
:103E5000207870BD00000024144810B58AB01446C4
:103E60000078C00702D003200AB010BD39B1012983
:103E700007D002290BD0032910D00420F4E700203A
:103E8000F2E76846FCF7BCFA069900200CE06846A9
:103E9000FCF7B6FA079900202180E5E76846FCF7B1
:103EA000AFFA07990020490A2160DDE700000024ED
:103EB00070B501241D4616460846A31E2A46314603
:103EC000FCF7D0FA28B900BFFCF7A0FA0028FBD114
:103ED0000024204670BDFFF7E5BD000070B5012449
:103EE0001D4616460846A31E2A463146FCF7CAFA66
:103EF00028B900BFFCF78AFA0028FBD1002420462D
:103F000070BD7047FCF738BC30B59DB04C21684699
:103F1000FCF71CFA202113A8FCF718FA0220FCF782
:103F20000FFD214800242149026842F4404202600A
:103F300002680A6842F001020A60096801F00101A2
:103F40001B9101688904FCD53C2302200090402588
:103F50000495042101220392CDE90904CDE90B1354
:103F6000CDE90D010FA90C2281E8150068461294D5
:103F7000FDF754FF08B172B6FEE708221A95CDE9A5
:103F80001625D30113AA3F200321CDE9185382E857
:103F90001300042113A8FDF731FD002801D072B6EB
:103FA000FEE71DB030BD0000184802582C04005830
:103FB0003348F0B5334A016841F47001016010687C
:103FC00000F00F00072804D2106820F00F00C01D79
:103FD00010602D4900202C4C10340B682B4D43F001
:103FE00001030B6020600B682B400B60136803F02B
:103FF0000F03072B04D9136823F00F03DB1D136095
:10400000214C234A1834234B261D371D20601E4C9B
:10401000214D28343060261D3860371D23603B1D3C
:1040200035601C1D3A60251D2E1D1860331D226051
:104030002860326018600A68134B184C22F4802202
:1040400060330A60186020686FF30F00B0F1005F02
:1040500003D213490120C1F808010B48D43001688C
:10406000C9040BD4026843F2D2010E4B42F48052D1
:1040700002601960016821F480510160F0BD000008
:1040800088ED00E000200052004402587FEDF6EA7F
:1040900080020101000202020000FF010010005C2A
:1040A000008000510040005230B5416EB9B1016846
:1040B0000D4B03F108048A688968C2F34262490F14
:1040C0005D5C615C2D01B5FBF1F1A0F86A10995CB3
:1040D000A25C0901B1FBF2F1A0F8681030BD01212A
:1040E000A0F86A10F8E70000205F000890F8281098
:1040F000090706D50168836B4A6822F400421A4317
:104100004A6090F82810C90706D00168C36A4A6857
:1041100022F400321A434A6090F82810890706D525
:104120000168036B4A6822F480321A434A6090F8AF
:104130002810490706D50168436B4A6822F480229B
:104140001A434A6090F82810C90606D50168C36B67
:104150008A6822F480521A438A6090F828108906EF
:1041600006D50168036C8A6822F400521A438A60FB
:1041700090F82810490611D50168436C4A6822F46A
:1041800080121A434A60416CB1F5801F06D1016864
:10419000836C4A6822F4C0021A434A6090F82810DF
:1041A000090606D50168C26C486820F40020104357
:1041B000486070472DE9F84300250446C0F8905048
:1041C000FCF7D4FA8046206820266FF07E4700680E
:1041D000000713D50022434631042046009700F023
:1041E0003FFA58B1216851E8000F20F0800041E803
:1041F0000002002AF6D1C4F8886021E02068006837
:10420000400722D5002243464FF480012046009704
:1042100000F026FAC8B1206850E8001F21F4907120
:1042200040E80012002AF6D12068083050E8001F4C
:1042300021F0010140E80012002AF5D1C4F88C6099
:10424000032084F88450BDE8F883C4F88860C4F87B
:104250008C60E5662567002084F88450F3E7000051
:1042600010B5026852E8001F21F4907142E8001373
:10427000002BF6D10E4B0268083252E8001F19409D
:1042800042E80014002CF6D1C16E012908D1026861
:1042900052E8001F21F0100142E80013002BF6D174
:1042A00000212022C0F88C20C166416710BD0000AB
:1042B000FEFFFFEF2DE9F04304468068D84E87B03B
:1042C000D84B2168D4E90427D4F81CC010430A68ED
:1042D000002547EA0C073843324002430A60206851
:1042E000E268416821F44051114341602268A169AC
:1042F0009A4201D0206A01439768DFF82CC3CB4E65
:10430000CB4807EA0C070F4397602168676ACA6ABF
:1043100022F00F023A43CA622268B2420ED100680C
:1043200000F03800182873D047DCB8B3082879D0DB
:1043300010286FD178E028287ED17BE0BD498A42E1
:1043400009D1006800F00700062875D2DFE800F008
:10435000546A6C6E7072B8498A4209D1006800F0E4
:104360000700062868D2DFE800F0475D5F616365FB
:10437000B2498A4209D1006800F0070006285BD2E2
:10438000DFE800F03A5052545658AD498A420BD1FA
:10439000006800F0070006284ED200E010E0DFE8D9
:1043A00000F02B4143454749A6498A420AD100689B
:1043B00000F03800182839D0B7DD2028BBD13CE008
:1043C00001203AE0A0498A4209D1006800F00700C4
:1043D000062831D2DFE800F01026282A2C2E9B492F
:1043E0008A420BD1006800F00700062824D2DFE8DB
:1043F00000F003191B1D1F2100201EE09A421BD153
:104400008B48001D006800F00700062814D202E067
:104410000CE007E010E0DFE800F0030507090B0DF2
:1044200002200AE0042008E0082006E0102004E052
:10443000202002E0402000E080208549DFF814823F
:104440009A42854A4FF400434FEA21174FF0000685
:104450004ED110281AD006DC022809D004280BD02F
:1044600008287CD10DE020283ED0402877D13DE0BF
:10447000FCF790FA014610E06846FCF741FB019911
:104480000BE003A8FCF7DEFB049906E01068800649
:1044900005D51068C0F3C100C140002970D0606A22
:1044A000676838F8102007EB4703B1FBF2F083424E
:1044B00055D8B0EB073F52D8002308461946FBF702
:1044C0000DFF02467808130E120243EA012110186C
:1044D0003A4671410023FBF701FF604AA0F54071A5
:1044E00091423CD821688FE03946D8E71946D6E793
:1044F000D4F81CC04FF6EF799C4546D1082819D056
:1045000005DC58B101280CD0042875D10DE0102825
:1045100015D0202835D040286ED134E0FDF7BEFB01
:1045200001E0FDF7CDFB014610E06846FCF7E8FA34
:1045300001990BE003A8FCF785FB049906E01068DD
:10454000800604D51068C0F3C100C140C1B1636AE0
:10455000606838F81330B1FBF3F1490000E04BE03C
:1045600001EB5001B1FBF0F0A0F11001494543D837
:104570004FF6F0732168C0F342021840104343E045
:1045800043E03946E3E71946E1E7082819D005DC9E
:1045900058B101280CD004282ED10DE0102815D0D8
:1045A00020282BD0402827D12AE0FDF777FB01E017
:1045B000FDF786FB014610E06846FCF7A1FA019979
:1045C0000BE003A8FCF73EFB049906E010688006A8
:1045D00004D51068C0F3C100C140B1B1636A60681E
:1045E00038F81330B1FBF3F101EB5001B1FBF0F0FF
:1045F000A0F11001494505D9012506E03946EDE74E
:104600001946EBE7216880B2C8600120A4F86A006F
:10461000A4F8680028466667A66707B0BDE8F0837F
:10462000F369FFCF000C0058FFF4FF1100100140A8
:10463000544402580044004000480040004C0040F0
:10464000005000400014014000780040007C004011
:104650000090D003085F000800440258FFFC0F00E0
:104660002DE9F047994617460D460446089E4FF03F
:10467000000833E0701C31D0FCF778F8A0EB09009B
:10468000B04218D8BEB120680168490726D5802DF0
:1046900024D0402D22D0C169C94309070DD4082573
:1046A00005622046FFF7DCFDC4F89050012084F835
:1046B0008480BDE8F0870320FBE7C069C0430005A4
:1046C0000CD421684FF4006008622046FFF7C8FD53
:1046D0002021C4F8901084F88480ECE72068C06939
:1046E00035EA000004D00020B842C3D00020E0E743
:1046F0000120F9E7FEE700000FB4054B10B503A950
:10470000044A029800F028F810BC5DF814FB000081
:104710007157000824000024090700284FEA11619E
:1047200004DB00F1E02080F80014704700F00F0077
:1047300000F1E02080F8141D704702E008C8121F45
:1047400008C1002AFAD170477047002001E001C17A
:10475000121F002AFBD170472DE9FF4F8BB09A46FC
:104760000F460546002606E025280BD052460D9937
:1047700090476D1C761C28780028F5D10FB0304684
:10478000BDE8F08F0024A0460122604900E0044308
:1047900015F8013F203B02FA03F00842F7D12878D0
:1047A0002E2817D115F8010F44F004042A280ED042
:1047B0006FF02F022878A0F1300109290AD808EB00
:1047C000880102EB410100EB01086D1CF2E757F88C
:1047D000048B6D1C287869283ED006DC0028CDD0DB
:1047E00063280BD0642804D136E0732810D07528D4
:1047F0004BD052460D999047761C85E017F8040B74
:104800008DF8000000208DF80100E946012003E04A
:1048100057F8049B4FF0FF3061074FF0000401D4BC
:104820000AE0641C44450DDA8442FADB19F80410EE
:104830000029F6D106E0641C8442FCDB19F8041060
:104840000029F8D1264404E019F8010B52460D99CD
:104850009047641EF8D257E001CF4FF00A0B0028B2
:1048600002DA40422D2102E0210504D52B218DF8EA
:104870002410012103E0E10705D02021F7E70DF125
:10488000200908910CE00021F9E701CF4FF00A0B55
:10489000F9E75946FBF76CFD01F1300209F8012DEB
:1048A0000028F6D1ADEB090000F1200B600701D420
:1048B0004FF00108D84502DDA8EB0B0000E0002016
:1048C0008046002406E009A85246005D0D999047F5
:1048D000641C761C08988442F5DB04E030205246C4
:1048E0000D999047761CB8F10001A8F10108F5DC9C
:1048F00005E019F8010B52460D999047761CBBF163
:104900000001ABF1010BF4DC6D1C34E70928010058
:1049100010B504460022501EE270E062204601F00D
:1049200076F908B1042010BD04F22E2001F00AF837
:10493000A0F52A41553901D0032010BD94F830006C
:10494000E92805D0EB2814D194F83200902810D132
:1049500004F1660000F0EBFF0749B1EB002F06D031
:1049600004F1820000F0E3FF0449884201D10020F5
:1049700010BD022010BD0000004641544641543392
:10498000F0B5154D0022134605EB021426685EB102
:104990000768BE4209D166688768BE4205D1A4682F
:1049A0004669B44204D000E00123521C022AEBD332
:1049B000022A01D069B904E04BB9022907D01220BC
:1049C000F0BD05EB02108089B0F5807F01D000209A
:1049D000F0BD1020F0BD00009805002430B5064B56
:1049E0000024214603EB01121568854200D11460B2
:1049F000491C0229F6D330BD98050024C26A490A31
:104A000000684089B1FBF0F0121D02CA19B188425A
:104A100003D3401AF8E70020704711680844704734
:104A20004269891E921E8A4201D800207047826A1C
:104A3000408901FB002070472DE9F04105680F0017
:104A4000804606D000F0A0FE022809D20120BDE871
:104A5000F081EE6816B16869B04207D8012605E01A
:104A6000411CF4D069698142F1D83E4634466869F8
:104A7000641CA04203D8022E4FF002040AD3214640
:104A8000404600F081FE38B10128E0D0411CDED064
:104A9000B442ECD10020DAE74FF0FF36214632462F
:104AA000284601F0CDF830B957B12246394628469C
:104AB00001F0C6F820B101280FD001242046C6E736
:104AC000D5E90401EC60891E884201D8401E2861A6
:104AD000287940F001002871F0E73446EEE7000045
:104AE0002DE9F04124300D680B220E4620210446AA
:104AF00001F086F800204FF0080C01462A5C401CAB
:104B0000202A13D92F2A0CD05C2A0AD02E2A01D0B1
:104B1000614516D3BCF10B0F20D02E2A1ED10CE01C
:104B2000401C2B5C2F2BFBD05C2BF9D02844306031
:104B3000A1B12078E5281DD01EE008214FF00B0C14
:104B4000DCE7802A03D3104B1A4412F8802C0FA301
:104B500000E05B1C1F7827B19742FAD10620BDE820
:104B6000F081A2F16103192B01D8203AD2B262542C
:104B7000491CC3E705202070202A01D8042000E04A
:104B80000020E0720020EAE7405F0008222A2B2C78
:104B90003A3B3C3D3E3F5B5D7C7F0000401E02286F
:104BA00012D20A4901EB00118889B0F5807F05D047
:104BB00008B1401E80B2888110B103E00020FAE7FE
:104BC00000200860002070470220704798050024EC
:104BD0002DE9F04105680021044600F0DAF80028CC
:104BE00027D1E169284601F012F8020020D1206A9D
:104BF0000178A1B1C17A01F03F01A171C17A090721
:104C000010D40B2304F1240110F8016B5B1E11F882
:104C1000017BA6EB070604D0002EF5D002E00422AB
:104C200006E02EB10021204600F006F80200D8D0A0
:104C30001046BDE8F08100002DE9F04705464769C0
:104C4000C069894620372C6810B1B7F5001F02D320
:104C50000420BDE8F087F90560D1A969401C4FF038
:104C60000008E86129B16089401E10EA572F05D07D
:104C700054E02089B0EB571F1DD94FE0284600F0C3
:104C800083FD012806461BD9701C33D06069B042F1
:104C90003ED8B9F1000F0ED0A9692846FFF7CCFE27
:104CA00006000BD0012E0BD0701C23D0204601F043
:104CB000DDF8F8B906E0C5F81C80C9E70720C8E7A9
:104CC0000220C6E700214FF4007204F1300000F02A
:104CD00097FF4FF0000831462046FFF7A1FE4FF046
:104CE0000109E0620DE000BF204684F8039001F066
:104CF000BDF808B10120ACE7E16A08F10108491CE0
:104D0000E16261894145EFD8E16AA1EB0800E06208
:104D100031462046AE61FFF783FEE861C7F3080025
:104D200020446F6130302862002092E770B5066839
:104D30000021044600F02DF80DE0E169304600F056
:104D400066FF50B9206A0078E52809D040B10121FA
:104D50002046FFF771FF0028EFD0042807D007E0B6
:104D6000E169304600F053FF050003D00FE0072053
:104D700005460CE0206A2022002100F041FF206A55
:104D80000B2204F1240100F031FF0120F0702846CD
:104D900070BD2DE9F0410768B1F5001F0E460546CC
:104DA00036D2F00634D1AC686E6124B93878032865
:104DB00005D37C6A1CB178894FEA402812E0388913
:104DC000B0EB561F24D9786A12E0284600F0DCFCCC
:104DD0000446401C1AD0022C1AD37869A04217D975
:104DE000A6EB080621464645EFD23846FFF718FEE7
:104DF000C5E9064060B100EB5622C6F30801C819A8
:104E00003030C5E907200020BDE8F0810120FBE734
:104E10000220F9E770B5094C05460020615D0029C4
:104E20000AD104EB850062194168107A0968884745
:104E3000002801D10121615570BD0000B805002492
:104E4000044B30B403EB800418446368007A1B6998
:104E500030BC1847B805002430B4054C04EB80057D
:104E600020446C68007AA468A44630BC6047000007
:104E7000B8050024034901EB800208445168007A18
:104E800049680847B805002430B4054C04EB800598
:104E900020446C68007AE468A44630BC6047000097
:104EA000B805002438B5044600F0EEF900280CD10E
:104EB0006946204601F003F8002806D12069FFF773
:104EC0006DFE002801D10021216038BD2DE9F74198
:104ED00081B0904602980090684600F0B6FC04004D
:104EE00003D50B2004B0BDE8F0810D4E002756F825
:104EF00024501DB12846FFF771FD2F70019800283E
:104F000000D0077046F8240002D0B8F1010F01D09C
:104F10000020E7E7002201A902A800F0C3FAE1E7B8
:104F2000200000242DE9F743050092B00BD002F0D9
:104F30003F06694613A8324600F0B4FA04004FF069
:104F4000000804D0EDE0092015B0BDE8F08300981A
:104F5000049004A8139900F0D1FB04000ED19DF831
:104F60003F00000601D5062408E0700801D00121A9
:104F700000E0002104A8FFF703FD044616F01C0F13
:104F80005DD04FF00109C4B1042C10D16849002054
:104F900002E0401C022804D201EB00121268002A31
:104FA000F7D1022807D004A8FFF7C0FE044646F058
:104FB00008065CB1B5E01224B3E09DF8160010F0CD
:104FC000110F47D1700701D50824AAE0300747D553
:104FD00000F039FC07460C9839460E3000F0F6FE1A
:104FE0000C983946163000F0F1FE0C982021C17261
:104FF0000C99009800F088FC0C9900220746009854
:1050000000F0D0FE0C9800211C3000F0DFFE00996B
:1050100081F8039017B3D1F82C90002204A83946E8
:1050200000F086FE04007CD10098494600F0EFFDB8
:1050300004000098A7F10107C7600DD071E0E4BB40
:105040009DF81600C10601D504246AE0B10703D516
:10505000C00701D0072464E0300701D546F04006C0
:105060000098C06A68620C98A862700801D001219B
:1050700000E0002104A800F007FC2861C0B30C99EF
:10508000009800F041FCA8600C981C3000F04FFC28
:10509000C5F82C800146E96005F1300000994FF415
:1050A0000072296081460099C988A98000212E7567
:1050B00085F81580C5F8208000E032E0C5F818803A
:1050C00000F09EFDB0062ED5EE6866B3AE61009886
:1050D000A968408947020FE0284600F055FB0128E7
:1050E000014600D80224481C03D0F61B24B105E079
:1050F0001BE00124F61B01E0BE42EDD8E96184B952
:10510000F00510D00098FFF78BFC70B100EB562231
:105110002A620098012349464078FFF79DFE10B1AE
:105120000124C5F8008020460EE70224F9E70000BC
:10513000980500242DE9F04F89B0154600229946C4
:105140000446884603A91A6000F0B9FE002812D16F
:10515000607D00280FD1207DC0070BD0A2690127F8
:10516000E16804F1300B4FF0020A881A854200D939
:10517000054684E0072009B0BDE8F08FA169C805A5
:1051800065D103984089401E10EA512611D129B1FA
:10519000E06A28B12046FFF731FC05E0A06803E093
:1051A000E169204600F0F0FA02281BD3411C49D0E7
:1051B000E061E1690398FFF733FC98B1690A049153
:1051C0003044019025D00398721841898A4201D950
:1051D000891B049140784146049B019AFFF73CFEED
:1051E00080BB03E0022084F815A0C4E7207D000600
:1051F0000CD5216A0198081A0499884206D208EB56
:10520000402059464FF4007200F0F0FC049846022A
:105210002BE0226A824218D0207D00060AD503982E
:10522000012359464078FFF72FFE58B9207D00F042
:105230007F00207503980123019A59464078FFF7B3
:105240000BFE10B10120677595E701982062208B55
:10525000C0F30800C0F50076AE4200D92E46011911
:1052600032463031404600F0C1FCA169AD1BB0446C
:105270008819A061D9F800008119C9F80010002D23
:105280007FF47CAF002076E7F8B50446694600F06D
:1052900016FE00280ED1217D4A060BD508060ED534
:1052A00000980123226A04F130014078FFF7ECFDF9
:1052B00008B10120F8BD207D00F07F00207500F0CE
:1052C000C2FA616A0646009800F0A1FC0028F1D1FC
:1052D000A56A2946E87A40F02000E872A2682068B2
:1052E00000F060FDE16805F11C0000F06FFD05F1C4
:1052F0001600314600F06AFD002105F1120000F0B1
:105300006DFD00980121C17000F06CFD217D01F060
:10531000BF012175F8BD2DE9F04F89B01546002277
:1053200099460446884602A91A6000F0C8FD002884
:1053300006D1607D002803D1207D800703D407209B
:1053400009B0BDE8F08FA069012704F1300B4FF0E0
:10535000020A411900D3C5439AE0A169C80574D176
:1053600002984089401E10EA512618D129B1E06AFE
:1053700038B12046FFF742FB07E0A06838B90021AA
:1053800000E0E1692046FFF757FB00287DD00128A7
:105390002DD0411C53D0A168E06101B9A060207DEF
:1053A00000060BD502980123226A59464078FFF780
:1053B0006BFDA0BB207D00F07F002075E1690298A5
:1053C000FFF72EFB98B1690A03913044019027D072
:1053D0000298721841898A4201D9891B0391407849
:1053E0004146039B019AFFF74FFDC0B903E002203D
:1053F00084F815A0A4E7216A0198081A0399884245
:105400000AD208EB402158464FF4007200F0EEFB40
:10541000207D00F07F0020750398460227E00EE013
:10542000216A81420FD0E168A06988420BD20298BC
:105430000123019A59464078FFF70EFD18B101206B
:1054400067757DE701E001982062208BC0F30800BA
:10545000C0F50076AE4200D92E4641462044324681
:10546000303000F0C3FB207D40F080002075A26941
:10547000B044E1689019A061884200D80846E06015
:10548000D9F80000AD1B811900E004E0C9F8001054
:10549000002D7FF462AF207D40F040002075002099
:1054A0004EE700002DE9FF41002790460E460F60B1
:1054B00000F0CBF9050003D50B2004B0BDE8F08166
:1054C0008B4850F825409CB1346008F0FE062078E7
:1054D00020B16078FFF7CEFCC1070BD02770B8462B
:1054E000E8B26070FFF796FCC10708D00320E4E73C
:1054F0000C20E2E70EB1400704D40020DDE71EB126
:10550000400701D50A20D8E7002620463146FFF79C
:10551000FFF9022822D100254FEA0D0704EB051000
:1055200090F8F21100F5F77019B1083000F0FFF9AA
:1055300000E0002047F825006D1C042DEED3002567
:1055400057F8256036B131462046FFF7E1F90228C9
:1055500001D203E003206D1C042DF1D3042809D0EF
:1055600002286FD204F13B0000F0ECF9B0F5007FA7
:1055700068D101E00120A0E704F1460000F0E2F963
:10558000010004D104F1540000F0D1F9014694F86F
:105590004050A161012DA57001D0022D52D14D4383
:1055A00094F83D006081E8B3411E08424AD104F1FD
:1055B000410000F0C7F90107208143D104F1430005
:1055C00000F0C0F9070004D104F1500000F0AFF979
:1055D000074604F13E0000F0B5F9020032D02389FD
:1055E000501900EB13118F422CD360897F1AB7FB3F
:1055F000F0F0B8B103274FF6F57C604500D80227DC
:1056000040F6F57C604500D801273244801C3144C7
:10561000A1626061032FC4E9076215D013B151196B
:10562000022F00E00EE061621FD000F0010100EBEC
:10563000400001EB500000BFA16900F2FF10B1EB88
:10564000502F14D20D2038E704F15A0000F07AF9F7
:105650000028F7D120890028F4D104F15C0000F083
:1056600066F9616960628800E6E74000E4E74FF0B0
:10567000FF3121618020E160032F20712CD104F1E2
:10568000600000F05FF9012826D1711C204600F06F
:10569000BEFA08BB04F22E2084F8048000F052F910
:1056A000A0F52A41553917D104F1300000F03FF937
:1056B0001049884210D104F5057000F038F90E4900
:1056C000884209D104F5067000F031F9206104F533
:1056D000077000F02CF9E06005492770091F088861
:1056E000401C0880E0802046FFF778F905E70000BD
:1056F00020000024525261417272416173B5056805
:105700000446019801E0401C019001782F29FAD04D
:105710005C29F8D00021A16001980078202806D2E9
:10572000802084F82F002046FFF733FB7CBD01A9C1
:105730002046FFF7D5F90028F8D12046FFF748FAB0
:1057400094F82F1028B10428F0D14907EED4052091
:105750007CBD4907FCD4A079C006F8D5A08AC0F367
:10576000080041192846303100F0CEF8A060DEE78D
:1057700013B5044801224FF6FF736946FDF706FC96
:1057800000981CBDA40000242DE9F0410468022902
:105790000D460BD36069A84208D920784FF0FF3638
:1057A000012807D002282BD0032839D00126304603
:1057B000BDE8F081206A05EB550700EB5721204634
:1057C00000F025FA0028F2D1C7F3080020447F1C1E
:1057D00090F83080206A00EB5721204600F017FA3D
:1057E0000028E4D1C7F308002044E90790F83020EE
:1057F00048EA022001D00609D9E7C0F30B06D6E734
:10580000206A00EB1521204600F001FA0028CED1D5
:10581000E8B204EB4000303000F094F80646C6E7EA
:10582000206A00EBD511204600F0F1F90028BED126
:1058300040F2FF1000EA85002044303000F077F895
:1058400020F07046B3E70020704710B502680446A8
:105850004FF0FF30002A13D0114600E0491C0B78AE
:10586000212B0ED33A2BF9D112F8013B303B0A2BF6
:1058700006D28A4204D1002B02D1491C184621606D
:1058800010BD002010BD0000F0B51E4A034605689B
:105890005FF0000002EB00142668AE4207D1666894
:1058A0009F68BE4203D1A4685E69B44202D0401C26
:1058B0000228EFD3022814D1002002E0401C022865
:1058C00004D202EB00142468002CF7D102280ED079
:1058D00002EB0014002625609D6865605B69A3608B
:1058E000A681002902EB0011898902D019B100209C
:1058F000F0BD491C01E04FF4807102EB0012401C26
:105900009181F0BD9805002470B50D46064601F161
:105910001A0000F017F804463078032805D105F185
:10592000140000F00FF844EA0044204670BD83786C
:1059300042780178C07843EA002042EA002041EA38
:10594000002070470178407841EA0020704700004D
:105950009EB0002419941A941B941C94FAF790FF9B
:1059600001208DF870001F218DF86C1087228DF8B2
:105970006D208DF871008DF8640019A88DF86E40C7
:105980008DF872408DF865401A948DF86F408DF84F
:105990007340FAF747FF0420FAF780FFFAF7F4FEA6
:1059A000FEF7B2FAFDF75AFBFDF7A0FBFDF784FB0B
:1059B000FDF746FB2FA0FEF79FFE3249002232483A
:1059C000FFF784FA08B131A000E036A0FEF794FE9C
:1059D0003AA0FEF791FE424801223EA1FFF7A2FA4B
:1059E00008B140A000E044A0FEF786FE49A0FEF703
:1059F00083FE3B4863221DAB6946FFF79BFB18B152
:105A000048A0FEF779FE06E01D994BA06A460DF806
:105A10000140FEF771FE3248FFF744FA4BA0FEF753
:105A20006BFE4EA0FEF768FE2D480A2252A1FFF73A
:105A300079FA08B153A00EE058A0FEF75DFE5EA40F
:105A40002046FAF78EFC1AAB024625482146FFF79E
:105A500062FC18B15CA0FEF74FFE03E01A995FA04C
:105A6000FEF74AFE1E48FFF71DFA38A0FEF744FE77
:105A7000FEE7000053442043617264205465737450
:105A80000A0000000200002438010024534420636F
:105A9000617264206D6F756E74206661696C6564F7
:105AA0000A00000053442063617264206D6F756EBC
:105AB0007420737563636573730A00004F70656EBD
:105AC000696E672066696C6520746573742E7478DE
:105AD000740A0000746573742E74787400000000FA
