:020000040800F2
:10000000C8180224B10200084F55000837510008F3
:100010004D5500080D06000811770008000000008B
:10002000000000000000000000000000115900085E
:100030002D0B000800000000CF5600081D590008D5
:10004000CB020008CB020008CB020008CB0200085C
:10005000CB020008CB020008CB020008CB0200084C
:10006000CB020008CB020008CB020008E90600081A
:10007000CB020008CB020008CB020008CB0200082C
:10008000CB020008CB020008CB020008CB0200081C
:10009000CB020008CB020008CB020008CB0200080C
:1000A000CB020008CB020008CB020008CB020008FC
:1000B000CB020008CB020008CB020008CB020008EC
:1000C000CB020008CB020008CB020008CB020008DC
:1000D000CB020008CB020008CB020008CB020008CC
:1000E000CB020008CB02000800000000CB02000891
:1000F000CB020008E15A0008CB020008CB0200083E
:10010000CB020008CB020008CB020008CB0200089B
:10011000CB020008CB020008CB020008CB0200088B
:10012000CB020008CB020008CB020008CB0200087B
:10013000CB020008CB020008CB020008CB0200086B
:1001400000000000000000000000000000000000AF
:10015000CB020008CB020008CB020008CB0200084B
:10016000CB020008CB020008CB020008CB0200083B
:10017000CB020008CB020008CB020008CB0200082B
:10018000CB020008CB020008CB020008CB0200081B
:10019000CB020008CB020008CB020008CB0200080B
:1001A000CB020008CB020008CB020008CB020008FB
:1001B000CB020008CB020008CB020008CB020008EB
:1001C000CB020008CB020008CB020008CB020008DB
:1001D000CB02000855550008CB020008CB020008EE
:1001E000CB020008CB020008CB020008CB020008BB
:1001F000CB020008CB020008CB020008CB020008AB
:10020000CB020008CB020008CB020008CB0200089A
:10021000CB020008CB020008CB020008CB0200088A
:10022000CB020008CB020008CB020008000000004F
:10023000CB020008CB02000800000000CB0200083F
:10024000CB02000801060008CB020008CB02000820
:10025000CB020008CB020008CB020008CB0200084A
:10026000CB020008CB020008CB020008CB0200083A
:10027000CB020008CB020008CB02000800000000FF
:10028000CB020008CB020008CB02000800000000EF
:1002900000000000CB020008DFF810D000F02CF8BE
:1002A00000480047997A0008AFF30080C81802247C
:1002B0000648804706480047FEE7FEE7FEE7FEE700
:1002C000FEE7FEE7FEE7FEE7FEE7FEE7055A000869
:1002D00099020008D2B201E000F8012B491EFBD2BE
:1002E00070470022F6E710B513460A460446194641
:1002F000FFF7F0FF204610BD064C074D06E0E06812
:1003000040F0010394E8070098471034AC42F6D35C
:10031000FFF7C6FF8C7D0008AC7D000870B53A4938
:1003200005460068884202D0384A904202D1D1F88E
:10033000080302E03648D0F8080310F4403F11D01B
:1003400004F09CF904466868B0F5803F06D0B0F52B
:10035000003F03D0B0F5403F27D101E0000C18E08A
:10036000A40822E000214FF4002003F015FA04460F
:1003700068688103890B18D181140C2915D2DFE834
:1003800001F0140606060606060B0D0F1113800C6D
:100390004000B4FBF0F408E0240906E0640904E03E
:1003A000A40902E0E40900E0240A02F073F941F232
:1003B0000301884208D8174884422868816813D806
:1003C00021F48071816070BD13496008884204D8AF
:1003D0002868816821F44071F4E71049884206D802
:1003E0002868816821F4407141F48071EAE70C4982
:1003F00088422868816804D821F4407141F4007172
:10040000E0E741F44071DDE70020024000210240B6
:1004100000600258002D3101105E5F0020BCBE005C
:1004200040787D0110B5846B616D11F0500F06D0DE
:10043000616DC90625D5204600F0D6FD10BD606D62
:1004400040F40070606520680168090707D504F072
:1004500007FF90B12068C068800403D50DE0C06834
:1004600080070AD1606D20F480706065606DC00403
:1004700003D4606D40F001006065204600F094FDFB
:1004800010BDE16CC96CBDE81040084710B5806B29
:10049000416D41F040014165816D41F0040181658C
:1004A00000F0A2FD10BD10B5806B00F08DFD10BDF9
:1004B0000A48002140F2FF7210B500F03BFB6420B7
:1004C00001F0C0FF06494FF48052044800F00AFFD3
:1004D000BDE81040034804F045BD000014010024AD
:1004E000000000387C02002470B504460068816872
:1004F0008268C1F3400112F0010F28D039BB816836
:1005000001F00D01012914D18168124A1140891CA2
:10051000816021680320086002F0C2F8054612E0FD
:1005200002F0BEF8401B02280DD920688068C00781
:1005300009D0606D40F010006065A06D40F00100D2
:10054000A065012070BD20688068C007E8D1002048
:1005500070BD0000C0FFFF7F70B504460068816871
:1005600011F0010F40D18168204A11422DD18168DC
:10057000D5432940491C816002F092F81C49064687
:1005800020681C4B884201D0984201D11A4A00E0F1
:100590001A4A9268984202F01F0200D00146814236
:1005A0001DD0E2B120E0816811F0010F03D1816814
:1005B0002940491C816002F073F8801B02280ED983
:1005C00020680068C043C00709D0606D40F010008B
:1005D0006065A06D40F00100A065012070BD20683D
:1005E0000168C943C907DED1002070BD3F0000800B
:1005F0000020024000210240002302400063025814
:10060000014801F07BB8000078010024FEE70020DB
:10061000704700207047000005490022054810B5CA
:1006200005F0B2FC0449034805F0A1FC002010BD10
:100630003C100024600300243C08002401460448C8
:1006400010B505F094FC024805F06AFC002010BDCE
:100650006003002400207047094A10B5D2F8BC227C
:10066000D2F814220AB1012010BD0A4601460448FE
:1006700005F08AFCBDE81040014805F0FBBC000015
:100680006003002410B5846B204600F059FF012060
:10069000207110BD10B5846B204600F0A7FE01202C
:1006A000207110BD10B5846B206940F004002061FA
:1006B000204600F047FF0120207110BD10B5846B6B
:1006C000206940F004002061204600F091FE0120E6
:1006D000207110BD10B5806B00F033FF10BD10B558
:1006E000806B00F084FE10BD014801F007B80000E7
:1006F00004020024294A016891423AD0274A18325C
:10070000914236D0254A3032914232D0234A483283
:1007100091422ED0214A603291422AD01F4A78322B
:10072000914226D01D4A9032914222D01B4AA832D3
:1007300091421ED01A4A91421BD0194A1832914256
:1007400017D0174A3032914213D0154A483291429D
:100750000FD0134A603291420BD0114A7832914245
:1007600007D00F4A9032914203D00D4AA8329142ED
:1007700011D1CAB21823103AB2FBF3F26FF3090198
:10078000032A02F00703074AD25CC26500D9091D9B
:1007900081650846704721F0FF01F9E7100002402B
:1007A00010040240547D000830B5224A012301683C
:1007B0009142CAB21BD01F4C1434A14217D01D4C19
:1007C0002834A14213D01B4C3C34A1420FD0194C09
:1007D0005034A1420BD0174C6434A14207D0154CC1
:1007E0007834A14203D0134C8C34A1420CD1142193
:1007F000114C083AB2FBF1F10F4A803201F01F05AB
:1008000004EB8101AB4010E00C4D1824103A0D446C
:10081000B2FBF4F1A82D00D80831094A01F01F04F9
:1008200002EB8101064AA3408032603080E80E006E
:1008300030BD00000854025800580258F0FBFDBFBC
:100840000008024010B50279531E072B2DD8174C13
:100850000168A1421BD0154C1434A14217D0134C8F
:100860002834A14213D0114C3C34A1420FD00F4C7C
:100870005034A1420BD00D4C6434A14207D00B4C34
:100880007834A14203D0094C8C34A14203D10849E9
:10089000074C443102E00749064C443104EB820224
:1008A000C0E91B2101219940416710BD085402583D
:1008B000FC580258FC08024010B583694FF0C07420
:1008C000826A0146002053B1B3F5005F15D072B1C2
:1008D000012A0CD0022A0AD0032A09D104E01AB155
:1008E000012A06D0022A03D1C96AC90100D5012014
:1008F00010BDC96AA142FAD010BD002AF7D0012A62
:10090000F2D0022AF3D0032AF3D010BD2DE9F04F24
:10091000804E804FDFF8FC911836DFF8F8A1483799
:100920000468856D0AF1300ADFF8ECB14C45DFF858
:10093000ECC1DFF8ECE16DD0B4426BD0544569D026
:10094000BC4267D0DFF8D081A8F11808444561D0D7
:100950005C455FD064455DD074455BD0DFF8C481F1
:10096000444557D0DFF8BC8108F11808444551D000
:10097000DFF8B08108F1300844454BD0DFF8A4819E
:1009800008F14808444545D0DFF8988108F160082F
:1009900044453FD0DFF88C8108F17808444539D0D0
:1009A000DFF8808108F19008444533D0DFF8748186
:1009B00008F1A80844452DD0DFF86C81444529D0C2
:1009C000DFF8648108F11408444523D0DFF858812A
:1009D00008F1280844451DD0DFF84C8108F13C0897
:1009E000444517D0DFF8408108F15008444511D044
:1009F000DFF8348108F1640844450BD0DFF8288122
:100A000008F17808444505D0DFF81C8108F18C080E
:100A1000444509D1D0E91948C4F80480C46E1CB11A
:100A2000D0E91C48C4F8048004684C452ED0B44278
:100A30002CD054452AD0BC4228D0374E183EB44260
:100A400024D05C4522D0644520D074451ED0354E5C
:100A5000B4421BD0334E1836B44217D0314E303624
:100A6000B44213D02F4E4836B4420FD02D4E6036CC
:100A7000B4420BD02B4E7836B44207D0294E903674
:100A8000B44203D0274EA836B44215D190F85C602A
:100A90003F2406F01F06B440AC600468256825F4C6
:100AA000802525602EE09A600068C160BDE8F08F67
:100AB00099600068C260F9E71B4EB4421BD01A4E21
:100AC0001436B44217D0184E2836B44213D0164EFE
:100AD0003C36B4420FD0144E5036B4420BD0124EB6
:100AE0006436B44207D0104E7836B44203D00E4E6E
:100AF0008C36B442DAD190F85C60012406F01F060F
:100B0000B4406C60046863608368402B0368CFD195
:100B1000C9E700001000024088000240A000024027
:100B2000B80002401004024008540258704772B6E0
:100B3000FEE70000F8B50027044615460E4600976C
:100B400090F8500001280BD0012084F85000204676
:100B5000FFF7CAFC0100606D04D040F010002DE0EA
:100B60000220F8BD20F4885040F002006065206843
:100B700006F4803205F08043134D1A4383682B40FE
:100B80001A4342F000428260104A20680EE0009B47
:100B90005B1C0093934209D3606D84F8507020F081
:100BA000020040F0100060650120F8BD8368DB0F93
:100BB000EDD1606D20F0020040F001006065084654
:100BC00084F85070F8BD0000C0FFFE3F00F8C32558
:100BD0002DE9F84F4FF0000B0D46E54F0446CDF8D8
:100BE00000B0D94690F85010DFF888A3012907D04B
:100BF000012684F85060206804F02EFB18B168E1EB
:100C00000220BDE8F88F286800280DDB2168030367
:100C1000CA6927D090FAA0F0B0FA80F000F01F0067
:100C200006FA00F00243CA61D5E900124FF00C0C3D
:100C300020681F23C1F384610CEA921C02F01F029A
:100C4000604493409140026B9A430A4302632068D8
:100C500004F002FB8046206804F0FAFA58EA00002B
:100C600003D07FE0C0F38460D8E72068AA682968D1
:100C700004F0FEFAC0480068B6EB107F06D1216888
:100C80006869C968C1F38201490008E02068C16849
:100C9000C906C1686869F5D501F0100149088840A6
:100CA000296904292ED023682A6803EB810102F008
:100CB000F8420B6E024303F0004010430866697E61
:100CC00022682869012917D05FF0000102EB80003B
:100CD000026E22F000420A430266297E20682A69D9
:100CE00001290CD00021036902F01F02914023F476
:100CF000F0420A43026135E04FF00041E6E74FF46D
:100D00000061F0E720682978026E02F0F842B2EB49
:100D1000816F03D1016E21F00041016620682978BE
:100D2000426E02F0F842B2EB816F03D1416E21F0C6
:100D30000041416620682978826E02F0F842B2EBE9
:100D4000816F03D1816E21F000418166206829788E
:100D5000C26E02F0F842B2EB816F03D1C16E21F096
:100D60000041C1662068816811F0010F76D150F80A
:100D7000C02F95F80CC0814B29680CF0180823FA95
:100D800008F3C1F3130C0B4022EA0C021A43026071
:100D90007B48E968814277D1286801031BD090FA2B
:100DA000A0F1B1FA81F1491C01F01F0109294FEAB4
:100DB000003131D8002911D090FAA0F1B1FA81F1B7
:100DC00001F1010101F01F0106FA01F609D100BF8E
:100DD000C0F3846109E0C0F38461E4E7C0F3846197
:100DE000EEE790FAA0F1B1FA81F101F1010101F011
:100DF0001F0146EA816102D1C0F3846003E090FAEA
:100E0000A0F0B0FA80F000F1010000F01F0000EB4C
:100E1000400041EA005133E000290ED090FAA0F1E1
:100E2000B1FA81F101F1010101F01F0106FA01F6A9
:100E300006D100BFC0F3846106E0C0F38461F1E72E
:100E400090FAA0F1B1FA81F101F1010101F01F0165
:100E500046EA816103D1C0F3846004E03FE090FA88
:100E6000A0F0B0FA80F0474A00F1010000F01F0046
:100E700000EB400002EB005041EA000141F000713C
:100E8000AA68206804F0F4F92E68002E27DA3E4A9A
:100E900020683E49DFF8F8C0904201D0B84201D145
:100EA0000B4600E063469B68904203F0E07301D07C
:100EB000B84209D19568D7F8088005F0010508F017
:100EC000010845EA080503E0DAF8085005F00105D5
:100ED0004DB1616D4FF0010941F020006065484659
:100EE00084F850B08DE62B4DAE421CD11D021AD4B1
:100EF0005045F4D1904202D0B84200D061468A6891
:100F000043F4000022F0E07202438A602349224841
:100F10000968B1FBF0F04000801C00E0401E00902A
:100F20000028FBD1DBE71E4DAE420CD1DD010AD417
:100F30005045D4D1904202D0B84200D061468A6870
:100F400043F080700EE0174DAE42C8D15D02C6D4AA
:100F50005045C4D1904202D0B84200D061468A6860
:100F600043F4800022F0E07202438A60B7E7000099
:100F700000210240006002580010005CFFFF0F00DB
:100F80000000FF47000020FE002002400023024036
:100F900000630258000084CB400D0300740000245D
:100FA000000052C70000B8CF00680549884205D14B
:100FB00004484178002901D10121417070470000A7
:100FC000006002580C01002400680549884205D1E0
:100FD00004480178002901D1012101707047000007
:100FE000006002580C01002470470000F8B54FF073
:100FF000000604003546009602D0606D10B107E08F
:101000000120F8BD204600F005F9A66584F850607F
:1010100020688168C1F3407119B18168704A11403C
:10102000816020688168C1F3007181B981686D4A6F
:10103000114041F0805181606C496B480968B1FBF7
:10104000F0F0401C00E0401E00900028FBD120681A
:101050008168C1F3007141B9616D012541F0100152
:101060006165A16D41F00101A16504F0F5F8616DC4
:10107000C90600D420B1606D012540F0100093E056
:10108000606D20F4807040F0020060652068816827
:1010900011F0010F1FD1564A564B904201D0984291
:1010A00007D191689E6801F0010106F00106314305
:1010B00003E05149896801F0010161B9904201D012
:1010C000984201D14D4800E04D488268616822F4A1
:1010D0007C120A43826001F0DDFA41F2030188428A
:1010E00002D9A06810280CD0617D227FA368206BF4
:1010F000490341EA024118430843217F01290CD0EA
:1011000010E0607D227F216B400340EA024241F003
:101110001000104340F00C00EFE7218C394A02EB3D
:1011200041410843616A29B1A26A01F4787101431F
:1011300042EA01002168344BCA681A400243CA607F
:10114000206804F089F80646206804F081F83043EE
:101150001DD1216844F20303267DE26AC86842EA91
:10116000863298431043C86094F8380001281ED096
:101170002068016921F0010101612068626B016949
:1011800021F07041114301612046FFF7C7F8E06884
:10119000012820681CD0016B21F00F010163606DF4
:1011A00020F0020040F0010060652846F8BD20688C
:1011B000A28F164FD4E9101C154E07EB0247A36C03
:1011C000026941EA0C013B43324019431143D3E722
:1011D000A269016B521E21F00F011143DEE70000EE
:1011E000C0FFFF5FC0FFFF7F400D030074000024BD
:1011F000002002400021024000600258002302400B
:10120000006302580000FEFF03C0F0FF0100FFFF73
:101210001EF800FC2DE9F041B6B08046142130A83C
:10122000FFF75FF8C0216846FFF75BF82849D8F858
:101230000000884249D1002102240D4605221423D2
:101240004FF400208DE81F00802605940694684620
:10125000CDE907610991299102F002FC08B1FFF77D
:1012600066FC1C48016841F080710160016801F072
:1012700080713591016841F004010160006830A976
:10128000329500F0040035900320CDE9304012483B
:1012900001F0EAF8114C112111484FF480624FF42B
:1012A000003C530084E8230004F11001E560D600FF
:1012B0002046971081E8CC1000F094FD08B1FFF7AC
:1012C00036FCC8F84C40C4F8388036B0BDE8F08130
:1012D00000600258E04402580008025878010024D7
:1012E000085402582DE9F047384E044600689146EC
:1012F000DFF8DC808A46B04201D0404501D1354953
:1013000000E03549896801F01F0503F0A5FF0028BA
:1013100059D194F85000012855D001204FF0000712
:1013200084F8500025B1052D02D0092D00D003E02E
:101330002046FFF711F918B184F85070BDE8F08726
:10134000616D40F6016320689943404541F4807126
:10135000616500D00646864200D01DB9606D20F45C
:1013600080106065606DC00404D5A06D20F006009B
:10137000A06500E0A7651C20E16C184ACA63E26C16
:1013800017491164E26C1749D1642168086084F838
:1013900050702068416841F0100141602068E16AA6
:1013A000C26822F003020A43C26021684B46E06C27
:1013B0005246403100F0F8FE21680B4B8A681A4013
:1013C000121D8A60BAE70220B8E700000020024040
:1013D0000021024000230240006302582504000857
:1013E000A70400088D040008C0FFFF7F7047704706
:1013F000704700002DE9F05F040017460D464FF0DE
:10140000000B0FD075B1607901280ED04FF0010AA2
:1014100084F805A002212171286807F0100604282D
:1014200005D04BE00120BDE8F09F0220FBE701F072
:1014300037F980464FF003095FB125E001F030F93C
:10144000A0EB0800012805D92068406B384201D084
:1014500012E03A4F2068406B3842EFD12168A8690A
:10146000086418E001F01CF9A0EB080001280BD972
:101470002068406B002807DA216941F008012161EA
:1014800084F804900320CEE72068406B0028E9DB55
:101490002168A869486440F2FF332168EA69B340D3
:1014A000886CB2409843104388642068FF222B6AFE
:1014B000B240C16CB34091431943C164286901280B
:1014C00008D122681F236969906BB340B1409843EB
:1014D0000143916323680721E868DA6BB140012872
:1014E00022EA010203D0022826D0A86820B30021F6
:1014F000AF682868384308434FF48041B040104338
:10150000D8632068B14002688A430260226811688B
:1015100040F6FE736868B3409943B04008431060DA
:10152000C021B140206802688A43026084F804A0A8
:1015300000206071584676E70121D9E7008000203D
:1015400070477047704770B5040003D020790025BC
:1015500010B105E0012070BD2046657100F008F86B
:1015600002212171012025612071002070BD000041
:101570002DE9F04186B0804614216846FEF7B1FEA1
:101580002149D8F8000088423AD12048016841F04A
:1015900000510160006800F0005005901B480838B9
:1015A000016841F00101016000680025032100F09D
:1015B0000100059010208DE823001548694600F0D1
:1015C00053FF144C40221448432104F1040ED70168
:1015D000206003158EE82600C614D00204F1100125
:1015E000C4E908054FF4807C204681E8C81000F06B
:1015F000F9FB08B1FFF79BFAC8F80840C4F8388037
:1016000006B0BDE8F081000000740040E8440258D4
:101610000000025804020024100002402DE9F041AD
:10162000040017460D4606981BD0617901291BD08E
:101630000126667102212171C5B1E168294ACA6398
:10164000E26829491164E2682849D16421680A687E
:1016500042F080520A6040B32268042828D01C322D
:1016600027E00120BDE8F0810220FBE7A168204AC5
:10167000CA63A2681F491164A2681F49D164216826
:101680000A6842F480520A6020B12268042804D01B
:10169000103203E02268083200E00C322068016852
:1016A00041F400510160A06809E02268143200E0B2
:1016B00018322068016841F000510160E068394645
:1016C00000F072FD0021617120B1216941F0040137
:1016D0002161C7E7216805F010030A689E40324384
:1016E0000A60BFE795060008DF060008BD0600088F
:1016F00085060008D5060008A50600082DE9FC5F50
:101700000446F74E0020DFF8D88300904FF41652BD
:10171000F44808F11808A56DDFF8C493DFF8C0A3FA
:10172000016809F1300920680AF1480AB1FBF2F1B9
:10173000B04201912F68D5F800C0DFF8ACB335D0C6
:101740004146884232D0484530D050452ED0584589
:101750002CD0E5491831884228D0E34930318842FD
:1017600024D0E1494831884220D0E04988421DD048
:10177000DE491831884219D0DC493031884215D011
:10178000DA494831884211D0DFF860E30EF1600E8B
:1017900070450BD0D54A7832904207D0D34B903366
:1017A000984203D0D149A83188427DD194F85C2079
:1017B000082102F01F0201FA02F23A424AD0B04276
:1017C00032D0404530D048452ED050452CD05845D9
:1017D0002AD0C54A1832904226D0C34A30329042AD
:1017E00022D0C14A483290421ED0C04A90421BD0FB
:1017F000BE4A1832904217D0BC4A3032904213D0C1
:10180000BA4A483290420FD0B84A603290420BD068
:10181000B64A7832904207D0B44A9032904203D010
:10182000B24AA832904203D1026802F0040202E0F8
:10183000026802F008026AB1026822F00402026043
:1018400094F85C0000F01F008140A960606D40F0DA
:101850000100606594F85C00012100F01F008140E8
:10186000394240D02068B04234D0404532D048455B
:1018700030D050452ED058452CD09B4A183290423B
:1018800028D0994A3032904224D0974A4832904228
:1018900020D0964A90421DD0944A1832904219D0D6
:1018A000924A3032904200E0AFE113D08F4A483282
:1018B00090420FD08D4A603290420BD08B4A7832E2
:1018C000904207D0894A9032904203D0874AA8328A
:1018D00090427DD1406910F0800F04D0A960606D06
:1018E00040F00200606594F85C00042100F01F00E5
:1018F000814039423ED02068B04232D0404530D09D
:1019000048452ED050452CD058452AD0764A18321A
:10191000904226D0744A3032904222D0724A4832E5
:1019200090421ED0714A90421BD0704A18329042A9
:1019300017D06E4A3032904213D06C4A48329042EF
:101940000FD06A4A603290420BD0684A7832904297
:1019500007D0664A9032904203D0644AA83290423F
:101960004ED1006810F0020F04D0A960606D40F005
:101970000400606594F85C00102100F01F008140B5
:10198000394258D02068B04234D0404532D0484522
:1019900030D050452ED058452CD0534A1832904262
:1019A00028D0514A3032904224D04F4A4832904297
:1019B00020D04E4A90421DD04C4A1832904219D045
:1019C0004A4A3032904215D0484A4832904200E0AC
:1019D00014E00FD0454A603290420BD0434A78322F
:1019E000904207D0414A9032904203D03F4AA832F9
:1019F000904207D1006800F0080006E0006872E736
:101A00000068B7E7006800F00400A0B1A960206892
:101A10000168490304D50068000308D5A16C07E0FC
:101A20000168C90503D4016821F008010160216C37
:101A300009B12046884794F85C00202100F01F007F
:101A40008140394279D02068B04232D0404530D010
:101A500048452ED050452CD058452AD0224A18321D
:101A6000904226D0204A3032904222D01E4A48323C
:101A700090421ED01D4A90421BD01C4A1832904200
:101A800017D01A4A3032904213D0184A4832904246
:101A90000FD0164A603290420BD0144A78329042EE
:101AA00007D0124A9032904203D0104AA832904296
:101AB00003D1006800F0100002E0006800F00200AE
:101AC000B0B3A96094F835000428206801680FD0ED
:101AD00049037ED5006800032BD4616C2AE0000026
:101AE0001000024074000024700002401004024004
:101AF00021F0160101602068416921F080014161F7
:101B0000206C08B9A06C20B12068016821F00801A0
:101B1000016094F85C303F21012003F01F03002294
:101B20009940A96084F8350084F83420216D65E07F
:101B300003E0E16B09B120468847606D00287DD045
:101B4000606DC00759D02068042184F83510B04278
:101B50002BD0404529D0484527D0504525D0584561
:101B600023D09D49884220D09B49183188421CD0FF
:101B700099493031884218D09849884215D0974900
:101B80001831884211D09549303188420DD093499F
:101B90004831884209D091496031884205D08F4947
:101BA0007831884201D08D499031016821F00101DE
:101BB000016020680099019A491C0091914202D865
:101BC0000168C907F6D10068C00710D003200FE0F4
:101BD000FFE70168C905ACD403680121002223F0A6
:101BE0001003036084F8351084F83420A1E7012045
:101BF00084F83500002084F83400E16C00291DD001
:101C000002B02046BDE8F05F0847754988421DD004
:101C100073491431884219D071492831884215D04E
:101C20006F493C31884211D06D49503188420DD006
:101C30006B496431884209D0694900E084E0783119
:101C4000884203D066498C3188427DD194F85C800B
:101C50000427016808F01F0807FA08F717EA0C0FB5
:101C6000009746D04F0744D500980F04686003D50D
:101C7000C8033CD4A16CC1E7880638D42068B042C0
:101C80002DD055496039884229D0484527D0504544
:101C900025D0584523D05049884220D04E4918318C
:101CA00088421CD04C493031884218D04B49884278
:101CB00015D04A491831884211D0484930318842FC
:101CC0000DD046494831884209D0704507D090422E
:101CD00005D0984203D04149A831884203D1016818
:101CE00021F0080102E0016821F004010160216C8B
:101CF00084E7022707FA08F717EA0C0F00974ED07F
:101D00008F074CD500980F04686003D5C80344D4EE
:101D1000616C73E7880640D42068B0422FD02E490A
:101D2000603988422BD0484529D0504527D05845A6
:101D300025D02949884222D02749183188421ED00F
:101D400025493031884200E044E018D023498842D8
:101D500015D022491831884211D0204930318842AB
:101D60000DD01E494831884209D0704507D09042B5
:101D700005D0984203D01949A831884203D101689F
:101D800021F0140102E0016821F00A010160012143
:101D900084F83510002084F83400E16B2EE7082227
:101DA00002FA08F212EA0C0F14D0090712D50168E2
:101DB00021F00E01016094F85C100120002201F076
:101DC0001F0100FA01F16960606584F8350084F84C
:101DD000342012E7BDE8FC9F880002401004024056
:101DE000085402582DE9F05F044600F059FC002C1D
:101DF00007467DD0E34E022120684FF00308DFF84C
:101E000088934FF00005DFF884A3B042DFF880B379
:101E100034D0DC4A1832904230D048452ED050455C
:101E20002CD058452AD0DA4A1832904226D0D84AC7
:101E30003032904222D0D64A483290421ED0D54A03
:101E400090421BD0D34A1832904217D0D14A303238
:101E5000904213D0CF4A483290420FD0CD4A6032E0
:101E600090420BD0CB4A7832904207D0C94A903288
:101E7000904203D0C74AA83290427DD184F83510F1
:101E8000B04284F834502ED0BE49183188422AD04E
:101E9000484528D0504526D0584524D0BC49183153
:101EA000884220D0BA49303188421CD0B8494831E4
:101EB000884218D0B749884215D0B64918318842AF
:101EC00011D0B449303188420DD0B24948318842EE
:101ED00009D0B0496031884205D0AE497831884296
:101EE00001D0AC499031016821F00101016008E0A6
:101EF00027E100BF00F0D4FBC01B052801D9202139
:101F00001CE120680068C007F4D104F108002168D2
:101F1000D4E9053C8E4685C809681043D4E90728F2
:101F20001F43636A38439C4F40EA0C00104339401A
:101F300040EA0800042B40EA010003D1D4E90B1267
:101F400011430843954909686FF30F01B1F1005F30
:101F50000FD36168A1F12902052A08D9163A032A8C
:101F600005D9083A012A02D94F39032901D840F48A
:101F70008010CEF8000000E023E02068676A406926
:101F8000042F20F0070047EA00070DD1D4E90A0129
:101F9000074349B12046FEF78FFC28B14020606519
:101FA000012184F83510CCE0206847612046FEF717
:101FB000A1FB94F85C203F2102F01F029140816058
:101FC00054E0774A90421BD0754B1433984217D097
:101FD000734B2833984213D0714B3C3398420FD047
:101FE0006F4B503398420BD06D4B6433984207D0FF
:101FF0006B4B7833984203D0694B8C3398427DD138
:1020000084F8351084F83450664B0168A26801EA00
:10201000030E402A73D0802A72D00022D4E90378BC
:10202000D4E9053142EAD70242EAD8085C4AD4E949
:10203000077C48EAD30848EAD10141EAD701524275
:1020400041EA1C11142341EA0E010160206810448A
:10205000B0FBF3F08000E0652046FEF74BFB94F800
:102060005C20012102F01F02914041602068B042D3
:1020700057D044491831884253D0484551D0504533
:102080004FD058454DD042491831884249D0404937
:102090003031884245D03E494831884241D03D499F
:1020A00088423ED03B49183188423AD039493031D4
:1020B000884236D037494831884232D0354960317C
:1020C00088422ED03349783188422AD03149903124
:1020D000884226D02F49A831884222D030498842F0
:1020E0001FD02F49143188421BD02D4928318842F6
:1020F00017D02B493C31884213D002E01DE017E095
:1021000018E02749503188420BD025496431884274
:1021100007D023497831884203D021498C31884245
:1021200029D12046FEF740FBA06880280CD00CE0A7
:10213000102273E74FF4804270E74021616584F814
:1021400035800120BDE8F09F6560216E2079086030
:10215000D4E9190141606068401E072808D820466C
:10216000FEF770FBE06E0560D4E91C01416002E0FF
:10217000E566256765670120656584F83500002000
:10218000E0E700001000024040000240580002401A
:1021900070000240100402403F8010FE0010005CFE
:1021A000085402580F00FEFF2DE9F84F04008C463A
:1021B0004FF00000009014D094F83400012812D0A1
:1021C00094F835500120002184F83400012D0CD002
:1021D000C00260650120009084F834100098BDE8CA
:1021E000F88F0120FBE70220F9E78C4D02262068DA
:1021F00084F83560A8428A4D61658A4E8A4FDFF8BF
:102200002C82DFF82C92DFF82CA2DFF82CB226D03B
:10221000A84224D0B04222D0B84220D040451ED09F
:1022200048451CD050451AD0584518D0834988429B
:1022300015D082491831884211D080493031884206
:102240000DD07E494831884209D07C4960318842AE
:1022500005D07A497831884201D0784990310168B7
:1022600021F00101016061462046FEF74FFB6B49FA
:10227000206888422CD0A8422AD0B04228D0B84248
:1022800026D0404524D0484522D0504520D058453E
:102290001ED06A4A90421BD0684A1832904217D02A
:1022A000664A3032904213D0644A483290420FD08E
:1022B000624A603290420BD0604A7832904207D036
:1022C0005E4A9032904203D05C4AA83290420CD1D0
:1022D000026822F01E0242F016020260206C88B1F1
:1022E0002068026842F008020BE0026822F00E0249
:1022F00042F00A020260206C20B12068026842F0BD
:1023000004020260206888424BD0A84249D0B04203
:1023100047D0B84245D0404543D0484541D05045CC
:102320003FD058453DD0454A90423AD0434A1832B2
:10233000904236D0414A3032904232D03F4A483201
:1023400090422ED03D4A603290422AD03B4A7832A9
:10235000904226D0394A9032904222D0374AA83251
:1023600090421ED0364A90421BD0354A14329042D9
:1023700017D0334A2832904213D0314A3C3290422F
:102380000FD02F4A503290420BD02D4A64329042E7
:1023900007D02B4A7832904203D0294A8C3290429F
:1023A0000DD1206E0268D20303D5026842F4807218
:1023B0000260E06E18B1026842F480720260206828
:1023C000884226D0A84224D0B04222D0B84220D0A1
:1023D00040451ED048451CD050451AD0584518D00D
:1023E0001649884215D015491831884211D0134931
:1023F000303188420DD011494831884209D00F4907
:102400006031884205D00D497831884201D00B49AE
:102410009031016841F001010160DFE610000240E7
:102420002800024040000240580002407000024074
:1024300088000240A0000240B800024010040240A0
:102440000854025870B5044600F02AF90546601C8D
:1024500002D004480078044400F022F9401BA04256
:10246000FAD370BD680000242DE9F84F03247D4D98
:1024700000234FF001094FF0B04B4FF00F0AE9E095
:1024800009FA03F73A4076D00E7906F00306012EDA
:1024900001D0022E18D1D0F808C04FEA430ECE6802
:1024A00004FA0EF82CEA080C06FA0EF646EA0C06B8
:1024B0008660D0F804C00E792CEA070CC6F300162B
:1024C0009E4046EA0C0646600E79F643B6070BD0EE
:1024D000C6684FEA43088F6804FA08FC26EA0C062F
:1024E00007FA08F73743C7600E7906F00306022E95
:1024F00012D1DE080F694FEA437C00EB8606B64630
:10250000366A4FEADC6C0AFA0CF807FA0CF726EA8E
:1025100008063743CEF820700F7906684FEA430863
:1025200007F0030704FA08FC07FA08F726EA0C0686
:10253000374307604E6816F4403F1CD04A4E376858
:1025400047F00207376036689F0706F002060096DC
:1025500023F0030606F1B046B6463F0FD6F80864EE
:10256000DFF808810AFA07FC404526EA0C0603D189
:102570004FF0000C41E06CE0DFF8F4C0604502D1A0
:102580004FF0010C39E0DFF8ECC0604502D14FF0AC
:10259000020C32E0DFF8E0C0604502D14FF0030CDE
:1025A0002BE0DFF8D8C0604502D14FF0040C24E0E6
:1025B000DFF8CCC0604502D14FF0050C1DE0DFF81C
:1025C000C4C0604502D14FF0060C16E0DFF8B8C079
:1025D000604502D14FF0070C0FE0DFF8B0C0604556
:1025E00002D14FF0080C08E0DFF8A4C0604502D12A
:1025F0004FF0090C01E04FF00A0C0CFA07FC4CEA12
:10260000060CCEF808C44F68DBF80060FF0226EA2B
:10261000020600D516435F46CBF80060D1F804C02F
:10262000DBF804605FEA8C2C26EA020600D516432C
:102630007E606E684F6826EA0206BF0300D5164327
:102640006E602E684F6826EA0206FF0300D5164327
:102650002E605B1C0A6832FA03F67FF411AFBDE806
:10266000F88F000080000058F4440258000002581F
:102670000004025800080258000C025800100258CA
:102680000014025800180258001C0258002002587A
:102690000024025801480068000C70470010005CDC
:1026A0000148806870470000680000240248816883
:1026B000027811448160704768000024032010B53F
:1026C00000F0D4F802F00EF80F4A104914681368AD
:1026D000C4F3032203F00F038A5CC95C02F01F02FB
:1026E00001F01F01D0400A4A20FA01F111600949A6
:1026F00008600F2000F010F808B1012010BD00F0B4
:1027000079F8002010BD0000184402585C7D0008D4
:10271000780000247400002470B50D4D044628781C
:10272000A0B14FF47A71B1FBF0F00A490968B1FB2E
:10273000F0F002F044FB48B9102C07D200222146E9
:10274000501E00F073F800206C6070BD012070BD59
:102750006800002474000024154BF0B5083B427853
:1027600013491A600B680A1F23F001030B604368CA
:102770001360057BC67A827A437B2D07847B45EA0A
:102780000665C77B90F809C0067A90F800E045EA34
:10279000C24040EA834040EA444040EA074040EA01
:1027A0000C2040EA460040EA0E000860F0BD000040
:1027B000A0ED00E0BFF35F8F044800210368034AE7
:1027C00023F48033036070321160704724ED00E021
:1027D000074A40F00100064970321060086840F472
:1027E00080300860BFF34F8FBFF36F8F70470000DA
:1027F00024ED00E0054808B5016841F002010160E0
:10280000006800F00200009008BD0000F444025887
:10281000002809DB410900F01F028900012001F1B5
:10282000E0219040C1F80001704700000E4BF0B469
:102830001B680D46C3F30223C3F10706042E00D91B
:102840000426191D072901D2002300E0DB1E012404
:1028500004FA06F19C40491E2940641E9940144028
:102860002143F0BC04F068BF0CED00E0064900F025
:10287000070210B54FF6FF040868044B204040EAF9
:1028800002201843086010BD0CED00E00000FA05BE
:1028900001680123C0F8D834002280F8CC2488696C
:1028A000044A40F000608861486D1043486500208C
:1028B000704700000300001070470068416200206C
:1028C0007047F0B503685D6A39B19F6A4C1E0020FD
:1028D0004FF4827605EB17450BE045EA024098621B
:1028E00010E0471C06EB800053F800C0F8B205EB7F
:1028F0001C45A042F5D34FF4807000EB810045EAFF
:1029000002421A500020F0BDD0F8E00403F053BE9C
:1029100001EBC10200EB8202D0F8E004126A03F07E
:10292000A6BD01EBC10200EB8202D0F8E004D2F8B0
:10293000602203F0F8BDD0F8E00403F03EBE0A06C2
:1029400001F00F0101EBC10100EB810101D5143150
:1029500001E001F51571006804F026BD01F00F02D9
:102960000B0670B502EBC20104464FF001004FF0B8
:10297000000504EB810102D54875143103E081F8AC
:10298000555201F515710A7094F89424012A08D063
:1029900084F89404206804F029FA002084F8945400
:1029A00070BD022070BD70B50279044601F00F00C1
:1029B000904201D9012070BD01F00F024FF00005D7
:1029C0000B0602EBC2014FF0010204EB810102D5BC
:1029D0004A75143103E081F8555201F515718D7077
:1029E000087094F89404012808D084F8942420688E
:1029F00004F066FB002084F8945470BD022070BD82
:102A000001F00F0101EBC10100EB8100D0F8680279
:102A100070472DE9F04101F00F0604460D064FF016
:102A2000010006EBC6014FF0000504EB810102D561
:102A30004875143103E081F8555201F515714F784E
:102A40008A600B710E7007B14E83022B00D14D715D
:102A500094F89424012A09D084F89404206804F09E
:102A60000DF9284684F89454BDE8F0810220FBE774
:102A700070B501F00F05002405EBC50100EB8101E5
:102A800001F5187181E81C0001F80B4C01F80C5D90
:102A90008379012B00D1CA618279006804F068FB58
:102AA000002070BD70B50D460179044605F00F0099
:102AB000884201D9012070BD29064FF000064FF071
:102AC000010206D500EBC00104EB81014A75143107
:102AD00007E005EBC50104EB810181F8556201F5C2
:102AE00015718A70087094F89404012807D084F84E
:102AF0009424206804F010FB280702D007E002208D
:102B000070BDA17904F29C42206804F0ADFA002067
:102B100084F8946470BD70B501F00F04002504EBD7
:102B2000C401012600EB8101203181E82C0001F86D
:102B30000B6C01F80C4D8379012B00D1CA618279AD
:102B4000006804F015FB002070BD00002DE9FC5F5B
:102B500005680446284604F0C3FC00287ED120689E
:102B600004F0EAFC002879D0D5F80808C0F30D205D
:102B7000C4F8D404206804F0DFFC800704D5206882
:102B8000416901F002014161206804F0D5FCC106F1
:102B900004F29C40009035D52068816921F0100135
:102BA00081612F6A07F00F01C7F3434001EBC101B8
:102BB000022804EB810606F5157602D0062812D00D
:102BC0001BE047F6F070074217D0C7F30A12F1680E
:102BD0001746284604F0B4FC7169F0683944716105
:102BE0003844F06009E000990822284604F0A8FC67
:102BF0007069C7F30A11084470612068816941F067
:102C000010018161206804F097FC00034FF0080B6D
:102C10004FF0000A4FF001097CD52068002604F02F
:102C20006AFC074674E0F80770D02068F1B204F03F
:102C30007BFC8046C00707D005EB4611C1F8089B16
:102C40003146204602F08CFC5FEA087024D505EB83
:102C50004611C1F808BBFA49206800E03EE2026C68
:102C600000EB461001928A42D0F8081B05D90904EE
:102C700003D54FF40041C0F8081B204600F01FFBAD
:102C8000EF490198884207D9A079012804D120682A
:102C90000121009A04F0E8F95FEAC86004D505EB69
:102CA00046111020C1F8080B5FEA88701DD56869CD
:102CB000000605D5D5F8040840F48061C5F804186D
:102CC00006EBC60004EB800090F8571200F5157073
:102CD000012905D180F803A02046F1B200F004FAE2
:102CE00005EB46110220C1F8080B5FEA886004D5A5
:102CF00005EB46112020C1F8080B5FEA884005D596
:102D000005EB46114FF40050C1F8080B7F08761C04
:102D1000002F88D1206804F00FFC40036ED5206896
:102D200004F0E2FB0026074666E0F80762D0206860
:102D3000F1B204F0E7FB8046C00723D0D5F8342871
:102D400006F00F0105EB461309FA01F18A43C5F8B5
:102D50003428C3F80899A07901280FD106EBC600E2
:102D600004EB8000D0E907211144016236B9606AA2
:102D700020B920680121009A04F076F92046F1B2CA
:102D8000FFF7C6FD5FEA087003D505EB4611C1F8F1
:102D900008B95FEAC86004D505EB46111020C1F8F8
:102DA00008095FEA486004D505EB46114020C1F8E8
:102DB00008095FEA887016D53146284604F065FB9D
:102DC00006EBC60004EB8000C17D1430012905D15B
:102DD00080F803A02046F1B200F082F905EB46111D
:102DE0000220C1F808095FEA086003D53146204691
:102DF00002F01CFC7F08761C002F96D1206804F09E
:102E00009BFB002811DAD5F8040820F00101C5F871
:102E1000041894F8CC0401283BD0204600F034FA82
:102E20002068416901F000414161206804F084FBA1
:102E300000050BD5D5F80808C00702D0204600F0E1
:102E400067FA2068416901F400614161206804F07B
:102E500073FB00010AD52068416901F000614161FE
:102E600094F8CC04E0B1204600F052FA206804F057
:102E700063FBC00472D5D5F8040820F00101C5F841
:102E800004182068102104F000FB00214FF67F3267
:102E90002DE00021204684F8CCA4FFF70DFDBFE70C
:102EA00084F8CC942068406D0121C0F38300C4F8FD
:102EB000D0042046FFF700FDD8E700BF05EB411026
:102EC000C0F80829D0F8003923F40013C0F80039FD
:102ED000C0F8082BD0F8003B23F40013C0F8003BE7
:102EE000D0F8003B43F00063C0F8003B491C207958
:102EF0008842E3D8D5F81C0840F00111C5F81C1829
:102F0000E07B68B1D5F8840840F00B01C5F884185F
:102F1000D5F8440840F00B012846C5F844180DE0E8
:102F2000D5F8140842F22B010843C5F81408D5F867
:102F3000100840F00B012846C5F81018D0F800081A
:102F400020F4FE61C5F80018A1792068009A04F009
:102F50008BF82068416901F480514161206804F0D8
:102F6000EBFA800415D5206803F0C8FE206804F051
:102F7000AAFAE07101F082FBE2790146206804F0D0
:102F80003FFB204600F06AF92068416901F40051D6
:102F90004161206804F0D0FA000707D5204600F010
:102FA00077F92068416901F008014161206804F067
:102FB000C3FA000616D5A869012620F08001A96190
:102FC0000DE000BF06EBC60004EB800090F857024E
:102FD000012803D12046F1B2FFF7B1FC761C20791D
:102FE000B042EFD8206804F0A7FAC0021FD501262E
:102FF0004F4614E006EBC60105EB461004EB8101D9
:10300000D0F800090A7E012A08D1002806DAF0B2B9
:10301000CF7540F080012046FFF791FC761C2079A7
:10302000B042E7D82068416901F48011416120680D
:1030300004F082FA800234D501204B4629E00000DA
:103040000A30544F00EBC00205EB401104EB820242
:10305000D1F8001B92F85862012E19D1002917DA15
:1030600094F8D46401F4803106F00106B1420FD126
:1030700082F85732A96941F08002AA61696909069C
:1030800006D4D5F8040840F40070C5F8040803E03D
:10309000401C21798142D5D82068416901F4001192
:1030A0004161206804F048FA400007D52046FFF748
:1030B0002BFC2068416901F080414161206804F0E7
:1030C0003BFA40070AD520684568680702D52046C4
:1030D000FFF731FC2068416829434160BDE8FC9F4F
:1030E000D0F8E00403F0BFBAD0F8E00403F0CFBAA0
:1030F000F8B5040004D094F89504002510B106E05A
:103100000120F8BD204684F8945400F057F80320BD
:1031100084F89504206803F0A1FF207C8DF800005E
:1031200094E80F0003F0F8FD0226B0BB20680021F0
:1031300004F026FA88BB002001270CE000EBC00158
:10314000421C04EB81014F750D76CD610D624D621D
:103150000875C885D0B221798142EFD8002011E0EE
:1031600000EBC001421C04EB810181F8555281F84B
:103170005852C1F85C52C1F86052C1F8645281F8EB
:103180005402D0B221798142EAD8207C8DF8000027
:1031900094E80F0003F0ACFE10B184F89564AFE73B
:1031A000207B657484F89574012802D12046FFF7CE
:1031B0006FFB206803F08EFE0020F8BD10B5B6B09E
:1031C0000446142130A8FDF78CF8C0216846FDF7AD
:1031D00088F81F492068884238D100204FF48021A8
:1031E0004FF440122292CDE90010684600F038FCFE
:1031F00008B1FDF79CFC00F0CDF81648016841F0DD
:103200000101016000680A23022200F001003590EC
:1032100000204FF4C051309130A9CDE93120CDE9E3
:1032200033030D48FFF720F90A480838016841F0D8
:103230000061016000680022114600F000603590D6
:103240006520FFF7F3FA6520FFF7E2FA36B010BD0C
:1032500000000840E04402580000025870B50446DF
:10326000C079012570B1022801D0FDF760FCD4F8C7
:10327000E004294603F07AFAD4F8E004BDE870408F
:1032800003F02EBA0025F2E7D0F8E00403F057BAB5
:10329000D0F8E00403F05DBA10B5044690F8940449
:1032A00001280AD00120617484F89404206804F095
:1032B00096F9002084F8940410BD022010BDD0F8C7
:1032C000E02400F29C41104603F05CBA10B590F87F
:1032D000941404460068012909D0012184F894144B
:1032E000C168490609D5617B012902D005E00220A9
:1032F00010BD816B41F480318163206804F0A3F834
:10330000206803F0D9FD002084F8940410BD00006B
:1033100010B50446D0F8E00403F076FA2068D0F83F
:10332000001E41F00101C0F8001EE07A002804D020
:103330000248016841F00601016010BD10ED00E097
:10334000134970B50A68D243520705D5096801F0E0
:103350000701814213D118E00A6822F007020243F4
:103360000A60FFF79DF90A4D4FF47A760446083D4E
:1033700007E000BFFFF794F9001BB04201D901201C
:1033800070BD2868C0438004F4D4002070BD0000E4
:103390000C4802580248016841F080710160704792
:1033A0000C48025810B501F069F905490968054A49
:1033B000C1F30211515C01F01F01C84010BD0000B3
:1033C000204402585C7D00084A4930B5494C0B1D29
:1033D0000A680C3409681D68246802F0030305F0CC
:1033E0000102C1F30511C4F3CC04002914FB02F25D
:1033F00000EE102AF8EE400A76D0414A9FED3E1AC0
:10340000DFED3E1AB7EE000A23B1012B5AD0022B92
:1034100018D15CE0374C283C23689B0612D5394B09
:10342000246801EE901A1168C4F3C104F8EE612A11
:10343000E34001EE903AC1F30801F8EE611A81EE23
:10344000A22A07E002EE101A1168F8EE422A81EE75
:10345000A22A45E001EE901A1168F8EE611A40EEDA
:10346000811A71EE800A62EE200AC1F3462101EE54
:10347000101AB8EE411A31EE001AC0EE811ABCEEF5
:10348000E11A80ED001A1168C1F3064101EE101A2D
:10349000B8EE411A31EE001AC0EE811ABCEEE11A04
:1034A00080ED011A1168C1F3066101EE101AB8EE41
:1034B000411A31EE000A80EE801ABCEEC10A80ED9E
:1034C000020A30BD01EE901ADFED0F2A03E001EE93
:1034D000901ADFED0E2A1168F8EE611A82EEA12A29
:1034E000C1F30801B6E7FFE7002101604160816098
:1034F00030BD000028440258000000390024744CFC
:10350000304402580090D0030024744A20BCBE4BC3
:10351000494930B5484C0B1D0A68143409681D68C8
:10352000246802F00303C5F30012C1F30531C4F3AC
:10353000CC04002914FB02F200EE102AF8EE400A37
:1035400075D03F4A9FED3D1AB7EE000A6BB1DFED33
:103550003D1A012B01D0022B64D002EE101A116823
:10356000F8EE422A81EEA22A21E0334C283C23685F
:103570009B0612D5344B246801EE901A1168C4F3EF
:10358000C104F8EE612AE34001EE903AC1F308016C
:10359000F8EE611A81EEA22A0BE001EE901ADFED3F
:1035A0002B2A00BFF8EE611A116882EEA12AC1F33E
:1035B000080101EE901A1168F8EE611A40EE811AC6
:1035C00071EE800A62EE200AC1F3462101EE101A64
:1035D000B8EE411A31EE001AC0EE811ABCEEE11AC3
:1035E00080ED001A1168C1F3064101EE101AB8EE21
:1035F000411A31EE001AC0EE811ABCEEE11A80EDDC
:10360000011A1168C1F3066101EE101AB8EE411AF1
:1036100031EE000A80EE801ABCEEC10A80ED020A8B
:1036200030BD04E001EE901ADFED092ABAE700216F
:10363000016041608160F3E72844025800000039CE
:10364000384402580024744A0090D0030024744C7B
:1036500020BCBE4B494930B5484C0B1D0A681C3490
:1036600009681D68246802F00303C5F30022C1F352
:103670000551C4F3CC04002914FB02F200EE102A19
:10368000F8EE400A75D03F4A9FED3D1AB7EE000AAA
:103690006BB1DFED3D1A012B01D0022B64D002EE9D
:1036A000101A1168F8EE422A81EEA22A21E0334C6A
:1036B000283C23689B0612D5344B246801EE901AEF
:1036C0001168C4F3C104F8EE612AE34001EE903AB8
:1036D000C1F30801F8EE611A81EEA22A0BE001EEB7
:1036E000901ADFED2B2A00BFF8EE611A116882EE06
:1036F000A12AC1F3080101EE901A1168F8EE611ACF
:1037000040EE811A71EE800A62EE200AC1F3462172
:1037100001EE101AB8EE411A31EE001AC0EE811A0D
:10372000BCEEE11A80ED001A1168C1F3064101EE0A
:10373000101AB8EE411A31EE001AC0EE811ABCEE32
:10374000E11A80ED011A1168C1F3066101EE101A49
:10375000B8EE411A31EE000A80EE801ABCEEC10AC2
:1037600080ED020A30BD04E001EE901ADFED092A77
:10377000BAE70021016041608160F3E72844025804
:1037800000000039404402580024744A0090D003DD
:103790000024744C20BCBE4B2DE9F04FAC4A0546CA
:1037A000DFF8A8A280F48070DFF8AC9289B0131122
:1037B000AA4C0843A748AAF104064FF0805C4FF0DA
:1037C00000582CD085F400770F4357D0DFF87CB237
:1037D00085F480670F430BF1080B61D085F4006717
:1037E0000F4374D085F480570F436ED085F4005793
:1037F0000F434FF480394FF4003E67D085F4002723
:103800000F4371D085F480370F436ED085F4804626
:103810000E436BD085F400420A4368D02AE0DAF800
:10382000001001F00701052924D2DFE801F075BC82
:103830007D25B10006A8FFF7C7FD079809B0BDE8D0
:10384000F08F6846FFF764FE0098F7E703A8FFF7DC
:1038500001FF0398F2E72068C0F3C10022FA00F0EC
:10386000ECE72268D20571D561456FD11846E5E7CE
:103870004145E3D00020E1E74846DFE7DAF80010F1
:1038800001F4E07180294FD004DC002944D04029A4
:10389000F0D188E0C029EFD0B1F5807FEAD177E0A0
:1038A000DBF8001001F46001B1F5800F3CD004DCBE
:1038B00091B3B1F5001FDDD175E0B1F5C00FDBD0DC
:1038C000B1F5000FD6D163E001E018E030E0DBF89D
:1038D000001001F0E061B1F1007F25D008DCD9B122
:1038E000B1F1807FC6D15EE049E06CE079E09CE018
:1038F000B1F1407FC0D0B1F1806FBBD148E0DAF8C0
:10390000001001F4E041B1F5005F0DD005DC19B104
:10391000B1F5805FAED146E094E0B1F5405FABD049
:10392000B1F5804FA6D133E020688000A2D58DE7A5
:10393000DAF8001001F4E021B1F5403F6CD006DC6C
:1039400061B149457AD0714594D157E037E0B1F57E
:10395000802F65D0B1F5A02F8CD10CE000F0B0FE27
:103960006CE76846FFF7D4FD019867E703A8FFF707
:1039700071FE049862E721688903F1D47AE7DBF8E5
:10398000001011F440310ED0494510D07145F5D1E9
:103990003168256801F040516D077FF562AF00295D
:1039A0007FF45FAF57E720680001E7D549E720685B
:1039B0008000E3D503A8FFF74DFE05983EE7226897
:1039C0009203DBD554E7306810F480303AD0484594
:1039D000D4D120680001D1D56846FFF799FD02983F
:1039E0002CE7DBF8001001F0E041B1F1405F13D0AB
:1039F00008DC71B1614521D04145BFD1206880000C
:103A0000B4D437E7B1F1804F0AD0B1F1A04FB2D0B2
:103A100030E7FFF7C7FC11E720684007AED51AE78B
:103A20002068C005AAD521E708E0DAF8001011F0F7
:103A30004051A0D0614505D041459FD1206800018B
:103A40008FD417E72068800198D5F3E650440258D8
:103A50000090D00340787D010080BB0000440258F4
:103A60002DE9FE4F0546DFF8E48350F8081B0024DB
:103A7000F64FC943019005F12800264608F12408B5
:103A8000009008011DD4A86E50B1B0F5801F0CD075
:103A9000B0F5001F0ED0B0F5401F1ED001240FE07E
:103AA000386840F40030386017E00198022101F0D6
:103AB0000FFE03E00098022101F09AFE04000CD0F2
:103AC00026462888C043C00523D4A86D05281ED2E9
:103AD000DFE800F00C11161B1B00AA6ED8F80010CE
:103AE00021F440111143C8F80010EAE7386840F4A7
:103AF0000030386009E00198002101F0E9FD03E0A1
:103B00000098002101F074FE044674B100E0012425
:103B100026462888C043800528D4E86D80281ED01A
:103B20000CDC90B140280ED114E0AA6DD8F800103A
:103B300021F007011143C8F80010EAE7C02813D0AC
:103B4000B0F5807F10D001240FE0386840F40030D9
:103B5000386009E00198002101F0BAFD03E0009807
:103B6000002101F045FE04469CB126462888DFF876
:103B7000DC92C04309F12C0940052CD4D5F8A800EB
:103B8000B0F5800F20D00DDCA0B1B0F5001F0FD133
:103B900015E0EA6DD8F8001021F4E0711143C8F87F
:103BA0000010E3E7B0F5C00F13D0B0F5000F10D050
:103BB00001240FE0386840F40030386009E00198D3
:103BC000002101F085FD03E00098002101F010FEC6
:103BD00004467CB126462888C04300052DD4D5F87C
:103BE000AC00B0F1007F21D00EDCA8B1B0F1807F35
:103BF00010D116E0D5F8A820D9F8001021F4600102
:103C00001143C9F80010E6E7B0F1407F13D0B0F1DE
:103C1000806F10D001240FE0386840F40030386025
:103C200009E00198002101F053FD03E00098002114
:103C300001F0DEFD044674B126462868C0438001C9
:103C40001FD4E86CD8B110280FD0202812D030280B
:103C500015D0012414E0D5F8AC20D9F8001021F0DB
:103C6000E0611143C9F80010E7E7386840F400301C
:103C7000386004E00198022101F02AFD044674B185
:103C800026462888C043C0042BD4286EB0F5005FB8
:103C900020D00DDCA0B1B0F5805F0FD115E06B48EE
:103CA000EA6C2030016821F0300111430160E8E73F
:103CB000B0F5405F13D0B0F5804F10D001240FE075
:103CC000386840F40030386009E00198002101F0C4
:103CD000FFFC03E00098002101F08AFD04468CB14E
:103CE00026462888C043800429D4686EB0F5403F3A
:103CF00023D010DC08B3B0F5803F14D0B0F5003FFE
:103D00000FD115E02A6ED8F8001021F4E0411143DC
:103D1000C8F80010E5E7B0F5802F0ED0B0F5A02F61
:103D20000BD001240AE00198012101F0D1FC03E04D
:103D30000098012101F05CFD044694B126462888D4
:103D4000C04340042AD4D5F8B000B0F1405F23D07E
:103D500010DC08B3B0F1805F14D0B0F1005F0FD178
:103D600015E06A6ED8F8001021F4E0211143C8F87C
:103D70000010E4E7B0F1804F0ED0B0F1A04F0BD0AF
:103D800001240AE00198012101F0A2FC03E000985F
:103D9000012101F02DFD044674B126462888C04358
:103DA00000041FD4286FD8B1B0F1805F0ED0B0F1FD
:103DB000005F10D0012414E0D5F8B020D9F800102D
:103DC00021F0E0411143C9F80010E7E7386840F4FA
:103DD0000030386004E00198012101F079FC0446CC
:103DE00074B126462868C043C0011ED4A86CD0B167
:103DF00001280ED0022811D0032814D0012413E08A
:103E00002A6FD8F8001021F040511143C8F8001073
:103E1000E8E7386840F40030386004E00198022197
:103E200001F056FC0446ACB126462868DFF81CB009
:103E3000C043ABF11C0B400252D40548016841F469
:103E400080710160FEF72CFC824611E02C44025880
:103E500000480258FA48AA6C016821F00301114396
:103E60000160E2E7FEF71CFCA0EB0A00642835D8ED
:103E7000F4480068C005F5D58CBBDFF8C4A3B5F8DD
:103E8000B4100AF1240ADAF8000001F4407100F4D9
:103E90004070884211D0DAF80010DAF8002021F4DE
:103EA000407142F48032CAF80020DAF8002022F48F
:103EB0008032CAF80020CAF80010D5F8B400B0F576
:103EC000807F1AD1FEF7ECFB029012E0FEF7E8FBD0
:103ED0000299411A41F2883081420AD903242646C8
:103EE0002878DFF85CA3C0430AF1080AC00721D094
:103EF0003CE0DAF800008007E8D5D5F8B410C1F34B
:103F00000120032858460DD0016821F47C5101603E
:103F1000B5F8B420DAF80010C2F30B021143CAF866
:103F20000010DDE7C84A036802EA111223F47C514D
:103F30001143ECE7E86F182816D005DCA0B108287B
:103F400008D0102804D10AE020280DD028280BD052
:103F500001240AE00198012101F0BAFB03E0009876
:103F6000012101F045FC044664B126462878C0438F
:103F700080071ED4A86F062819D2DFE800F0160CBF
:103F800011161616EA6FDAF8001021F03801114305
:103F9000CAF80010EAE70198012101F099FB03E05B
:103FA0000098012101F024FC04467CB100E00124CA
:103FB00026462878C04340071FD4D5F89400062829
:103FC00019D2DFE800F0160C11161616AA6FDAF8EF
:103FD000001021F007011143CAF80010E9E7019829
:103FE000012101F075FB03E00098012101F000FCC4
:103FF0000446A4B100E0012426462878C043800688
:104000002BD4D5F89000B0F1405F24D011DC10B370
:10401000B0F1805F15D0B0F1005F10D116E0D5F897
:104020009420D9F8001021F007011143C9F80010BD
:10403000E3E7B0F1804F0ED0B0F1A04F0BD00124D8
:104040000AE00198002101F043FB03E000980221FF
:1040500001F0CEFB044694B126462878C0434006C2
:104060002BD4D5F89C00B0F5406F24D011DC10B3F0
:10407000B0F5806F15D0B0F5006F10D116E0D5F80F
:104080009020DAF8001021F0E0411143CAF8001046
:10409000E3E7B0F5805F0ED0B0F5A05F0BD0012450
:1040A0000AE00198002101F013FB03E000980221CF
:1040B00001F09EFB044694B126462878C0430006D2
:1040C0002BD4D5F8A000B0F5C04F24D011DC10B32C
:1040D000B0F5005F15D0B0F5804F10D116E0D5F8DF
:1040E0009C20D9F8001021F4E0511143C9F80010C8
:1040F000E3E7B0F5004F0ED0B0F5204F0BD0012410
:104100000AE00198002101F0E3FA03E0009802219F
:1041100001F06EFB044654B126462878C0430007E0
:104120001ED4D5F88400B0F5805F0AD00FE0D5F832
:10413000A020D9F8001021F460411143C9F8001003
:10414000EBE70098022101F053FB00B10126D5F8FE
:104150008420DAF8001021F440511143CAF800100D
:104160002878C043C00613D4D5F89800B0F5807FF6
:1041700005D10098022101F03BFB00B10126D5F8E2
:104180009820D9F8001021F440711143C9F80010AB
:104190002868C043000316D4D5F8A40038B1B0F5A0
:1041A000803F09D0B0F5003F0BD001240AE0019810
:1041B000002101F08DFA03E00098022101F018FBC4
:1041C00004468CB126462868C043400322D4D5F863
:1041D0008800B0F5801F11D0B0F5001F13D0B0F5E6
:1041E000401F15D0012414E0D5F8A420D9F8001000
:1041F00021F440311143C9F80010E4E7386840F475
:104200000030386004E00098012101F0F1FA044622
:104210005CB126462868C043C00323D4286DA8B1EA
:10422000B0F5803F17D001241BE0D5F88820DAF8DC
:10423000001021F440111143CAF80010EAE7000011
:104240004C44025800480258CFFFFF00386840F441
:104250000030386004E00198022101F039FA044688
:10426000E4B126462868C043800005D400980221A6
:1042700001F0BEFA00B101262868C04380031BD4B8
:10428000D5F88000B0B1B0F5807F0FD0B0F5007FD9
:1042900010D0B0F5407F0DD001240CE05A482A6DB3
:1042A000016821F4803111430160DBE7386840F494
:1042B00000303860ECB326462868C043C00207D4FB
:1042C0006A6FD8F8001021F000411143C8F80010BF
:1042D0002868C043C00008D4D5F8B820DBF8001027
:1042E00021F480411143CBF800102868C0438002BC
:1042F00007D4EA6ED8F8001021F080711143C8F895
:1043000000102868C04340000CD4DBF8001021F4F2
:104310000041CBF80010DBF80010D5F8BC201143A9
:10432000CBF800102868C04308D437486A6D01688C
:1043300000E018E021F04051114301602868C043BB
:10434000000208D4D5F88C20DAF8001021F44001DE
:104350001143CAF8001028790024C04300F001007E
:1043600020430AD00FE0D5F88020DAF8001021F4BD
:1043700040711143CAF800109EE70198002101F036
:10438000A7F900B106462879C04300F00200204397
:1043900005D10198012101F09BF900B10646287969
:1043A000C04300F00400204305D10198022101F030
:1043B0008FF900B106462879C04300F00800204379
:1043C00005D10098002101F013FA00B106462879C2
:1043D000C04300F01000204305D10098012101F0F6
:1043E00007FA00B106462879C04300F020000443D4
:1043F00004D10098022101F0FBF900B916B10120A7
:10440000BDE8FE8F0020FBE74C44025870470000D7
:104410002DE9F05F04000F467ED0DFF83882D8F82F
:10442000000000F00F00B8420CD2D8F8001021F0C4
:104430000F013943C8F80010D8F8000000F00F0051
:10444000B84269D12078844D40070AD5206929688F
:1044500001F07001884204D9296821F070010143FC
:10446000296020787C4E361D00070AD560693168C6
:1044700001F07001884204D9316821F070010143D4
:1044800031602078C0060AD5A069316801F4E06186
:10449000884204D9316821F4E06101433160207819
:1044A000DFF8B4B180060BF1080B0CD5E169584672
:1044B000DBF8002002F07002914204D9026822F079
:1044C00070020A430260207880070AD5E0682968F4
:1044D00001F00F01884204D9296821F00F0101433E
:1044E00029602078C0073ED05B49A2682868183947
:1044F00020F47060104328606068022818D00328F8
:1045000019D00968012819D0490700294ADADFF8CB
:1045100048A1AAF1080A00E044E0DAF8002022F0FD
:1045200007020243CAF80020FEF7BAF8814612E0FB
:1045300009688903E9E709688901E6E7C905E4E74D
:10454000FEF7AEF8A0EB090141F28830814202D9B2
:104550000320BDE8F09F6168DAF8000000F0380041
:10456000B0EBC10FECD1207880070AD5E06829684C
:1045700001F00F01884204D2296821F00F010143A4
:104580002960D8F80010404601F00F01B9420BD95C
:10459000016821F00F0139430160006800F00F004D
:1045A000B84201D00120D4E7207840070AD520691D
:1045B000296801F07001884204D2296821F0700155
:1045C00001432960207800070AD56069316801F04D
:1045D0007001884204D2316821F0700101433160DA
:1045E0002078C0060AD5A069316801F4E0618842EC
:1045F00004D2316821F4E061014331602078800603
:104600000CD5E1695846DBF8002002F070029142B7
:1046100004D2026822F070020A43026000F062F8DD
:104620000E492A682B68C2F3032203F00F038A5C49
:10463000C95C02F01F0201F01F01D040084A20FAB5
:1046400001F111600749086007480068BDE8F05FA4
:10465000FEF762B800200052184402585C7D000842
:1046600078000024740000246C00002402480168D3
:1046700041F40021016070470044025830B500F059
:1046800031F80B4A0B490C4B15681468C5F303222B
:1046900004F00F048A5C095D02F01F0201F01F01A3
:1046A000D040064A20FA01F119601060084630BD7A
:1046B000184402585C7D000878000024740000242F
:1046C00000B5FFF7DBFF05490968054AC1F3021190
:1046D000515C01F01F01C84000BD00001C4402589D
:1046E0005C7D0008454970B545480968434B103B5F
:1046F00011F0380208D00111082A03D0102A0BD07B
:10470000182A0BD0084670BD19688906FBD51968B0
:10471000C1F3C101C84070BD3A4870BD3749374D3B
:1047200018310C1D24350A68096826682D6802F0C6
:10473000030406F00102C1F30511C5F3CC0515FB16
:1047400002F200EE102AB8EE400AE9B32F4ADFED7C
:104750002E0AB7EE001A6CB1DFED2D1A012C01D034
:10476000022C43D002EE101A1068F8EE422A81EEB5
:10477000A22A1EE01C68A40611D51B6801EE901A3F
:104780001168C3F3C103F8EE612AD84001EE900A24
:10479000C1F30800F8EE611A81EEA22A0BE001EEE7
:1047A000901ADFED1C2A00BFF8EE611A106882EE45
:1047B000A12AC0F3080001EE900AF8EE611A40EE5B
:1047C000201A31EE810A00E015E022EE000A10689E
:1047D000C0F34620401C00EE900AF8EE600A80EE1E
:1047E000201ABCEEC10A10EE100A70BD01EE901A3C
:1047F000DFED092AD8E7002070BD00001044025800
:104800000090D00340787D01000000393044025808
:104810000024744A0024744C20BCBE4B064810B5DA
:104820000068400506D5FFF7F1FD03494FF48060AD
:10483000091D086010BD0000644402582DE9F05FB6
:1048400004007DD0FF4F2078FE4D1837DFF8F49339
:10485000103DC00748D0D9F80000396800F0380092
:10486000102815D0182803D101F0030002280FD01A
:104870006068B0F5803F12D010B1B0F5A02F18D00D
:10488000286820F480302860286820F4802009E01F
:104890002868800328D560680028D2D024E02868E2
:1048A00040F480302860606888B1FDF7F9FE064664
:1048B00009E0286840F480202860F0E7FDF7F0FE6A
:1048C000801B64286FD828688003F7D50CE0FDF7BB
:1048D000E7FE064605E000BFFDF7E2FE801B642808
:1048E000F0D828688003F7D4207841F20308D54E29
:1048F0000C3E800769D5D9F80000396810F03800FF
:104900000ED0182801D188070AD0E06890B3296832
:1049100021F0190101432960FDF7C2FE824631E012
:104920002868400702D5E06800288AD0E168286836
:1049300020F0190008432860FDF7B2FE824607E028
:10494000DFE000BFFDF7ACFEA0EB0A000228B9D8FB
:1049500028684007F6D500BFFDF79CFE40451BD8F0
:104960002069402812D0316821F47C3141EA0030BE
:1049700030602AE018E000BFFDF792FEA0EB0A00CD
:1049800002289FD828684007F6D5E5E7306820F46C
:104990007C3040F40030EBE7207C316821F0FE41B0
:1049A00041EA0060E4E70DE1286820F0010028609A
:1049B000FDF776FE824605E0FDF772FEA0EB0A00E9
:1049C00002288DD828684007F6D42078C0065DD527
:1049D000D9F80000DFF86CB2396800F03800ABF1AC
:1049E000040B082810D0182803D101F00300012877
:1049F0000AD0E0690028286838D040F0800028609C
:104A0000FDF74EFE824623E02868C00523D5E06905
:104A1000802876D11FE0206A202821D0316821F03B
:104A2000F84141EA8060306030E000BF94F8201027
:104A3000DBF8002022F07C5242EA0161CBF8001042
:104A400024E000BFFDF72CFEA0EB0A00022898D856
:104A50002868C005F6D5FDF71DFE4045E6D8DAE723
:104A6000306820F0F84040F08040DCE720F0800023
:104A70002860FDF715FE064605E000BFFDF710FEB5
:104A8000801B02289DD82868C005F7D4207800072D
:104A900029D56C486169643000298046016811D0CD
:104AA00041F001010160FDF7FBFD064605E000BF96
:104AB000FDF7F6FD801B0228C9D8D8F80000800752
:104AC000F6D510E021F001010160FDF7E9FD064691
:104AD00005E000BFFDF7E4FD801B022872D8D8F87E
:104AE00000008007F6D42078800623D5A06900282E
:104AF000286810D040F480502860FDF7D1FD0646AC
:104B000005E036E1FDF7CCFD801B02285AD8286865
:104B10008004F7D50EE020F480502860FDF7C0FD3A
:104B2000064604E0FDF7BCFD801B02284AD8286831
:104B30008004F7D4207840074FD5DFF80C81D8F8EF
:104B4000001041F48071C8F80010FDF7A9FD064679
:104B500005E000BFFDF7A4FD801B642832D8D8F81B
:104B60000000C005F6D5374EA068603601280AD08F
:104B700008B1052813D0306820F00100306030689B
:104B800020F0040002E0306840F001003060A068CE
:104B900041F2883A90B1FDF783FD80460AE0306823
:104BA00040F004003060EEE7FDF77AFDA0EB08016D
:104BB000514507D830688007F6D50EE0FDF770FD47
:104BC000804607E084E000BFFDF76AFDA0EB080126
:104BD00051457DD830688007F6D4606AB0B3DFF8FD
:104BE0006480D9F8001008F120084FF6F87B08F12E
:104BF0000409C1F3C2010329A8F1040A69D00228FB
:104C0000286820F08070286003D0FDF749FD044635
:104C100084E0FDF745FD064605E000BFFDF740FDD9
:104C2000801B022877D828688001F7D4E26A40F216
:104C3000F331386854F8283F884340EA021018439B
:104C4000386004E01044025800480258B5E0217B67
:104C5000434622894FF4FE0C208A4FF0FE4749025A
:104C6000267D521E401EA1F50071C2F308088AB2CB
:104C7000761E0CEA004042EA08020243504607EA68
:104C800006610A431A60DAF8002022F00102CAF82D
:104C90000020D9F80020266A22EA0B0242EAC60266
:104CA000C9F80020DAF80010A26921F00C011143C4
:104CB000CAF800100168E26921F0020111430160A5
:104CC000016841F480310160016841F4003101E084
:104CD00021E027E00160016841F480210160016862
:104CE00041F001010160286840F080702860FDF704
:104CF000D7FC044605E000BFFDF7D2FC001B0228EC
:104D000009D828688001F7D557E000BFFDF7C8FC37
:104D1000001B022802D90320BDE8F09F286880010B
:104D2000F4D44AE039680128D8F8000021D0A26AFA
:104D300001F0030393421CD1E26AC1F305118A42D8
:104D400017D1216BC0F30802491E8A4211D1616B51
:104D5000C0F34622491E91420BD1A16BC0F306421B
:104D6000491E914205D1E16BC0F30660491E8142A4
:104D700001D00120D0E7A16C4E46D9F80000C0F365
:104D8000CC00814219D0DAF80000554620F001002D
:104D9000CAF80000FDF784FC4FEA0007FDF780FC2D
:104DA000B842FBD0A26C306820EA0B0040EAC20097
:104DB0003060286840F0010028600020ACE7401E09
:104DC000B0F1807F10B501D3012010BD4FF0E02479
:104DD00060610F21601702F0AFFC0020A061072185
:104DE000216110BD7047704770470000F0B590F822
:104DF0003C20012A3BD01F4E012480F83C40022277
:104E000080F83D2002681C4D5368B242D2F808C0B9
:104E100001D0AA4203D14F6823F470033B430F68CB
:104E200023F070031F4357600268B24213D0B2F1FF
:104E3000804F10D0114B9A420DD0114B9A420AD09C
:104E4000104B9A4207D0AA4205D00F4B9A4202D08B
:104E50000E4B9A4204D189682CF08003194391606B
:104E6000002180F83D4080F83C100846F0BD02204B
:104E7000F0BD0000000001400004014000040040BB
:104E800000080040000C00400018004000400140B5
:104E900010B5040003D094F83D0010B107E00120E4
:104EA00010BD002084F83C00204600F023F80220CA
:104EB00084F83D002068211D00F018FE012084F8D0
:104EC000480084F83E0084F83F0084F8400084F8ED
:104ED000410084F8420084F8430084F8440084F8D8
:104EE000450084F8460084F8470084F83D0000201F
:104EF00010BD000008B5174A01681748914207D154
:104F0000016841F010010160006800F0100009E044
:104F1000124A914208D1016841F020010160006805
:104F200000F02000009008BD0D4A9142FBD10168BD
:104F300041F48071016000680022114600F4807025
:104F400000902D20FDF772FCBDE808402D20FDF7F4
:104F50005FBC000000100040E8440258001400400C
:104F60000020004090F83D10012901D00120704739
:104F7000144B0222016880F83D20994214D0B1F10F
:104F8000804F11D0104881420ED0104881420BD082
:104F90000F48814208D00F48814205D00E48814217
:104FA00002D00E48814207D188680D4A1040062879
:104FB00006D0B0F5803F03D0086840F001000860DB
:104FC000002070470000014000040040000800403D
:104FD000000C004000040140001800400040014067
:104FE0000700010070472DE9F041044600680027E2
:104FF000C6680569A90713D5B10711D5FA1E026164
:1050000001212177206880698007204602D0FFF7C0
:10501000E9FF04E000F08BF8204600F089F82777DC
:10502000680716D5700714D5226802206FF00401B6
:10503000116120772068806910F4407F204602D0FB
:10504000FFF7D0FF04E000F072F8204600F070F89F
:105050002777280715D5300713D5226804206FF06D
:105060000801116120772068C0698007204602D0BE
:10507000FFF7B8FF04E000F05AF8204600F058F8B7
:105080002777E80616D5F00614D5226808206FF0B9
:105090001001116120772068C06910F4407F20461C
:1050A00002D0FFF79FFF04E000F041F8204600F037
:1050B0003FF82777E80708D0F00706D021686FF09F
:1050C00001000861204600F034F8280601D4A80445
:1050D00008D5300606D521686FF4025008612046D5
:1050E000FFF781FEE80508D5300606D521686FF484
:1050F000807008612046FFF775FE680608D57006C7
:1051000006D521686FF040000861204600F012F8D3
:10511000A8060AD5B00608D521686FF020000861FE
:105120002046BDE8F041FFF75FBEBDE8F081704763
:10513000704770477047FEE7F0B500230A251C460C
:105140003026372711E000BFB5EB107F02D906EB00
:10515000107C01E007EB107C01F813C001EB430C5D
:1051600000015B1C8CF80140DBB29342ECD3F0BD34
:10517000A0F5895000F580400021802301807F2226
:105180008170C17003714271704700002DE9F041D8
:1051900068B100F500544FF6FF710023134E00F57F
:1051A0003A55B4F8E02E01EAC2011A4615E0012092
:1051B000BDE8F08100EB820C1F1D06EB030EBBB2B5
:1051C000DCF800C0F718521CCEF800C0D5F862C059
:1051D0001B1D92B2C7F800C09BB2B4F8E07E9742A4
:1051E000E8D8BDE8F0410148FBF736BA284E002464
:1051F00030B5002929D0002827D040F6B832934294
:1052000000D9134642F6E064002223520AE000BFB0
:1052100001EB820400EB820594ED000A521C92B26D
:1052200085ED000A9A42F3D300F01F0242F6E061D6
:105230001144BFF34F8F054A1060203020390029F8
:10524000FADCBFF34F8FBFF36F8F30BD68EF00E024
:105250008068C0F3C00070478068C0F3800070476A
:10526000C06810F4406F01D00020704701207047E3
:1052700010B5042404EAD1540723C1F30451204497
:105280008B408A40416999431143416110BD000040
:10529000F0B587B01C216846FBF723F8294C0025A0
:1052A0000822294804F12407D101C4E90005C4E912
:1052B00003522575012665750322A6618B004FF404
:1052C000B460257787E82F0084F838502046E663DD
:1052D000FBF78CFE08B1FBF72AFC1A480427A760ED
:1052E000FBF784FE08B1FBF722FC18480621CDE944
:1052F000047540F2FF7203928DE84300114869463D
:105300008DF81950FBF764FC08B1FBF710FC20681E
:105310008168C90707D0816841F002018160206877
:105320008168C907FCD1816841F4407181600548FA
:105330006946FBF74DFC002801D0FBF7F8FB07B0EE
:10534000F0BD000014010024006002580008302E57
:10535000094808B5016841F40011016000680022A5
:10536000114600F4001000908120FDF75FFABDE8BF
:1053700008408120FDF74CBAE044025800B589B0DE
:1053800024216846FAF7ADFF0E490D48086008462B
:10539000FCF7D9F808B1FBF7CAFB00201A2102225A
:1053A00001238DE80F000490024606486946FCF789
:1053B00021F8002801D0FBF7BAFB09B000BD0000BE
:1053C00000740040F0010024094808B5016841F06C
:1053D0000101016000680022114600F00100009008
:1053E0000B20FDF723FABDE808400B20FDF710BAAB
:1053F000D84402580D4808B5016841F00401016025
:10540000016801F004010091016841F08001016030
:10541000016801F080010091016841F00101016023
:10542000006800F00100009008BD0000E044025850
:105430000C48EF2370B5002140F2E734C0E90213B5
:1054400080228261064D0161C0E90054FFF720FD12
:10545000002803D0BDE87040FBF769BB70BD0000B9
:1054600000200040140300243EB5104800240E4BD9
:1054700077210094802201940294C0E90034826173
:10548000C0E90241FFF704FD08B1FBF750FB202003
:105490000090064869460294FFF7A8FC002801D056
:1054A000FBF745FB3EBD0000001000407C020024DD
:1054B0003EB5104800240E4BEF2100948022019449
:1054C0000294C0E900348261C0E90241FFF7E0FCC8
:1054D00008B1FBF72CFB2020009006486946029497
:1054E000FFF784FC002801D0FBF721FB3EBD000044
:1054F00000140040C802002410490022104810B5D2
:1055000000F090FF08B1FBF712FB0E490C4801F0C8
:10551000A6F908B1FBF70BFB0B49094800F01CFD8D
:1055200008B1FBF704FB064801F01EFA08B1FBF7CF
:10553000FEFABDE81040FDF72DBF0000000000247A
:1055400060030024D400002454000024FEE7FFF789
:1055500065F9FEE70148FDF7F9BA00005C1A00247E
:105560002DE9F041044680790D4620272368012863
:105570004FF4004604F29C4203EB4511D3F840C0BF
:10558000D1F8080B09D0DFF89CE0F4453AD10204C9
:1055900033D500BFC1F8086B40E0234B5FEA007EC3
:1055A00004D59C453AD90004F4D437E05FEA806E14
:1055B00002D5C1F8087B31E010F0280F2ED19C45B0
:1055C00001D90004E6D4D1F8101B05EBC50004EBAB
:1055D0008000C1F31201D0F87432A3EB0101C0F8CE
:1055E000681200F51570ADB903691BB1C2681144AA
:1055F000C1600FE0206801210AE080060AD5C1F8E9
:10560000087B07E035B9D4F8640218B900211846C0
:1056100001F02AFD2046E9B2FDF783F90020BDE83C
:10562000F08100000A31544F0A30544F2DE9F84FF1
:105630000E460568814601EBC60100EB8104D4E902
:1056400009201434904202D90120BDE8F88FA168E6
:10565000101A814200D20846C01C05EB4618870884
:105660001BE000BFA268A0EB010A524500D292469F
:1056700099F806100AF1030000911FFA8AF3E16815
:1056800087082846F2B202F02FF8E16801EB0A0021
:10569000E060616901EB0A006061D8F8180980B226
:1056A000B84205D3D4E90401814201D20028D9D1FE
:1056B000D4E90401884208D8D5F83418012006F04E
:1056C0000F0290408143C5F834180020BDE77047B1
:1056D0002DE9F047454D044689464FF0000A2868F9
:1056E000C04380070AD0414E283E306820F08060D9
:1056F0003060FCF7D5FF0746B04608E00120BDE862
:10570000F08700BFFCF7CCFFC01B022867D8D8F891
:1057100000000001F6D4206829684FF4FE0721F448
:105720007C313E0241EA00302860207AA389B4F837
:1057300004C040022D4D2D495B1E227CACF1010CB2
:105740001035091DA0F5007080B2521ECCF3080C74
:1057500007EA034340EA0C00184306EA02621043DA
:1057600028600868626920F0C000104308600A6879
:10577000A06922F0200202430A60281D0A6822F074
:1057800010020A6002684FF6F873E4699A4342EA2D
:10579000C40202600868B9F1000F40F010020A600C
:1057A00011D00868B9F1010F11D040F40010086061
:1057B000D8F80000444640F08060C8F80000FCF7CC
:1057C0006FFF05460DE0086840F40020EFE740F465
:1057D0008010ECE7FCF764FF401B022801D903208E
:1057E0008DE720680001F5D5504688E72844025827
:1057F0002DE9F047454D044689464FF0000A2868D8
:10580000C04380070AD0414E283E306820F08050C7
:105810003060FCF745FF0746B04608E00120BDE8D0
:10582000F08700BFFCF73CFFC01B022867D8D8F800
:1058300000008000F6D4208829684FF4FE0721F08C
:105840007C713E0241EA00502860207AA389B4F8B6
:1058500004C040022D4D2D495B1E227CACF1010C91
:105860001835091DA0F5007080B2521ECCF3080C4B
:1058700007EA034340EA0C00184306EA02621043B9
:1058800028600868626920F44060104308600A6874
:10589000A06922F4007202430A60281D0A6822F4FB
:1058A00080720A6002684FF6F873E4699A4342EA2C
:1058B000C40202600868B9F1000F40F480720A6007
:1058C00011D00868B9F1010F11D040F08070086064
:1058D000D8F80000444640F08050C8F80000FCF7BB
:1058E000DFFE05460DE0086840F48000EFE740F475
:1058F0000000ECE7FCF7D4FE401B022801D903208E
:105900008DE720688000F5D5504688E72844025886
:1059100070470178407841EA00207047FCF7C6BE26
:10592000F0B59DB04C216846FAF7DBFC202113A8A6
:10593000FAF7D7FC0220FDF703FD2F4900242F487A
:105940000A6822F001020A600A68026842F44042D2
:105950000260026802F440421B9202689204FCD585
:10596000274A136843F002031360126802F0020230
:105970001B92026842F44042026002680A6842F0E8
:1059800001020A60096801F001011B9101688904A4
:10599000FCD5022009902121C20301230526CDE96F
:1059A00000120AAA0693C0270F2182E8C100CDE9A0
:1059B0000D0108250F90CDE9105468461294FEF7AA
:1059C0003DFF08B172B6FEE740201A903F21030167
:1059D000CDE916500322CDE9180313AB13A883E8D1
:1059E00016000421FEF714FD08B172B6FEE7FEF7BB
:1059F0003DFE1DB0F0BD00002C04005818480258B0
:105A0000F44402582C48F0B52C4A016841F4700166
:105A10000160106800F00F00072804D2106820F021
:105A20000F00C01D106026490020254C10340B6863
:105A3000244D43F001030B6020600B682B400B608A
:105A4000136803F00F03072B04D9136823F00F0327
:105A5000DB1D13601A4C1C4A18341C4B261D371DC5
:105A60002060174C1A4D28343060261D3860371DD1
:105A700023603B1D35601C1D3A60251D2E1D1860DE
:105A8000331D22602860326018600A680C4B114C8C
:105A900022F4802260330A60186020686FF30F00E0
:105AA000B0F1005F03D20C490120C1F8080143F2B4
:105AB000D2000A490860F0BD88ED00E000200052E5
:105AC000004402587FEDF6EA800201010002020262
:105AD0000000FF010010005C0080005100400052F7
