:020000040800F2
:10000000D0550024B10200084B510008E94B00080C
:1000100049510008D9080008816500080000000067
:10002000000000000000000000000000BB590008B4
:100030002D0D0008000000004D510008E559000892
:10004000CB020008CB020008CB020008CB0200085C
:10005000CB020008CB020008CB020008CB0200084C
:10006000CB020008CB020008CB020008DD08000824
:10007000E9080008CB020008CB020008CB02000808
:10008000CB020008CB020008CB020008CB0200081C
:10009000CB020008CB020008CB020008CB0200080C
:1000A000A15B0008AD5B0008CB020008CB02000892
:1000B000CB020008B95B0008CB020008CB020008A5
:1000C000CB020008CB020008CB020008CB020008DC
:1000D000CB02000875650008CB020008CB020008BF
:1000E000CB020008CB02000800000000CB02000891
:1000F000CB020008CB020008CB020008CB020008AC
:10010000CB020008F9570008CB020008CB02000818
:10011000CB020008CB020008CB020008CB0200088B
:10012000CB020008CB020008CB020008CB0200087B
:10013000CB020008CB020008CB020008CB0200086B
:1001400000000000000000000000000000000000AF
:10015000CB020008CB020008CB020008CB0200084B
:10016000CB020008CB020008CB020008CB0200083B
:10017000CB020008CB020008CB020008CB0200082B
:10018000CB020008CB020008CB020008CB0200081B
:10019000CB020008CB020008CB020008CB0200080B
:1001A000CB020008CB020008CB020008CB020008FB
:1001B000CB020008CB020008CB020008CB020008EB
:1001C000CB020008CB020008CB020008CB020008DB
:1001D000CB020008CB020008CB020008CB020008CB
:1001E000CB020008CB020008CB020008CB020008BB
:1001F000CB020008CB020008CB020008CB020008AB
:10020000CB020008CB020008CB020008CB0200089A
:10021000CB020008CB020008CB020008CB0200088A
:10022000CB020008CB020008CB020008000000004F
:10023000CB020008CB02000800000000CB0200083F
:10024000CB020008CB020008CB020008CB0200085A
:10025000CB020008CB020008CB020008CB0200084A
:10026000CB020008CB020008CB020008CB0200083A
:10027000CB020008CB020008CB02000800000000FF
:10028000CB020008CB020008CB02000800000000EF
:1002900000000000CB020008DFF810D000F064FA84
:1002A000004800473D870008AFF30080D055002488
:1002B0000648804706480047FEE7FEE7FEE7FEE700
:1002C000FEE7FEE7FEE7FEE7FEE7FEE7C55A0008A9
:1002D000990200082DE9F05F0546002092469B46F2
:1002E00088460646814640241BE02846414647464C
:1002F000224600F070F853465A46C01A914110D376
:1003000011461846224600F057F82D1A67EB0108EF
:100310004F4622460120002100F04EF817EB00095D
:100320004E41201EA4F10104DFDC484631462A4636
:100330004346BDE8F09F40EA01039B0703D009E074
:1003400008C9121F08C0042AFAD203E011F8013BC1
:1003500000F8013B521EF9D27047D2B201E000F81A
:10036000012B491EFBD270470022F6E710B5134659
:100370000A4604461946FFF7F0FF204610BD421C0E
:1003800010F8011B0029FBD1801A704730B50B46CD
:10039000014600202022012409E021FA02F59D42B5
:1003A00005D303FA02F5491B04FA02F52844151E89
:1003B000A2F10102F1DC30BD202A04DB203A00FA70
:1003C00002F1002070479140C2F1200320FA03F3AC
:1003D000194390407047202A04DB203A21FA02F0AA
:1003E0000021704721FA02F3D040C2F1200291406F
:1003F0000843194670472DE9FE4F804681EA030005
:10040000C00F0C46009021F0004123F00045B8EBEE
:100410000200A94105D24046214690461C460B46A3
:10042000024623F00040104347D0270DC7F30A00CF
:10043000C3F30A510290401A019040286BDAC3F3CB
:10044000130040F4801B0098924620B10023D2EBA9
:10045000030A63EB0B0B01985946C0F1400250466A
:10046000FFF7AAFF06460D4650465946019A00F08E
:100470008DF910EB08006141002487EA115284EAEB
:10048000E7731A4340D0009A62B3019A012A4FEAF7
:10049000075215DC001B61EB02014FF0004202EA3B
:1004A0000752CDE90042001C41F5801132462B462F
:1004B00000F08DF903B0BDE8F08F40462146F9E722
:1004C000001B61EB0201001C41F5801300185B4129
:1004D0002018A2F5001747EB030140EAD570B619C2
:1004E0006D4111E06D084FEA360645EAC0754FEAE6
:1004F0000752001B61EB0201001C41F58011490805
:100500004FEA30000019514132462B4603B0BDE896
:10051000F04F00F04DB90098012240000023D0EBCD
:10052000020263EBE073009821464FEAE074B8EBF7
:10053000000061EB0401E9E783F000435BE781F031
:10054000004158E72DE9FE4F81EA030404F000441E
:1005500021F0004100944FF0000B23F0004350EADB
:1005600001045ED052EA03045BD0C3F30A54C1F322
:100570000A552C44A4F2F3340194A0FB0254C1F3B5
:10058000130141F48011C3F3130343F4801301FBFF
:10059000024400FB034E840A970A44EA815447EA66
:1005A0008357A4FB076802958D0A05FB07854FEA70
:1005B000932C04FB0C542705029D4FEA065847EA8A
:1005C0001637B5EB08056EEB070C870E920E47EA5F
:1005D000811742EA8312A7FB0201B6EB0B0164EB21
:1005E00000042B0D43EA0C335E1844EB1C50DA4632
:1005F0005146E7FB0201C5F313044FEA0B3343EA0C
:1006000014534FEA0432019C43EA0603A4F10C049C
:100610000294009CCDE900B400F0D9F803B0BDE825
:10062000F08F00200146F9E72DE9F04D81EA03043F
:1006300004F0004B21F0004514464FF0000A23F06F
:10064000004150EA050220D054EA01021DD0C5F352
:100650000A570246C5F31303C1F31300C1F30A5648
:1006600040F4801543F48013A7EB0608101BD64610
:1006700008F2FD3873EB050002D308F1010801E030
:1006800092185B41B8F1000F03DA00200146BDE883
:10069000F08D00204FF48011064684460EE0171BB3
:1006A00073EB050705D3121B63EB050306434CEA06
:1006B000010C49084FEA300092185B4150EA0107EB
:1006C000EDD152EA030012D082EA040083EA050168
:1006D000084305D0101BAB4106D20122002306E0DF
:1006E00000224FF0004302E06FF0010253101AEBBA
:1006F00006004CEB085110EB0A0041EB0B01BDE882
:10070000F04D00F055B8C1F30A52C1F3130140F2A5
:10071000FF3341F480119A4202DA0020014670470B
:1007200040F233439A42A2F2334202DC5242FFF7D4
:1007300052BEFFF741BE000030B5041E71F1000447
:1007400004DB4FF00044404264EB0101141E73F1DE
:10075000000405DB1C464FF00043524263EB0403E8
:10076000994208BF904230BD064C074D06E0E06854
:1007700040F0010394E8070098471034AC42F6D3E8
:10078000FFF78EFD408D0008608D0008202A06DBF3
:10079000CB17203A41FA02F043EAE07306E041FA4F
:1007A00002F3D040C2F1200291400843194670473D
:1007B00010B5141E73F1000408DA401C41F1000169
:1007C00092185B411A4301D120F0010010BD2DE9C0
:1007D000F04D92469B4611B1B1FA81F202E0B0FAB7
:1007E00080F220329046FFF7E7FD04460F4640EACC
:1007F0000A0041EA0B0153465A46084313D01146FA
:1008000053EA010019D0C8F140025046FFF7E3FD5A
:1008100005460E46504659464246FFF7CDFD084371
:1008200005D0012004E020463946BDE8F08D0020C7
:10083000054346EAE0762C4337430A986305E40A09
:10084000A0EB08000022FD0A44EA47540A3002D512
:1008500000200146E9E7010510196941DDE9084575
:1008600000196941BDE8F04DA2E770B58C1810F889
:10087000015B15F0070301D110F8013B2A1106D1E5
:1008800010F8012B03E010F8016B01F8016B5B1EFF
:10089000F9D12B0705D40023521E0DD401F8013BDA
:1008A000FAE710F8013BCB1A921C03E013F8015B46
:1008B00001F8015B521EF9D5A142D8D3002070BDCA
:1008C0000149012088607047280100240149012066
:1008D0004860704728010024FEE70000014800F04E
:1008E0007FBD000010030024014800F079BD000026
:1008F00088030024294A016891423AD0274A1832D5
:10090000914236D0254A3032914232D0234A483281
:1009100091422ED0214A603291422AD01F4A783229
:10092000914226D01D4A9032914222D01B4AA832D1
:1009300091421ED01A4A91421BD0194A1832914254
:1009400017D0174A3032914213D0154A483291429B
:100950000FD0134A603291420BD0114A7832914243
:1009600007D00F4A9032914203D00D4AA8329142EB
:1009700011D1CAB21823103AB2FBF3F26FF3090196
:10098000032A02F00703074AD25CC26500D9091D99
:1009900081650846704721F0FF01F9E71000024029
:1009A000100402406E8B000830B5224A0123016812
:1009B0009142CAB21BD01F4C1434A14217D01D4C17
:1009C0002834A14213D01B4C3C34A1420FD0194C07
:1009D0005034A1420BD0174C6434A14207D0154CBF
:1009E0007834A14203D0134C8C34A1420CD1142191
:1009F000114C083AB2FBF1F10F4A803201F01F05A9
:100A000004EB8101AB4010E00C4D1824103A0D446A
:100A1000B2FBF4F1A82D00D80831094A01F01F04F7
:100A200002EB8101064AA3408032603080E80E006C
:100A300030BD00000854025800580258F0FBFDBFBA
:100A40000008024010B50279531E072B2DD8174C11
:100A50000168A1421BD0154C1434A14217D0134C8D
:100A60002834A14213D0114C3C34A1420FD00F4C7A
:100A70005034A1420BD00D4C6434A14207D00B4C32
:100A80007834A14203D0094C8C34A14203D10849E7
:100A9000074C443102E00749064C443104EB820222
:100AA000C0E91B2101219940416710BD085402583B
:100AB000FC580258FC08024010B583694FF0C0741E
:100AC000826A0146002053B1B3F5005F15D072B1C0
:100AD000012A0CD0022A0AD0032A09D104E01AB153
:100AE000012A06D0022A03D1C96AC90100D5012012
:100AF00010BDC96AA142FAD010BD002AF7D0012A60
:100B0000F2D0022AF3D0032AF3D010BD2DE9F04F22
:100B1000804E804FDFF8FC911836DFF8F8A1483797
:100B20000468856D0AF1300ADFF8ECB14C45DFF856
:100B3000ECC1DFF8ECE16DD0B4426BD0544569D024
:100B4000BC4267D0DFF8D081A8F11808444561D0D5
:100B50005C455FD064455DD074455BD0DFF8C481EF
:100B6000444557D0DFF8BC8108F11808444551D0FE
:100B7000DFF8B08108F1300844454BD0DFF8A4819C
:100B800008F14808444545D0DFF8988108F160082D
:100B900044453FD0DFF88C8108F17808444539D0CE
:100BA000DFF8808108F19008444533D0DFF8748184
:100BB00008F1A80844452DD0DFF86C81444529D0C0
:100BC000DFF8648108F11408444523D0DFF8588128
:100BD00008F1280844451DD0DFF84C8108F13C0895
:100BE000444517D0DFF8408108F15008444511D042
:100BF000DFF8348108F1640844450BD0DFF8288120
:100C000008F17808444505D0DFF81C8108F18C080C
:100C1000444509D1D0E91948C4F80480C46E1CB118
:100C2000D0E91C48C4F8048004684C452ED0B44276
:100C30002CD054452AD0BC4228D0374E183EB4425E
:100C400024D05C4522D0644520D074451ED0354E5A
:100C5000B4421BD0334E1836B44217D0314E303622
:100C6000B44213D02F4E4836B4420FD02D4E6036CA
:100C7000B4420BD02B4E7836B44207D0294E903672
:100C8000B44203D0274EA836B44215D190F85C6028
:100C90003F2406F01F06B440AC600468256825F4C4
:100CA000802525602EE09A600068C160BDE8F08F65
:100CB00099600068C260F9E71B4EB4421BD01A4E1F
:100CC0001436B44217D0184E2836B44213D0164EFC
:100CD0003C36B4420FD0144E5036B4420BD0124EB4
:100CE0006436B44207D0104E7836B44203D00E4E6C
:100CF0008C36B442DAD190F85C60012406F01F060D
:100D0000B4406C60046863608368402B0368CFD193
:100D1000C9E700001000024088000240A000024025
:100D2000B80002401004024008540258704772B6DE
:100D3000FEE7000010B58CB00024684604F008FA05
:100D400004A804F005FA08A804F002FA28489DED6A
:100D5000002B9FED280B90ED061B32EE412BB0EEE1
:100D6000C22BB4EEC02BF1EE10FA18DD9DED042B72
:100D700032EE412BB0EEC22BB4EEC02BF1EE10FAE6
:100D80000DDD9DED083BB0EE402B33EE411BB0EE88
:100D9000C11BB4EEC21BF1EE10FA00DD01249DED83
:100DA000022B90ED081B32EE412BB0EEC22BB4EEBD
:100DB000C02BF1EE10FA15DD9DED062B32EE412B26
:100DC000B0EEC22BB4EEC02BF1EE10FA0ADD9DEDB1
:100DD0000A2B32EE411BB0EEC11BB4EEC01BF1EE8C
:100DE00010FA01DC002C01D00121C1700CB010BD43
:100DF000000100240000000000004E402DE9F84FE3
:100E0000044601F0BFFA00903CB194F83500022886
:100E100006D0802161650020E4E00120BDE8F88F64
:100E2000C74DC74EC649183520683036DFF81483E1
:100E3000DFF814938842DFF814A3DFF814B32ED040
:100E4000A8422CD0B0422AD0404528D0484526D0D0
:100E5000504524D0584522D0BD4A183290421ED069
:100E6000BC4A90421BD0BB4A1832904217D0B94AB4
:100E70003032904213D0B74A483290420FD0B54A30
:100E8000603290420BD0B34A7832904207D0B14AD8
:100E90009032904203D0AF4AA832904209D1026802
:100EA00022F01E0202602068426922F08002426144
:100EB00003E0026822F00E02026027688F42384683
:100EC0004DD0A8424BD0B04249D0404547D04845CC
:100ED00045D0504543D0584541D09D4A18329042A4
:100EE0003DD09C4A90423AD09A4A1832904236D02D
:100EF000984A3032904232D0964A483290422ED0B0
:100F0000944A603290422AD0924A7832904226D057
:100F1000904A9032904222D08E4AA83290421ED0FF
:100F20008D4A90421BD08C4A1432904217D08A4A84
:100F30002832904213D0884A3C3290420FD0864AE1
:100F4000503290420BD0844A6432904207D0824A99
:100F50007832904203D0804A8C32974204D1206E7E
:100F6000026822F48072026075492068884228D0A5
:100F7000A84226D0B04224D0404522D0484520D0B7
:100F800050451ED058451CD071491831884218D0A0
:100F90007049884215D06F491831884211D06D4987
:100FA000303188420DD06B494831884209D06949B7
:100FB0006031884205D067497831884201D065495F
:100FC0009031016821F0010101600EE001F0DAF9D1
:100FD0000099401A052808D92022626503210020C3
:100FE00084F8351084F8340017E73868C007EDD16D
:100FF000534A0121206890422ED0A8422CD0B04202
:101000002AD0404528D0484526D0504524D05845C0
:1010100022D04F4B183398421ED04E4B98421BD0D3
:101020004C4B1833984217D04A4B3033984213D068
:10103000484B483398420FD0464B603398420BD010
:10104000444B7833984207D0424B9033984203D0B8
:10105000404BA833984208D194F85C703F23A06DB0
:1010600007F01F07BB40836007E094F85C30A06D79
:1010700003F01F0301FA03F34360206890424DD050
:10108000A8424BD0B04249D0404547D0484545D012
:10109000504543D0584541D02D4A183290423DD05A
:1010A0002C4A90423AD02B4A1832904236D0294AE4
:1010B0003032904232D0274A483290422ED0254AD0
:1010C000603290422AD0234A7832904226D0214A78
:1010D0009032904222D01F4AA83290421ED01E4A1F
:1010E00090421BD01C4A1432904217D01A4A283220
:1010F000904213D0184A3C3290420FD0164A5032D8
:1011000090420BD0144A6432904207D0124A78328F
:10111000904203D0104A8C3290420BD1D4E919028C
:101120004260E06E30B1026822F480720260D4E95D
:101130001C024260002084F8351084F834006DE60B
:101140001000024058000240700002408800024037
:10115000A000024010040240085402582DE9F05F3C
:1011600028B190F83510022904D080214165012072
:10117000BDE8F09F904C904B0168183C18338E4AA4
:10118000DFF83C92A1428D4CDFF838E28E4FDFF859
:101190003CB2DFF83CA28F4D8F4E31D091422FD020
:1011A00099422DD0A1422BD0494529D0714527D055
:1011B000B94225D0DFF810C20CF1180C61451FD0E0
:1011C000DFF808C2ACF1600C614519D0DFF8FCC152
:1011D000ACF1480C614513D0DFF8F0C1ACF1300C34
:1011E00061450DD0DFF8E4C1ACF1180C614507D0C2
:1011F000594505D0514503D0A94201D0B1422CD167
:10120000DFF8B4C14FF0040880F83580ACF1180C59
:1012100061451DD091421BD0994219D0A14217D0EF
:10122000494515D0714513D0B94211D066481830E0
:1012300081420DD065486038814209D06348483802
:10124000814205D061483038814201D05F4818386A
:10125000086820F001000860ABE0D1F800C02CF075
:101260000E08DFF854C1C1F80080ACF1180C016819
:10127000614527D0914225D0994223D0A14221D067
:1012800049451FD071451DD0B9421BD0DFF838C188
:101290000CF1180C614515D0DFF830C1ACF1600CD1
:1012A00061450FD0DFF824C1ACF1480C614509D08D
:1012B000DFF818C1ACF1300C614503D0DFF80CC188
:1012C000ACF1180CD1F800C02CF0010CC1F800C032
:1012D000DFF8E4804FF0010C0168A8F118084145DF
:1012E00046D0914244D0994242D0A14240D0494593
:1012F0003ED071453CD0B9423AD0334A183291427F
:1013000036D0324A603A914232D0304A483A91421D
:101310002ED02E4A303A91422AD02C4A183A914285
:1013200026D0594524D0514522D0A94220D0B142DF
:101330001ED02A4A91421BD0284A1432914217D01B
:10134000264A2832914213D0244A3C3291420FD08F
:10135000224A503291420BD0204A6432914207D047
:101360001E4A7832914203D01C4A8C32914218D1E5
:10137000016E0A6822F480720A6090F85C20816D28
:1013800002F01F020CFA02F24A60D0E919124A6018
:10139000C16E31B10A6822F480720A60D0E91C1271
:1013A0004A600022016D80F835C080F8342001B118
:1013B00088470020DCE60000280002405800024078
:1013C0007000024088000240A00002407004024009
:1013D00088040240A0040240B804024008540258A5
:1013E0002DE9FC5F0446F74E0020DFF8D88300901B
:1013F0004FF41652F44808F11808A56DDFF8C493AD
:10140000DFF8C0A3016809F1300920680AF1480A31
:10141000B1FBF2F1B04201912F68D5F800C0DFF8BE
:10142000ACB335D04146884232D0484530D05045E3
:101430002ED058452CD0E5491831884228D0E349B0
:101440003031884224D0E1494831884220D0E049F7
:1014500088421DD0DE491831884219D0DC4930312C
:10146000884215D0DA494831884211D0DFF860E36C
:101470000EF1600E70450BD0D54A7832904207D0FD
:10148000D34B9033984203D0D149A83188427DD1C3
:1014900094F85C20082102F01F0201FA02F23A429D
:1014A0004AD0B04232D0404530D048452ED0504589
:1014B0002CD058452AD0C54A1832904226D0C34A6B
:1014C0003032904222D0C14A483290421ED0C04AA7
:1014D00090421BD0BE4A1832904217D0BC4A3032DC
:1014E000904213D0BA4A483290420FD0B84A603284
:1014F00090420BD0B64A7832904207D0B44A90322C
:10150000904203D0B24AA832904203D1026802F05E
:10151000040202E0026802F008026AB1026822F0E6
:101520000402026094F85C0000F01F008140A96092
:10153000606D40F00100606594F85C00012100F0EE
:101540001F008140394240D02068B04234D040452D
:1015500032D0484530D050452ED058452CD09B4AEB
:101560001832904228D0994A3032904224D0974A7B
:101570004832904220D0964A90421DD0944A183268
:10158000904219D0924A3032904200E0AFE113D03D
:101590008F4A483290420FD08D4A603290420BD031
:1015A0008B4A7832904207D0894A9032904203D0D9
:1015B000874AA83290427DD1406910F0800F04D054
:1015C000A960606D40F00200606594F85C00042141
:1015D00000F01F00814039423ED02068B04232D036
:1015E000404530D048452ED050452CD058452AD0C3
:1015F000764A1832904226D0744A3032904222D035
:10160000724A483290421ED0714A90421BD0704AB2
:101610001832904217D06E4A3032904213D06C4A42
:10162000483290420FD06A4A603290420BD0684AEA
:101630007832904207D0664A9032904203D0644A92
:10164000A83290424ED1006810F0020F04D0A96079
:10165000606D40F00400606594F85C00102100F0BB
:101660001F008140394258D02068B04234D04045F4
:1016700032D0484530D050452ED058452CD0534A12
:101680001832904228D0514A3032904224D04F4AEA
:101690004832904220D04E4A90421DD04C4A1832D7
:1016A000904219D04A4A3032904215D0484A4832C6
:1016B000904200E014E00FD0454A603290420BD0D7
:1016C000434A7832904207D0414A9032904203D048
:1016D0003F4AA832904207D1006800F0080006E0B7
:1016E000006872E70068B7E7006800F00400A0B186
:1016F000A96020680168490304D50068000308D583
:10170000A16C07E00168C90503D4016821F0080154
:101710000160216C09B12046884794F85C002021C3
:1017200000F01F008140394279D02068B04232D0A9
:10173000404530D048452ED050452CD058452AD071
:10174000224A1832904226D0204A3032904222D08B
:101750001E4A483290421ED01D4A90421BD01C4A5D
:101760001832904217D01A4A3032904213D0184A99
:10177000483290420FD0164A603290420BD0144A41
:101780007832904207D0124A9032904203D0104AE9
:10179000A832904203D1006800F0100002E0006817
:1017A00000F00200B0B3A96094F835000428206866
:1017B00001680FD049037ED5006800032BD4616C0B
:1017C0002AE00000100002401000002470000240D7
:1017D0001004024021F0160101602068416921F0E7
:1017E00080014161206C08B9A06C20B120680168BB
:1017F00021F00801016094F85C303F21012003F0E2
:101800001F0300229940A96084F8350084F8342031
:10181000216D65E003E0E16B09B120468847606D0A
:1018200000287DD0606DC00759D02068042184F85D
:101830003510B0422BD0404529D0484527D05045DF
:1018400025D0584523D09D49884220D09B49183146
:1018500088421CD099493031884218D09849884232
:1018600015D097491831884211D0954930318842B6
:101870000DD093494831884209D09149603188425E
:1018800005D08F497831884201D08D499031016867
:1018900021F00101016020680099019A491C009122
:1018A000914202D80168C907F6D10068C00710D07C
:1018B00003200FE0FFE70168C905ACD403680121EC
:1018C000002223F01003036084F8351084F83420DC
:1018D000A1E7012084F83500002084F83400E16C91
:1018E00000291DD002B02046BDE8F05F08477549C9
:1018F00088421DD073491431884219D0714928316A
:10190000884215D06F493C31884211D06D49503121
:1019100088420DD06B496431884209D0694900E0A2
:1019200084E07831884203D066498C3188427DD189
:1019300094F85C800427016808F01F0807FA08F78C
:1019400017EA0C0F009746D04F0744D500980F04B4
:10195000686003D5C8033CD4A16CC1E7880638D4BD
:101960002068B0422DD055496039884229D0484579
:1019700027D0504525D0584523D05049884220D003
:101980004E49183188421CD04C493031884218D019
:101990004B49884215D04A491831884211D04849EC
:1019A000303188420DD046494831884209D07045CF
:1019B00007D0904205D0984203D04149A8318842CF
:1019C00003D1016821F0080102E0016821F004015F
:1019D0000160216C84E7022707FA08F717EA0C0F69
:1019E00000974ED08F074CD500980F04686003D540
:1019F000C80344D4616C73E7880640D42068B042C1
:101A00002FD02E49603988422BD0484529D05045E7
:101A100027D0584525D02949884222D02749183156
:101A200088421ED025493031884200E044E018D079
:101A30002349884215D022491831884211D02049C3
:101A4000303188420DD01E494831884209D0704556
:101A500007D0904205D0984203D01949A831884256
:101A600003D1016821F0140102E0016821F00A01AC
:101A70000160012184F83510002084F83400E16B06
:101A80002EE7082202FA08F212EA0C0F14D0090716
:101A900012D5016821F00E01016094F85C1001205C
:101AA000002201F01F0100FA01F16960606584F80D
:101AB000350084F8342012E7BDE8FC9F880002401E
:101AC00010040240085402582DE9F05F044600F06B
:101AD00059FC002C07467DD0E34E022120684FF0D0
:101AE0000308DFF888934FF00005DFF884A3B042C5
:101AF000DFF880B334D0DC4A1832904230D0484509
:101B00002ED050452CD058452AD0DA4A183290426F
:101B100026D0D84A3032904222D0D64A483290421B
:101B20001ED0D54A90421BD0D34A1832904217D0CB
:101B3000D14A3032904213D0CF4A483290420FD02F
:101B4000CD4A603290420BD0CB4A7832904207D0D7
:101B5000C94A9032904203D0C74AA83290427DD100
:101B600084F83510B04284F834502ED0BE49183174
:101B700088422AD0484528D0504526D0584524D000
:101B8000BC491831884220D0BA49303188421CD033
:101B9000B8494831884218D0B749884215D0B6496B
:101BA0001831884211D0B449303188420DD0B24941
:101BB0004831884209D0B0496031884205D0AE49E9
:101BC0007831884201D0AC499031016821F001019F
:101BD000016008E027E100BF00F0D4FBC01B05282E
:101BE00001D920211CE120680068C007F4D104F16C
:101BF00008002168D4E9053C8E4685C80968104371
:101C0000D4E907281F43636A38439C4F40EA0C001D
:101C10001043394040EA0800042B40EA010003D198
:101C2000D4E90B1211430843954909686FF30F017A
:101C3000B1F1005F0FD36168A1F12902052A08D92B
:101C4000163A032A05D9083A012A02D94F3903293D
:101C500001D840F48010CEF8000000E023E02068B6
:101C6000676A4069042F20F0070047EA00070DD19A
:101C7000D4E90A01074349B12046FEF71DFF28B108
:101C800040206065012184F83510CCE02068476170
:101C90002046FEF72FFE94F85C203F2102F01F0241
:101CA0009140816054E0774A90421BD0754B1433C9
:101CB000984217D0734B2833984213D0714B3C3362
:101CC00098420FD06F4B503398420BD06D4B64331A
:101CD000984207D06B4B7833984203D0694B8C33D2
:101CE00098427DD184F8351084F83450664B0168F1
:101CF000A26801EA030E402A73D0802A72D0002223
:101D0000D4E90378D4E9053142EAD70242EAD80897
:101D10005C4AD4E9077C48EAD30848EAD10141EAA1
:101D2000D701524241EA1C11142341EA0E0101601D
:101D300020681044B0FBF3F08000E0652046FEF719
:101D4000D9FD94F85C20012102F01F02914041600E
:101D50002068B04257D044491831884253D0484592
:101D600051D050454FD058454DD042491831884246
:101D700049D040493031884245D03E4948318842B7
:101D800041D03D4988423ED03B49183188423AD043
:101D900039493031884236D037494831884232D0CB
:101DA0003549603188422ED03349783188422AD073
:101DB00031499031884226D02F49A831884222D01B
:101DC000304988421FD02F49143188421BD02D49F9
:101DD0002831884217D02B493C31884213D002E089
:101DE0001DE017E018E02749503188420BD0254903
:101DF0006431884207D023497831884203D0214991
:101E00008C31884229D12046FEF7CEFDA06880287B
:101E10000CD00CE0102273E74FF4804270E74021B1
:101E2000616584F835800120BDE8F09F6560216E12
:101E300020790860D4E9190141606068401E0728D4
:101E400008D82046FEF7FEFDE06E0560D4E91C01CF
:101E5000416002E0E566256765670120656584F8F5
:101E600035000020E0E70000100002404000024082
:101E70005800024070000240100402403F8010FEF3
:101E80000010005C085402580F00FEFF2DE9F84FC7
:101E900004008C464FF00000009014D094F83400F9
:101EA000012812D094F835500120002184F8340024
:101EB000012D0CD0C00260650120009084F8341020
:101EC0000098BDE8F88F0120FBE70220F9E78C4D70
:101ED0000226206884F83560A8428A4D61658A4EE2
:101EE0008A4FDFF82C82DFF82C92DFF82CA2DFF883
:101EF0002CB226D0A84224D0B04222D0B84220D062
:101F000040451ED048451CD050451AD0584518D0E1
:101F10008349884215D082491831884211D08049BE
:101F2000303188420DD07E494831884209D07C4901
:101F30006031884205D07A497831884201D07849A9
:101F40009031016821F00101016061462046FEF7F1
:101F5000DDFD6B49206888422CD0A8422AD0B042CF
:101F600028D0B84226D0404524D0484522D05045FC
:101F700020D058451ED06A4A90421BD0684A183279
:101F8000904217D0664A3032904213D0644A4832A9
:101F900090420FD0624A603290420BD0604A783251
:101FA000904207D05E4A9032904203D05C4AA832F9
:101FB00090420CD1026822F01E0242F0160202602A
:101FC000206C88B12068026842F008020BE00268C9
:101FD00022F00E0242F00A020260206C20B120685A
:101FE000026842F004020260206888424BD0A84296
:101FF00049D0B04247D0B84245D0404543D048458B
:1020000041D050453FD058453DD0454A90423AD006
:10201000434A1832904236D0414A3032904232D050
:102020003F4A483290422ED03D4A603290422AD0F8
:102030003B4A7832904226D0394A9032904222D0A0
:10204000374AA83290421ED0364A90421BD0354AB9
:102050001432904217D0334A2832904213D0314A7A
:102060003C3290420FD02F4A503290420BD02D4A32
:102070006432904207D02B4A7832904203D0294AEA
:102080008C3290420DD1206E0268D20303D50268D3
:1020900042F480720260E06E18B1026842F480720D
:1020A00002602068884226D0A84224D0B04222D0C4
:1020B000B84220D040451ED048451CD050451AD0CB
:1020C000584518D01649884215D01549183188420C
:1020D00011D01349303188420DD01149483188421E
:1020E00009D00F496031884205D00D4978318842C6
:1020F00001D00B499031016841F001010160DFE638
:1021000010000240280002404000024058000240F7
:102110007000024088000240A0000240B800024067
:10212000100402400854025870B5044600F02AF921
:102130000546601C02D004480078044400F022F9EF
:10214000401BA042FAD370BD040000242DE9F84FD3
:1021500003247D4D00234FF001094FF0B04B4FF0A9
:102160000F0AE9E009FA03F73A4076D00E7906F053
:102170000306012E01D0022E18D1D0F808C04FEA74
:10218000430ECE6804FA0EF82CEA080C06FA0EF696
:1021900046EA0C068660D0F804C00E792CEA070CDB
:1021A000C6F300169E4046EA0C0646600E79F643DA
:1021B000B6070BD0C6684FEA43088F6804FA08FCDC
:1021C00026EA0C0607FA08F73743C7600E7906F0CF
:1021D0000306022E12D1DE080F694FEA437C00EBA2
:1021E0008606B646366A4FEADC6C0AFA0CF807FA3D
:1021F0000CF726EA08063743CEF820700F790668F8
:102200004FEA430807F0030704FA08FC07FA08F747
:1022100026EA0C06374307604E6816F4403F1CD090
:102220004A4E376847F00207376036689F0706F066
:102230000206009623F0030606F1B046B6463F0FAD
:10224000D6F80864DFF808810AFA07FC404526EA58
:102250000C0603D14FF0000C41E06CE0DFF8F4C055
:10226000604502D14FF0010C39E0DFF8ECC0604569
:1022700002D14FF0020C32E0DFF8E0C0604502D13D
:102280004FF0030C2BE0DFF8D8C0604502D14FF0CF
:10229000040C24E0DFF8CCC0604502D14FF0050CFF
:1022A0001DE0DFF8C4C0604502D14FF0060C16E017
:1022B000DFF8B8C0604502D14FF0070C0FE0DFF83F
:1022C000B0C0604502D14FF0080C08E0DFF8A4C0B0
:1022D000604502D14FF0090C01E04FF00A0C0CFAF6
:1022E00007FC4CEA060CCEF808C44F68DBF8006027
:1022F000FF0226EA020600D516435F46CBF80060CF
:10230000D1F804C0DBF804605FEA8C2C26EA0206F0
:1023100000D516437E606E684F6826EA0206BF034A
:1023200000D516436E602E684F6826EA0206FF034A
:1023300000D516432E605B1C0A6832FA03F67FF460
:1023400011AFBDE8F88F000080000058F444025837
:10235000000002580004025800080258000C0258FD
:10236000001002580014025800180258001C0258AD
:10237000002002580024025801480068000C7047F1
:102380000010005C014880687047000004000024D1
:10239000024881680278114481607047040000247B
:1023A000032010B500F0D4F801F0AEF80F4A104940
:1023B00014681368C4F3032203F00F038A5CC95C3A
:1023C00002F01F0201F01F01D0400A4A20FA01F179
:1023D0001160094908600F2000F010F808B10120D1
:1023E00010BD00F079F8002010BD0000184402581C
:1023F0009E8B0008140000241000002470B50D4DC1
:1024000004462878A0B14FF47A71B1FBF0F00A4984
:102410000968B1FBF0F001F001FD48B9102C07D2BA
:1024200000222146501E00F073F800206C6070BD41
:10243000012070BD0400002410000024154BF0B5ED
:10244000083B427813491A600B680A1F23F0010306
:102450000B6043681360057BC67A827A437B2D0745
:10246000847B45EA0665C77B90F809C0067A90F838
:1024700000E045EAC24040EA834040EA444040EA86
:10248000074040EA0C2040EA460040EA0E0008609F
:10249000F0BD0000A0ED00E0BFF35F8F0448002115
:1024A0000368034A23F4803303607032116070477D
:1024B00024ED00E0074A40F0010006497032106048
:1024C000086840F480300860BFF34F8FBFF36F8F10
:1024D0007047000024ED00E0054808B5016841F0B0
:1024E00002010160006800F00200009008BD0000D9
:1024F000F4440258002809DB410900F01F0289005A
:10250000012001F1E0219040C1F800017047000076
:102510000E4BF0B41B680D46C3F30223C3F107064C
:10252000042E00D90426191D072901D2002300E03A
:10253000DB1E012404FA06F19C40491E2940641E5A
:10254000994014402143F0BC04F0B2B90CED00E016
:10255000064900F0070210B54FF6FF040868044B67
:10256000204040EA02201843086010BD0CED00E056
:102570000000FA05134970B50A68D243520705D521
:10258000096801F00701814213D118E00A6822F0BE
:10259000070202430A60FFF7F5FE0A4D4FF47A7610
:1025A0000446083D07E000BFFFF7ECFE001BB04209
:1025B00001D9012070BD2868C0438004F4D40020F4
:1025C00070BD00000C48025810B500F057FF0549D7
:1025D0000968054AC1F30211515C01F01F01C840AE
:1025E00010BD0000204402589E8B0008494930B5B8
:1025F000484C0B1D0A68143409681D68246802F0F1
:102600000303C5F30012C1F30531C4F3CC04002960
:1026100014FB02F200EE102AF8EE400A75D03F4A91
:102620009FED3D1AB7EE000A6BB1DFED3D1A012BAD
:1026300001D0022B64D002EE101A1168F8EE422A83
:1026400081EEA22A21E0334C283C23689B0612D558
:10265000344B246801EE901A1168C4F3C104F8EEFB
:10266000612AE34001EE903AC1F30801F8EE611AE5
:1026700081EEA22A0BE001EE901ADFED2B2A00BFBB
:10268000F8EE611A116882EEA12AC1F3080101EE89
:10269000901A1168F8EE611A40EE811A71EE800A04
:1026A00062EE200AC1F3462101EE101AB8EE411A7B
:1026B00031EE001AC0EE811ABCEEE11A80ED001A6C
:1026C0001168C1F3064101EE101AB8EE411A31EE5D
:1026D000001AC0EE811ABCEEE11A80ED011A1168F1
:1026E000C1F3066101EE101AB8EE411A31EE000A8C
:1026F00080EE801ABCEEC10A80ED020A30BD04E013
:1027000001EE901ADFED092ABAE70021016041606D
:102710008160F3E728440258000000393844025829
:102720000024744A0090D0030024744C20BCBE4B9B
:10273000494930B5484C0B1D0A681C3409681D68AE
:10274000246802F00303C5F30022C1F30551C4F36A
:10275000CC04002914FB02F200EE102AF8EE400A25
:1027600075D03F4A9FED3D1AB7EE000A6BB1DFED21
:102770003D1A012B01D0022B64D002EE101A116811
:10278000F8EE422A81EEA22A21E0334C283C23684D
:102790009B0612D5344B246801EE901A1168C4F3DD
:1027A000C104F8EE612AE34001EE903AC1F308015A
:1027B000F8EE611A81EEA22A0BE001EE901ADFED2D
:1027C0002B2A00BFF8EE611A116882EEA12AC1F32C
:1027D000080101EE901A1168F8EE611A40EE811AB4
:1027E00071EE800A62EE200AC1F3462101EE101A52
:1027F000B8EE411A31EE001AC0EE811ABCEEE11AB1
:1028000080ED001A1168C1F3064101EE101AB8EE0E
:10281000411A31EE001AC0EE811ABCEEE11A80EDC9
:10282000011A1168C1F3066101EE101AB8EE411ADF
:1028300031EE000A80EE801ABCEEC10A80ED020A79
:1028400030BD04E001EE901ADFED092ABAE700215D
:10285000016041608160F3E72844025800000039BC
:10286000404402580024744A0090D0030024744C61
:1028700020BCBE4B2DE9FE4F0546DFF8E48350F83F
:10288000081B0024F64FC943019005F12800264695
:1028900008F12408009008011DD4A86E50B1B0F5CD
:1028A000801F0CD0B0F5001F0ED0B0F5401F1ED019
:1028B00001240FE0386840F40030386017E00198D8
:1028C000022102F081FC03E00098022102F00CFDDD
:1028D00004000CD026462888C043C00523D4A86D28
:1028E00005281ED2DFE800F00C11161B1B00AA6E93
:1028F000D8F8001021F440111143C8F80010EAE79D
:10290000386840F40030386009E00198002102F096
:102910005BFC03E00098002102F0E6FC044674B181
:1029200000E0012426462888C043800528D4E86DAD
:1029300080281ED00CDC90B140280ED114E0AA6D86
:10294000D8F8001021F007011143C8F80010EAE799
:10295000C02813D0B0F5807F10D001240FE0386874
:1029600040F40030386009E00198002102F02CFCAE
:1029700003E00098002102F0B7FC04469CB1264613
:102980002888DFF8DC92C04309F12C0940052CD4DB
:10299000D5F8A800B0F5800F20D00DDCA0B1B0F5BF
:1029A000001F0FD115E0EA6DD8F8001021F4E07196
:1029B0001143C8F80010E3E7B0F5C00F13D0B0F52D
:1029C000000F10D001240FE0386840F40030386068
:1029D00009E00198002102F0F7FB03E000980021D4
:1029E00002F082FC04467CB126462888C0430005DC
:1029F0002DD4D5F8AC00B0F1007F21D00EDCA8B109
:102A0000B0F1807F10D116E0D5F8A820D9F80010D9
:102A100021F460011143C9F80010E6E7B0F1407FEE
:102A200013D0B0F1806F10D001240FE0386840F46B
:102A30000030386009E00198002102F0C5FB03E096
:102A40000098002102F050FC044674B12646286824
:102A5000C04380011FD4E86CD8B110280FD02028C3
:102A600012D0302815D0012414E0D5F8AC20D9F8C4
:102A7000001021F0E0611143C9F80010E7E7386861
:102A800040F40030386004E00198022102F09CFB21
:102A9000044674B126462888C043C0042BD4286E4F
:102AA000B0F5005F20D00DDCA0B1B0F5805F0FD194
:102AB00015E06B48EA6C2030016821F030011143C9
:102AC0000160E8E7B0F5405F13D0B0F5804F10D05B
:102AD00001240FE0386840F40030386009E00198C4
:102AE000002102F071FB03E00098002102F0FCFBE2
:102AF00004468CB126462888C043800429D4686ED9
:102B0000B0F5403F23D010DC08B3B0F5803F14D0BF
:102B1000B0F5003F0FD115E02A6ED8F8001021F46F
:102B2000E0411143C8F80010E5E7B0F5802F0ED062
:102B3000B0F5A02F0BD001240AE00198012102F08A
:102B400043FB03E00098012102F0CEFB044694B160
:102B500026462888C04340042AD4D5F8B000B0F1F6
:102B6000405F23D010DC08B3B0F1805F14D0B0F127
:102B7000005F0FD115E06A6ED8F8001021F4E02153
:102B80001143C8F80010E4E7B0F1804F0ED0B0F167
:102B9000A04F0BD001240AE00198012102F014FBA0
:102BA00003E00098012102F09FFB044674B1264621
:102BB0002888C04300041FD4286FD8B1B0F1805FCB
:102BC0000ED0B0F1005F10D0012414E0D5F8B02091
:102BD000D9F8001021F0E0411143C9F80010E7E7EF
:102BE000386840F40030386004E00198012102F0B8
:102BF000EBFA044674B126462868C043C0011ED4CF
:102C0000A86CD0B101280ED0022811D0032814D00E
:102C1000012413E02A6FD8F8001021F0405111432D
:102C2000C8F80010E8E7386840F40030386004E085
:102C30000198022102F0C8FA0446ACB12646286881
:102C4000DFF81CB0C043ABF11C0B400252D4054866
:102C5000016841F480710160FFF794FB824611E046
:102C60002C44025800480258FA48AA6C016821F026
:102C7000030111430160E2E7FFF784FBA0EB0A00C8
:102C8000642835D8F4480068C005F5D58CBBDFF85A
:102C9000C4A3B5F8B4100AF1240ADAF8000001F46C
:102CA000407100F44070884211D0DAF80010DAF870
:102CB000002021F4407142F48032CAF80020DAF892
:102CC000002022F48032CAF80020CAF80010D5F89B
:102CD000B400B0F5807F1AD1FFF754FB029012E0E8
:102CE000FFF750FB0299411A41F2883081420AD91C
:102CF000032426462878DFF85CA3C0430AF1080ABB
:102D0000C00721D03CE0DAF800008007E8D5D5F80C
:102D1000B410C1F30120032858460DD0016821F4F6
:102D20007C510160B5F8B420DAF80010C2F30B0250
:102D30001143CAF80010DDE7C84A036802EA11121D
:102D400023F47C511143ECE7E86F182816D005DC1A
:102D5000A0B1082808D0102804D10AE020280DD0FE
:102D600028280BD001240AE00198012102F02CFA56
:102D700003E00098012102F0B7FA044664B1264648
:102D80002878C04380071ED4A86F062819D2DFE830
:102D900000F0160C11161616EA6FDAF8001021F082
:102DA00038011143CAF80010EAE70198012102F046
:102DB0000BFA03E00098012102F096FA04467CB178
:102DC00000E0012426462878C04340071FD4D5F8E8
:102DD0009400062819D2DFE800F0160C111616161A
:102DE000AA6FDAF8001021F007011143CAF80010A9
:102DF000E9E70198012102F0E7F903E000980121D9
:102E000002F072FA0446A4B100E0012426462878B4
:102E1000C04380062BD4D5F89000B0F1405F24D099
:102E200011DC10B3B0F1805F15D0B0F1005F10D1AC
:102E300016E0D5F89420D9F8001021F007011143CD
:102E4000C9F80010E3E7B0F1804F0ED0B0F1A04F09
:102E50000BD001240AE00198002102F0B5F903E04B
:102E60000098022102F040FA044694B126462878E0
:102E7000C04340062BD4D5F89C00B0F5406F24D059
:102E800011DC10B3B0F5806F15D0B0F5006F10D124
:102E900016E0D5F89020DAF8001021F0E041114357
:102EA000CAF80010E3E7B0F5805F0ED0B0F5A05F80
:102EB0000BD001240AE00198002102F085F903E01B
:102EC0000098022102F010FA044694B126462878B0
:102ED000C04300062BD4D5F8A000B0F5C04F24D0D5
:102EE00011DC10B3B0F5005F15D0B0F5804F10D1F4
:102EF00016E0D5F89C20D9F8001021F4E0511143D8
:102F0000C9F80010E3E7B0F5004F0ED0B0F5204F40
:102F10000BD001240AE00198002102F055F903E0EA
:102F20000098022102F0E0F9044654B126462878C0
:102F3000C04300071ED4D5F88400B0F5805F0AD0E6
:102F40000FE0D5F8A020D9F8001021F4604111431A
:102F5000C9F80010EBE70098022102F0C5F900B1B2
:102F60000126D5F88420DAF8001021F440511143ED
:102F7000CAF800102878C043C00613D4D5F89800CA
:102F8000B0F5807F05D10098022102F0ADF900B1C3
:102F90000126D5F89820D9F8001021F4407111438A
:102FA000C9F800102868C043000316D4D5F8A4005F
:102FB00038B1B0F5803F09D0B0F5003F0BD0012407
:102FC0000AE00198002102F0FFF803E000980221D6
:102FD00002F08AF904468CB126462868C0434003B3
:102FE00022D4D5F88800B0F5801F11D0B0F5001FAD
:102FF00013D0B0F5401F15D0012414E0D5F8A4205B
:10300000D9F8001021F440311143C9F80010E4E769
:10301000386840F40030386004E00098012102F084
:1030200063F904465CB126462868C043C00323D434
:10303000286DA8B1B0F5803F17D001241BE0D5F86A
:103040008820DAF8001021F440111143CAF800106A
:10305000EAE700004C44025800480258CFFFFF0046
:10306000386840F40030386004E00198022102F032
:10307000ABF80446E4B126462868C043800005D476
:103080000098022102F030F900B101262868C043FF
:1030900080031BD4D5F88000B0B1B0F5807F0FD08D
:1030A000B0F5007F10D0B0F5407F0DD001240CE0CA
:1030B0005A482A6D016821F4803111430160DBE731
:1030C000386840F400303860ECB326462868C043C6
:1030D000C00207D46A6FD8F8001021F000411143F4
:1030E000C8F800102868C043C00008D4D5F8B8203C
:1030F000DBF8001021F480411143CBF80010286860
:10310000C043800207D4EA6ED8F8001021F0807125
:103110001143C8F800102868C04340000CD4DBF805
:10312000001021F40041CBF80010DBF80010D5F8B6
:10313000BC201143CBF800102868C04308D437489E
:103140006A6D016800E018E021F040511143016010
:103150002868C043000208D4D5F88C20DAF80010A3
:1031600021F440011143CAF8001028790024C0431B
:1031700000F0010020430AD00FE0D5F88020DAF8F3
:10318000001021F440711143CAF800109EE7019825
:10319000002102F019F800B106462879C04300F07A
:1031A0000200204305D10198012102F00DF800B181
:1031B00006462879C04300F00400204305D1019859
:1031C000022102F001F800B106462879C04300F060
:1031D0000800204305D10098002102F085F800B1D5
:1031E00006462879C04300F01000204305D100981E
:1031F000012102F079F800B106462879C04300F0B9
:103200002000044304D10098022102F06DF800B9B7
:1032100016B10120BDE8FE8F0020FBE74C440258A8
:103220002DE9F05F04000F467ED0DFF83882D8F831
:10323000000000F00F00B8420CD2D8F8001021F0C6
:103240000F013943C8F80010D8F8000000F00F0053
:10325000B84269D12078844D40070AD52069296891
:1032600001F07001884204D9296821F070010143FE
:10327000296020787C4E361D00070AD560693168C8
:1032800001F07001884204D9316821F070010143D6
:1032900031602078C0060AD5A069316801F4E06188
:1032A000884204D9316821F4E0610143316020781B
:1032B000DFF8B4B180060BF1080B0CD5E169584674
:1032C000DBF8002002F07002914204D9026822F07B
:1032D00070020A430260207880070AD5E0682968F6
:1032E00001F00F01884204D9296821F00F01014340
:1032F00029602078C0073ED05B49A2682868183949
:1033000020F47060104328606068022818D00328F9
:1033100019D00968012819D0490700294ADADFF8CD
:1033200048A1AAF1080A00E044E0DAF8002022F0FF
:1033300007020243CAF80020FFF724F8814612E092
:1033400009688903E9E709688901E6E7C905E4E74F
:10335000FFF718F8A0EB090141F28830814202D949
:103360000320BDE8F09F6168DAF8000000F0380043
:10337000B0EBC10FECD1207880070AD5E06829684E
:1033800001F00F01884204D2296821F00F010143A6
:103390002960D8F80010404601F00F01B9420BD95E
:1033A000016821F00F0139430160006800F00F004F
:1033B000B84201D00120D4E7207840070AD520691F
:1033C000296801F07001884204D2296821F0700157
:1033D00001432960207800070AD56069316801F04F
:1033E0007001884204D2316821F0700101433160DC
:1033F0002078C0060AD5A069316801F4E0618842EE
:1034000004D2316821F4E061014331602078800604
:103410000CD5E1695846DBF8002002F070029142B9
:1034200004D2026822F070020A43026000F06CF8D5
:103430000E492A682B68C2F3032203F00F038A5C4B
:10344000C95C02F01F0201F01F01D040084A20FAB7
:1034500001F111600749086007480068BDE8F05FA6
:10346000FEF7CCBF00200052184402589E8B000883
:1034700014000024100000240800002430B500F0DF
:1034800043F80B4A0B490C4B15681468C5F303222B
:1034900004F00F048A5C095D02F01F0201F01F01B5
:1034A000D040064A20FA01F119601060084630BD8C
:1034B000184402589E8B00081400002410000024B9
:1034C00000B5FFF7DBFF05490968054AC1F30211A2
:1034D000515C01F01F01C84000BD00001C440258AF
:1034E0009E8B000800B5FFF7C9FF05490968054A2A
:1034F000C1F30221515C01F01F01C84000BD000072
:103500001C4402589E8B0008454970B5454809681F
:10351000434B103B11F0380208D00111082A03D0A8
:10352000102A0BD0182A0BD0084670BD19688906DE
:10353000FBD51968C1F3C101C84070BD3A4870BDE0
:103540003749374D18310C1D24350A68096826683B
:103550002D6802F0030406F00102C1F30511C5F362
:10356000CC0515FB02F200EE102AB8EE400AE9B3D2
:103570002F4ADFED2E0AB7EE001A6CB1DFED2D1ADF
:10358000012C01D0022C43D002EE101A1068F8EE84
:10359000422A81EEA22A1EE01C68A40611D51B68EF
:1035A00001EE901A1168C3F3C103F8EE612AD84006
:1035B00001EE900AC1F30800F8EE611A81EEA22A2A
:1035C0000BE001EE901ADFED1C2A00BFF8EE611A45
:1035D000106882EEA12AC0F3080001EE900AF8EE0E
:1035E000611A40EE201A31EE810A00E015E022EE69
:1035F000000A1068C0F34620401C00EE900AF8EE66
:10360000600A80EE201ABCEEC10A10EE100A70BDEE
:1036100001EE901ADFED092AD8E7002070BD000006
:10362000104402580090D00340787D01000000391A
:10363000304402580024744A0024744C20BCBE4B11
:103640002DE9F05F04007DD0FF4F2078FE4D183744
:10365000DFF8F493103DC00748D0D9F8000039686E
:1036600000F03800102815D0182803D101F003000D
:1036700002280FD06068B0F5803F12D010B1B0F5CD
:10368000A02F18D0286820F480302860286820F403
:10369000802009E02868800328D560680028D2D0FF
:1036A00024E0286840F480302860606888B1FEF724
:1036B00069FE064609E0286840F480202860F0E7AB
:1036C000FEF760FE801B64286FD828688003F7D55A
:1036D0000CE0FEF757FE064605E000BFFEF752FE7F
:1036E000801B6428F0D828688003F7D4207841F242
:1036F0000308D54E0C3E800769D5D9F8000039681B
:1037000010F038000ED0182801D188070AD0E068E0
:1037100090B3296821F0190101432960FEF732FEB8
:10372000824631E02868400702D5E06800288AD048
:10373000E168286820F0190008432860FEF722FE9F
:10374000824607E0DFE000BFFEF71CFEA0EB0A00A8
:103750000228B9D828684007F6D500BFFEF70CFE4E
:1037600040451BD82069402812D0316821F47C31B3
:1037700041EA003030602AE018E000BFFEF702FEA8
:10378000A0EB0A0002289FD828684007F6D5E5E795
:10379000306820F47C3040F40030EBE7207C316866
:1037A00021F0FE4141EA0060E4E70DE1286820F0E5
:1037B00001002860FEF7E6FD824605E0FEF7E2FD27
:1037C000A0EB0A0002288DD828684007F6D420789C
:1037D000C0065DD5D9F80000DFF86CB2396800F09A
:1037E0003800ABF1040B082810D0182803D101F0E1
:1037F000030001280AD0E0690028286838D040F08A
:1038000080002860FEF7BEFD824623E02868C005E0
:1038100023D5E069802876D11FE0206A202821D0B6
:10382000316821F0F84141EA8060306030E000BF4B
:1038300094F82010DBF8002022F07C5242EA01616B
:10384000CBF8001024E000BFFEF79CFDA0EB0A00BF
:10385000022898D82868C005F6D5FEF78DFD4045AA
:10386000E6D8DAE7306820F0F84040F08040DCE746
:1038700020F080002860FEF785FD064605E000BFC9
:10388000FEF780FD801B02289DD82868C005F7D46C
:103890002078000729D56C4861696430002980468A
:1038A000016811D041F001010160FEF76BFD064691
:1038B00005E000BFFEF766FD801B0228C9D8D8F8D6
:1038C00000008007F6D510E021F001010160FEF74D
:1038D00059FD064605E000BFFEF754FD801B022897
:1038E00072D8D8F800008007F6D42078800623D557
:1038F000A0690028286810D040F480502860FEF7A6
:1039000041FD064605E036E1FEF73CFD801B02283E
:103910005AD828688004F7D50EE020F4805028603B
:10392000FEF730FD064604E0FEF72CFD801B022862
:103930004AD828688004F7D4207840074FD5DFF8AC
:103940000C81D8F8001041F48071C8F80010FEF71F
:1039500019FD064605E000BFFEF714FD801B642834
:1039600032D8D8F80000C005F6D5374EA0686036CA
:1039700001280AD008B1052813D0306820F00100D2
:103980003060306820F0040002E0306840F0010050
:103990003060A06841F2883A90B1FEF7F3FC8046AF
:1039A0000AE0306840F004003060EEE7FEF7EAFC21
:1039B000A0EB0801514507D830688007F6D50EE026
:1039C000FEF7E0FC804607E084E000BFFEF7DAFC8B
:1039D000A0EB080151457DD830688007F6D4606AB5
:1039E000B0B3DFF86480D9F8001008F120084FF672
:1039F000F87B08F10409C1F3C2010329A8F1040A04
:103A000069D00228286820F08070286003D0FEF773
:103A1000B9FC044684E0FEF7B5FC064605E000BFAD
:103A2000FEF7B0FC801B022877D828688001F7D405
:103A3000E26A40F2F331386854F8283F884340EA9C
:103A400002101843386004E010440258004802583D
:103A5000B5E0217B434622894FF4FE0C208A4FF0CB
:103A6000FE474902267D521E401EA1F50071C2F399
:103A700008088AB2761E0CEA004042EA08020243B5
:103A8000504607EA06610A431A60DAF8002022F07D
:103A90000102CAF80020D9F80020266A22EA0B02A7
:103AA00042EAC602C9F80020DAF80010A26921F043
:103AB0000C011143CAF800100168E26921F002010B
:103AC00011430160016841F480310160016841F4F3
:103AD000003101E021E027E00160016841F480212C
:103AE0000160016841F001010160286840F08070C8
:103AF0002860FEF747FC044605E000BFFEF742FCE5
:103B0000001B022809D828688001F7D557E000BFBC
:103B1000FEF738FC001B022802D90320BDE8F09F05
:103B200028688001F4D44AE039680128D8F80000F8
:103B300021D0A26A01F0030393421CD1E26AC1F3CF
:103B400005118A4217D1216BC0F30802491E8A422F
:103B500011D1616BC0F34622491E91420BD1A16B7A
:103B6000C0F30642491E914205D1E16BC0F30660E5
:103B7000491E814201D00120D0E7A16C4E46D9F800
:103B80000000C0F3CC00814219D0DAF8000055469D
:103B900020F00100CAF80000FEF7F4FB4FEA00072E
:103BA000FEF7F0FBB842FBD0A26C306820EA0B00B5
:103BB00040EAC2003060286840F001002860002020
:103BC000ACE7704770477047704770472DE9F8437E
:103BD00004460068E56A416B09041BD5290719D51D
:103BE000D4E90950202813D30026206801F0C9FE2B
:103BF000020A2870010C6A70030EA970761CEB7023
:103C0000082E05F10405F0D3A06A2038C4E9095054
:103C1000BDE8F883416B0127DFF8EC810026C90578
:103C200051D539024CF23A12816329072068C16BE1
:103C300021EA0201C1632068C16B21F08051C16398
:103C40002068C16821F04001C16018D515F0220F2D
:103C500009D0206801F0D6FD28B1616B0143616392
:103C60002046FFF7B2FF2168AA07C1F8388084F820
:103C70003070E66223D1204600F0CCF8C8E7280671
:103C8000C6D5206815F0220F86622068C6622068BB
:103C9000066509D0206801F0B5FD28B1616B0143CC
:103CA00061632046FFF791FF15F0300F84F8307004
:103CB000E66202D0204600F0ADF8A807A8D0204662
:103CC00000F0A4F8A4E7416B490421D529071FD5CA
:103CD000D4E9075020289BD30026287800906978E3
:103CE00040EA01200090A97840EA01400090E9787C
:103CF0002D1D40EA016000902068694601F058FEE1
:103D0000761C082EE9D3206A2038C4E907507FE7E3
:103D1000416B11F03A0F416B58D0890703D5616BA5
:103D200041F002016163416B090703D5616B41F00A
:103D300008016163416B890603D5616B41F0200185
:103D40006163416BC90603D5616B41F0100161638A
:103D5000C0F838802068C16B21F49D71C163206870
:103D6000C16821F04001C1602068C16A41F400517E
:103D7000C1622068C16841F08001C160206801F023
:103D800041FD626B2B074FF4006140EA0200606363
:103D90002068C26822F08002C2602068816303D577
:103DA00084F83070E6620DE028068BD5606B002841
:103DB00088D02068C16B21F08051C16320680665FE
:103DC00084F830702046FFF700FF21E7C9009ED538
:103DD0004FF0805181632068006D40074FEA856095
:103DE00008D40028204602DAFFF7EEFE10E7FFF7BE
:103DF000E9FE0DE70028204602DAFFF7E4FE07E7B8
:103E0000FFF7DFFE04E700003A0F001810B5FCF7DB
:103E100057FD10BD10B5FCF759FD10BD401EB0F1A7
:103E2000807F10B501D3012010BD4FF0E024606108
:103E30000F21601702F03CFD0020A06107212161E5
:103E400010BD704770477047F0B590F83C20012ACC
:103E50003BD01F4E012480F83C40022280F83D20D8
:103E600002681C4D5368B242D2F808C001D0AA4281
:103E700003D14F6823F470033B430F6823F07003B2
:103E80001F4357600268B24213D0B2F1804F10D086
:103E9000114B9A420DD0114B9A420AD0104B9A42C4
:103EA00007D0AA4205D00F4B9A4202D00E4B9A423D
:103EB00004D189682CF0800319439160002180F8B7
:103EC0003D4080F83C100846F0BD0220F0BD0000E7
:103ED00000000140000401400004004000080040D0
:103EE000000C0040001800400040014010B50400E4
:103EF00003D094F83D0010B107E0012010BD002070
:103F000084F83C00204600F023F8022084F83D00AD
:103F10002068211D01F056FE012084F8480084F835
:103F20003E0084F83F0084F8400084F8410084F8A3
:103F3000420084F8430084F8440084F8450084F883
:103F4000460084F8470084F83D00002010BD0000C2
:103F500008B500681949884217D11948016841F02D
:103F60000101016000680022114600F0010000908C
:103F70001820FEF7CDFA1820FEF7BCFA0022012126
:103F80001920FEF7C5FA192012E00E49884213D114
:103F90000B480838016841F0020101600068002206
:103FA000022100F0020000901D20FEF7B1FA1D2052
:103FB000BDE80840FEF79EBA08BD000000000140C1
:103FC000F04402580004004090F83D10012901D04F
:103FD00001207047174A022180F83D100168CB6824
:103FE00043F00103CB600068904214D0B0F1804FE1
:103FF00011D0114988420ED0104988420BD0104987
:10400000884208D00F49884205D00F49884202D023
:104010000E49884207D181680D4A1140062906D011
:10402000B1F5803F03D0016841F00101016000203B
:1040300070470000000001400004004000080040FC
:10404000000C004000040140001800400040014006
:104050000700010070B5044690F83C0000250128D7
:1040600014D03A4B012684F83C60022084F83D00CD
:1040700022689068184020F47F409060086870289B
:104080002FD010DC10F00F0F03D022E04FF0020011
:1040900070BD4FEA2012072A1BD2DFE802F053530B
:1040A00053534B394100B0F1101F4BD009DCB0F530
:1040B000805F0FD0B0F5005F1ED0B0F5801F08D133
:1040C00040E0A0F5801120393CD010293AD02029B9
:1040D00038D0012584F83D60002084F83C00284653
:1040E00070BD4A682068D1E9021301F0D3FD206851
:1040F000816841F0770109E04A682068D1E902133C
:1041000001F0C8FD2068816841F480418160E1E7E9
:10411000CA684968206801F0D1FD2068502106E096
:10412000CA684968206801F0DAFD2068602101F062
:10413000BBFDCFE7CA684968206801F0BFFD206871
:104140004021F4E7226801461046F0E788FFCEFFE1
:1041500070472DE9F041044600680027C6680569EC
:10416000A90713D5B10711D5FA1E026101212177E4
:10417000206880698007204602D0FFF7E9FF04E04D
:1041800000F08BF8204600F089F82777680716D5ED
:10419000700714D5226802206FF0040111612077A6
:1041A0002068806910F4407F204602D0FFF7D0FFDE
:1041B00004E000F072F8204600F070F82777280736
:1041C00015D5300713D5226804206FF0080111615E
:1041D00020772068C0698007204602D0FFF7B8FF2B
:1041E00004E000F05AF8204600F058F82777E80677
:1041F00016D5F00614D5226808206FF01001116161
:1042000020772068C06910F4407F204602D0FFF775
:104210009FFF04E000F041F8204600F03FF82777C8
:10422000E80708D0F00706D021686FF001000861A8
:10423000204600F035F8280601D4A80408D5300639
:1042400006D521686FF4025008612046FFF7FAFD99
:10425000E80508D5300606D521686FF4807008613E
:104260002046FFF7EEFD680608D5700606D52168E2
:104270006FF040000861204600F0D0F8A8060AD58B
:10428000B00608D521686FF0200008612046BDE81F
:10429000F041FFF7D8BDBDE8F081704770470000DE
:1042A0002DE9F04153490027534D544E544C2DED08
:1042B000028B006809689FED538B88425BD1A06830
:1042C000401CA060B0F57A7F00D3A7604F4AD2F8B7
:1042D0001110D2F80D00C4E90401D2F81910D2F877
:1042E0001500C4E90601D2F82110D2F81D00C4E976
:1042F0000801D2F82910D2F82500C4E90A01D2F841
:104300003110D2F82D00C4E90C01D2F83910D2F8DE
:104310003500C4E90E013A491046403100F066FC10
:10432000608841F288324FF6FF7190421ED3884276
:104330001CD0618095ED000BB4EE480BF1EE10FA45
:1043400010D196ED000BB4EE480BF1EE10FA09D146
:104350002B48403090ED000B85ED000B90ED020BEB
:1043600086ED000BBDEC028BBDE8F0818842F9D0F0
:10437000401C6080F6E7264909688842F2D1A0888F
:10438000401C80B2A0801428207800F10100207029
:104390000BD3204942F21070A7800968814202D2F3
:1043A00001F0D4F801E001F02FF820780428D9D3E7
:1043B00013482770403000F0E5FE144801F0FEFA83
:1043C000154890F831000128CCD195ED000BB4EEE2
:1043D000480BF1EE10FAC5D096ED000BB4EE480B89
:1043E000F1EE10FABED0BDEC028BBDE8F041FCF757
:1043F000A1BC0000E40100241801002420010024D5
:104400008800002400000000E0FFEF409608002430
:10441000300200240801002400040024704730B555
:1044200090F88410012918D0012280F884202421DA
:10443000C0F888100022202401680B680D6823F062
:10444000005325F001050D60426601680B60C0F85D
:10445000884080F88420104630BD022030BD70476F
:10446000704770B5044690F8840001281DD00122E1
:1044700084F884202420C4F8880020680568026835
:1044800022F0010202602068826822F060620A4322
:104490008260204601F036FC226820210020156051
:1044A000C4F8881084F8840070BD022070BD70B517
:1044B000044690F8840001281DD0012284F884204D
:1044C0002420C4F8880020680568026822F00102F0
:1044D00002602068826822F060420A4382602046BF
:1044E00001F010FC2268202100201560C4F888101B
:1044F00084F8840070BD022070BD7047704770471B
:104500002DE9F04107680025044640F60F03022616
:10451000F8693968BA6818420AD183067ED501F075
:10452000200302F0805C53EA0C0377D0616F74E1E2
:10453000CF4BDFF840C3134001EA0C0C53EA0C0CDC
:104540006CD05FEAC07C0CD05FEAC15C09D54FF04B
:10455000010CC7F820C0D4F8907047F00107C4F8E8
:104560009070870709D5D70707D027683E62D4F82F
:10457000906046F00406C4F8906046070AD5D60756
:1045800008D0276804263E62D4F8906046F0020600
:10459000C4F8906006070CD501F020061E4308D031
:1045A000266808233362D4F8903043F00803C4F837
:1045B000903003050BD54B0109D526684FF40063F5
:1045C0003362D4F8903043F02003C4F89030D4F82C
:1045D0009030002B3DD0800609D501F0200002F07C
:1045E0008051084303D0616F09B120468847216894
:1045F000D4F890008968490602D410F0280F2AD018
:10460000204601F001FD2068806840061ED5206824
:10461000083050E8001F21F0400100E021E040E8B0
:104620000012002AF3D1D4F8800078B192490165D4
:10463000D4F88000FCF792FD00280AD0D4F880005E
:10464000016D00E02046BDE8F04108472046FFF735
:1046500056FFBDE8F0812046FFF751FFC4F89050A7
:10466000F7E7D4F86CC02023BCF1010F7ED15FEADC
:10467000C06C7BD55FEAC16C78D5102038622068A9
:104680008068400673D5D4F880107C4A0868904250
:1046900034D07A4A1832904230D0784A3032904240
:1046A0002CD0764A4832904228D0744A60329042E8
:1046B00024D0724A7832904220D0704A9032904290
:1046C0001CD06E4AA832904218D06D4A904215D044
:1046D0006B4A1832904211D0694A303290420DD064
:1046E000674A4832904209D0654A6032904205D00C
:1046F000634A7832904201D0614A903240680004A7
:10470000000CA6D0B4F85C208242A2D9A4F85E00C6
:10471000C869B0F5807F2FD0216851E8000F20F4E0
:10472000807041E80002002AF6D12068083050E885
:10473000001F21F0010140E80012002AF5D1206895
:10474000083050E8001F21F0400140E80012002A24
:10475000F5D1C4F88C30E566216851E8000F20F0EF
:10476000100041E80002002AF6D101E040E00BE031
:10477000D4F88000FCF742FB2667B4F85C00B4F87C
:104780005E10401A81B22FE0B4F85C00B4F85E10FD
:10479000B4F85E20401A81B2002AB2D00029B0D00D
:1047A000226852E8000F20F4907042E80007002FC2
:1047B000F6D1344F206800F1080050E8002F02EADB
:1047C000070240E8002CBCF1000FF3D1C4F88C3094
:1047D000E5666567206850E8002F22F0100240E887
:1047E0000023002BF6D126672046FFF738FE30E77E
:1047F000C60209D5560207D54FF48010386220460C
:10480000BDE8F041FFF77ABE06060AD501F0800642
:1048100002F40002164304D0A16F00297FF412AF06
:1048200017E7420611D54A060FD52046026852E81E
:10483000001F21F0400142E80014002CF6D1C0F81E
:104840008830856700F0CEF903E7020206D54A00FA
:1048500004D52046BDE8F041FFF74FBEC001C6D5E4
:104860000029C4DA2046BDE8F041FFF7F9BD000099
:104870000100001020010004BB5E0008100002408F
:1048800010040240FEFFFFEF10B5040003D0D4F87F
:10489000880010B107E0012010BD002084F88400DA
:1048A000204600F027F82420C4F88800206801681A
:1048B00021F001010160A06A10B1204601F044FA24
:1048C000204601F0E3FB0128E6D02068416821F48E
:1048D000904141602068816821F02A018160206850
:1048E000016841F0010101602046BDE8104001F07F
:1048F0008FBA00002DE9F047B6B00746142130A862
:10490000FBF732FDC0216846FBF72EFD3C493868B5
:10491000884271D100201F9001210446CDE900108A
:104920006846FDF7A7FF08B1FCF701FA35480168B2
:1049300041F010010160006800F01000359031482E
:104940001038016841F0010101600068022603226D
:10495000DFF8B4A000F001004FF007083102CDE904
:104960003016CDE93480CDE9324230A95046FDF70A
:10497000EDFB4FF48069CDF8C090CDE93164CDE90D
:10498000334830A94D465046FDF7E0FB1F4E292223
:104990001F494FF44038304631608915C6E901247B
:1049A000C6E903457461C6E90641C6E90884FDF716
:1049B0008BF808B1FCF7BBF9144D2A2214494023A7
:1049C0007835C7F880601831B763284685E81E023D
:1049D0006C61AC61C5E907486C62FDF775F808B118
:1049E000FCF7A5F90022FD6725201146AF63FDF70E
:1049F0008FFD2520FDF77EFD36B0BDE8F087000075
:104A000000100140F0440258000002581003002436
:104A10001000024030B4D0F88C30202B02D002209D
:104A200030BC7047A9B1A2B10B4D00240368C46625
:104A3000AB420BD05B681B0208D5046854E8003F0A
:104A400043F0806344E80035002DF6D130BC01F01E
:104A5000F3BC0120E4E70000000C00580B4910B53E
:104A6000884211D10A4C6078222806D30020607059
:104A7000084A2221084801F091FD0848064B0278B7
:104A80006078411C1A54617010BD00007C02002443
:104A900088000024000000244401002401000024B8
:104AA00070472DE9F8430446D0F88800984616462A
:104AB0000D46202802D00220BDE8F883A5B19EB1A2
:104AC0000021C4F890102120C4F888001834FDF7A4
:104AD00059FC814654F8100CA687E6872027183C1D
:104AE000B0F5805F02D003E00120E5E7206910B156
:104AF0002E46002510E000260EE08021204601F021
:104B0000EFFCC0B9DEB116F8010B21688862B4F879
:104B10005600401EA4F85600B4F856004B464FF01D
:104B20000002CDF800800028E7D14FF04001204678
:104B300001F0D6FC48B1C4F888700320BCE735F812
:104B4000020B2168C0F30800E0E7C4F88870002079
:104B5000B2E7000070B50446D0F88800202801D0E4
:104B6000022070BD39B332B3E06F002321652125E7
:104B7000A4F85420A4F85620C4F89030C4F8885003
:104B8000D8B11549C163E16F14480864E16F144856
:104B9000C864E06F036513462068E56F00F12802E2
:104BA000216D2846FDF772F938B11021C4F8901034
:104BB0002020C4F88800012070BD216840200862D0
:104BC0002068083050E8001F41F0800140E80012E2
:104BD000002AF5D1002070BDBF5F0008FF5F00080C
:104BE000CF5E000870477047FEE700002DE9F04FE8
:104BF00089462DED108BBDB0D0F82180D0F8114042
:104C0000D0F80D10D0F81560D0F81970D0F81DB09C
:104C1000D0F82520D0F82930D0F82DA0D0F8315088
:104C2000D0F835E0D0F839C0CDE900B8CDE90414AA
:104C300099ED060B43EC1A2B8DED0A0B99ED080B41
:104C4000AB468DED320B99ED0A0B4BEC1BAB8DEDAA
:104C5000140B049A99ED0C8B44EC102B4CEC19EBD3
:104C60008DED040B47EC106B8DED020B009A48ECB8
:104C7000102B8DED000B2AEE0A0B0BEE0B0B09EE41
:104C8000090B02F011F9B0EE401BB5EEC01BF1EEBE
:104C900010FA7DD08BEE010BB24CB6EE007BA4F186
:104CA000180089EE01CB8DED100B8AEE010B8DED16
:104CB000220B94ED00EB94ED022B94ED041B94ED8C
:104CC000063B2EEE0E9B22EE034B2EEE025BB0EE69
:104CD000000B02EE429B90ED00FBB1EE42AB0EEEFC
:104CE000414B01EE419B01EE035B03EE039B24EE7F
:104CF000006B25EE00DB8DED126B8DED169B9DEDAF
:104D0000100B2CEE066B20EE095B9DED220B20EEC6
:104D10000DBB00EE496B0CEE4D5B8DED206B9DEDF8
:104D2000100B9DED126B00EE46BB05EE08FB8DED02
:104D30000CBB9DED040B9DED0A4B9DED0A9B9DED7B
:104D4000206B04EE050B9DED024B09EE064B9DED2D
:104D5000126B9DED169B36EE45CB9DED005B9DEDF8
:104D60000A6B06EE0B5B9DED206B80ED00FB3DEECC
:104D700046DB9DED326B3BEE49BB06EE0F0B90ED33
:104D8000029B9DED206B06EE089B80ED029B00E0F0
:104D9000D4E09DED326B06EE094B9DED146B9DED5D
:104DA000329B06EE0B0B90ED046B9DED0CBB0BEEF6
:104DB000086B2AEE00AB09EE065B9DED149B80EDBF
:104DC000046B9DED146B09EE0C4B06EE0D5B2EEEA5
:104DD000009B2EEE046B2EEE05BB01EE44AB01EE04
:104DE000059B02EE04BB02EE456B03EE45AB03EE02
:104DF000449B01EE40BB03EE006B2AEE084B29EE0C
:104E0000085B26EE080B04EE07EB00EE071B84EDB3
:104E100000EB05EE072B2EEE0E0B2BEE084B84ED70
:104E2000022B84ED041B02EE020B04EE073B01EEA5
:104E3000010B84ED063B03EE030B02F035F8B5EEF3
:104E4000C00BF1EE10FA79D094ED001BB8EE00CB58
:104E5000B0EE009B81EE003B84ED003B94ED021B25
:104E600081EE002B84ED022B94ED044B84EE001BAD
:104E700084ED041B94ED065B85EE004B22EE0C0BDB
:104E800023EE092B84ED064B20EE040B02EE010B02
:104E900001F022FD94ED003B94ED021B94ED042BF8
:104EA00023EE095B22EE093B21EE0C4B9FED2EBB5E
:104EB000B7EE00EB20EE0BDB94ED060B24EE014B7E
:104EC00023EE000B03EE424B05EE010B34EE0E1BFE
:104ED00001F006FF9FED268B94ED061B94ED022B4F
:104EE000B0EE48AB21EE095B00EE0BAB94ED040B8A
:104EF00094ED003B20EE0C4B22EE092B23EE093BF8
:104F000024EE004B22EE000B05EE414B03EE010BAD
:104F100034EE0E1B01F0E4FEB0EE481B9FED162BA5
:104F200000EE0B1B89ED00DBB4EEC81BF1EE10FAAE
:104F300005DB31EE420B89ED040B02E00AE089ED5E
:104F4000041BB4EEC8ABF1EE10FA08DB3AEE420BEC
:104F500089ED020B3DB0BDEC108BBDE8F08F89ED03
:104F600002ABF7E7300000246666666666A64C4032
:104F700000000000008066400000000000807640D5
:104F80000D4808B5016841F0010101600068002288
:104F9000114600F0010000900B20FDF7B9FA0B203C
:104FA000FDF7A8FA00220C201146FDF7B1FABDE882
:104FB00008400C20FDF79EBAD8440258114808B5A5
:104FC000016841F004010160016801F004010091F1
:104FD000016841F080010160016801F080010091E9
:104FE000016841F001010160016801F001010091D7
:104FF000016841F008010160006800F008000090BD
:1050000008BD0000E044025830B587B018480024BD
:105010001649EF2240F2E733009480250194029470
:10502000039404940594069480E81600C0E90334C0
:10503000C0E90545FEF75AFF08B1FBF778FE4FF4CB
:10504000805000900A486946FFF704F808B1FBF762
:105050006EFE074804A9049405940694FEF7F4FE36
:10506000002801D0FBF763FE07B030BD000001400F
:10507000E401002430B587B0174800241549EF2219
:1050800040F2F31300948025019402940394049455
:105090000594069480E816008561C0E90334FEF7A4
:1050A00025FF08B1FBF743FE4FF4805000900A48FB
:1050B0006946FEF7CFFF08B1FBF739FE064804A9A1
:1050C00004940694FEF7C0FE002801D0FBF72FFEE3
:1050D00007B030BD00040040300200241948002110
:1050E00070B5174D0C224FF4E1240560C0E9014171
:1050F0004FF40043C160C0E90412C0E90613016225
:1051000041628162FFF7C0FB08B1FBF710FE0D485A
:105110000021FFF7CCF908B1FBF709FE094800218F
:10512000FFF79FF908B1FBF702FE0648FFF777F992
:10513000002803D0BDE87040FBF7F9BD70BD00004A
:10514000001001407C020024FEE7FEE770470000EB
:105150000B4991F8302072B1521ED2B201EB02130A
:1051600093ED000B80ED000B93ED020B80ED020B35
:1051700081F830207047022081F83000704700002D
:10518000000400240F4990ED000B91F8302001EB52
:10519000021282ED000B91F8302090ED020B01EB32
:1051A000021080ED020B91F83000421C81F8302093
:1051B000032805D3002081F83000012281F8312036
:1051C00070470000000400242DE9F047454D0446D7
:1051D00089464FF0000A2868C04380070AD0414E34
:1051E000283E306820F080603060FDF7CBF807463D
:1051F000B04608E00120BDE8F08700BFFDF7C2F827
:10520000C01B022867D8D8F800000001F6D4206837
:1052100029684FF4FE0721F47C313E0241EA003058
:105220002860207AA389B4F804C040022D4D2D498E
:105230005B1E227CACF1010C1035091DA0F500703D
:1052400080B2521ECCF3080C07EA034340EA0C007C
:10525000184306EA0262104328600868626920F079
:10526000C000104308600A68A06922F020020243CF
:105270000A60281D0A6822F010020A6002684FF6D0
:10528000F873E4699A4342EAC40202600868B9F11B
:10529000000F40F010020A6011D00868B9F1010F48
:1052A00011D040F400100860D8F80000444640F0E7
:1052B0008060C8F80000FDF765F805460DE0086855
:1052C00040F40020EFE740F48010ECE7FDF75AF8D7
:1052D000401B022801D903208DE720680001F5D585
:1052E000504688E7284402582DE9F047454D0446CA
:1052F00089464FF0000A2868C04380070AD0414E13
:10530000283E306820F080503060FDF73BF80746BB
:10531000B04608E00120BDE8F08700BFFDF732F895
:10532000C01B022867D8D8F800008000F6D4208877
:1053300029684FF4FE0721F07C713E0241EA0050DB
:105340002860207AA389B4F804C040022D4D2D496D
:105350005B1E227CACF1010C1835091DA0F5007014
:1053600080B2521ECCF3080C07EA034340EA0C005B
:10537000184306EA0262104328600868626920F454
:105380004060104308600A68A06922F4007202437A
:105390000A60281D0A6822F480720A6002684FF6CB
:1053A000F873E4699A4342EAC40202600868B9F1FA
:1053B000000F40F480720A6011D00868B9F1010F43
:1053C00011D040F080700860D8F80000444640F0EA
:1053D0008050C8F80000FCF7D5FF05460DE00868CE
:1053E00040F48000EFE740F40000ECE7FCF7CAFF70
:1053F000401B022801D903208DE720688000F5D5E5
:10540000504688E72844025870B5324CADF6380D46
:10541000207800285AD0E08800284AD000252E465F
:1054200026E000BF2C48C6EBC60100EBC1002BA153
:1054300090ED0A0B8DED0A0B90ED080B8DED080B2E
:1054400090ED060B8DED060B90ED040B8DED040B2E
:1054500090ED020B8DED020B90ED000B8DED000B2E
:10546000026B0CA8284401F0F7F9761CB6B205448B
:10547000E0888642D6D322480DF503630CA92A465C
:1054800002F033FE010003D1DDF83008A84209D054
:10549000E0682B46401CE060DDF8302819A001F0E0
:1054A000CBF903E0E188A0680844A060144802F04A
:1054B000D5FD134802F0B6FC00202070A1680DF65F
:1054C000380D19A0BDE8704001F0B6B90DF6380DE1
:1054D00070BD000000010024E0080024256C752C3C
:1054E000252E33662C252E33662C252E33662C254F
:1054F0002E33662C252E33662C252E33660A0000AB
:10550000700F00245772697465206572726F723A69
:10551000207265733D25642C207772697474656E02
:105520003D25642F25640A00494D55206C6F672086
:10553000636C6F7365642C20746F74616C3A202502
:105540006C75207265636F7264730A002DE9F04315
:105550006B4C00270126ADF6340D2079F0B3694B72
:10556000E088DFF8A491C0EBC000D3F81120D3F895
:105570000D104D4609EBC000C0E90012D3F8192008
:10558000D3F81510C0E90212D3F82120D3F81D106A
:10559000C0E90412D3F82920D3F82510C0E9061277
:1055A000D3F83120D3F82D10C0E90812D3F83920F0
:1055B000D3F83510C0E90A12FCF7E4FEE188C1EB2C
:1055C000C102491C05EBC2021063E180FCF7DAFE60
:1055D0008046E0881E2807D2216900E00BE0A8EB96
:1055E0000100B0F57A7F36D36078002833D1207877
:1055F000002824D034E049480A2244A1267102F050
:1056000025FC010003D046A001F016F922E04AA5CE
:105610002846FAF7B4FE024640486B46294602F097
:1056200064FD010006D050A001F006F93B4802F0ED
:10563000F9FB0FE053A0267001F0FEF80AE03748AE
:10564000322232A102F002FC010008D053A001F086
:10565000F3F8E78067700DF6340DBDE8F08326702F
:10566000002566702E4624E0C6EBC60109EBC1009A
:105670004FA190ED0A0B8DED0A0B90ED080B8DED0F
:10568000080B90ED060B8DED060B90ED040B8DEDE8
:10569000040B90ED020B8DED020B90ED000B8DEDE8
:1056A000000B026B0CA8284401F0D6F8761CB6B2A9
:1056B0000544E0888642D7D318480DF503630CA94A
:1056C0002A4602F012FD010003D1DDF83008A8429D
:1056D00009D0E0682B46401CE060DDF830283DA092
:1056E00001F0AAF803E0E188A0680844A0600B4834
:1056F00002F0B4FC6770E780C4F81080ABE70000EC
:105700000001002496080024E00800244174746914
:10571000747564652E74787400000000700F0024A6
:105720004572726F72206F70656E696E6720666970
:105730006C653A2025640A0054696D657374616D67
:1057400070286D73292C6779726F782C6779726F66
:10575000792C6779726F7A2C616363782C6163634B
:10576000792C6163637A0A004572726F72207772D6
:105770006974696E67206865616465723A202564A2
:105780000A000000494D55206C6F6767696E6720FD
:10579000737461727465640A0000000052656F7072
:1057A000656E206661696C65643A2025640A0000B4
:1057B000256C752C252E33662C252E33662C252E34
:1057C00033662C252E33662C252E33662C252E335E
:1057D000660A00005772697465206572726F723ACA
:1057E000207265733D25642C207772697474656E30
:1057F0003D25642F25640A000148FEF7E7B9000043
:105800006801002410B585B004464FF48072002072
:105810000C2113018DE80700CDE90303E06840F097
:105820008000E060E06820F04000E06069462046CB
:1058300000F0AAF8074A0C21204600F00DF8E168B4
:10584000B0F1007F21F08001E16000D1002005B0BF
:1058500010BD000000E1F50530B5464D4FF4FA5398
:10586000434C2D68B5FBF3F353435B1E02D24FF05C
:10587000004030BD426B2242F7D09204F5D4426B17
:10588000520703D504218163084630BD426BD2071D
:1058900002D00121816306E0354A803282630269C9
:1058A000D2B28A4201D0012030BD002100F066F85A
:1058B0003149084201D1002030BD002802DA4FF002
:1058C000007030BD410001D5402030BD810001D5C0
:1058D000802030BDC10002D54FF4807030BD010181
:1058E00002D54FF4007030BD410102D54FF4806005
:1058F00030BDC10102D54FF4006030BD010202D5B8
:105900004FF4805030BD410202D54FF4005030BDFD
:10591000810202D54FF4804030BDC10202D54FF460
:10592000004030BD410302D54FF4003030BD81034B
:1059300002D54FF4802030BDC10302D54FF40020C2
:1059400030BD010402D54FF4801030BD410402D5B2
:105950004FF4001030BD810402D54FF4800030BDFB
:10596000000702D54FF4000030BD4FF4803030BD49
:10597000450020001000002408E0FFFD08444069B5
:105980007047D0F88000704770B5084D0A68826093
:10599000C368D1E90126D1E903412B4032430C43CE
:1059A00022431343C360002070BD0000C0E0FEFF2F
:1059B0000968C0F88010002070477047D0F8351093
:1059C000D0F83900B8EE081B40EC101BB4EEC10B48
:1059D000F1EE10FA02D202490120887070470000EF
:1059E00000010024FCF7D4BC30B59DB04C216846C2
:1059F000FAF7BAFC202113A8FAF7B6FC0220FCF74C
:105A0000B9FD2D4900252D480A6822F001020A60DF
:105A10000A68026842F440420260026802F44042AE
:105A20001B9202689204FCD5254A136843F00203D6
:105A30001360126802F002021B92026842F44042B4
:105A4000026002680A6842F001020A60096801F017
:105A500001011B9101688904FCD53C2302200090C0
:105A600040240494042101220392CDE90905CDE9E3
:105A70000B13CDE90D010FA90C2281E82500684622
:105A80001295FDF7DDFD08B172B6FEE708221A9403
:105A9000CDE91624D30113AA3F200321CDE91843F1
:105AA00082E82300042113A8FDF7BAFB002801D0E7
:105AB00072B6FEE71DB030BD2C04005818480258DD
:105AC000F44402582C48F0B52C4A016841F47001A6
:105AD0000160106800F00F00072804D2106820F061
