:020000040800F2
:10000000002F00209D010008911C0008991B00088A
:100010008D1C0008BD030008E52700080000000053
:100020000000000000000000000000002126000881
:10003000C103000800000000951C000825260008E8
:10004000B7010008B7010008B7010008B7010008B0
:10005000B7010008B7010008B7010008B7010008A0
:10006000B7010008B7010008B7010008B701000890
:10007000B7010008B7010008B7010008B701000880
:10008000B7010008B7010008B7010008B701000870
:10009000B7010008B7010008B7010008B701000860
:1000A000B7010008B7010008B7010008B701000850
:1000B000B7010008B7010008B7010008B701000840
:1000C000B7010008B7010008B7010008B701000830
:1000D000B7010008B7010008B7010008B701000820
:1000E000B7010008B7010008B7010008B701000810
:1000F000B7010008B7010008B7010008B701000800
:10010000B7010008D11C0008B7010008B7010008BA
:10011000B7010008B7010008B7010008B7010008DF
:10012000B7010008B7010008B7010008B7010008CF
:10013000B7010008B7010008B7010008B7010008BF
:10014000B7010008B7010008B7010008B7010008AF
:10015000B7010008B7010008B7010008B70100089F
:10016000B7010008B7010008B7010008B70100088F
:10017000B7010008B7010008B7010008000000003F
:10018000B7010008B7010008DFF80CD000F098F8BC
:1001900000480047B15E0008002F00200648804755
:1001A00006480047FEE7FEE7FEE7FEE7FEE7FEE75C
:1001B000FEE7FEE7FEE7FEE7E92600088901000802
:1001C0002DE9F05F0546002092469B46884606468C
:1001D000814640241BE0284641464746224600F01F
:1001E0005EF853465A46C01A914110D3114618463C
:1001F000224600F045F82D1A67EB01084F462246CB
:100200000120002100F03CF817EB00094E41201EB0
:10021000A4F10104DFDC484631462A464346BDE8E6
:10022000F09FD2B201E000F8012B491EFBD27047CB
:100230000022F6E710B513460A4604461946FFF7B2
:10024000F0FF204610BD421C10F8011B0029FBD115
:10025000801A704730B50B46014600202022012449
:1002600009E021FA02F59D4205D303FA02F5491B84
:1002700004FA02F52844151EA2F10102F1DC30BD9A
:10028000202A04DB203A00FA02F100207047914056
:10029000C2F1200320FA03F3194390407047202A4B
:1002A00004DB203A21FA02F00021704721FA02F320
:1002B000D040C2F120029140084319467047000027
:1002C0001CB509480090094801900546009C06E0CD
:1002D000E06840F0010394E8070098471034AC420E
:1002E000F6D3FFF755FF00002C6B00084C6B00089D
:1002F00070470000014640F63040C2F2000000F0B6
:100300008FBE000080B540F63040C2F2000000F021
:1003100099FE043818BF012080BD000080B500F0B0
:1003200019F801281CBF012080BD40F63040C2F200
:10033000000000F0EDFF002818BF80BD40F63040FF
:10034000C2F200004FF4006100F008FD002818BF61
:10035000012080BD81B001208DF803009DF80300CD
:1003600001B0704780B582B09C4613460A460146EC
:1003700040F63040C2F20000CDF800C001F04EF966
:10038000002818BF012002B080BD000070470000A7
:1003900080B582B09C4613460A46014640F630407E
:1003A000C2F20000CDF800C001F058FA002818BFD2
:1003B000012002B080BD000070470000FEE7000091
:1003C0007047000046F60400C0F6000006F0ECF8A6
:1003D00072B600BFFEE7000040F62443C2F20003FD
:1003E0005A7A002A1CBF0120704780B593F809C0D3
:1003F0008646002003F80C005A7A03EB8202C2F80A
:1004000004E05A7A1A44107293F809C00CF1010200
:100410005A720CF130020A7042F63A72A1F80120C9
:10042000C87080BD90F83510022909D1052180F8E7
:1004300035100068016821F001010160002070475B
:100440008021416501207047B0B5044600F0E0F816
:10045000054640F20000C2F200000078611C18BF9F
:10046000044400BF00F0D4F8401BA042FAD3B0BD52
:100470002DE9F04F83B000F1200200F13E4741F634
:100480000045009207F1FF77C4F2020508224FEA07
:10049000B726A84208BF072200254FF000084FF0FA
:1004A0000009072E38BF4FEAB72201920AE000BFC9
:1004B00009F1010908F10208B9F1100F05F104056D
:1004C00000F0A2800F68012202FA09FE17EA0E0A64
:1004D000EED0D1F804C003220CF003077E1E02FA0E
:1004E00008F4012E6FEA040B12D88468CE6804EA7F
:1004F0000B0406FA08F634438460446824EA0E06C6
:10050000CCF3001404FA09F42643466004E000BF6B
:10051000032F01D103271EE0C6688C6806EA0B068C
:1005200004FA08F42643022FC66014D16FF00302C8
:10053000009E02EA590756F807C005F01C040F2276
:100540000B69A2402CEA0202A3401A43F251D1F8EF
:1005500004C00CF00307026807FA08F302EA0B0272
:100560001A431CF4403F0260A2D0002243F6440329
:100570000292C4F202031A6843F6004442F4804235
:100580001A601A68C4F2010402F480420292029ACC
:1005900029F003024FF6084C2244CFF6FF7C52F8B4
:1005A0000C3005F00C070F26BE40B343019E06FA3F
:1005B00007F73B4342F80C30A2684B6842EA0A074F
:1005C00043F60C4CDE0258BF22EA0A07A760C4F2C9
:1005D000010CDCF800209E0242EA0A0758BF22EA1A
:1005E0000A07CCF8007062689E0342EA0A0758BF07
:1005F00022EA0A0767602268DB0342EA0A0758BF5B
:1006000022EA0A07276053E703B0BDE8F08F000035
:1006100040F6FC40C2F200000068704740F2000063
:1006200040F6FC41C2F20000C2F2000100780A6804
:10063000104408607047000080B543F60040C4F2E3
:100640000200016841F400710160016841F48061B9
:100650000160016841F480710160032000F086F8B8
:100660000F2000F005F800F027F8002080BD000002
:1006700070B540F20006C2F2000640F20C0132787A
:10068000C2F200014FF47A730968B3FBF2F2044638
:10069000B1FBF2F1084601F0FDF90F2C4FF0010516
:1006A00008D838B94FF0FF3021460022002500F06D
:1006B00031F87460284670BD82B0002043F64001D6
:1006C0000190C4F202014A6842F480424A604A68DA
:1006D00002F480420192019A0090086840F0805034
:1006E0000860086800F080500090009802B07047E1
:1006F000002848BF704700F01F01012202FA01F1F3
:100700001C2202EAD0004EF20012CEF2000281500A
:100710007047000010B54EF60C5CCEF2000CDCF811
:100720000030C3F3022E8EF00704042C28BF0424EB
:10073000BEF103034FF0FF3E0EFA04F438BF00236E
:10074000A14399400EFA03F39A43114300F00F02BC
:1007500000F160430901043A03F564436244002850
:1007600048BF02F10C03197010BD00004EF60C5189
:10077000CEF200010A684FF6FF031A4060F30A2226
:1007800042F0806040F0FD7008607047002804BFB0
:10079000012070472DE9F04143F60808C4F2020831
:1007A0000446D8F8F8030D4600F00700884207D247
:1007B00088F8F853D8F8F80300F00700A84277D17A
:1007C0002068810717D5410705D5D8F8001041F4F6
:1007D000E051C8F80010010705D5D8F8001041F421
:1007E0006041C8F80010D8F80010A26821F0F001AC
:1007F0001143C8F80010C00740D1D8F8F80300F042
:100800000700A84207D988F8F853D8F8F80300F091
:100810000700A8424CD12068410707D5D8F800103E
:10082000E26821F4E0511143C8F80010000708D530
:10083000D8F80000216920F4604040EAC100C8F8FF
:10084000000000F07DF8D8F8001046F20462C1F311
:100850000311C0F60002515C40F20C0220FA01F1D3
:1008600040F20400C2F200000068C2F2000211600F
:10087000FFF7FEFE0020BDE8F08100BF6068811E2A
:10088000022907D258F8081C89015CBF0120BDE885
:10089000F08111E0012807D158F8081C89035CBFDA
:1008A0000120BDE8F08107E058F8081C890703D44F
:1008B0000120BDE8F08100BFD8F8001021F003014D
:1008C0000843C8F80000FFF7A3FE064641F2883748
:1008D000D8F80000616800F00C00B0EB810F8CD0FC
:1008E000FFF796FE801BB842F2D90320BDE8F081E5
:1008F00040F20C0043F60801C2F20000C4F202010B
:100900000068096846F21462C1F38221C0F6000251
:10091000515CC8407047000040F20C0043F60801EB
:10092000C2F20000C4F202010068096846F21462D3
:10093000C1F34231C0F60002515CC840704700006C
:1009400010B543F60404C4F20204606800F00C0021
:1009500008280BD0042819BF42F20040C0F2F4006E
:1009600047F64000C0F27D1010BD00BF206821682E
:100970002368490247F64001C0F27D1100F03F02B2
:10098000C3F388105CBF42F20041C0F2F401A1FB46
:1009900000010023FFF714FC21680222C1F301418A
:1009A00002EB4101B0FBF1F010BD0000002804BFD4
:1009B000012070472DE9F04182B00446007843F6EB
:1009C0000006C007C4F202060CD0B06800F00C00AC
:1009D000042840F081803068800303D560680028D7
:1009E00000F06881207880071BD5B06810F00C0FEC
:1009F00009D0B06800F00C00082840F087807068CB
:100A0000400200F183803068800703D5E068012848
:100A100040F050813068216920F0F80040EAC100C0
:100A200030602078000713D4207840072AD4A569C5
:100A3000002D00F03A81B06800F00C00082840F06A
:100A4000A580012D40F00E81012002B0BDE8F081AB
:100A50006069002800F082800020C4F24720012154
:100A6000C0F8801EFFF7D4FD054600BF706F8007F9
:100A7000DAD4FFF7CDFD401B0228F7D9032002B0DE
:100A8000BDE8F081306C5FEAC0080AD40020019014
:100A9000306C40F080503064306C00F08050019039
:100AA000019847F20007C4F200073868C00547D430
:100AB000386840F480703860FFF7AAFD054600BF33
:100AC0003868C0053CD4FFF7A3FD401B0228F7D9C6
:100AD000032002B0BDE8F081B06800F00C000828E7
:100AE00003D1706840023FF576AF61683068B1F5B8
:100AF000803F07D0B1F5A02F40F09A8040F48020CD
:100B00003060306840F4803030609AE0E06800285F
:100B100040F20000C4F247205CD001210160FFF7E1
:100B200077FD0546306880073FF574AFFFF770FD2D
:100B3000401B0228F6D9032002B0BDE8F08100BFB7
:100B4000A168306F012905D0052955D140F0040076
:100B50003067306F40F00100306756E00020C4F28B
:100B600047200021C0F8801EFFF752FD054600BF58
:100B7000706F80077FF558AFFFF74AFD401B0228D2
:100B8000F6D9032002B0BDE8F08100BF0027C4F20F
:100B9000472700203866FFF73BFD022D05460DD1A3
:100BA0003068800140F18A80FFF732FD401B022847
:100BB0004FF00300F4D902B0BDE8F0813068800145
:100BC00073D5FFF725FD401B02284FF00300F5D930
:100BD000F1E700BF00210160FFF71AFD054600BFE5
:100BE000306880077FF51DAFFFF712FD401B02281C
:100BF0004FF00300F4D9DEE720F001003067306FDA
:100C0000002920F0040030677AD0FFF701FD054687
:100C100041F28837306F800700F18480FFF7F8FCDD
:100C2000401BB842F6D9032002B0BDE8F08100BFF6
:100C300020F4803030603068002920F4802030605B
:100C40007AD0FFF7E5FC0546306880033FF5CAAE71
:100C5000FFF7DEFC401B6428F6D9032002B0BDE894
:100C6000F08100BF7068E16900F480028A4221D1FE
:100C7000216A00F03F028A421CD147F6C071626AC5
:100C80000140B1EB821F15D1A16A4FF6FF73C90372
:100C9000994300F44032A1F580318A420AD1E16AD9
:100CA00000F07060B0EB016F04D1002002B0BDE82D
:100CB000F08100BF012002B0BDE8F08104F11C0505
:100CC0002FCD084340EA8210D9034FF6FF729143BB
:100CD000A1F5803140EA0560084370600120386664
:100CE000FFF796FC044600BF30688001DDD4FFF7B3
:100CF0008FFC001B02284FF00300F5D95BE700BF13
:100D0000FFF786FC054641F2883700BF306F800749
:100D100008D5FFF77DFC401BB8424FF00300F5D922
:100D200049E700BFB8F1000F3FF581AE306C20F00D
:100D3000805030647BE600BFFFF76AFC054600BFC9
:100D4000306880037FF54EAEFFF762FC401B6428DD
:100D50004FF00300F4D92EE7FFF7CABA2DE9F041AE
:100D600086B00446032084F83400606C032825D143
:100D70004FF08050A26B40F2FF581043A063A06B6D
:100D8000C0F2400800283FD020680125C0F8388014
:100D900084F834504FF4007101F01AF830B1216832
:100DA0000125C1F83880A16B0843A06301212846C2
:100DB00084F8341006B0BDE8F08100BFD1B3B1F5BE
:100DC000805FD5D0B1F5006F50D120680D4600216D
:100DD0000591049100F078FF800143D404A92046D6
:100DE00001F01EFB00282946C4D19DF816004007DB
:100DF00035D5216D2068090400F096FF29460028AA
:100E0000B8D12068022140E0D4E90005D4E90567A3
:100E1000D4E90223CDE900162946029700F05EFFCF
:100E2000206800254FF4007100F0D2FF0028B6D1F1
:100E3000BCE700BF20680D4600210591049100F039
:100E400043FF80010ED404A9204601F0E9FA0028EE
:100E500029467FF48FAF9DF81600C0070AD14FF0E6
:100E6000806087E74FF40060294683E74FF0006019
:100E700080E700BF216D2068090400F055FF294676
:100E800000287FF477AF2068002100F0ADFF2946ED
:100E900070E700007047000080B5D0E9193ED0F837
:100EA00044C09A0F0A70C3F383624A70C3F30162AD
:100EB0008A701A0CCA701A0A0A714FEA1E524B71D4
:100EC000CA80CEF303420A72CEF3C0324A72CEF326
:100ED00080328A72CEF34032CA72CEF300320A7385
:100EE0000022BCF1010F4A7336D0BCF1000F40F074
:100EF000878040F6FC72C36E02EA8E0242EA937269
:100F00000A61C26EC2F3C2630B75C2F302634B7512
:100F1000C2F342538B75C2F38243CB75C2F3C23323
:100F20000B76D1F810C00B7E0CF1010C03F0070317
:100F300002330CFA03FCC0F854C00B7A03F00F0E16
:100F4000012303FA0EF383655B0A03FB0CF3C3650D
:100F50004FF4007312E000BFB0F86E200EF03F03B4
:100F600042EA03420A610A694FF4806303EB82227A
:100F70004FF40073C0E91523C265C26E0366C2F365
:100F800080334B76C2F3C61302F07F028B76CA76AB
:100F9000026FD00F0877C2F341704877C2F38260C6
:100FA0008877C2F38350C877C2F3405081F820009D
:100FB0000020C2F3004381F8210081F82230C2F3FF
:100FC000C03381F82330C2F3803381F82430C2F378
:100FD000403381F82530C2F3003381F82630C2F364
:100FE000812381F82730C2F30123D2B2520881F85D
:100FF000283081F82920012281F82A2080BD00BFF5
:10100000016840F2FF52C0F240028A63816B41F0F6
:1010100080518163012180F83410012080BD0000DF
:1010200080B500F1440E9EE80C5081E80C10426D32
:10103000C1E903E2D0E91623C1E90523026E0020CD
:10104000CA6180BD10B5016D04460068090401F055
:1010500029F828B1A16B0843A063002010BD00BF90
:101060002068002100F030FEC0F3432010BD0000D6
:10107000F0B581B004460068256B416B090405F0AA
:1010800008012BD551B3E56A2DB3A66A00F042FEE4
:101090003060206800F03EFE7060206800F03AFE8C
:1010A000B060206800F036FEF060206800F032FE8C
:1010B0003061206800F02EFE7061206800F02AFE8A
:1010C000B061206800F026FEF06106F12000A5F175
:1010D0002001C4E90A0101B0F0BD00BF426BD20596
:1010E00040D4426B520465D5002963D0666A002E55
:1010F000F1D0276A6D4639680091294600F00EFE4E
:10110000796820680091294600F008FEB9682068D7
:101110000091294600F002FEF968206800912946F6
:1011200000F0FCFD396920680091294600F0F6FDC9
:10113000796920680091294600F0F0FDB9692068BE
:101140000091294600F0EAFDF869294600902068E0
:10115000203700F0E3FDA6F12000C4E9087001B0DB
:10116000F0BD00BF4FF480718163C16B4CF23A3225
:101170009143C163C16A2A0721F00101C16259D4B8
:101180002906A8D5A90608D500F0FCFF28B1A16B57
:101190000843A0632046FFF77DFEA8079BD1206887
:1011A000C16A21F00801C1620121204684F834108F
:1011B0005EE000BF416B40F23A2211423FF48BAF38
:1011C000416B89075AD4416B09075ED4416B89068C
:1011D00062D4416BC90666D4416B890503D5A16B06
:1011E00041F00801A16340F23A718163C16B40F2A2
:1011F0003A329143C16300F0C5FFA16B0843290750
:10120000A06359D428067FF566AF15F0300F5FD084
:10121000E06B42F2B531C0F600010165FFF702F95B
:1012200000283FF458AFE06B01B0BDE8F04001F09A
:10123000C1B800BF15F0220F08D000F0A3FF28B1FD
:10124000A16B0843A0632046FFF724FE206840F20C
:101250003A518163012084F834000020A9072063FB
:10126000204605D001B0BDE8F04000F0F3BA00BF61
:1012700001B0BDE8F04000F0EFBA00BFA16B41F053
:101280000201A163416B0907A0D5A16B41F00801E0
:10129000A163416B89069CD5A16B41F02001A1633C
:1012A000416BC90698D5A16B41F01001A163416B58
:1012B000890594D497E700BF0120002184F8340009
:1012C0002046216301B0BDE8F040FFF7E3BD00BF59
:1012D000A80711D0206C42F24931C0F60001016527
:1012E000FFF7A0F800283FF4F6AE206C01B0BDE88F
:1012F000F04001F029B800BF00210120A16384F86B
:1013000034002046216301B0BDE8F040FFF724BD62
:10131000002804BF0120704710B5044690F834003F
:1013200020B900202077204600F018F9032084F827
:101330003400204600F00CF800284FF0010018BFE0
:1013400010BD0021A163216384F83400002010BD8A
:10135000F0B58FB004460068762100260291002186
:10136000002200230096019600F0B8FC48F2A00786
:10137000C4F225273E60206800F0C6FC012502204B
:101380003D60FFF761F80496206800F039FD38B140
:1013900084F83450A16B0843A06328460FB0F0BD19
:1013A000206800F05DFD58B120680021A16400F0C4
:1013B00027FD0028ECD1A06C012803D00AE000BF73
:1013C0000120A0642068002100F0AEFC10B14FF0B5
:1013D0008050DDE704984FF6FE77B8421ED800260D
:1013E000CCF210162068002100F09EFC0028CFD11E
:1013F0002068314600F0A4FC0028E8D120680021D4
:1014000000F062FC0499013104910499B94202D8B8
:10141000B0F1FF3FE6DCC0F3807000E000200499EB
:101420004FF6FF72914203D34FF08070B0E700BFD8
:10143000606420680125ADF80E5000F041FCB8B39F
:10144000606C032838D12068042100F03DFC000DB9
:10145000E06404A92046FFF71FFD0028B7D1216DE5
:1014600020680A04002300F067FD00287FF490AF95
:1014700094E88F00D4E90565CDE90076029500F087
:101480002DFC20684FF4007100F0A2FC002861D010
:10149000216840F2FF52C0F240028A63A16B01252D
:1014A0000843A06384F8345028460FB0F0BD00BF55
:1014B0004FF080606CE700BF206800F049FD002815
:1014C0007FF466AF2068002100F0FEFB21686067B2
:1014D0000846042100F0F8FB2168A06708460821AF
:1014E00000F0F2FB2168E06708460C2100F0ECFBFD
:1014F000616CC4F880000329A5D020680DF10E01AD
:1015000000F0DCFD00287FF443AF606C03289AD024
:10151000BDF80E1020682165090400F067FD002861
:101520007FF436AF2068002100F0CEFB21686066B2
:101530000846042100F0C8FB2168A066084608217F
:1015400000F0C2FB2168E06608460C2100F0BCFBFD
:10155000206778E7002528460FB0F0BD2DE9F0435D
:1015600087B042F600450068C4F201050026A84293
:101570000696CDE904660396029603D007B0BDE84F
:10158000F08300BF43F630000196C4F202004169C7
:1015900002AC41F40061416141694FF0020801F47D
:1015A000006101910199019601684FF0030941F032
:1015B0000401016001680C2701F004010191019907
:1015C0000196016841F0080101600068214600F0C1
:1015D0000800019001984FF4F850029005F55C4026
:1015E000CDE90386CDF814900697FEF741FF04205D
:1015F000CDE9020805F560402146CDE9046906976A
:10160000FEF736FF312000210022FFF783F831205A
:10161000FFF76EF807B0BDE8F08300002DE9F04752
:1016200086B01F4616460D460446FEF7F1FF9DB1F3
:10163000804694F83400012816D10021A163E06DA2
:10164000BA19824218D9A06B40F00070A063012043
:1016500006B0BDE8F08700BFA06B40F00060A0635B
:10166000012006B0BDE8F087A06B40F00050A063F9
:10167000012006B0BDE8F087032084F83400626CD6
:101680002068012A4FF0FF32C16218BF7602009233
:101690007A024FF0020901929022CDE903914FF0B6
:1016A000010A69460292CDF814A000F0F5FA022F63
:1016B00018D3C4F830902068314600F025FCC8B13A
:1016C000216840F2FF52C0F240028A63A16B0843D6
:1016D000A0630120002184F83400216306B0BDE836
:1016E000F08700BFC4F830A02068314600F018FC35
:1016F0000028E5D1DDF83890019E40F22A3A05E055
:10170000FEF786FFA0EB0800484541D22068426BF7
:10171000416B12EA0A0F25D10904F1D5002EEFD052
:1017200000F0F8FA2860206800F0F4FA6860206899
:1017300000F0F0FAA860206800F0ECFAE860206899
:1017400000F0E8FA2861206800F0E4FA6861206897
:1017500000F0E0FAA861206800F0DCFAE8612035CA
:10176000203ECDE7022F27D311F4807124D0616C85
:10177000032921D000F006FD01462068E1B140F2C6
:10178000FF52C0F240028263A06B0843A0E700BF93
:10179000206840F2FF51C0F240018163A06B40F02D
:1017A0000040A063012084F834000020206303205F
:1017B00006B0BDE8F08700BF416B09075CBF416B15
:1017C0005FEA815108D540F2FF51C0F240018163C8
:1017D000A06B40F008007BE7416B89071CD4416B8C
:1017E000890623D42068416B890229D546B300F0CD
:1017F00091FA45F8040B043EFEF70AFFA0EB08003F
:101800004845EFD3206840F2FF51C0F240018163A8
:10181000A06B40F000405BE740F2FF51C0F2400196
:101820008163A06B40F0020052E700BF40F2FF511D
:10183000C0F240018163A06B40F0200048E700BF88
:1018400040F23A518163012084F83400002006B050
:10185000BDE8F087FEF79ABDFEF7AEBD2DE9F04F6B
:1018600087B0984615460E460446FEF7D1FE9EB157
:10187000824694F83400012816D10021A163E06D5E
:1018800008EB0502824217D9A06B40F00070A063FC
:10189000012007B0BDE8F08FA06B40F00060A063AE
:1018A000012007B0BDE8F08FA06B40F00050A063AE
:1018B000012007B0BDE8F08F032084F83400626C8B
:1018C0002068012A4FF0FF32C16218BF6D020192F9
:1018D0004FEA482202929022CDE90321059101218D
:1018E000069101A900F0D8F9B8F1020F18D3202011
:1018F00020632068294600F055FCC8B1216840F2F9
:10190000FF52C0F240028A63A16B0843A06301202A
:10191000002184F83400216307B0BDE8F08F00BFD8
:10192000102020632068294600F048FC0028E5D1FB
:10193000DDF84090029F40F21A3B6D4606E000BF82
:10194000FEF766FEA0EB0A0048455DD22068426BB8
:10195000416B12EA0B0F41D14904F1D5002FEFD0B2
:1019600031780091727841EA02210091B27841EA1F
:1019700002410091F27841EA02610091294600F0AB
:10198000CDF9716820680091294600F0C7F9B16867
:1019900020680091294600F0C1F9F16820680091A3
:1019A000294600F0BBF9316920680091294600F012
:1019B000B5F9716920680091294600F0AFF9B16965
:1019C00020680091294600F0A9F9F06929460090A5
:1019D0002068203600F0A2F9203FB1E7B8F1020FED
:1019E00024D311F4807121D0616C03291ED000F042
:1019F000C9FB01462068C9B140F2FF52C0F2400263
:101A00008263A06B084381E7206840F2FF51C0F277
:101A100040018163A06BA063012084F834000020A2
:101A20002063032007B0BDE8F08F00BF416B0907BA
:101A30005CBF416B5FEA815108D540F2FF51C0F2B3
:101A400040018163A06B40F008005FE7416B8907AC
:101A50000CD4416BC90613D440F23A518163012082
:101A600084F83400002007B0BDE8F08F40F2FF5149
:101A7000C0F240018163A06B40F0020046E700BF66
:101A800040F2FF51C0F240018163A06B40F01000B2
:101A90003CE70000411E0020B0EB116F1CBF01208D
:101AA00070474EF21002CEF2000251604EF6235102
:101AB000CEF20001F0230B70072190601160704797
:101AC000002804BF0120704710B5044690F841007B
:101AD00028B9002084F84000204600F021F8242096
:101AE00084F841002068C16821F40051C16020469B
:101AF00000F004FE2068016921F490410161416910
:101B000021F02A014161C16841F40051C160002007
:101B10002021606484F8411084F84210606310BD95
:101B200080B586B044F600010068C4F200010022CE
:101B300088420592CDE903220292019202D006B0BA
:101B400080BD00BF43F630000092C4F2020003697A
:101B500043F480230361036903F480230093009B13
:101B60000092036843F002030360006800F0020083
:101B7000009000984FF4406001900220CDE90202ED
:101B8000032004900720059001F5DE3001A9FEF73F
:101B90006FFC06B080BD0000FEE7000010B540F20B
:101BA0001C04C2F2000446F29C60611CC0F60000F6
:101BB000FEF712FC207010BD81B0002143F630000A
:101BC0000091C4F20200026842F0800202600268E2
:101BD00002F080020092009A0091026842F0020234
:101BE0000260026802F002020092009A009102680C
:101BF00042F004020260026802F004020092009ABD
:101C00000091026842F001020260026802F00102E3
:101C10000092009A0091016841F00801016000689B
:101C200000F008000090009801B0704740F6304086
:101C300042F60041C2F20000C4F20101002220235A
:101C4000C0E90012C0E90222C0E9042283617047A2
:101C500080B540F6B44044F60001C2F20000C4F280
:101C6000000100234FF00C0C4FF4E13280E80E002D
:101C7000C0E90333C0E905C3C361FFF721FF0028B2
:101C800008BF80BDBDE88040FEF79CBBFEE70000BA
:101C9000FEE700007047000080B5024691E8095059
:101CA0005062936208694EEA0C0318434969D36A8B
:101CB000084323F0F70101430020D16280BD0000FA
:101CC000006800F003007047084440697047000056
:101CD00040F63040C2F20000FFF7CAB910B58446A2
:101CE000DDE90240114319432143DDF810E00843C8
:101CF000DCF8041047F6FF6240EA0E00914301430E
:101D00000020CCF8041010BD0146032200200A6018
:101D100070470000D0F88000704700000968024654
:101D20000020C2F8801070478160C36840F277419C
:101D300061F30B03372141F28832C36000F04ABAE5
:101D400041F0004141F480118160C16840F2694274
:101D500062F30B01C16040F20C01C2F2000109689C
:101D600044F6D352C1F26202A1FB0212510A41F2BF
:101D7000883251436FF00302514000BF043104BF69
:101D80004FF000407047426B12F0450F02D012F442
:101D9000006214D0426B12F0450F02D012F40062C0
:101DA0000DD0426B12F0450F02D012F4006206D043
:101DB000426B12F0450FE1D012F40062DED1416BAC
:101DC000042211F0040108BFC5228263084670474F
:101DD0008160C3684FF48A6161F30B03102141F203
:101DE0008832C36000F0F6B98160C36840F24641B2
:101DF00061F30B03062141F28832C36000F0EAB9B7
:101E000000218160C1684FF4806262F30B01C16000
:101E100040F20C01C2F20001096844F6D352C1F24B
:101E20006202A1FB0212510A41F2883251436FF063
:101E300003025140043104BF4FF000407047426B31
:101E4000120609D4426B12065CBF426B5FEA026263
:101E500002D4426B1206EDD5C52181630020704784
:101E60004FF4D5718160C1684FF4896262F30B0150
:101E7000C16040F20C01C2F20001096844F6D3527D
:101E8000C1F26202A1FB0212510A41F288325143AF
:101E90006FF00302514000BF043104BF4FF0004017
:101EA0007047426B12F0450F02D012F4006214D05A
:101EB000426B12F0450F02D012F400620DD0426B5B
:101EC00012F0450F02D012F4006206D0426B12F0FD
:101ED000450FE1D012F40062DED1416B490709D40D
:101EE000416BC9070AD1416B49064FF0000108D583
:101EF000402205E00422042102E000BF012201216A
:101F000082630846704700008160C36840F2524116
:101F100061F30B03122141F28832C36000F05AB919
:101F20008160C36840F2514161F30B03112141F21A
:101F30008832C36000F04EB98260C36840F2474106
:101F400061F30B03072141F28832C36000F042B90C
:101F500000218160C16840F2C24262F30B01C1609E
:101F600040F20C01C2F20001096844F6D352C1F2FA
:101F70006202A1FB0212510A41F2883251436FF012
:101F800003025140043104BF4FF000407047426BE0
:101F900012F0450F02D012F4006214D0426B12F01E
:101FA000450F02D012F400620DD0426B12F0450FC3
:101FB00002D012F4006206D0426B12F0450FE1D05D
:101FC00012F40062DED1416B490707D4416BC907A7
:101FD00008D1C52181630020704700BF04218163BF
:101FE0000420704701218163012070478160C1682E
:101FF00040F2C94262F30B01C16040F20C01C2F22F
:102000000001096844F6D352C1F26202A1FB021238
:10201000510A41F2883251436FF00302514000BF30
:10202000043104BF4FF000407047426B12F0450F7F
:1020300002D012F4006214D0426B12F0450F02D0AD
:1020400012F400620DD0426B12F0450F02D012F470
:10205000006206D0426B12F0450FE1D012F400622C
:10206000DED1416B490707D4416BC90708D1C521AF
:1020700081630020704700BF042181630420704702
:10208000012181630120704700218160C36840F213
:10209000734161F30B03332141F28832C36000F0D6
:1020A00099B800008160C36840F24D4161F30B03B1
:1020B0000D2141F28832C36000F08CB800228260AA
:1020C000C26840F2434363F30B02C26040F20C0269
:1020D000C2F20002126844F6D353C1F26203A2FBBB
:1020E00003235A0A41F288335A436FF003035A40DC
:1020F000043204BF4FF000407047436B13F0450FAC
:1021000002D013F4006314D0436B13F0450F02D0D8
:1021100013F400630DD0436B13F0450F02D013F49A
:10212000006306D0436B13F0450FE1D013F4006356
:10213000DED1426B520719D4426BD2071AD1026921
:10214000D2B2032A18D1C5228263406910F4604FCD
:1021500014D0410444BF4FF40050704700044FF4C2
:10216000805058BF4FF48030704700BF0421816316
:10217000042070470121816301207047000C088012
:102180000020704700218160C36840F24C414EF24C
:10219000001261F30B03C0F2F5520C21C36000F092
:1021A00019B800008160C36840F2594161F30B0324
:1021B000192141F28832C36000F00CB88160C36815
:1021C0004FF48B6161F30B03182141F28832C36035
:1021D000AFF3008040F20C03C2F20003D3F800C05A
:1021E00044F6D353C1F26203ACFB033C4FEA5C23D9
:1021F0005A43002A00F09C80436B13F0450F02D035
:1022000013F400631DD0012A00F09280436B13F099
:10221000450F02D013F4006313D0022A00F0888027
:10222000436B13F0450F02D013F4006309D0043A56
:10223000531C7DD0436B13F0450FDAD013F40063C9
:10224000D7D1426B520777D4426BD20778D1C522DF
:1022500082630269D2B28A421CBF01207047406982
:102260004EF20801CFF6FF51084204BF002070472C
:10227000002844BF4FF0007070470021B1EB907F01
:102280001CBF40207047B1EB507F1CBF80207047BF
:10229000B1EB107F1CBF4FF480707047B1EBD06F73
:1022A0001CBF4FF400707047B1EB906F1CBF4FF430
:1022B00080607047C10144BF4FF400607047010265
:1022C00044BF4FF480507047410244BF4FF4005068
:1022D0007047810244BF4FF480407047C10244BF41
:1022E0004FF400407047410344BF4FF40030704743
:1022F000810344BF4FF480207047C10344BF4FF4B3
:1023000000207047010444BF4FF48010704741041F
:1023100044BF4FF400107047810444BF4FF4800065
:10232000704700074FF4000058BF4FF480307047EB
:102330004FF00040704700BF01460420886370479B
:102340000146012088637047B0B5846B40F23A5271
:10235000216D206809048263FFF7A4FE40B1A16BE0
:102360000843A063012084F834000020206313E0B8
:10237000206800210025FFF7A7FCC0F343200538A3
:102380000121012884F83410256305D82068FFF75F
:10239000F9FEA16B0843A063A06B28B12046BDE8FD
:1023A000B040FEF777BD00BF2046BDE8B040FEF765
:1023B000D3BC0000B0B5846B40F23A52216D206866
:1023C00009048263FFF76EFE40B1A16B0843A0636E
:1023D000012084F834000020206313E020680021ED
:1023E0000025FFF771FCC0F34320053801210128C7
:1023F00084F83410256305D82068FFF7C3FEA16B6D
:102400000843A063A06B28B12046BDE8B040FEF7AA
:1024100041BD00BF2046BDE8B040FEF79DBC0000B6
:102420002DE9F04188B00C460546FEF7F1F8064666
:1024300000212868019100910821FFF7C9FC18B11B
:1024400008B0BDE8F08100BF296D28680904FFF7D6
:102450006BFC0028F4D14FF0FF300290082003906D
:102460003020049002200590002006900121286869
:10247000079102A9FFF710FC2868FFF705FE002866
:10248000DED10027E8460BE0FFF744FC48F82700C0
:102490000137FEF7BDF8801B01304FF00040CFD070
:1024A0002868416B11F02A0F05D1416B8902EBD4EA
:1024B000416B8904EDD4416B09075CBF416B5FEA56
:1024C000815105D508218163082008B0BDE8F0815D
:1024D000416B890710D4416B890613D440F23A51FD
:1024E0008163DDE9001000BA09BAC4E900010020E7
:1024F00008B0BDE8F08100BF02218163022008B06E
:10250000BDE8F08120218163202008B0BDE8F08182
:10251000B0B540F20804C2F2000401252570FDF7B1
:10252000FDFE08B12078B0BD2570FDF7EBFE18B1B7
:10253000207820702078B0BD207800F0FE00207058
:10254000207820702078B0BD10B588B040F2080027
:10255000C2F200000078C00710D1032926D800205D
:10256000DFE801F02502101A68461446FDF7C2FEA6
:1025700006982060002008B010BD00BF032008B0FE
:1025800010BD00BF68461446FDF7B4FE07982080D2
:10259000002008B010BD00BF68461446FDF7AAFE33
:1025A0000798400A2060002008B010BD042008B041
:1025B00010BD000080B5084611461A464FF0FF33A3
:1025C000FDF7D0FE00281CBF012080BDFDF79AFE5C
:1025D0000028FBD1002080BD10B540F20804C2F2F3
:1025E000000401202070FDF78DFE08B1207810BD99
:1025F000207800F0FE002070207810BD80B50846DD
:1026000011461A464FF0FF33FDF7C2FE00281CBFEB
:10261000012080BDFDF776FE0028FBD1002080BDA3
:1026200070470000FDF7FABF70B592B006AC2046C7
:102630003021FDF7FDFD002543F640000595CDE96D
:102640000355CDE901550095C4F202000168022648
:1026500041F080510160006800F0805000900098C7
:1026600047F200000095C4F20000016841F4804187
:102670000160006800F480400090009801200990FB
:1026800010200A9008200E90A820CDE90F06072000
:10269000119020460696CDE90C65FEF787F948B102
:1026A00046F60400C0F6000003F07EFF72B600BFDD
:1026B000FEE700BF0F20CDE901064FF4A0500490C3
:1026C0004FF48050059001A805210395FEF75EF8B0
:1026D00040B146F60400C0F6000003F065FF72B694
:1026E000FEE700BF12B070BD4EF68850CEF200007B
:1026F000016841F47001016070470000B0B5044604
:10270000006804F108030ECB0569194325F4405510
:102710002A4302616269E3691143C268194349F2BD
:102720000C639A431143C1604169A26921F440716D
:1027300041F20043114340F48062C4F201039A4223
:10274000416103D1FEF7E8F802E000BFFEF7D0F8E0
:10275000E1694FF69C7563681922C0F6FF75B1F503
:10276000004FA0FB02011FD15A00DB0FFDF728FD2F
:1027700048F21F51C5F2EB11A0FB01235A0905F1E4
:10278000805302FB0300322303EBC000A0FB0101D6
:102790004FF4F87000EA111000EB0210C1F342117F
:1027A000084421688860B0BD9A009B0FFDF708FDC2
:1027B00048F21F51C5F2EB11A0FB01235A0902FB9D
:1027C0000500322303EB0010A0FB0101F02000EA1A
:1027D000511000EB0210C1F34311084421688860D6
:1027E000B0BD0000FEE700002DE9F047D0F8008002
:1027F0008946064691B14046494603F0F3FA02285D
:102800003CBF0120BDE8F087411C61D0D8F818100A
:10281000CA4688420BD2BDE8F08700BFD8F810A0A6
:10282000BAF1000F1ED0D8F8180082451AD2BAF1BA
:10283000020F08F1180419D3574600BF206801376A
:102840008742306828BF0227394603F0CBFA411C83
:10285000E1D018B30128DED057454FF00000EDD18C
:10286000D9E700BF08F118044FF0010A0AF1010589
:10287000002705E0012808BFBDE8F08701372BD20B
:102880002068E919814227D2306803F0ABFA411C75
:10289000C1D00028EED10AEB0700471C404639465C
:1028A0004FF0FF3203F064FCB9F1000F014606D08F
:1028B00029B9404649463A4603F05AFC014679B1E7
:1028C0000120012908BF4FF0FF30BDE8F08700BFAD
:1028D0004FF0FF30BDE8F0870020BDE8F08700BF73
:1028E000D8E90510C8F81070023881429CBF013940
:1028F000C8F8141098F80410384641F0010188F81F
:102900000410BDE8F08700002DE9F04F83B0816826
:10291000D0F800A0044600206061B9B1BAF80A00FE
:1029200000283DD0DAF8180000268A1E02388242BC
:1029300048D2BAF80A00DAF82C3002FB0030C4E9B9
:102940000610B8B9022003B0BDE8F08F9AF8000075
:10295000032803D3DAF828100029DFD1BAF80800D9
:102960000028EFD0DAF82800002600210028C4E96A
:102970000610E7D000EB56216FF35F260AEB060046
:102980003430C4E907104FF0FF385046C4F83080A7
:1029900003F0B0FBF0B1012003B0BDE8F08F00BF41
:1029A00045020026206803F01DFA01460130F2D0EE
:1029B0000229C7D3DAF818008142C3D2761BAE428F
:1029C000F0D2B2E70020C4E90610022003B0BDE84F
:1029D000F08F00BFFF204FF0FF0B029012E000BF0E
:1029E0003089B0EB571F40F2C38200BF70193430FA
:1029F00020625046676103F07DFB00284FF0010024
:102A000040F0B282D4F8209099F80000002800F03D
:102A1000B18299F80B20E52802F03F01A17103D0A3
:102A2000120741D50F293FD0C4F830804FF0FF0B7B
:102A3000E1690420002900F09782626902F1200711
:102A40004FF6FF72C0F21F02974200F28D823D46A0
:102A500026686FF35F25002DC8D1A2690131002AD5
:102A6000E161BDD070894FF6FF73C0F21F031844B7
:102A700000F5C00010EA572FB8D13046114603F0D8
:102A8000B1F90228FFF45EAF411C3FF484AFB16995
:102A9000884280F06D827189F26A831E03FB0121F6
:102AA000C4E90601A2E700BF0F290DD194F82F1049
:102AB0004906BDD4410600F1AB805FFA8BF1884234
:102AC000B4D10299ABE000BF5FEA0B604CD199F83A
:102AD000000099F80110C70147EA5000084499F82E
:102AE0000220C1B2C00140EA5100104499F80330FD
:102AF000C1B2C00140EA51001844C1B2C00199F806
:102B0000042040EA51001044C1B2C00199F80520E8
:102B100040EA51001044C1B2C00199F8062040EAD1
:102B200051001044C1B2C00199F8072040EA510099
:102B30001044C1B2C00199F8082040EA5100104485
:102B4000C1B2C00199F8092040EA51001044C1B255
:102B5000C00199F80A2040EA510002991044C0B21D
:102B6000C9B2814200F00A8294F82F00C0077FF4B6
:102B70005BAF99F8000094F8241088427FF454AFBA
:102B800099F8010094F8251088427FF44DAF99F828
:102B9000020094F8261088427FF446AF99F80300AB
:102BA00094F8271088427FF43FAF99F8040094F816
:102BB000281088427FF438AF99F8050094F829105E
:102BC00088427FF431AF99F8060094F82A108842C1
:102BD0007FF42AAF99F8070094F82B1088427FF40D
:102BE00023AF99F8080094F82C1088427FF41CAFAA
:102BF00099F8090094F82D1088427FF415AF99F8E0
:102C00000A0094F82E1088427FF40EAFB6E100BFA0
:102C100099F80D20616900F0BF0B2163114699F806
:102C20000D000A460291C9B281427FF4FFAEB9F8A5
:102C30001A0000287FF4FAAE99F800000D2100F088
:102C40003F004843A0F10D05FE2D3FF6EFAEB9F869
:102C500001600190DAF80C70304602F07DF937F827
:102C6000151000970746084602F076F987427FF470
:102C7000DDAEB9F80370002E00F020810198A0F1BC
:102C80000C05FE2D3FF6D2AE384602F065F90099EC
:102C9000064631F81510084602F05EF986427FF4C8
:102CA000C5AEB9F80560002F00F00F810198A0F1C2
:102CB0000B05FE2D3FF6BAAE304602F04DF90099F5
:102CC000074631F81510084602F046F987427FF4AE
:102CD000ADAEB9F80770002E00F0FE800198A0F1AB
:102CE0000A05FE2D3FF6A2AE384602F035F90099EE
:102CF000064631F81510084602F02EF986427FF498
:102D000095AEB9F80960002F00F0ED800198A0F1B0
:102D10000905FE2D3FF68AAE304602F01DF90099F6
:102D2000074631F81510084602F016F987427FF47D
:102D30007DAEB9F80E70002E00F0DC800198A0F195
:102D40000805FE2D3FF672AE384602F005F90099EF
:102D5000064631F81510084602F0FEF886427FF468
:102D600065AEB9F81060002F00F0CB800198C51F48
:102D7000FE2D3FF65BAE304602F0EEF800990746B6
:102D800031F81510084602F0E7F887427FF44EAE9E
:102D9000B9F81270002E00F0BB800198851FFE2D3F
:102DA0003FF644AE384602F0D7F80099064631F8AF
:102DB0001510084602F0D0F886427FF437AEB9F815
:102DC0001460002F00F0AB800198451FFE2D3FF6E8
:102DD0002DAE304602F0C0F80099074631F81510C4
:102DE000084602F0B9F887427FF420AEB9F81670B1
:102DF000002E00F09B800198051FFE2D3FF616AEB9
:102E0000384602F0A9F80099064631F81510084630
:102E100002F0A2F886427FF409AEB9F81860002FDC
:102E200000F08B800198C51EFE2D3FF6FFAD3046A9
:102E300002F092F80099074631F81510084602F0A2
:102E40008BF887427FF4F2ADB9F81C70002E7BD06E
:102E50000198851EFE2D3FF6E9AD384602F07CF85C
:102E60000099064631F81510084602F075F88642BA
:102E70007FF4DCADB9F81E60002F6CD00198451EC0
:102E8000FE2D3FF6D3AD304602F066F800990746B6
:102E900031F81510084602F05FF887427FF4C6AD9E
:102EA00099F8000040065BD5002E59D0DDE90010EE
:102EB00031F8100000287FF4B9AD51E04FF6FF70F3
:102EC00087427FF4B3ADB9F805604FF6FF708642D4
:102ED0007FF4ACADB9F807704FF6FF7087427FF40E
:102EE000A5ADB9F809604FF6FF7086427FF49EAD3C
:102EF000B9F80E704FF6FF7087427FF497ADB9F8BE
:102F000010604FF6FF7086427FF490ADB9F81270F2
:102F10004FF6FF7087427FF489ADB9F814604FF621
:102F2000FF7086427FF482ADB9F816704FF6FF70DD
:102F300087427FF47BADB9F818604FF6FF70864288
:102F40007FF474ADB9F81C704FF6FF7087427FF4C0
:102F50006DADB9F81E604FF6FF7086427FF466AD26
:102F6000ABF1010B64E500BF03B0BDE8F08F00BF1B
:102F70000020E061042003B0BDE8F08F002003B022
:102F8000BDE8F08F2DE9F04F81B0C3690427A3B1EC
:102F900042694FF6FF74C0F21F0402F12005A542FA
:102FA0000BD82E46D0F800906FF35F2656B109EB90
:102FB00006013431456101620027F8B201B0BDE875
:102FC000F08F00BF82690133C361AAB1B9F80A303A
:102FD000234403F5C00313EA552FE8D10C4682467B
:102FE0004846114602F0FEFE022811D20227F8B22E
:102FF00001B0BDE8F08F00BFB9F80810B1EB551F64
:10300000D5D80021C161F8B201B0BDE8F08F00BF92
:10301000411C38D0D9F8181088420FD20246A0F1CE
:10302000020850460239884582616ED2B9F80A100A
:10303000D9F82C2008FB012168E000BF5046ACB154
:103040008169FFF7D1FB411C032917D24FF6F870B5
:10305000C0F2FF0000EAC10040F20171C0F20201BB
:1030600021FA00F7F8B201B0BDE8F08F0021C1618C
:103070000427F8B201B0BDE8F08F00BF044648460F
:1030800003F068F920B10127F8B201B0BDE8F08F74
:1030900009F134004FF40071FDF7CAF8D9F818109F
:1030A0002046A4F10208881EB9F80A70224680451D
:1030B00004D2D9F82C0008FB070300E00023504697
:1030C0004FF0000BC9F83030BFB10127484689F8EE
:1030D000037003F03FF900287FF46FAFD9F8300098
:1030E000B9F80A100BF1010B431C8B45C9F83030BD
:1030F000ECD3D9F8181050462246A3EB0B03C9F8BD
:10310000303002398845826190D30021C1614EE799
:103110002DE9F04F91B090F82F7017F0A00F03D069
:10312000062011B0BDE8F08F04688146E06809F11F
:10313000240C811D4FF0000A31F8062CA2B100EBDF
:103140004A02538873B19288002A3DD031F8082B87
:103150000AF1040A002AEFD1AAF1010AF80726466B
:1031600005D036E00AF1010AF807264631D14EF6BD
:103170004F410AF10C00C4F6C461A0FB010101201B
:1031800000EB9108B80758BF4FF00108D9F80810B4
:1031900000200029C9F8140000F0F481708900288B
:1031A00000F02882B06900278A1E0238824280F02F
:1031B00037827089F36A02FB00300028C9E90610E3
:1031C00040F0F381D0E300BF0AF1020AF807264677
:1031D000CDD099F8240041F2210B0D9099F82500EB
:1031E000C0F2010B0C9099F8260001260B9099F87B
:1031F00027000DF13C080A9099F8280002970990E1
:1032000099F829000E94089099F82A00079099F8E7
:103210002B00069099F82C00059099F82D00049049
:1032200099F82E000390402089F82F000CF1080037
:10323000019000BF0E98062EC1680D98324689F89D
:1032400024000C9889F825000B9889F826000A9824
:1032500089F82700099889F82800089889F8290032
:10326000079889F82A00069889F82B00059889F8AC
:103270002C00049889F82D00039889F82E00C0F0DE
:103280008C8008883246002800F087800239324658
:1032900000F0010343EA4203120448BF83EA0B0330
:1032A000C0F3400242EA43021B0448BF82EA0B0219
:1032B000C0F3800343EA4203120448BF83EA0B03CE
:1032C000C0F3C00242EA43021B0448BF82EA0B0279
:1032D000C0F3001343EA4203120448BF83EA0B031E
:1032E000C0F3401242EA43021B0448BF82EA0B02C9
:1032F000C0F3801343EA4203120448BF83EA0B037E
:10330000C0F3C01242EA43021B0448BF82EA0B0228
:10331000C0F3002343EA4203120448BF83EA0B03CD
:10332000C0F3402242EA43021B0448BF82EA0B0278
:10333000C0F3802343EA4203120448BF83EA0B032D
:10334000C0F3C02242EA43021B0448BF82EA0B02D8
:10335000C0F3003343EA4203120448BF83EA0B037D
:10336000C0F3403242EA43021B0448BF82EA0B0228
:10337000C0F3803343EA4203120448BF83EA0B03DD
:103380005A0042EAD0321804888848BF82EA0B0209
:10339000002801F102017FF47BAF072002F00F014A
:1033A00001F13003392B88BF01F13703110908F807
:1033B000003051D001F00F0101F13007392F88BFE3
:1033C00001F1370708EB0001130A01F8017C00F056
:1033D000B98003F00F0303F13007392F88BF03F1E1
:1033E0003707130B01F8027C00F0B68003F00F03DF
:1033F00003F13007392F88BF03F137070438120C67
:1034000001F8037CCAD14FF07E0108F8001050B3D8
:10341000C21E4342002109EB010797F82450202DDA
:1034200022D05D186C1C15D097F82540202C00F098
:103430009D8002350ED097F82650202D00F0988000
:103440008A4207D097F82770202F00F0938004312C
:103450005F18E0D1014607E0013800284FF07E01F7
:1034600008F80010D4D10021072801F101029ABF09
:1034700018F8003001302023072A0CF8013055D805
:10348000072801F102039ABF18F8007001302027C5
:10349000072B0CF8027049D8072801F103029ABFE4
:1034A00018F8007001302027072A0CF803703DD867
:1034B000072801F104039ABF18F800700130202793
:1034C000072B0CF8027031D8072801F105029ABFCA
:1034D00018F8007001302027072A0CF8037025D84F
:1034E000072801F106039ABF18F800700130202761
:1034F000072B0CF8027019D8072801F107029ABFB0
:1035000018F8007001302027072A0CF803700DD836
:10351000072894BF18F80000202011F1080F0CF8BC
:10352000020003D301982022425400BF484664465B
:10353000FFF7EAF900BB0136642EA4467FF47AAEA9
:103540001CE000BF023800284FF07E0108F8001090
:103550007FF45EAF87E700BF033800284FF07E019D
:1035600008F800107FF454AF7DE700BF01317BE71E
:10357000023179E7033177E7642E59D1072011B082
:10358000BDE8F08F3078032803D3B16A00297FF4B7
:1035900005AE3089002800F0E781B06A00270021DD
:1035A0000028C9E9061000F0DF8100EB57206FF317
:1035B0005F27F11934310027C9E9070108E000BF8E
:1035C0000137474544D048460121FFF7DBFCC8BB23
:1035D000D9F81C10304602F08DFD002840F0C8815B
:1035E000D9F820000078E528EAD00028E8D00027A4
:1035F000E9E700BF45020027D9F8000002F0F2FB1E
:103600000146013000F0B4810229C0F0AD81B069FB
:10361000814280F0A9817F1BAF42EDD2C4E500BF9B
:103620000020C9E90610022011B0BDE8F08F00BFEC
:10363000042840F0AA80D9F80060029F0E9C89F807
:103640002F7094E5042808BF072011B0BDE8F08F63
:10365000B8F1010558D0D9F814000E94A0EB45112B
:10366000484600F091F9002840F08F8099F8240036
:1036700099F82520C10141EA50001044C1B2C001AF
:1036800099F8262040EA51001044C1B2C00199F8CF
:10369000272040EA51001044C1B2C00199F8282007
:1036A00040EA51001044C1B2C00199F8292040EA13
:1036B00051001044C1B2C00199F82A2040EA5100DB
:1036C0001044C1B2C00199F82B2040EA51001044C7
:1036D000C1B2C00199F82C2040EA51001044C1B297
:1036E000C00199F82D2040EA51001044C1B2C00138
:1036F00099F82E2040EA5100D9F81C100E9C87182A
:103700004FF6FF7853E000BFD9F81C10204625463D
:1037100002F0F0FC00284FF0010036D1D9F820105B
:103720000022CA618A614A610A61CA608A604A608D
:103730000A60D9F8201099F824200A7099F82520F9
:103740004A7099F826208A7099F82720CA7099F84B
:1037500028200A7199F829204A7199F82A208A713B
:1037600099F82B20CA7199F82C200A7299F82D200B
:103770004A7299F82E208A7299F82F10D9F82020D1
:1037800001F018011173E870002011B0BDE8F08F4E
:103790003089B0EB5A1F40F2EF8006EB0B000E9C15
:1037A0003430013DC9F814A0C9F82000AED020463D
:1037B00002F0A0FC002840F0DB80D9F820000F22A6
:1037C000E168A0F80B2000224283EAB21A23477373
:1037D00012FB031131F81A2C531C9BB2012BA0F8D9
:1037E000012003D8A0F8038008E000BF31F8182CAE
:1037F000531C9BB2012BA0F8032057D8A0F80580DA
:10380000A0F80780A0F80980A0F80E80A0F810802A
:10381000A0F81280A0F81480A0F81680A0F81880F4
:10382000A0F81C80A0F81E8045F040010170D9F876
:103830001C100120E07000294FF00400A5D0D9F839
:10384000142002F1200A4FF6FF72C0F21F029245C7
:103850009BD8D346D9F800606FF35F2BBBF1000F04
:103860009BD1D9F818200131002AC9F81C108FD03B
:1038700070894FF6FF73C0F21F03184400F5C000B3
:1038800010EA5A2F89D13046114602F0ABFA0228CD
:103890006AD3411C6CD0B16988426DD27189F26AD9
:1038A000831E03FB0121C9E9060176E731F8162CD6
:1038B000531C9BB2012BA0F80520A1D931F8142C80
:1038C000531C9BB2012BA0F807209BD931F8122C76
:1038D000531C9BB2012BA0F8092095D931F8102C6C
:1038E000531C9BB2012BC28190D931F80E2C531C72
:1038F0009BB2012B02827FF68BAF31F80C2C531C4C
:103900009BB2012B42827FF685AF31F80A2C531C03
:103910009BB2012B82827FF67FAF31F8082C531CBB
:103920009BB2012BC2827FF679AF31F8062C531C73
:103930009BB2012B02837FF673AF31F8042C531C2A
:103940009BB2012B82837FF66DAF31F8022C531CA2
:103950009BB2022BC283FFF467AF09880029294676
:1039600008BF45F0400161E7022011B0BDE8F08FCB
:10397000012011B0BDE8F08F0020C9F81C00042020
:1039800011B0BDE8F08F0000F0B581B00C461F21EA
:10399000CFF6E0710C4203D0022001B0F0BD00BFB1
:1039A000816806680546446171B17089B4EB402FA7
:1039B00018D2B0698A1E0238824225D27089F36A11
:1039C00002FB003021E000BF3078032802D3B16A47
:1039D0000029EAD13089B0EB541FDDD9B06A00214B
:1039E00013E000BF470200BF286802F0FBF9014660
:1039F000013019D00229CFD3B0698142CCD2E41B67
:103A0000BC42F1D2D6E700BF00200028C5E906106D
:103A1000C2D000EB54206FF35F2431193431C5E973
:103A20000701002001B0F0BD012001B0F0BD000091
:103A3000B0B540F62444C2F20004215C11B100206C
:103A4000B0BD00BF04EB8001496805462044096809
:103A5000007A8847002818BFB0BD012060550020BB
:103A6000B0BD000040F6244CC2F2000C0CEB800309
:103A70005B686044007A1B691847000080B540F617
:103A8000244CC2F2000C0CEB800EDEF804E0604423
:103A9000007ADEF808C0BDE88040604740F6244167
:103AA000C2F2000101EB800252680844007A5168BA
:103AB0000847000080B540F6244CC2F2000C0CEB25
:103AC000800EDEF804E06044007ADEF80CC0BDE849
:103AD0008040604710B5044600F06CFF002818BF16
:103AE00010BD4CB3206838B3017829B3A188C288CF
:103AF000914221D14078FFF7D1FFC0071CD1206946
:103B00000138632884BF022010BD40F22C01C2F2AC
:103B1000000101EB0010B0F90C1001238AB2B2F5DC
:103B2000807218BFD1FA53F21104828104BF0021C0
:103B300001600020206010BD092010BD70B582B06A
:103B40000091E9B14FF0FF33CD186C78202C1BD3D6
:103B50003A2C19D0AC78202C1ED33A2C1CD0EC78FF
:103B6000202C31D33A2C2FD02C790433A4F13A05F0
:103B7000B5FA85F56D09202C14D33A2CE4D111E067
:103B80000B21084602B070BDA4F13A05B5FA85F5DF
:103B90006D0901333DB91FE0A4F13A05B5FA85F589
:103BA0006D090233C5B10978A1F13005092D07D897
:103BB000012B4FF00B0108BF002DE2D10CE000BF3C
:103BC0000B21084602B070BDA4F13A05B5FA85F59F
:103BD0006D090333002DE6D140F2240CC2F2000C33
:103BE000DCF80410002900F088804FF6C01340F282
:103BF0002C0ECFF6FF73C2F2000E00240EEB03056D
:103C0000D5F840668E4208BFC5F84046D5F85066E4
:103C10008E4208BFC5F85046D5F860668E4208BF90
:103C2000C5F86046D5F870668E4208BFC5F8704684
:103C3000D5F880668E4208BFC5F88046D5F89066F4
:103C40008E4208BFC5F89046D5F8A0668E4208BFE0
:103C5000C5F8A046D5F8B0668E4208BFC5F8B04694
:103C6000D5F8C0668E4208BFC5F8C046D5F8D06604
:103C70008E4208BFC5F8D046D5F8E0668E4208BF30
:103C8000C5F8E046D5F8F0668E4208BFC5F8F046A4
:103C9000D5F800678E4208BFC5F80047D5F8106711
:103CA0008E4208BFC5F81047D5F820678E4208BF7E
:103CB000C5F82047D5F830678E4208BFC5F83047B1
:103CC000D5F840678E4208BFC5F84047D5F8506721
:103CD0008E4208BFC5F85047D5F860678E4208BFCE
:103CE000C5F86047D5F870678E4208BFC5F87047C1
:103CF00013F5A07382D100230B70002170B1012A4B
:103D00000170CCF804007FF43CAF684601A90022A2
:103D100001F08AF90146084602B070BDCCF80410E3
:103D2000084602B070BD00002DE9F04FADF50F7DE3
:103D30008E9188B102F03F0A834690468EA880A9F2
:103D4000524601F071F968B10021CBF800100DF571
:103D50000F7DBDE8F08F00BF09200DF50F7DBDE898
:103D6000F08F00BFDDF8009268468E99C9F80C000C
:103D700081A8CDF8049201F06BFC002800F08C8043
:103D80001AF01C0F00F08581002800F04381042800
:103D900040F0D58140F22C021821C2F200021068D6
:103DA000002800F095811069002800F09381106AC6
:103DB000002800F09181106B002800F08F81106CBA
:103DC000002800F08D81106D002800F08B81106EAE
:103DD000002800F08981106F002800F08781D2F858
:103DE0008000002800F08481D2F89000002800F0C4
:103DF0008181D2F8A000002800F07E81D2F8B000C6
:103E0000002800F07B81D2F8C000002800F0788103
:103E1000D2F8D000002800F07581D2F8E000002828
:103E200000F07281D2F8F000002800F06F81D2F823
:103E30000001002800F06C81D2F81001002800F089
:103E40006981D2F82001002800F06681D2F83001A3
:103E5000002800F06381D2F84001002800F0608162
:103E6000D2F85001002800F05D81D2F860010028EE
:103E700000F05A81D2F87001002800F05781D2F882
:103E80008001002800F05381193102F5C8727C29A5
:103E90004FF0120083D152E19DF93302002800F166
:103EA000C3804FF6C013819F839E869A40F22C0EEA
:103EB000CFF6FF7300210920C2F2000EC44605E0D0
:103EC0000121A03300F10A0000F0B6800EEB0305DB
:103ED000D5F8404654B1BC4209D1D5F84446B44265
:103EE00005D1D5F84846944201D1ADE00121D5F87D
:103EF00050465CB1BC420AD1D5F85446B44206D112
:103F0000D5F85846944202D1A0E000BF0121D5F86F
:103F100060465CB1BC420AD1D5F86446B44206D1D1
:103F2000D5F86846944202D192E000BF0121D5F84D
:103F300070465CB1BC420AD1D5F87446B44206D191
:103F4000D5F87846944202D184E000BF0121D5F82B
:103F500080465CB1BC420AD1D5F88446B44206D151
:103F6000D5F88846944202D176E000BF0121D5F809
:103F700090465CB1BC420AD1D5F89446B44206D111
:103F8000D5F89846944202D168E000BF0121D5F8E7
:103F9000A0465CB1BC420AD1D5F8A446B44206D1D1
:103FA000D5F8A846944202D15AE000BF0121D5F8C5
:103FB000B0465CB1BC420AD1D5F8B446B44206D191
:103FC000D5F8B846944202D14CE000BF0121D5F8A3
:103FD000C0465CB1BC420AD1D5F8C446B44206D151
:103FE000D5F8C846944202D13EE000BF0121D5F881
:103FF000D046002C3FF464AFBC427FF462AFD5F8EA
:10400000D446B4427FF45DAFD5F8D84694427FF4ED
:1040100058AF2AE09DF80A0210F0110F48D108208D
:1040200000EA48008DE000BF1AF01C0F4FF00600B8
:1040300040F085802DE000BF31BB1AF01C0F4FF01F
:10404000120040F07C8024E009380EE008380CE0D3
:1040500007380AE0063808E0053806E0043804E0CE
:10406000033802E0023800E001381CF03E0F05D1B1
:104070000EEB00108089B0F5807F05D11AF01C0F7F
:104080004FF010005BD104E000201AF01C0F7FF409
:104090007BAE00287FF458AE9DF80A02C1060FD40B
:1040A0005FEA8A7140F1B28010F0010000F0AE804A
:1040B00007200021CBF800100DF50F7DBDE8F08F33
:1040C00004200021CBF800100DF50F7DBDE8F08F26
:1040D00018392CE017392AE0163928E0153926E07E
:1040E000143924E0133922E0123920E011391EE09E
:1040F00010391CE00F391AE00E3918E00D3916E0BE
:104100000C3914E00B3912E00A3910E009390EE0DD
:1041100008390CE007390AE0063908E0053906E0FD
:10412000043904E0033902E0023900E0013964296E
:1041300002D1122003E000BF81A8FEF7E9FF4AF098
:10414000080A00285FD11AF008015CD001F0AEFE29
:104150008999C1F80E008999C1F816008998202123
:10416000C172899899F80010448B032905D1017D0B
:10417000427D090441EA02610C440021418399F81F
:104180000020032A08BF81828998C1614FF0010095
:1041900089F80300D4B3012C00F0F381819FB86942
:1041A000A04240F2EE81D9F83080264603E000BFFD
:1041B00085422E4620D28198314601F013FE0546F5
:1041C000013000F06581BDB1012D00F0DA81384683
:1041D0003146002201F0CCFF00287FF4B5ADD7E9CD
:1041E0000510821E9142E3D23A790131796142F0A1
:1041F00001013971DCE700BF4846414601F07AFF12
:10420000611EC9F8101000287FF49EAD0AF0080165
:104210004FF6C0104AEAC10CD9F83010819F839E36
:10422000DDF824E2869D40F22C03CFF6FF700022D9
:10423000C2F20003CBE9091E05E000BFA03002F185
:104240000A0200F091801918D1F84046BC4209D109
:10425000D1F84446B44205D1D1F84846AC4200F00A
:10426000858100BFD1F85046BC4209D1D1F85446EF
:10427000B44205D1D1F85846AC4200F0F98000BFF5
:10428000D1F86046BC4209D1D1F86446B44205D1A8
:10429000D1F86846AC4200F0ED8000BFD1F870461E
:1042A000BC4209D1D1F87446B44205D1D1F8784660
:1042B000AC4200F0E18000BFD1F88046BC4209D199
:1042C000D1F88446B44205D1D1F88846AC4200F01A
:1042D000D58000BFD1F89046BC4209D1D1F89446B0
:1042E000B44205D1D1F89846AC4200F0C98000BF75
:1042F000D1F8A046BC4209D1D1F8A446B44205D1B8
:10430000D1F8A846AC4200F0BD8000BFD1F8B0465D
:10431000BC4209D1D1F8B446B44205D1D1F8B8466F
:10432000AC4200F0B18000BFD1F8C046BC4209D118
:10433000D1F8C446B44205D1D1F8C846AC4200F029
:10434000A58000BFD1F8D046BC427FF477AFD1F84A
:10435000D446B4427FF472AFD1F8D816A9427FF4A4
:104360006DAF093202E100BF00214FF018080022B2
:104370005858002800F0948058180469002C00F068
:104380009180046A002C00F09180046B002C00F0F6
:104390009180046C002C00F09180046D002C00F0E2
:1043A0009180046E002C00F09180046F002C00F0CE
:1043B0009180D0F88040002C00F09080D0F89040A0
:1043C000002C00F08F80D0F8A040002C00F08E80F0
:1043D000D0F8B040002C00F08D80D0F8C040002C08
:1043E00000F08C80D0F8D040002C00F08B80D0F80A
:1043F000E040002C00F08A80D0F8F040002C00F063
:104400008980D0F80041002C00F08880D0F810415D
:10441000002C00F08780D0F82041002C00F086802E
:10442000D0F83041002C00F08580D0F84041002CBD
:1044300000F08480D0F85041002C00F08380D0F848
:104440006041002C00F08280D0F87041002C00F018
:104450008180D0F88041002C00F0808001F5C87187
:104460001932B1F5C86F08F1190881D186E000BF93
:1044700001327BE0023279E0033277E0043275E00A
:10448000053273E0063271E007326FE008326DE00A
:1044900001200021CBF800100DF50F7DBDE8F08F55
:1044A00058185EE0013210305BE000BF023220306D
:1044B00057E000BF0332303053E000BF04324030D9
:1044C0004FE000BF053250304BE000BF0632603095
:1044D00047E000BF0732703043E000BF0832803051
:1044E0003FE000BF093290303BE000BF0A32A0300D
:1044F00037E000BF0B32B03033E000BF0C32C030C9
:104500002FE000BF0D32D0302BE000BF0E32E03084
:1045100027E000BF0F32F03023E000BF103200F57B
:1045200080701EE0113200F588701AE0123200F53A
:10453000907016E0133200F5987012E0143200F516
:10454000A0700EE0153200F5A8700AE0163200F5F2
:10455000B07006E0173200F5B87002E000F5C070E8
:1045600042460021C0E900768560818103EB02109C
:1045700030F80C1F1CF07E0F0CD069B10020CBF876
:10458000100002200021CBF800100DF50F7DBDE8D2
:10459000F08F00BF013101E04FF480710180501CA9
:1045A000CBF8100099F80000BEF81A70032807D164
:1045B0009EF814009EF81510000440EA01600744BC
:1045C000CBF80870B9F80610DEF81C4000200BF19B
:1045D0003008CBF82C00ABF804108BF81500CBF8A2
:1045E0002000CBF8180040464FF40071CBF80C4087
:1045F000CBF800908BF814C0FBF71AFE5FEA8A60D4
:104600004FD5002C4FF000004CD0B9F80A00CBF881
:104610001840B4EB402F21D9460200BFDBF8000060
:104620003946254601F0DEFB074602284FF0000020
:1046300038BF01204000791C08BF0120A4EB06040C
:1046400008B9B442EAD8CBF81C7010B96FF35F25F3
:1046500045B900287FF478AB23E000BFE005CBF834
:104660001C701ED0D9F81810B81E02398842BFF449
:1046700088AFB9F80A10D9F82C2000FB01200028D7
:104680003FF47FAF00EB542299F80100414601232B
:10469000CBF82020FFF7F2F90146012000297FF432
:1046A00053AB00200DF50F7DBDE8F08F2DE9F04FE5
:1046B00081B000271F60B8B10668AEB137789FB1EE
:1046C0008788F588AF420FD1804670780C46174630
:1046D0009A46FFF7E3F9C00706D198F8150038B1FC
:1046E00001B0BDE8F08F00BF092001B0BDE8F08F38
:1046F00098F81400C646C00704D1072001B0BDE8F1
:10470000F08F00BFDEF80C00DEF81850401BB842F6
:1047100038BF0746002F00F03781DEF80000D4468E
:1047200023460EF1300B009011E000BF6802D44622
:10473000DEF8181003440D18DCF800103F1A01448D
:104740004FF00000CEF81850CCF80010C8D02A4620
:104750006FF35F22A2B1C2F50070B84228BF38469D
:1047600010F003010BEB020614D0344614F8012BB1
:104770001D46012905F8012B10D1421E4BE000BF58
:10478000009A5089013810EA55290FD0DEF81C0034
:1047900074E000BF02461D4634463CE072780229B0
:1047A0005A7033D1B41C9D1C821E34E0002D45D0BC
:1047B000DEF82C20002A45D05668002E00F0E88054
:1047C000DEF80000690A40891432B1FBF0F0B04213
:1047D00044D352F8081C002900F0DA80801B88427C
:1047E0003ED31468002C00F0D380401AA0423AD384
:1047F0009168002900F0CC80001B884232D31669F2
:10480000401A002E02F12002E1D1C1E0B178F41C7F
:10481000DD1CC21E99700428FFF48AAF043D261FD8
:1048200016F8041F043A05F8041F71786970B1780E
:10483000A970F178E970F3D17AE700BFDEF80800DB
:1048400014E000BFDEF80000DEF81C101C4601F08A
:10485000C9FA2346D446C64607E000BF103A02E034
:10486000083A00E0083251680844009A0228C0F073
:104870008F80411C00F09880CEF81C0091690238AE
:104880000239884280F0848011465289C96A00FB4F
:10489000021000287CD07D0A00EB09064AD009EB03
:1048A0000500904200981C46407888BFA2EB09059D
:1048B000194632462B46FFF7E1F800286ED198F9E9
:1048C0001400C646B0F1FF3F23463FF72FAFDEF896
:1048D0002000801BA842BFF429AF03EB4020002238
:1048E0001BF802100BEB020481546178861871707A
:1048F000A1781032B170E178B2F5007FF1702179C2
:10490000317161797171A179B171E179F171217AB6
:104910003172617A7172A17AB172E17AF172217B9E
:104920003173617B7173A17BB173E17BF173D7D17B
:10493000FCE600BFDEF82020B2421ED09EF9140033
:104940001D46B0F1FF3F0DDC009859464078012329
:10495000FFF7B0F810BB98F81410404601F07F0143
:1049600088F8141000985946407832460123FFF722
:1049700085F8C646D4462B46B0B9DEF81820CEF8E6
:1049800020606FF35F22E6E6002001B0BDE8F08F03
:1049900002208EF8150001B0BDE8F08F012088F8E4
:1049A000150001B0BDE8F08F01208EF8150001B0B0
:1049B000BDE8F08F70B500285AD00168002957D0A3
:1049C0000A78002A54D08288CB889A4250D1064671
:1049D0004878FFF763F8C0074AD1307D42065CBFD4
:1049E000002070BD346840B23146B0F1FF3F0FDCAB
:1049F00060780A6A30310123FFF75CF80146012034
:104A0000002918BF70BD307D314600F07F00307541
:104A10000D4601F04BFA696A0546204601F06AFB33
:104A200000281CBF012070BDB06AC17A41F020018E
:104A3000C172B168326841831278032A03D10A0C2B
:104A4000090E02754175F1688575C161290AC17544
:104A5000290C0176290E4176002141820120E07067
:104A6000204601F011FC317D01F0BF01317570BDB0
:104A7000092070BD2DE9F04F81B000271F60B8B14B
:104A80000768AFB13E789EB18688FD88AE420FD1EF
:104A9000834678780C4615469846FEF7FFFFC00718
:104AA00006D19BF8150038B101B0BDE8F08F00BF0A
:104AB000092001B0BDE8F08F9BF81400594680072B
:104AC00004D4072001B0BDE8F08F00BF8F692B46EA
:104AD000F843A84238BF0346002B00F04D81086818
:104AE000C446A64601F13009009014E0087D40F06C
:104AF000800008758869CA688719974288BF3A4656
:104B0000DCF80000B64430449B1BCA608F61CCF8CF
:104B1000000000F0318138466FF35F20A0B1C0F58E
:104B200000769E4228BF1E4616F0030509EB0002E0
:104B300040D0744614F8010B1746012D07F8010BFD
:104B40003CD1701E3A464AE0009E7089013810EA56
:104B5000572A40F07F80002F54D0CD6A002D57D0C7
:104B60006E68002E00F0088108687A0A408905F115
:104B70001407B2FBF0F0B04256D357F8085C002D92
:104B800000F0FA80801BA84250D33E68002E00F04F
:104B9000F380401BB0424CD3BD68002D00F0EC8088
:104BA000801BA84244D33E69401B002E07F120071A
:104BB000E1D1E1E03046744611E000BF9EF801000B
:104BC000022D507004D10EF102040232B01E06E034
:104BD0009EF802000EF1030490700332F01E042EC2
:104BE000FFF484AF171F251F15F8042F043807F8AA
:104BF000042F6A787A70AA78BA70EA78FA70F3D1DA
:104C000074E700BF8868B0B958467446002102E0D6
:104C1000C969584674461D46FDF7E6FDA6462B4673
:104C2000C446594607E000BF103F02E0083F00E0DD
:104C300008377A681044421C00F0B280002800F067
:104C40009B80012800F0A0808A68009E002AC8612D
:104C500008BF886091F91400B0F1FF3F14DC707850
:104C60000A6A1D46494601237446FEF723FF0028C1
:104C700040F090809BF81400594600F07F00C44635
:104C80002B46A6468BF81400C869B2690238023A6E
:104C9000904279D27589F26A00FB0520002873D012
:104CA0005E0A00EB0A074BD00AEB0600A842009808
:104CB0001C46407888BFA5EB0A0671463A46334643
:104CC0007546FEF7F7FE002864D1DBF82000594650
:104CD000C01BB042C4462346AE462FD20EEB402046
:104CE000002700BFC25DC51909F807206A7809EBE3
:104CF00007046270AA781037A270EA78B7F5007FCF
:104D0000E2702A7922716A796271AA79A271EA79CC
:104D1000E2712A7A22726A7A6272AA7AA272EA7AB4
:104D2000E2722A7B22736A7B6273AA7BA273EA7B9C
:104D3000E273D7D1087D00F07F0008757602D9E6CE
:104D40000A6A8869BA4212D0CA6890420FD20098A3
:104D50001D46407849463A4601237446FEF78EFECA
:104D6000C0B9DBF818005946C4462B46A6466FF377
:104D70005F200F62D3E600BF087D40F04000087559
:104D8000002001B0BDE8F08F0220487501B0BDE8F9
:104D9000F08F00BF01208BF8150001B0BDE8F08F47
:104DA0000120487501B0BDE8F08F00008028024660
:104DB0000DD379B1FF2884BF0020704746F2B0615F
:104DC000C0F6000101EB40006FF0FF01425A1046AF
:104DD000704700BF80B546F2B06CC0F6000C0CF115
:104DE0001E034FF0000E33F81E2C824200F0AE80FE
:104DF0000CEB4E025188814236D0918881423BD0E3
:104E0000D188814240D01189814245D05189814267
:104E10004AD0918981424FD0D189814254D0118AA0
:104E2000814259D0518A81425ED0918A814263D0B9
:104E3000D18A814268D0118B81426DD0518B8142E1
:104E400072D0918B814277D0198881427CD00EF14B
:104E5000100E2033BEF1800F4FF00002C3D1BDE829
:104E600080401046704700BF0EF1010E5FFA8EF0D1
:104E700080F0800080BD00BF0EF1020E5FFA8EF060
:104E800080F0800080BD00BF0EF1030E5FFA8EF04F
:104E900080F0800080BD00BF0EF1040E5FFA8EF03E
:104EA00080F0800080BD00BF0EF1050E5FFA8EF02D
:104EB00080F0800080BD00BF0EF1060E5FFA8EF01C
:104EC00080F0800080BD00BF0EF1070E5FFA8EF00B
:104ED00080F0800080BD00BF0EF1080E5FFA8EF0FA
:104EE00080F0800080BD00BF0EF1090E5FFA8EF0E9
:104EF00080F0800080BD00BF0EF10A0E5FFA8EF0D8
:104F000080F0800080BD00BF0EF10B0E5FFA8EF0C6
:104F100080F0800080BD00BF0EF10C0E5FFA8EF0B5
:104F200080F0800080BD00BF0EF10D0E5FFA8EF0A4
:104F300080F0800080BD00BF0EF10E0E5FFA8EF093
:104F400080F0800080BD00BF0EF10F0E5FFA8EF082
:104F500080F0800080BD000010B546F67C02C0F6EF
:104F6000000246F6381C1346C0F6000CB0F5805F10
:104F700038BF6346B3F800E0BEF1000F1DD0023227
:104F8000B0F5805F38BF0CF1020200BF1FFA8EFC43
:104F9000604512D311880433CAB212FA8EF48442E7
:104FA0000ED8B1F5807F28BF002203EB42031A46DA
:104FB00032F802EBBEF1000FE8D180B210BD00BFA5
:104FC000090A0829F9D8DFE801F0051B0F130B23A4
:104FD00027172B00A0EB0C0033F8100080B210BD97
:104FE000303880B210BD00BF103880B210BD00BF95
:104FF000203880B210BD00BF503880B210BD00BF55
:10500000A0EB0E0101F00101401A80B210BD00BFFB
:105010001A3880B210BD00BF083080B210BD00BF8A
:10502000A0F5E35080B210BD00230B600368002B95
:1050300004BF0B2070472DE9F0474FF0FF3700BF4A
:10504000DE197578202D19D33A2D17D0B578202D7B
:105050001CD33A2D1AD0F578202D1FD33A2D1DD010
:1050600035790437A5F13A06B6FA86F67609202D89
:1050700001D33A2DE4D166B317E000BFA5F13A069B
:10508000B6FA86F6760901377EB922E0A5F13A062E
:10509000B6FA86F676090237DEB106E0A5F13A06E1
:1050A000B6FA86F6760903379EB11E78A6F130056A
:1050B000092D84BF0B20BDE8F0870646012F4FF075
:1050C0000B0008BF002D01D0BDE8F087D8190130D2
:1050D000306040F22406C2F200067468002C00F032
:1050E0000381207815460C6080B16078FEF7D6FC0D
:1050F0000146C0070AD115F07E004FEA41714FF01A
:105100000A0218BF02EAE170BDE8F08700202080A3
:10511000FEF78EFCC1071CBF0320BDE8F08715F029
:105120007E0F1EBF10F004000A20BDE8F0870020AB
:10513000E0704FF0FF3020632046002100F0DAFFDE
:1051400000281CBF0120BDE8F087B4F832024AF6FF
:10515000552A504540F0788294F83400E92807D069
:10516000EB2840F0C58094F83600902840F0C080CD
:1051700094F86B2094F86C3094F86A10120244F2A0
:10518000461042EA0342C0F254001144814206D064
:10519000D4F8861000F14C50814240F0A9800027DD
:1051A000B4F83F00B0F5007F1CBF0D20BDE8F087CC
:1051B000B4F84A00002808BFA06D94F84430E061BC
:1051C000591E0129A37000F23F8294F84120511E1C
:1051D00082EA0105EDB2C9B28D42628140F23482A9
:1051E00094F8455094F8461045EA01212D07218195
:1051F00040F02A82B4F84750002D08BF656DB4F81E
:105200004290B9F1000F00F01F8200FB03FE0EEB8D
:1052100011134B449D42C0F01782ED1A9542C0F025
:105220001382B5FBF2F24FF6F6754FF00308AA426F
:1052300040F6F57538BF4FF00208AA4298BF4FF00C
:10524000010802F1020C07EB09053B44B8F1030F1A
:10525000C4F818C0C4E90875E36240F04381B4F8AB
:105260005E2011431CBF0D20BDE8F08740F2FF1205
:10527000216E02EB8C02B0EB522FA1623CBF0D20DD
:10528000BDE8F0874FF0FF30C4E90400B4F86400D3
:1052900080210128217140F04681791C204600F0D0
:1052A00029FF002840F03F81B4F832020021504528
:1052B000217140F03881606B45F25221C4F26111D6
:1052C000884240F03081D4F8180247F27221C6F2C9
:1052D0004111884240F02781D4F81C02D4F82012F2
:1052E000C4E904101FE100BF0C20BDE8F08700BF37
:1052F00094F8F601002814BFD4F8FA71002794F846
:105300000602002814BFD4F80A52002594F81602A9
:10531000002814BFD4F81A924FF0000994F826021E
:10532000002814BFD4F82A824FF000087FB3002071
:10533000E0704FF0FF3020632046394600F0DAFE7F
:1053400028BBB4F83202504521D194F83400E92842
:1053500005D0EB281BD194F83600902817D194F88B
:105360006B2094F86C3094F86A10120244F24610E4
:1053700042EA0342C0F25400114481423FF410AFAC
:10538000D4F8861000F14C5081423FF409AF8DB340
:105390000020E0704FF0FF3020632046294600F0E7
:1053A000A9FE38BBB4F83202504523D194F834003A
:1053B000E92805D0EB281DD194F83600902819D1A2
:1053C00094F86B2094F86C3094F86A10120244F24E
:1053D000461042EA0342C0F254001144814201D116
:1053E0002F46DDE6D4F8861000F14C5081422F465E
:1053F0003FF4D6AEB9F1000F32D00020E0704FF08C
:10540000FF3020632046494600F074FE40BBB4F8EC
:105410003202504524D194F83400E92805D0EB2815
:105420001ED194F8360090281AD194F86B2094F885
:105430006C3094F86A10120244F2461042EA0342B9
:10544000C0F254001144814202D14F46A8E600BF89
:10545000D4F8861000F14C5081424F463FF4A0AE84
:10546000B8F1000F00F0F0800020E0704FF0FF3046
:1054700020632046414600F03DFE00281CBF01206D
:10548000BDE8F087B4F83202504540F0DD8094F872
:105490003400E92807D0EB2840F0D68094F8360095
:1054A000902840F0D18094F86B2094F86C3094F8F8
:1054B0006A10120244F2461042EA0342C0F254005B
:1054C0001144814202D147466AE600BFD4F88610F3
:1054D00000F14C50814247461CBF0D20BDE8F087CB
:1054E0005EE600BF002900F0AF800CEB4C0302F039
:1054F000010707EB5303A2F6F672B2F5704F38BFFF
:105500004FEA4C0303F2FF1205EB0E01B0EB522FF2
:10551000A1623CBF0D20BDE8F0874FF0FF30C4E929
:1055200004008020207130884FF6C01140F22C0218
:105530000130CFF6FF71C2F20002002384F8008030
:105540003080E0805018D0F84076A74208BFC0F8FD
:105550004036D0F85076A74208BFC0F85036D0F891
:105560006076A74208BFC0F86036D0F87076A742D0
:1055700008BFC0F87036D0F88076A74208BFC0F8E0
:105580008036D0F89076A74208BFC0F89036D0F8A1
:10559000A076A74208BFC0F8A036D0F8B076A742E0
:1055A00008BFC0F8B036D0F8C076A74208BFC0F830
:1055B000C036D0F8D076A74208BFC0F8D036D0F8B1
:1055C000E076A74208BFC0F8E036D0F8F076A742F0
:1055D00008BFC0F8F036D0F80077A74208BFC0F87F
:1055E0000037D0F81077A74208BFC0F81037D0F8BE
:1055F0002077A74208BFC0F82037D0F83077A742FD
:1056000008BFC0F83037D0F84077A74208BFC0F8CD
:105610004037D0F85077A74208BFC0F85037D0F8CD
:105620006077A74208BFC0F86037D0F87077A7420C
:1056300008BFC0F8703711F5A0714FF0000008BF27
:10564000BDE8F0877EE700BF0D20BDE8F0870000D1
:105650002DE9F04F87B0046883460D4601E000BF96
:10566000043528785C2801D02F2814D168785C286C
:1056700001D02F280CD1A8785C2801D02F2809D17F
:10568000E8785C28ECD02F28EAD0033503E000BF8F
:10569000013500E002350026CBF808602878202884
:1056A00022D280208BF82F002078CBF814600328BA
:1056B000C0F03E83A16A002900F03A836089002887
:1056C00000F04A83A06900258A1E0238824280F0D9
:1056D0005B836089E36A02FB00300028CBE9061097
:1056E00040F02E8300F04CBBE1680BF124080691DA
:1056F00004F134014FF0010A05916F1C4FF00009CD
:105700000AE000BF069820F8191017F8090009F1FF
:1057100001012028894641D35C2825D02F2823D099
:10572000B9F1FF0F00F00083C0B20121FFF73EFB8B
:10573000002800F0F98201467F28E3D8A1F1220277
:105740001D2A4FF0060008D840F201130AFA02F2AF
:10575000C3F200531A4240F0FC827C2900F0F98227
:105760007F29CFD1F5E200BF484600E00430291878
:105770004A785C2A01D02F2A14D18A785C2A01D079
:105780002F2A11D1CA785C2A01D02F2A0ED109798B
:105790005C29EBD02F29E9D0043008E0481C042311
:1057A000894609E0013002E0023000E00330B9F13F
:1057B000000F00F0B68200230544069800EB490074
:1057C000043805E0B9F10409A0F1080000F0A9824D
:1057D00041882E2901D0202926D1B9F1010F00F0EE
:1057E000A08201882E2901D0202917D1B9F1020FFA
:1057F00000F0978230F8021C2E2901D0202911D107
:10580000B9F1030F00F08D8230F8041C2E29D9D095
:105810002029D7D0A9F1030906E000BFA9F10109A9
:1058200002E000BFA9F1020906994FF0203021F8EB
:105830001960C8F80700C8F80400C8F80000081D7F
:1058400003270294CDF8108002E000BF043708302F
:1058500030F8048CB8F12E0F02D0B8F1200F19D116
:1058600030F8028CB8F12E0F02D0B8F1200F13D10E
:10587000B0F80080B8F12E0F02D0B8F1200F0DD192
:10588000B0F80280B8F12E0FE0D0B8F1200FDDD0D3
:1058900005E000BF033F02E0023F00E0013F002FB0
:1058A00018BF43F00303069800EB49000438418811
:1058B0002E2925D0B9F1010F15D001882E2915D038
:1058C000B9F1020F0FD030F8021C2E2912D0B9F115
:1058D000030F08D030F8041C2E290FD0B9F10409A9
:1058E000A0F10800E3D14FF0000909E0A9F1010996
:1058F00006E000BFA9F1020902E000BFA9F1030917
:105900000698C9F10004063000264FF0000A039003
:105910001FFA88F1202907F1010006D02E2901D0B5
:10592000B1B9E7E0484500F0E980069943F0030388
:1059300031F81080B8F1200F00F06E80B8F12E0F12
:1059400007F1020000F06680B8F1000F00F0D2808D
:105950000746A7EB0900B0FA80F0BAF1070F4FEA4B
:10596000501000F2C180C10740F0BE801FFA88F0DD
:10597000802818D30021CDF804A0B24626461C4644
:105980004FF00008FFF712FA30B146F21C61C0F682
:105990000001084410F8808C234644F0020334468A
:1059A0005646DDF804A06FF02A0010FA88F032287D
:1059B00000F26480DFE800F01A1A666666666666C2
:1059C00066666666666666661A661A66666666660F
:1059D0006666666666666666666666666666666667
:1059E00066666666666666661A661A0043F00303B4
:1059F0004FF05F08049800F80A8006980AF1010A3F
:105A000030F817801FFA88F1202907F101007FF490
:105A100085AF8AE7484571D0039800EB4701063708
:105A2000012001E00437083131F8028CE219B8F1A5
:105A3000200F04D0B8F12E0F2CD1032A5ED0B1F87C
:105A40000080B8F1200F04D0B8F12E0F28D1022A1F
:105A500054D0B1F80280B8F1200F04D0B8F12E0F65
:105A600024D1012A4AD0B1F80480B8F1200FD9D04E
:105A7000B8F12E0F20D1002AD4D13FE01FFA88F0D0
:105A80000028B3D0A8F1410080B21A281AD246F0FB
:105A90000206AFE7B8F1000F1ED0033F59E700BF81
:105AA000B8F1000F18D0023F53E700BFB8F1000F64
:105AB00012D0013F4DE700BFB8F1000F7FF449AFAE
:105AC0000AE000BFA8F1610080B219289CBF46F02F
:105AD0000106A8F120088DE73246029CDDF810800F
