:020000040800F2
:10000000E00900209D010008651C00086D1B000828
:10001000611C000891030008B927000800000000D7
:10002000000000000000000000000000F5250008AE
:100030009503000800000000691C0008F92500086D
:10004000B7010008B7010008B7010008B7010008B0
:10005000B7010008B7010008B7010008B7010008A0
:10006000B7010008B7010008B7010008B701000890
:10007000B7010008B7010008B7010008B701000880
:10008000B7010008B7010008B7010008B701000870
:10009000B7010008B7010008B7010008B701000860
:1000A000B7010008B7010008B7010008B701000850
:1000B000B7010008B7010008B7010008B701000840
:1000C000B7010008B7010008B7010008B701000830
:1000D000B7010008B7010008B7010008B701000820
:1000E000B7010008B7010008B7010008B701000810
:1000F000B7010008B7010008B7010008B701000800
:10010000B7010008A51C0008B7010008B7010008E6
:10011000B7010008B7010008B7010008B7010008DF
:10012000B7010008B7010008B7010008B7010008CF
:10013000B7010008B7010008B7010008B7010008BF
:10014000B7010008B7010008B7010008B7010008AF
:10015000B7010008B7010008B7010008B70100089F
:10016000B7010008B7010008B7010008B70100088F
:10017000B7010008B7010008B7010008000000003F
:10018000B7010008B7010008DFF80CD000F082F8D2
:100190000048004789440008E009002006488047DD
:1001A00006480047FEE7FEE7FEE7FEE7FEE7FEE75C
:1001B000FEE7FEE7FEE7FEE7BD260008890100082E
:1001C0002DE9F05F0546002092469B46884606468C
:1001D000814640241BE0284641464746224600F01F
:1001E00048F853465A46C01A914110D31146184652
:1001F000224600F02FF82D1A67EB01084F462246E1
:100200000120002100F026F817EB00094E41201EC6
:10021000A4F10104DFDC484631462A464346BDE8E6
:10022000F09FD2B201E000F8012B491EFBD27047CB
:100230000022F6E710B513460A4604461946FFF7B2
:10024000F0FF204610BD421C10F8011B0029FBD115
:10025000801A7047202A04DB203A00FA02F10020BD
:1002600070479140C2F1200320FA03F319439040F4
:100270007047202A04DB203A21FA02F0002170475F
:1002800021FA02F3D040C2F12002914008431946FE
:10029000704700001CB509480090094801900546C8
:1002A000009C06E0E06840F0010394E807009847EE
:1002B0001034AC42F6D3FFF76BFF0000E44A0008AD
:1002C000044B000870470000014640F20C50C2F297
:1002D000000000F08FBE000080B540F20C50C2F26A
:1002E000000000F099FE043818BF012080BD000016
:1002F00080B500F019F801281CBF012080BD40F234
:100300000C50C2F2000000F0EDFF002818BF80BDC5
:1003100040F20C50C2F200004FF4006100F008FD02
:10032000002818BF012080BD81B001208DF8030096
:100330009DF8030001B0704780B582B09C4613461B
:100340000A46014640F20C50C2F20000CDF800C04F
:1003500001F04EF9002818BF012002B080BD000056
:100360007047000080B582B09C4613460A4601469D
:1003700040F20C50C2F20000CDF800C001F058FA73
:10038000002818BF012002B080BD000070470000A7
:10039000FEE700007047000044F6CC20C0F60000E5
:1003A00004F02CFB72B600BFFEE7000040F2A00391
:1003B000C2F200035A7A002A1CBF0120704780B5A0
:1003C00093F809C08646002003F80C005A7A03EB24
:1003D0008202C2F804E05A7A1A44107293F809C0F3
:1003E0000CF101025A720CF130020A7042F63A72B4
:1003F000A1F80120C87080BD90F83510022909D1FC
:10040000052180F835100068016821F001010160C4
:10041000002070478021416501207047B0B5044637
:1004200000F0E0F8054640F20000C2F2000000785B
:10043000611C18BF044400BF00F0D4F8401BA04268
:10044000FAD3B0BD2DE9F04F83B000F1200200F1E6
:100450003E4741F60045009207F1FF77C4F20205DE
:1004600008224FEAB726A84208BF072200254FF00E
:1004700000084FF00009072E38BF4FEAB72201925B
:100480000AE000BF09F1010908F10208B9F1100FF3
:1004900005F1040500F0A2800F68012202FA09FEAE
:1004A00017EA0E0AEED0D1F804C003220CF00307BD
:1004B0007E1E02FA08F4012E6FEA040B12D884683B
:1004C000CE6804EA0B0406FA08F6344384604468F4
:1004D00024EA0E06CCF3001404FA09F4264346601D
:1004E00004E000BF032F01D103271EE0C6688C681B
:1004F00006EA0B0604FA08F42643022FC66014D15C
:100500006FF00302009E02EA590756F807C005F093
:100510001C040F220B69A2402CEA0202A3401A43DA
:10052000F251D1F804C00CF00307026807FA08F38F
:1005300002EA0B021A431CF4403F0260A2D00022E0
:1005400043F644030292C4F202031A6843F60044DD
:1005500042F480421A601A68C4F2010402F4804234
:100560000292029A29F003024FF6084C2244CFF679
:10057000FF7C52F80C3005F00C070F26BE40B34349
:10058000019E06FA07F73B4342F80C30A2684B681D
:1005900042EA0A0743F60C4CDE0258BF22EA0A0779
:1005A000A760C4F2010CDCF800209E0242EA0A07B0
:1005B00058BF22EA0A07CCF8007062689E0342EA3C
:1005C0000A0758BF22EA0A0767602268DB0342EA8B
:1005D0000A0758BF22EA0A07276053E703B0BDE8BD
:1005E000F08F000040F2D850C2F20000006870475F
:1005F00040F2000040F2D851C2F20000C2F2000105
:1006000000780A68104408607047000080B543F61F
:100610000040C4F20200016841F400710160016809
:1006200041F480610160016841F480710160032040
:1006300000F086F80F2000F005F800F027F8002001
:1006400080BD000070B540F20006C2F2000640F224
:100650000C013278C2F200014FF47A730968B3FBDF
:10066000F2F20446B1FBF2F1084601F0FDF90F2C5D
:100670004FF0010508D838B94FF0FF30214600226D
:10068000002500F031F87460284670BD82B000206B
:1006900043F640010190C4F202014A6842F48042EC
:1006A0004A604A6802F480420192019A0090086808
:1006B00040F080500860086800F08050009000987A
:1006C00002B07047002848BF704700F01F010122A8
:1006D00002FA01F11C2202EAD0004EF20012CEF220
:1006E000000281507047000010B54EF60C5CCEF24F
:1006F000000CDCF80030C3F3022E8EF00704042C4B
:1007000028BF0424BEF103034FF0FF3E0EFA04F4A9
:1007100038BF0023A14399400EFA03F39A431143D3
:1007200000F00F0200F160430901043A03F564434D
:100730006244002848BF02F10C03197010BD00008C
:100740004EF60C51CEF200010A684FF6FF031A4034
:1007500060F30A2242F0806040F0FD70086070474C
:10076000002804BF012070472DE9F04143F6080836
:10077000C4F202080446D8F8F8030D4600F007005A
:10078000884207D288F8F853D8F8F80300F0070039
:10079000A84277D12068810717D5410705D5D8F839
:1007A000001041F4E051C8F80010010705D5D8F851
:1007B000001041F46041C8F80010D8F80010A26899
:1007C00021F0F0011143C8F80010C00740D1D8F85B
:1007D000F80300F00700A84207D988F8F853D8F8C2
:1007E000F80300F00700A8424CD12068410707D564
:1007F000D8F80010E26821F4E0511143C8F8001065
:10080000000708D5D8F80000216920F4604040EACC
:10081000C100C8F8000000F07DF8D8F8001044F6D8
:100820002022C1F30311C0F60002515C40F20C0219
:1008300020FA01F140F20400C2F200000068C2F2A6
:1008400000021160FFF7FEFE0020BDE8F08100BF4E
:100850006068811E022907D258F8081C89015CBF14
:100860000120BDE8F08111E0012807D158F8081CEB
:1008700089035CBF0120BDE8F08107E058F8081C3F
:10088000890703D40120BDE8F08100BFD8F800102B
:1008900021F003010843C8F80000FFF7A3FE064655
:1008A00041F28837D8F80000616800F00C00B0EB26
:1008B000810F8CD0FFF796FE801BB842F2D903203F
:1008C000BDE8F08140F20C0043F60801C2F20000DE
:1008D000C4F202010068096844F63022C1F38221A3
:1008E000C0F60002515CC8407047000040F20C00A6
:1008F00043F60801C2F20000C4F202010068096870
:1009000044F63022C1F34231C0F60002515CC840C7
:100910007047000010B543F60404C4F20204606896
:1009200000F00C0008280BD0042819BF42F2004048
:10093000C0F2F40047F64000C0F27D1010BD00BFC9
:10094000206821682368490247F64001C0F27D1102
:1009500000F03F02C3F388105CBF42F20041C0F2D6
:10096000F401A1FB00010023FFF72AFC2168022209
:10097000C1F3014102EB4101B0FBF1F010BD0000F9
:10098000002804BF012070472DE9F04182B00446E1
:10099000007843F60006C007C4F202060CD0B06827
:1009A00000F00C00042840F081803068800303D5FB
:1009B0006068002800F06881207880071BD5B06847
:1009C00010F00C0F09D0B06800F00C00082840F0BF
:1009D00087807068400200F183803068800703D50B
:1009E000E068012840F050813068216920F0F8006B
:1009F00040EAC10030602078000713D42078400717
:100A00002AD4A569002D00F03A81B06800F00C00EE
:100A1000082840F0A580012D40F00E81012002B091
:100A2000BDE8F0816069002800F082800020C4F2F7
:100A300047200121C0F8801EFFF7D4FD054600BF06
:100A4000706F8007DAD4FFF7CDFD401B0228F7D97D
:100A5000032002B0BDE8F081306C5FEAC0080AD420
:100A600000200190306C40F080503064306C00F019
:100A700080500190019847F20007C4F200073868DF
:100A8000C00547D4386840F480703860FFF7AAFD8D
:100A9000054600BF3868C0053CD4FFF7A3FD401BE6
:100AA0000228F7D9032002B0BDE8F081B06800F059
:100AB0000C00082803D1706840023FF576AF6168EA
:100AC0003068B1F5803F07D0B1F5A02F40F09A8093
:100AD00040F480203060306840F4803030609AE02C
:100AE000E068002840F20000C4F247205CD00121F9
:100AF0000160FFF777FD0546306880073FF574AF6A
:100B0000FFF770FD401B0228F6D9032002B0BDE8B4
:100B1000F08100BFA168306F012905D0052955D1AA
:100B200040F004003067306F40F00100306756E05D
:100B30000020C4F247200021C0F8801EFFF752FDBC
:100B4000054600BF706F80077FF558AFFFF74AFD7D
:100B5000401B0228F6D9032002B0BDE8F08100BF97
:100B60000027C4F2472700203866FFF73BFD022D1F
:100B700005460DD13068800140F18A80FFF732FDD3
:100B8000401B02284FF00300F4D902B0BDE8F08109
:100B90003068800173D5FFF725FD401B02284FF018
:100BA0000300F5D9F1E700BF00210160FFF71AFD4E
:100BB000054600BF306880077FF51DAFFFF712FDC7
:100BC000401B02284FF00300F4D9DEE720F00100BB
:100BD0003067306F002920F0040030677AD0FFF7CB
:100BE00001FD054641F28837306F800700F18480AF
:100BF000FFF7F8FC401BB842F6D9032002B0BDE86D
:100C0000F08100BF20F4803030603068002920F48B
:100C1000802030607AD0FFF7E5FC0546306880031D
:100C20003FF5CAAEFFF7DEFC401B6428F6D903206F
:100C300002B0BDE8F08100BF7068E16900F4800295
:100C40008A4221D1216A00F03F028A421CD147F634
:100C5000C071626A0140B1EB821F15D1A16A4FF6E3
:100C6000FF73C903994300F44032A1F580318A42F1
:100C70000AD1E16A00F07060B0EB016F04D100208E
:100C800002B0BDE8F08100BF012002B0BDE8F081F4
:100C900004F11C052FCD084340EA8210D9034FF61A
:100CA000FF729143A1F5803140EA0560084370600E
:100CB00001203866FFF796FC044600BF30688001CB
:100CC000DDD4FFF78FFC001B02284FF00300F5D99D
:100CD0005BE700BFFFF786FC054641F2883700BF9F
:100CE000306F800708D5FFF77DFC401BB8424FF0FE
:100CF0000300F5D949E700BFB8F1000F3FF581AE19
:100D0000306C20F0805030647BE600BFFFF76AFC57
:100D1000054600BF306880037FF54EAEFFF762FCEA
:100D2000401B64284FF00300F4D92EE7FFF7CABA3E
:100D30002DE9F04186B00446032084F83400606C4D
:100D4000032825D14FF08050A26B40F2FF5810438A
:100D5000A063A06BC0F2400800283FD020680125A6
:100D6000C0F8388084F834504FF4007101F01AF85C
:100D700030B121680125C1F83880A16B0843A06318
:100D80000121284684F8341006B0BDE8F08100BF88
:100D9000D1B3B1F5805FD5D0B1F5006F50D12068E7
:100DA0000D4600210591049100F078FF800143D4A5
:100DB00004A9204601F01EFB00282946C4D19DF855
:100DC0001600400735D5216D2068090400F096FF14
:100DD00029460028B8D12068022140E0D4E9000566
:100DE000D4E90567D4E90223CDE900162946029724
:100DF00000F05EFF206800254FF4007100F0D2FF84
:100E00000028B6D1BCE700BF20680D46002105913F
:100E1000049100F043FF80010ED404A9204601F0A4
:100E2000E9FA002829467FF48FAF9DF81600C00725
:100E30000AD14FF0806087E74FF40060294683E7CE
:100E40004FF0006080E700BF216D2068090400F0CA
:100E500055FF294600287FF477AF2068002100F075
:100E6000ADFF294670E700007047000080B5D0E96B
:100E7000193ED0F844C09A0F0A70C3F383624A70D7
:100E8000C3F301628A701A0CCA701A0A0A714FEA17
:100E90001E524B71CA80CEF303420A72CEF3C032A7
:100EA0004A72CEF380328A72CEF34032CA72CEF3E7
:100EB00000320A730022BCF1010F4A7336D0BCF134
:100EC000000F40F0878040F6FC72C36E02EA8E028B
:100ED00042EA93720A61C26EC2F3C2630B75C2F337
:100EE00002634B75C2F342538B75C2F38243CB75D9
:100EF000C2F3C2330B76D1F810C00B7E0CF1010C9B
:100F000003F0070302330CFA03FCC0F854C00B7A59
:100F100003F00F0E012303FA0EF383655B0A03FB54
:100F20000CF3C3654FF4007312E000BFB0F86E20FD
:100F30000EF03F0342EA03420A610A694FF48063FC
:100F400003EB82224FF40073C0E91523C265C26E21
:100F50000366C2F380334B76C2F3C61302F07F02FE
:100F60008B76CA76026FD00F0877C2F3417048774C
:100F7000C2F382608877C2F38350C877C2F34050CF
:100F800081F820000020C2F3004381F8210081F89D
:100F90002230C2F3C03381F82330C2F3803381F8AA
:100FA0002430C2F3403381F82530C2F3003381F896
:100FB0002630C2F3812381F82730C2F30123D2B255
:100FC000520881F8283081F82920012281F82A204E
:100FD00080BD00BF016840F2FF52C0F240028A6348
:100FE000816B41F080518163012180F83410012030
:100FF00080BD000080B500F1440E9EE80C5081E8F1
:101000000C10426DC1E903E2D0E91623C1E90523C2
:10101000026E0020CA6180BD10B5016D04460068F3
:10102000090401F029F828B1A16B0843A06300204E
:1010300010BD00BF2068002100F030FEC0F3432047
:1010400010BD0000F0B581B004460068256B416B0F
:10105000090405F008012BD551B3E56A2DB3A66A42
:1010600000F042FE3060206800F03EFE70602068B4
:1010700000F03AFEB060206800F036FEF0602068B4
:1010800000F032FE3061206800F02EFE70612068B2
:1010900000F02AFEB061206800F026FEF06106F143
:1010A0002000A5F12001C4E90A0101B0F0BD00BF94
:1010B000426BD20540D4426B520465D5002963D0FF
:1010C000666A002EF1D0276A6D463968009129467C
:1010D00000F00EFE796820680091294600F008FEB5
:1010E000B96820680091294600F002FEF96820687E
:1010F0000091294600F0FCFD3969206800912946DD
:1011000000F0F6FD796920680091294600F0F0FDB5
:10111000B96920680091294600F0EAFDF86929467E
:1011200000902068203700F0E3FDA6F12000C4E91C
:10113000087001B0F0BD00BF4FF480718163C16BD6
:101140004CF23A329143C163C16A2A0721F001018E
:10115000C16259D42906A8D5A90608D500F0FCFF1C
:1011600028B1A16B0843A0632046FFF77DFEA807C6
:101170009BD12068C16A21F00801C162012120468B
:1011800084F834105EE000BF416B40F23A22114215
:101190003FF48BAF416B89075AD4416B09075ED48A
:1011A000416B890662D4416BC90666D4416B8905DF
:1011B00003D5A16B41F00801A16340F23A7181634C
:1011C000C16B40F23A329143C16300F0C5FFA16B9D
:1011D00008432907A06359D428067FF566AF15F0A8
:1011E000300F5FD0E06B42F28931C0F6000101653B
:1011F000FFF702F900283FF458AFE06B01B0BDE8FB
:10120000F04001F0C1B800BF15F0220F08D000F087
:10121000A3FF28B1A16B0843A0632046FFF724FE7B
:10122000206840F23A518163012084F834000020A4
:10123000A9072063204605D001B0BDE8F04000F0CA
:10124000F3BA00BF01B0BDE8F04000F0EFBA00BF54
:10125000A16B41F00201A163416B0907A0D5A16B0D
:1012600041F00801A163416B89069CD5A16B41F057
:101270002001A163416BC90698D5A16B41F0100113
:10128000A163416B890594D497E700BF0120002139
:1012900084F834002046216301B0BDE8F040FFF738
:1012A000E3BD00BFA80711D0206C42F21D31C0F68B
:1012B00000010165FFF7A0F800283FF4F6AE206CAE
:1012C00001B0BDE8F04001F029B800BF00210120C5
:1012D000A16384F834002046216301B0BDE8F040EA
:1012E000FFF724BD002804BF0120704710B5044655
:1012F00090F8340020B900202077204600F018F93B
:10130000032084F83400204600F00CF800284FF049
:10131000010018BF10BD0021A163216384F83400CF
:10132000002010BDF0B58FB004460068762100267D
:1013300002910021002200230096019600F0B8FCE3
:1013400048F2A007C4F225273E60206800F0C6FCE2
:10135000012502203D60FFF761F80496206800F047
:1013600039FD38B184F83450A16B0843A063284696
:101370000FB0F0BD206800F05DFD58B1206800217D
:10138000A16400F027FD0028ECD1A06C012803D057
:101390000AE000BF0120A0642068002100F0AEFC3C
:1013A00010B14FF08050DDE704984FF6FE77B84259
:1013B0001ED80026CCF210162068002100F09EFCFA
:1013C0000028CFD12068314600F0A4FC0028E8D1E5
:1013D0002068002100F062FC049901310491049915
:1013E000B94202D8B0F1FF3FE6DCC0F3807000E004
:1013F000002004994FF6FF72914203D34FF08070A2
:10140000B0E700BF606420680125ADF80E5000F021
:1014100041FCB8B3606C032838D12068042100F087
:101420003DFC000DE06404A92046FFF71FFD0028E5
:10143000B7D1216D20680A04002300F067FD002861
:101440007FF490AF94E88F00D4E90565CDE900768C
:10145000029500F02DFC20684FF4007100F0A2FC12
:10146000002861D0216840F2FF52C0F240028A6336
:10147000A16B01250843A06384F8345028460FB0BF
:10148000F0BD00BF4FF080606CE700BF206800F047
:1014900049FD00287FF466AF2068002100F0FEFBC4
:1014A000216860670846042100F0F8FB2168A06706
:1014B0000846082100F0F2FB2168E06708460C218D
:1014C00000F0ECFB616CC4F880000329A5D0206813
:1014D0000DF10E0100F0DCFD00287FF443AF606CDD
:1014E00003289AD0BDF80E1020682165090400F089
:1014F00067FD00287FF436AF2068002100F0CEFBA6
:10150000216860660846042100F0C8FB2168A066D7
:101510000846082100F0C2FB2168E06608460C215D
:1015200000F0BCFB206778E7002528460FB0F0BD2F
:101530002DE9F04387B042F600450068C4F201058A
:101540000026A8420696CDE904660396029603D0CB
:1015500007B0BDE8F08300BF43F630000196C4F247
:101560000200416902AC41F40061416141694FF000
:10157000020801F4006101910199019601684FF0A0
:10158000030941F00401016001680C2701F0040126
:10159000019101990196016841F00801016000681C
:1015A000214600F00800019001984FF4F850029095
:1015B00005F55C40CDE90386CDF814900697FEF75B
:1015C00041FF0420CDE9020805F560402146CDE940
:1015D00004690697FEF736FF312000210022FFF74D
:1015E00083F83120FFF76EF807B0BDE8F083000004
:1015F0002DE9F04786B01F4616460D460446FEF715
:10160000F1FF9DB1804694F83400012816D10021E5
:10161000A163E06DBA19824218D9A06B40F0007046
:10162000A063012006B0BDE8F08700BFA06B40F0CA
:101630000060A063012006B0BDE8F087A06B40F019
:101640000050A063012006B0BDE8F087032084F8B5
:101650003400626C2068012A4FF0FF32C16218BF6B
:10166000760200927A024FF0020901929022CDE9AF
:1016700003914FF0010A69460292CDF814A000F0E0
:10168000F5FA022F18D3C4F830902068314600F0E4
:1016900025FCC8B1216840F2FF52C0F240028A63C3
:1016A000A16B0843A0630120002184F8340021636A
:1016B00006B0BDE8F08700BFC4F830A0206831460E
:1016C00000F018FC0028E5D1DDF83890019E40F2CA
:1016D0002A3A05E0FEF786FFA0EB0800484541D214
:1016E0002068426B416B12EA0A0F25D10904F1D53B
:1016F000002EEFD000F0F8FA2860206800F0F4FA2D
:101700006860206800F0F0FAA860206800F0ECFA49
:10171000E860206800F0E8FA2861206800F0E4FA48
:101720006861206800F0E0FAA861206800F0DCFA47
:10173000E8612035203ECDE7022F27D311F48071D8
:1017400024D0616C032921D000F006FD01462068F9
:10175000E1B140F2FF52C0F240028263A06B084345
:10176000A0E700BF206840F2FF51C0F24001816352
:10177000A06B40F00040A063012084F834000020FA
:101780002063032006B0BDE8F08700BF416B090766
:101790005CBF416B5FEA815108D540F2FF51C0F256
:1017A00040018163A06B40F008007BE7416B890733
:1017B0001CD4416B890623D42068416B890229D54A
:1017C00046B300F091FA45F8040B043EFEF70AFF19
:1017D000A0EB08004845EFD3206840F2FF51C0F26B
:1017E00040018163A06B40F000405BE740F2FF5195
:1017F000C0F240018163A06B40F0020052E700BFDD
:1018000040F2FF51C0F240018163A06B40F0200024
:1018100048E700BF40F23A518163012084F8340068
:10182000002006B0BDE8F087FEF79ABDFEF7AEBD1A
:101830002DE9F04F87B0984615460E460446FEF750
:10184000D1FE9EB1824694F83400012816D10021C1
:10185000A163E06D08EB0502824217D9A06B40F04E
:101860000070A063012007B0BDE8F08FA06B40F0CE
:101870000060A063012007B0BDE8F08FA06B40F0CE
:101880000050A063012007B0BDE8F08F032084F86A
:101890003400626C2068012A4FF0FF32C16218BF29
:1018A0006D0201924FEA482202929022CDE9032173
:1018B00005910121069101A900F0D8F9B8F1020FB4
:1018C00018D3202020632068294600F055FCC8B1B9
:1018D000216840F2FF52C0F240028A63A16B0843C4
:1018E000A0630120002184F83400216307B0BDE823
:1018F000F08F00BF102020632068294600F048FCCC
:101900000028E5D1DDF84090029F40F21A3B6D4679
:1019100006E000BFFEF766FEA0EB0A0048455DD278
:101920002068426B416B12EA0B0F41D14904F1D59B
:10193000002FEFD031780091727841EA02210091B6
:10194000B27841EA02410091F27841EA02610091E5
:10195000294600F0CDF9716820680091294600F011
:10196000C7F9B16820680091294600F0C1F9F16813
:1019700020680091294600F0BBF931692068009188
:10198000294600F0B5F9716920680091294600F0F8
:10199000AFF9B16920680091294600F0A9F9F06912
:1019A000294600902068203600F0A2F9203FB1E7D8
:1019B000B8F1020F24D311F4807121D0616C032996
:1019C0001ED000F0C9FB01462068C9B140F2FF52A9
:1019D000C0F240028263A06B084381E7206840F2B6
:1019E000FF51C0F240018163A06BA063012084F825
:1019F000340000202063032007B0BDE8F08F00BF53
:101A0000416B09075CBF416B5FEA815108D540F229
:101A1000FF51C0F240018163A06B40F008005FE716
:101A2000416B89070CD4416BC90613D440F23A517B
:101A30008163012084F83400002007B0BDE8F08FF6
:101A400040F2FF51C0F240018163A06B40F0020000
:101A500046E700BF40F2FF51C0F240018163A06B36
:101A600040F010003CE70000411E0020B0EB116F79
:101A70001CBF012070474EF21002CEF200025160EE
:101A80004EF62351CEF20001F0230B700721906037
:101A900011607047002804BF0120704710B504464C
:101AA00090F8410028B9002084F84000204600F05A
:101AB00021F8242084F841002068C16821F40051F5
:101AC000C160204600F004FE2068016921F49041C5
:101AD0000161416921F02A014161C16841F400516D
:101AE000C16000202021606484F8411084F8421015
:101AF000606310BD80B586B044F600010068C4F292
:101B00000001002288420592CDE90322029201924F
:101B100002D006B080BD00BF43F630000092C4F290
:101B20000200036943F480230361036903F4802303
:101B30000093009B0092036843F002030360006877
:101B400000F00200009000984FF4406001900220E5
:101B5000CDE90202032004900720059001F5DE3054
:101B600001A9FEF76FFC06B080BD0000FEE7000093
:101B700010B540F21C04C2F2000444F6B820611C07
:101B8000C0F60000FEF712FC207010BD81B00021ED
:101B900043F630000091C4F20200026842F0800275
:101BA0000260026802F080020092009A00910268CE
:101BB00042F002020260026802F002020092009A01
:101BC0000091026842F004020260026802F004021E
:101BD0000092009A0091026842F0010202600268DD
:101BE00002F001020092009A0091016841F00801A0
:101BF0000160006800F008000090009801B0704794
:101C000040F20C5042F60041C2F20000C4F2010161
:101C10000022C0E90012C0E90222C0E90422826168
:101C20007047000080B540F2905044F60001C2F2C7
:101C30000000C4F2000100234FF00C0C4FF4E1321D
:101C400080E80E00C0E90333C0E905C3C361FFF7B4
:101C500021FF002808BF80BDBDE88040FEF79CBB87
:101C6000FEE70000FEE700007047000080B5024676
:101C700091E809505062936208694EEA0C031843D8
:101C80004969D36A084323F0F70101430020D16278
:101C900080BD0000006800F0030070470844406900
:101CA0007047000040F20C50C2F20000FFF7CAB9C2
:101CB00010B58446DDE90240114319432143DDF8A4
:101CC00010E00843DCF8041047F6FF6240EA0E001B
:101CD000914301430020CCF8041010BD01460322BB
:101CE00000200A6070470000D0F8800070470000B4
:101CF000096802460020C2F8801070478160C368FE
:101D000040F2774161F30B03372141F28832C3601F
:101D100000F04ABA41F0004141F480118160C1688D
:101D200040F2694262F30B01C16040F20C01C2F261
:101D30000001096844F6D352C1F26202A1FB02120B
:101D4000510A41F2883251436FF00302514000BF03
:101D5000043104BF4FF000407047426B12F0450F52
:101D600002D012F4006214D0426B12F0450F02D080
:101D700012F400620DD0426B12F0450F02D012F443
:101D8000006206D0426B12F0450FE1D012F40062FF
:101D9000DED1416B042211F0040108BFC522826329
:101DA000084670478160C3684FF48A6161F30B0392
:101DB000102141F28832C36000F0F6B98160C36837
:101DC00040F2464161F30B03062141F28832C360C1
:101DD00000F0EAB900218160C1684FF4806262F3CB
:101DE0000B01C16040F20C01C2F20001096844F627
:101DF000D352C1F26202A1FB0212510A41F28832AF
:101E000051436FF003025140043104BF4FF00040D2
:101E10007047426B120609D4426B12065CBF426BDC
:101E20005FEA026202D4426B1206EDD5C5218163DE
:101E3000002070474FF4D5718160C1684FF489620A
:101E400062F30B01C16040F20C01C2F200010968AB
:101E500044F6D352C1F26202A1FB0212510A41F2CE
:101E6000883251436FF00302514000BF043104BF78
:101E70004FF000407047426B12F0450F02D012F451
:101E8000006214D0426B12F0450F02D012F40062CF
:101E90000DD0426B12F0450F02D012F4006206D052
:101EA000426B12F0450FE1D012F40062DED1416BBB
:101EB000490709D4416BC9070AD1416B49064FF064
:101EC000000108D5402205E00422042102E000BF01
:101ED0000122012182630846704700008160C368C7
:101EE00040F2524161F30B03122141F28832C36088
:101EF00000F05AB98160C36840F2514161F30B03AD
:101F0000112141F28832C36000F04EB98260C3688B
:101F100040F2474161F30B03072141F28832C3606D
:101F200000F042B900218160C16840F2C24262F310
:101F30000B01C16040F20C01C2F20001096844F6D5
:101F4000D352C1F26202A1FB0212510A41F288325D
:101F500051436FF003025140043104BF4FF0004081
:101F60007047426B12F0450F02D012F4006214D099
:101F7000426B12F0450F02D012F400620DD0426B9A
:101F800012F0450F02D012F4006206D0426B12F03C
:101F9000450FE1D012F40062DED1416B490707D44E
:101FA000416BC90708D1C52181630020704700BF7C
:101FB000042181630420704701218163012070475F
:101FC0008160C16840F2C94262F30B01C16040F216
:101FD0000C01C2F20001096844F6D352C1F2620258
:101FE000A1FB0212510A41F2883251436FF0030201
:101FF000514000BF043104BF4FF000407047426BB6
:1020000012F0450F02D012F4006214D0426B12F0AD
:10201000450F02D012F400620DD0426B12F0450F52
:1020200002D012F4006206D0426B12F0450FE1D0EC
:1020300012F40062DED1416B490707D4416BC90736
:1020400008D1C52181630020704700BF042181634E
:1020500004207047012181630120704700218160C5
:10206000C36840F2734161F30B03332141F28832BC
:10207000C36000F099B800008160C36840F24D4130
:1020800061F30B030D2141F28832C36000F08CB87C
:1020900000228260C26840F2434363F30B02C260D5
:1020A00040F20C02C2F20002126844F6D353C1F2AD
:1020B0006203A2FB03235A0A41F288335A436FF0AA
:1020C00003035A40043204BF4FF000407047436B93
:1020D00013F0450F02D013F4006314D0436B13F0D8
:1020E000450F02D013F400630DD0436B13F0450F7E
:1020F00002D013F4006306D0436B13F0450FE1D018
:1021000013F40063DED1426B520719D4426BD2073D
:102110001AD10269D2B2032A18D1C522826340695A
:1021200010F4604F14D0410444BF4FF40050704786
:1021300000044FF4805058BF4FF48030704700BF08
:1021400004218163042070470121816301207047CD
:10215000000C08800020704700218160C36840F2B5
:102160004C414EF2001261F30B03C0F2F5520C2108
:10217000C36000F019B800008160C36840F25941A3
:1021800061F30B03192141F28832C36000F00CB8EF
:102190008160C3684FF48B6161F30B03182141F236
:1021A0008832C360AFF3008040F20C03C2F2000338
:1021B000D3F800C044F6D353C1F26203ACFB033C36
:1021C0004FEA5C235A43002A00F09C80436B13F0D3
:1021D000450F02D013F400631DD0012A00F0928055
:1021E000436B13F0450F02D013F4006313D0022A9F
:1021F00000F08880436B13F0450F02D013F40063A6
:1022000009D0043A531C7DD0436B13F0450FDAD04C
:1022100013F40063D7D1426B520777D4426BD207D5
:1022200078D1C52282630269D2B28A421CBF0120E2
:10223000704740694EF20801CFF6FF51084204BFD3
:1022400000207047002844BF4FF000707047002105
:10225000B1EB907F1CBF40207047B1EB507F1CBF9B
:1022600080207047B1EB107F1CBF4FF48070704727
:10227000B1EBD06F1CBF4FF400707047B1EB906FA3
:102280001CBF4FF480607047C10144BF4FF4006031
:102290007047010244BF4FF480507047410244BF71
:1022A0004FF400507047810244BF4FF480407047A4
:1022B000C10244BF4FF400407047410344BF4FF494
:1022C00000307047810344BF4FF480207047C10342
:1022D00044BF4FF400207047010444BF4FF4801006
:1022E0007047410444BF4FF400107047810444BF5D
:1022F0004FF48000704700074FF4000058BF4FF4C0
:10230000803070474FF00040704700BF0146042006
:10231000886370470146012088637047B0B5846BBD
:1023200040F23A52216D206809048263FFF7A4FE4F
:1023300040B1A16B0843A063012084F83400002061
:10234000206313E0206800210025FFF7A7FCC0F3FD
:10235000432005380121012884F83410256305D86D
:102360002068FFF7F9FEA16B0843A063A06B28B1BA
:102370002046BDE8B040FEF777BD00BF2046BDE86F
:10238000B040FEF7D3BC0000B0B5846B40F23A52C7
:10239000216D206809048263FFF76EFE40B1A16BD6
:1023A0000843A063012084F834000020206313E078
:1023B000206800210025FFF771FCC0F34320053899
:1023C0000121012884F83410256305D82068FFF71F
:1023D000C3FEA16B0843A063A06B28B12046BDE8F3
:1023E000B040FEF741BD00BF2046BDE8B040FEF75B
:1023F0009DBC00002DE9F04188B00C460546FEF773
:10240000F1F8064600212868019100910821FFF7A4
:10241000C9FC18B108B0BDE8F08100BF296D28687B
:102420000904FFF76BFC0028F4D14FF0FF30029055
:102430000820039030200490022005900020069090
:1024400001212868079102A9FFF710FC2868FFF70F
:1024500005FE0028DED10027E8460BE0FFF744FC2C
:1024600048F827000137FEF7BDF8801B01304FF018
:102470000040CFD02868416B11F02A0F05D1416B85
:102480008902EBD4416B8904EDD4416B09075CBF31
:10249000416B5FEA815105D508218163082008B0AE
:1024A000BDE8F081416B890710D4416B890613D4D4
:1024B00040F23A518163DDE9001000BA09BAC4E97B
:1024C0000001002008B0BDE8F08100BF0221816357
:1024D000022008B0BDE8F08120218163202008B0EF
:1024E000BDE8F081B0B540F20804C2F20004012555
:1024F0002570FDF7FDFE08B12078B0BD2570FDF711
:10250000EBFE18B1207820702078B0BD207800F064
:10251000FE002070207820702078B0BD10B588B003
:1025200040F20800C2F200000078C00710D1032971
:1025300026D80020DFE801F02502101A684614466C
:10254000FDF7C2FE06982060002008B010BD00BF55
:10255000032008B010BD00BF68461446FDF7B4FE66
:1025600007982080002008B010BD00BF68461446C0
:10257000FDF7AAFE0798400A2060002008B010BDB1
:10258000042008B010BD000080B5084611461A4668
:102590004FF0FF33FDF7D0FE00281CBF012080BDA7
:1025A000FDF79AFE0028FBD1002080BD10B540F257
:1025B0000804C2F2000401202070FDF78DFE08B16E
:1025C000207810BD207800F0FE002070207810BD2B
:1025D00080B5084611461A464FF0FF33FDF7C2FE9C
:1025E00000281CBF012080BDFDF776FE0028FBD12E
:1025F000002080BD70470000FDF7FABF70B592B0B3
:1026000006AC20463021FDF713FE002543F64000BE
:102610000595CDE90355CDE901550095C4F20200B9
:102620000168022641F080510160006800F080508E
:102630000090009847F200000095C4F20000016885
:1026400041F480410160006800F4804000900098EF
:102650000120099010200A9008200E90A820CDE9B2
:102660000F060720119020460696CDE90C65FEF76F
:1026700087F948B144F6CC20C0F6000002F0BEF95C
:1026800072B600BFFEE700BF0F20CDE901064FF490
:10269000A05004904FF48050059001A805210395A7
:1026A000FEF75EF840B144F6CC20C0F6000002F020
:1026B000A5F972B6FEE700BF12B070BD4EF68850A5
:1026C000CEF20000016841F4700101607047000023
:1026D000B0B50446006804F108030ECB0569194340
:1026E00025F440552A4302616269E3691143C268D7
:1026F000194349F20C639A431143C1604169A269CD
:1027000021F4407141F20043114340F48062C4F26D
:1027100001039A42416103D1FEF7E8F802E000BFED
:10272000FEF7D0F8E1694FF69C7563681922C0F690
:10273000FF75B1F5004FA0FB02011FD15A00DB0F5E
:10274000FDF73EFD48F21F51C5F2EB11A0FB01233E
:102750005A0905F1805302FB0300322303EBC0004A
:10276000A0FB01014FF4F87000EA111000EB021019
:10277000C1F34211084421688860B0BD9A009B0FE4
:10278000FDF71EFD48F21F51C5F2EB11A0FB01231E
:102790005A0902FB0500322303EB0010A0FB0101E4
:1027A000F02000EA511000EB0210C1F3431108447D
:1027B00021688860B0BD0000FEE700002DE9F04709
:1027C000D0F800808946064691B14046494601F05E
:1027D000F5FD02283CBF0120BDE8F087411C61D017
:1027E000D8F81410CA4688420BD2BDE8F08700BF63
:1027F000D8F80CA0BAF1000F1ED0D8F8140082450A
:102800001AD2BAF1020F08F1140419D3574600BFC7
:10281000206801378742306828BF0227394601F017
:10282000CDFD411CE1D018B30128DED057454FF053
:102830000000EDD1D9E700BF08F114044FF0010A00
:102840000AF10105002705E0012808BFBDE8F0876F
:1028500001372BD22068E919814227D2306801F074
:10286000ADFD411CC1D00028EED10AEB0700471C8A
:10287000404639464FF0FF3201F016FFB9F1000F24
:10288000014606D029B9404649463A4601F00CFFB8
:10289000014679B10120012908BF4FF0FF30BDE8A2
:1028A000F08700BF4FF0FF30BDE8F0870020BDE8A3
:1028B000F08700BFD8E90410C8F80C7002388142D4
:1028C0009CBF0139C8F8101098F80410384641F040
:1028D000010188F80410BDE8F08700002DE9F04FF1
:1028E00081B0C3690427A3B142694FF6FF74C0F2F7
:1028F0001F0402F12005A5420BD82E46D0F8009007
:102900006FF35F2656B109EB060130314561016274
:102910000027F8B201B0BDE8F08F00BF8269013333
:10292000C361AAB1B9F80A30234403F5C00313EA1E
:10293000552FE8D10C4682464846114601F03EFD2F
:10294000022811D20227F8B201B0BDE8F08F00BF13
:10295000B9F80810B1EB551FD5D80021C161F8B204
:1029600001B0BDE8F08F00BF411C38D0D9F8141079
:1029700088420FD20246A0F102085046023988452B
:1029800082616ED2B9F80A10D9F8282008FB01211B
:1029900068E000BF5046ACB18169FFF70FFF411CF2
:1029A000032917D24FF6F870C0F2FF0000EAC10009
:1029B00040F20171C0F2020121FA00F7F8B201B051
:1029C000BDE8F08F0021C1610427F8B201B0BDE875
:1029D000F08F00BF0446484601F058FF20B10127A0
:1029E000F8B201B0BDE8F08F09F130004FF400718A
:1029F000FDF71EFCD9F814102046A4F10208881E29
:102A0000B9F80A702246804504D2D9F8280008FB9C
:102A1000070300E0002350464FF0000BC9F82C30AC
:102A2000BFB10127484689F8037001F02FFF002845
:102A30007FF46FAFD9F82C00B9F80A100BF1010B35
:102A4000431C8B45C9F82C30ECD3D9F814105046F0
:102A50002246A3EB0B03C9F82C300239884582616A
:102A600090D30021C1614EE7B0B581680568044686
:102A700000206061E1B1688988B16B698A1E023B00
:102A80009A423DD2AB6A02FB0030C4E90610E0B9BD
:102A900034E000BF022931D3686981422ED2206818
:102AA00001F08CFC01460130F4D10120B0BD00BF23
:102AB0002878032802D3696A0029DCD12889E8B183
:102AC000686A0021C4E90610C0B105F13000206237
:102AD000E169284601F0AAFD0028E6D1206A0078C5
:102AE000A0B1E52812D020460121FFF7F7FE00280B
:102AF000EED0042808BF0720B0BD00BF0220B0BD43
:102B00000020C4E906100220B0BD00BFE1692846DC
:102B100001F08CFD00284FF0010018BFB0BD216A04
:102B20000022CA618A614A610A61CA608A604A6099
:102B30000A60216A94F824200A7094F825204A70CB
:102B400094F826208A7094F82720CA7094F82820D8
:102B50000A7194F829204A7194F82A208A7194F80D
:102B60002B20CA7194F82C200A7294F82D204A72F6
:102B700094F82E208A72E8700020B0BDB0B540F203
:102B8000A004C2F20004215C11B10020B0BD00BF5E
:102B900004EB80014968054620440968007A8847AB
:102BA000002818BFB0BD012060550020B0BD000056
:102BB00040F2A00CC2F2000C0CEB80035B68604496
:102BC000007A1B691847000080B540F2A00CC2F2E1
:102BD000000C0CEB800EDEF804E06044007ADEF8B6
:102BE00008C0BDE88040604740F2A001C2F2000189
:102BF00001EB800252680844007A516808470000DF
:102C000080B540F2A00CC2F2000C0CEB800EDEF896
:102C100004E06044007ADEF80CC0BDE88040604704
:102C200010B5044600F00CFC002818BF10BD5CB3C2
:102C3000206848B3017839B3A188C288914223D172
:102C40004078FFF7D1FFC0071ED120690138012865
:102C500084BF022010BD40F22401C2F2000101EB4A
:102C60000010B0F9141001238AB2B2F5807218BFB7
:102C7000D1FA53F21104828202D10830002101609E
:102C80000020206010BD00BF092010BD10B582B02B
:102C9000009129B34FF0FF3E01EB0E0C9CF8013080
:102CA000212B21D33A2B1FD09CF80230212B27D384
:102CB0003A2B25D09CF80330212B3DD33A2B3BD027
:102CC0009CF804400EF1040EA4F13A03B3FA83F326
:102CD0004FEA531C212C1AD33A2CDDD117E000BF48
:102CE0000B21084602B010BD3A3BB3FA83F34FEA1A
:102CF000531C0EF1010EBCF1000F0BD126E000BFFA
:102D00003A3BB3FA83F34FEA531C0EF1020EBCF1C7
:102D1000000F1BD00978A1F13003092B08D8BEF1B0
:102D2000010F4FF00B0108BF002BDAD10EE000BFFE
:102D30000B21084602B010BD3A3BB3FA83F34FEAC9
:102D4000531C0EF1030EBCF1000FE3D140F224033B
:102D5000C2F20003596859B19C688C4204BF002438
:102D60009C609C698C4204BF00249C6100240C7010
:102D7000002168B1012A01705860B2D1684601A9EA
:102D8000002200F059FD0146084602B010BD00BF08
:102D90005960084602B010BD2DE9F04F8FB00E917A
:102DA00080B102F03F0A804615460EA801A952469E
:102DB00000F042FD50B10021C8F800100FB0BDE88E
:102DC000F08F00BF09200FB0BDE8F08FDDF8049050
:102DD0000E9902A8CDF8089000F0BEFF90B11AF04D
:102DE0001C0F51D0002856D004286ED140F2240088
:102DF000C2F200008168002964D08069002861D097
:102E0000122062E09DF93710002931D440F22401EC
:102E1000C2F200018A68029B62B19A420AD1CF686D
:102E2000049EB74206D10F69079EB74202D1002225
:102E30002B460DE08F695FB39F421FD1CF69049E7F
:102E4000B7421BD10F6A079EB74217D12B4601220A
:102E500013F03E0F05D101EB0211898AB1F5807F95
:102E6000BDD11AF01C0F4FF010002ED10CE000BFA6
:102E70001AF01C0F4FF0060027D105E042B11AF0FE
:102E80001C0F4FF0120020D100287FF494AF0BE00C
:102E90001AF01C0F08D09DF80E0010F0110F0DD184
:102EA000082000EA450012E09DF80E00C10607D494
:102EB0005FEA8A7173D510F0010070D007207AE7BD
:102EC000042078E702A8FFF7CFFD4AF0080A00289F
:102ED00062D11AF008015FD001F0D4FA0A99020A0F
:102EE0008873030C070E88752020CA730B744F7407
:102EF000CA750B764F76C87299F80000B1F81AB00F
:102F0000032805D1087D4A7D000440EA026083441D
:102F10000020488399F80020032A08BF8882C861EE
:102F20000120BBF1000F89F8030038D0BBF1010F7D
:102F300078D0029F7869584574D9D9F82C405E46FC
:102F400003E000BF85422E461ED23846314601F0CE
:102F500035FA0546013000F0ED80ADB1012D61D0AC
:102F600038463146002201F09FFB00287FF423AF52
:102F7000D7E90410821E9142E4D23A7901313961D5
:102F800042F001013971DDE74846214601F04EFB70
:102F9000ABF10101C9F80C1000287FF40CAF40F22E
:102FA0002401C2F20001029A8B68D9F82C700A98A9
:102FB0009342C8E9097009D1CF68049EB74205D190
:102FC0000F69079EB74201D100231CE08F69974229
:102FD0000AD1CE69049DAE4206D10E6A079DAE426B
:102FE00002D101230FE000BF4FF0000613B1B7B9C3
:102FF000012300E00023049D079C01EB0317C7E9B0
:1030000002253C61BE820AF0080201EB03114AEA84
:10301000C20231F8147F12F07E0F05D037B10020C4
:10302000C8F810000220C6E6013701E04FF48077AF
:103030000F80591CC8F8101099F80010478B03290D
:1030400005D1017D437D090441EA03610F44C8F8BD
:103050000870B9F80610C569002008F1300BC8F8EF
:103060002C00A8F8041088F81500C8F82000C8F84B
:10307000180058464FF40071C8F80C50C8F800907A
:1030800088F81420FDF7D4F85FEA8A604ED5002D49
:103090004FF000003FF492AEB9F80A00C8F818509B
:1030A000B5EB402F20D94402D8F8000039462E460F
:1030B00001F084F9074602284FF0000038BF0120D4
:1030C0004000791C08BF0120A5EB040508B9A54202
:1030D000EAD8C8F81C7010B96FF35F2646B900280B
:1030E0007FF469AE22E000BFE805C8F81C701DD06F
:1030F000D9F81410B81E0239884293D2B9F80A10D0
:10310000D9F8282000FB012000283FF48BAF00EB0A
:10311000552299F8010059460123C8F82020FFF7ED
:1031200053FD0146012000297FF445AE00200FB079
:10313000BDE8F08F01203EE62DE9F04F81B0002779
:103140001F60B8B10668AEB137789FB18788F5883F
:10315000AF420FD1804670780C4617469A46FFF76B
:1031600043FDC00706D198F8150038B101B0BDE89D
:10317000F08F00BF092001B0BDE8F08F98F814006F
:10318000C646C00704D1072001B0BDE8F08F00BFDC
:10319000DEF80C00DEF81850401BB84238BF074676
:1031A000002F00F03781DEF80000D44623460EF1F0
:1031B000300B009011E000BF6802D446DEF8181012
:1031C00003440D18DCF800103F1A01444FF00000D2
:1031D000CEF81850CCF80010C8D02A466FF35F2202
:1031E000A2B1C2F50070B84228BF384610F0030102
:1031F0000BEB020614D0344614F8012B1D460129AE
:1032000005F8012B10D1421E4BE000BF009A5089F7
:10321000013810EA55290FD0DEF81C0074E000BF19
:1032200002461D4634463CE0727802295A7033D17A
:10323000B41C9D1C821E34E0002D45D0DEF82C20ED
:10324000002A45D05668002E00F0E880DEF8000025
:10325000690A40891432B1FBF0F0B04244D352F80D
:10326000081C002900F0DA80801B88423ED31468D5
:10327000002C00F0D380401AA0423AD39168002974
:1032800000F0CC80001B884232D31669401A002E11
:1032900002F12002E1D1C1E0B178F41CDD1CC21EB4
:1032A00099700428FFF48AAF043D261F16F8041F06
:1032B000043A05F8041F71786970B178A970F17843
:1032C000E970F3D17AE700BFDEF8080014E000BF30
:1032D000DEF80000DEF81C101C4601F06FF82346F3
:1032E000D446C64607E000BF103A02E0083A00E0C4
:1032F000083251680844009A0228C0F08F80411CAF
:1033000000F09880CEF81C005169023802398842DA
:1033100080F0848011465289896A00FB02100028DF
:103320007CD07D0A00EB09064AD009EB05009042EB
:1033300000981C46407888BFA2EB09051946324622
:103340002B46FFF741FC00286ED198F91400C646C1
:10335000B0F1FF3F23463FF72FAFDEF82000801B80
:10336000A842BFF429AF03EB402000221BF8021053
:103370000BEB02048154617886187170A1781032C9
:10338000B170E178B2F5007FF17021793171617926
:103390007171A179B171E179F171217A3172617A3A
:1033A0007172A17AB172E17AF172217B3173617B22
:1033B0007173A17BB173E17BF173D7D1FCE600BFE0
:1033C000DEF82020B2421ED09EF914001D46B0F156
:1033D000FF3F0DDC0098594640780123FFF710FCB1
:1033E00010BB98F81410404601F07F0188F81410C3
:1033F00000985946407832460123FFF7E5FBC64660
:10340000D4462B46B0B9DEF81820CEF820606FF312
:103410005F22E6E6002001B0BDE8F08F02208EF8C2
:10342000150001B0BDE8F08F012088F8150001B04B
:10343000BDE8F08F01208EF8150001B0BDE8F08FD7
:1034400070B500285AD00168002957D00A78002AA0
:1034500054D08288CB889A4250D106464878FFF7EC
:10346000C3FBC0074AD1307D42065CBF002070BD5F
:10347000346840B23146B0F1FF3F0FDC60780A6A31
:1034800030310123FFF7BCFB01460120002918BFA2
:1034900070BD307D314600F07F0030750D4600F084
:1034A000F1FF696A0546204601F0C0F800281CBFFC
:1034B000012070BDB06AC17A41F02001C172B168CB
:1034C000326841831278032A03D10A0C090E02756F
:1034D0004175F1688575C161290AC175290C0176AC
:1034E000290E4176002141820120E070204601F042
:1034F00067F9317D01F0BF01317570BD092070BDE4
:103500002DE9F04F81B000271F60B8B10768AFB157
:103510003E789EB18688FD88AE420FD1834678788A
:103520000C4615469846FFF75FFBC00706D19BF88F
:10353000150038B101B0BDE8F08F00BF092001B01F
:10354000BDE8F08F9BF814005946800704D407208B
:1035500001B0BDE8F08F00BF8F692B46F843A84249
:1035600038BF0346002B00F04D810868C446A646CC
:1035700001F13009009014E0087D40F080000875EA
:103580008869CA688719974288BF3A46DCF8000004
:10359000B64430449B1BCA608F61CCF8000000F039
:1035A000318138466FF35F20A0B1C0F500769E42AE
:1035B00028BF1E4616F0030509EB000240D07446F2
:1035C00014F8010B1746012D07F8010B3CD1701EB2
:1035D0003A464AE0009E7089013810EA572A40F0C6
:1035E0007F80002F54D0CD6A002D57D06E68002EFA
:1035F00000F0088108687A0A408905F11407B2FBD7
:10360000F0F0B04256D357F8085C002D00F0FA8075
:10361000801BA84250D33E68002E00F0F380401B70
:10362000B0424CD3BD68002D00F0EC80801BA84256
:1036300044D33E69401B002E07F12007E1D1E1E0B1
:103640003046744611E000BF9EF80100022D507014
:1036500004D10EF102040232B01E06E09EF8020010
:103660000EF1030490700332F01E042EFFF484AFB9
:10367000171F251F15F8042F043807F8042F6A7840
:103680007A70AA78BA70EA78FA70F3D174E700BF5A
:103690008868B0B958467446002102E0C9695846A6
:1036A00074461D46FFF78AF8A6462B46C44659467F
:1036B00007E000BF103F02E0083F00E008377A68EB
:1036C0001044421C00F0B280002800F09B800128CA
:1036D00000F0A0808A68009E002AC86108BF886048
:1036E00091F91400B0F1FF3F14DC70780A6A1D46AE
:1036F000494601237446FFF783FA002840F0908082
:103700009BF81400594600F07F00C4462B46A6469D
:103710008BF81400C86972690238023A904279D273
:103720007589B26A00FB0520002873D05E0A00EBA1
:103730000A074BD00AEB0600A84200981C464078C6
:1037400088BFA5EB0A0671463A4633467546FFF731
:1037500057FA002864D1DBF820005946C01BB0425C
:10376000C4462346AE462FD20EEB4020002700BFB2
:10377000C25DC51909F807206A7809EB0704627071
:10378000AA781037A270EA78B7F5007FE2702A793C
:1037900022716A796271AA79A271EA79E2712A7A50
:1037A00022726A7A6272AA7AA272EA7AE2722A7B38
:1037B00022736A7B6273AA7BA273EA7BE273D7D11E
:1037C000087D00F07F0008757602D9E60A6A8869EC
:1037D000BA4212D0CA6890420FD200981D46407873
:1037E00049463A4601237446FFF7EEF9C0B9DBF8C3
:1037F00018005946C4462B46A6466FF35F200F6259
:10380000D3E600BF087D40F040000875002001B0FD
:10381000BDE8F08F0220487501B0BDE8F08F00BF11
:1038200001208BF8150001B0BDE8F08F012048752C
:1038300001B0BDE8F08F000000230B600368002B8F
:1038400004BF0B2070472DE9F0474FF0FF3700BF52
:10385000DE197578212D19D33A2D17D0B578212D81
:103860001CD33A2D1AD0F578212D1FD33A2D1DD017
:1038700035790437A5F13A06B6FA86F67609212D90
:1038800001D33A2DE4D166B317E000BFA5F13A06A3
:10389000B6FA86F6760901377EB922E0A5F13A0636
:1038A000B6FA86F676090237DEB106E0A5F13A06E9
:1038B000B6FA86F6760903379EB11E78A6F1300572
:1038C000092D84BF0B20BDE8F0870646012F4FF07D
:1038D0000B0008BF002D01D0BDE8F087D8190130DA
:1038E000306040F22406C2F200067468002C00F03A
:1038F0000381207815460C6080B16078FFF774F979
:103900000146C0070AD115F07E004FEA41714FF021
:103910000A0218BF02EAE170BDE8F08700202080AB
:10392000FFF72CF9C1071CBF0320BDE8F08715F095
:103930007E0F1EBF10F004000A20BDE8F0870020B3
:10394000E0704FF0FF30E0622046002100F06EFE94
:1039500000281CBF0120BDE8F087B4F82E024AF60B
:10396000552A504540F0F48194F83000E92807D0FA
:10397000EB2840F0C58094F83200902840F0C080D9
:1039800094F8672094F8683094F86610120244F2B4
:10399000461042EA0342C0F254001144814206D06C
:1039A000D4F8821000F14C50814240F0A9800027E9
:1039B000B4F83B00B0F5007F1CBF0D20BDE8F087D8
:1039C000B4F84600002808BF606D94F84030A0614C
:1039D000591E0129A37000F2BB8194F83D20511EAD
:1039E00082EA0105EDB2C9B28D42628140F2B08136
:1039F00094F8415094F8421045EA01212D072181A5
:103A000040F0A681B4F84350002D08BF256DB4F8EE
:103A10003E90B9F1000F00F09B8100FB03FE0EEB1E
:103A200011134B449D42C0F09381ED1A9542C0F0B2
:103A30008F81B5FBF2F24FF6F6754FF00308AA42FC
:103A400040F6F57538BF4FF00208AA4298BF4FF014
:103A5000010802F1020C07EB09053B44B8F1030F22
:103A6000C4F814C0C4E90775A36240F03F81B4F8FC
:103A70005A2011431CBF0D20BDE8F08740F2FF1211
:103A8000E16D02EB8C02B0EB522F61623CBF0D2066
:103A9000BDE8F0874FF0FF30C4E90300B4F86000E0
:103AA00080210128217140F04081791C204600F0DE
:103AB000BDFD002840F03981B4F82E0200215045A8
:103AC000217140F03281206B45F25221C4F2611124
:103AD000884240F02A81D4F8140247F27221C6F2DB
:103AE0004111884240F02181D4F81802D4F81C1208
:103AF000C4E9031019E100BF0C20BDE8F08700BF46
:103B000094F8F201002814BFD4F8F671002794F855
:103B10000202002814BFD4F80652002594F81202BD
:103B2000002814BFD4F816924FF0000994F822022E
:103B3000002814BFD4F826824FF000087FB300207D
:103B4000E0704FF0FF30E0622046394600F06EFD35
:103B500028BBB4F82E02504521D194F83000E92852
:103B600005D0EB281BD194F83200902817D194F897
:103B7000672094F8683094F86610120244F24610F8
:103B800042EA0342C0F25400114481423FF410AFB4
:103B9000D4F8821000F14C5081423FF409AF8DB34C
:103BA0000020E0704FF0FF30E0622046294600F030
:103BB0003DFD38BBB4F82E02504523D194F83000B7
:103BC000E92805D0EB281DD194F83200902819D1AE
:103BD00094F8672094F8683094F86610120244F262
:103BE000461042EA0342C0F254001144814201D11E
:103BF0002F46DDE6D4F8821000F14C5081422F466A
:103C00003FF4D6AEB9F1000F32D00020E0704FF093
:103C1000FF30E0622046494600F008FD40BBB4F8A2
:103C20002E02504524D194F83000E92805D0EB2825
:103C30001ED194F8320090281AD194F8672094F895
:103C4000683094F86610120244F2461042EA0342C9
:103C5000C0F254001144814202D14F46A8E600BF91
:103C6000D4F8821000F14C5081424F463FF4A0AE90
:103C7000B8F1000F6CD00020E0704FF0FF30E06230
:103C80002046414600F0D2FC00281CBF0120BDE8C0
:103C9000F087B4F82E0250455AD194F83000E92844
:103CA00005D0EB2854D194F83200902850D194F8E4
:103CB000672094F8683094F86610120244F24610B7
:103CC00042EA0342C0F254001144814202D1474605
:103CD0006EE600BFD4F8821000F14C508142474696
:103CE0001CBF0D20BDE8F08762E600BF81B30CEB7E
:103CF0004C0302F0010707EB5303A2F6F672B2F58C
:103D0000704F38BF4FEA4C0303F2FF1205EB0E0170
:103D1000B0EB522F61623CBF0D20BDE8F0874FF041
:103D2000FF30C4E90300802020713088B168013081
:103D300084F800803080A142E08004BF0020B060A1
:103D4000B069A0424FF0000008BFB061BDE8F08745
:103D50000D20BDE8F08700002DE9F04F83B0D0F8CA
:103D6000008004460D4600E0043528785C2801D028
:103D70002F2814D168785C2801D02F280CD1A8787E
:103D80005C2801D02F2809D1E8785C28ECD02F28B6
:103D9000EAD0033503E000BF013500E00235002220
:103DA000A2602878202835D2802084F82F0098F847
:103DB000000062610328C0F0A982D8F8241000290D
:103DC00000F0A482B8F80A00D0B1D8F814308A1EE6
:103DD000023B9A4280F0BE82D8F8283002FB0030C5
:103DE0000028C4E9061040F09A82B6E20229C0F029
:103DF000B482D8F8140081424FF0020080F097821C
:103E0000206800F0DBFA01460130EFD1012003B059
:103E1000BDE8F08F04F12C0004F1240A08F1300C05
:103E200002904FF020304FF0050E4FF00009CAF815
:103E30000700CAF80400CAF800002878212827D211
:103E4000012704200026002E00F070829AF800104E
:103E5000E52908BF8AF800E02668B9F1000F84F868
:103E60002F00626100F0AE807089002800F06A8245
:103E70007369A9F10201023B994280F07F82B36A23
:103E800001FB00310029C4E9069140F0B08064E2F2
:103E90006B1C0026C7B22E2F00F04A812F2F00F096
:103EA00045815C2F00F04281082E00F0428141B232
:103EB000B1F1FF3F06DD6FF0210151FA80F15D297C
:103EC0000ED96DE044F63820C0F60000384410F8F2
:103ED000800C6FF0210151FA80F15D2900F26080C1
:103EE000DFE811F024025E005E005E005E005E000E
:103EF0005E005E002402240224025E005E005E007A
:103F00005E005E005E005E005E005E005E005E00C1
:103F10005E005E0024022402240224022402240201
:103F20005E005E005E005E005E005E005E005E00A1
:103F30005E005E005E005E005E005E005E005E0091
:103F40005E005E005E005E005E005E005E005E0081
:103F50005E005E005E0024025E0024025E005E00E1
:103F60005E005E005E005E005E005E005E005E0061
:103F70005E005E005E005E005E005E005E005E0051
:103F80005E005E005E005E005E005E005E005E0041
:103F90005E005E005E005E0024025E005E002402A1
:103FA000A0F16101C9B21A2938BF20380AF8060009
:103FB000985D711C21280E46BFF46CAF4F1C042085
:103FC00044E700BF3078032805D3D6F82490B9F130
:103FD000000F7FF449AF3089002800F0BE81716A7C
:103FE0004FF000090029C4E9069100F0B68106F1FE
:103FF000300020623046CDF804C000F017FB0028E6
:104000007FF404AF3D4411E03889B0EB591F40F212
:10401000A98100BF07EB0B00303020623046C4F8A6
:10402000149000F003FB00287FF4F0AE216A0878BA
:10403000002800F09981C87A00F03F02A271CA7A84
:10404000120737D40A789AF800309A4232D14A7867
:1040500094F825309A422DD18A7894F826309A42E5
:1040600028D1CA7894F827309A4223D10A7994F853
:1040700028309A421ED14A7994F829309A4219D1AF
:104080008A7994F82A309A4214D1CA7994F82B305C
:104090009A420FD1029B0A7A1B789A420AD14A7A35
:1040A00094F82D309A4205D1897A94F82E209142C5
:1040B00000F00A81E169002900F05681606900F191
:1040C00020094FF6FF70C0F21F00814500F24C81BD
:1040D000CB4627686FF35F2BBBF1000F9AD1A26923
:1040E0000131002AE1618FD078894FF6FF73C0F269
:1040F0001F03184400F5C00010EA592F7FF48AAF5F
:104100003846114600F05AF90228C0F02681411CB9
:104110003FF47CAE7969884280F024817989BA6A5B
:10412000831E03FB0121C4E9060173E7771CAEE09F
:104130002E20C0B22E2840F0F980A8194778212FF0
:1041400004D2B71C042008267DE600BFE34600F138
:10415000020C0023F8B22E2800F0E8802F2800F08F
:104160008F805C2800F08C80032B00F0DF8079B218
:10417000B1F1FF3F06DC44F63821C0F600010844E7
:1041800010F8807C6FF0210050FA87F15D2900F271
:1041900061800620DFE811F0CB005E005E005E006B
:1041A0005E005E005E005E00CB00CB00CB005E00D8
:1041B0005E005E005E005E005E005E005E005E000F
:1041C0005E005E005E005E00CB00CB00CB00CB004B
:1041D000CB00CB005E005E005E005E005E005E0015
:1041E0005E005E005E005E005E005E005E005E00DF
:1041F0005E005E005E005E005E005E005E005E00CF
:104200005E005E005E005E005E00CB005E00CB00E4
:104210005E005E005E005E005E005E005E005E00AE
:104220005E005E005E005E005E005E005E005E009E
:104230005E005E005E005E005E005E005E005E008E
:104240005E005E005E005E005E005E00CB005E0011
:104250005E00CB00A7F16100C0B21A2838BF203F32
:1042600002984FF0050EC7541CF803700133212F3C
:10427000BFF470AFF018871C0420DC46E6E500BFF1
:10428000F018871C03F10806DC4600E00437E85DFF
:104290005C2801D02F2814D1E81941785C2901D07D
:1042A0002F290BD181785C2901D02F2908D1C07822
:1042B0005C28EBD02F28E9D0033702E0013700E07B
:1042C00002370020BFE500BF94F82F10490729D41A
:1042D000C0065BD5606901996FF35F20084498F8C8
:1042E0000010B0F81A90032905D1017D407D090422
:1042F00041EA00608144DDF804C0C4F8089000225F
:104300004FF020304FF0050E91E500BFB8F80800DF
:1043100018B3D8F824000021C4E90610E8B108F168
:1043200030002062002003B0BDE8F08F062003B00B
:10433000BDE8F08FB9F1020F0FD3706981454FF0DE
:104340000200F4D22068494600F038F88146013076
:10435000F0D15BE50020C4E90610022003B0BDE8FF
:10436000F08F00BF0020E06194F82F0040074FF06D
:10437000040058BF052003B0BDE8F08F0020C4E959
:104380000690022003B0BDE8F08F00BF052003B007
:10439000BDE8F08F44F60001C4F200010A6852063D
:1043A00009D40A6852065CBF0A685FEA426202D416
:1043B0000A685206F2D5C2B24A607047F0B581B0C1
:1043C00002292DD342698A422AD90278032A39D098
:1043D000022A29D0012A23D1026A01EB51070C4697
:1043E00002EB5721054600F021F998BB2846016AE7
:1043F00030357E1C6FF35F27EF5D01EB562100F037
:1044000015F938BB6FF35F26A85DE20747EA002184
:1044100008466FF31F3018BF080901B0F0BD00BF98
:10442000012001B0F0BD00BF026A0C4602EB112171
:10443000054600F0FBF868B9E0B205EB4000008EDD
:1044400001B0F0BD026A0C4602EBD111054600F046
:10445000EDF818B14FF0FF3001B0F0BD04F07F006F
:1044600005EB800191F8323091F8300091F831205D
:1044700091F833101B0243EA0141114461F31B2000
:1044800001B0F0BD0020704790B0FCF7BFF8FEF718
:10449000B5F8FDF77BFBFDF7B3FBFDF7C3FBFDF7BD
:1044A00067FB40F2DC2044F6E221C2F20000C0F6D5
:1044B00000010122FEF7EAFB40F21006C2F20006FC
:1044C000307058B139A000F099FA44F6CC20C0F60B
:1044D000000000F093FA72B6FEE700BF40F2AC00B5
:1044E00044F6DB21C2F20000C0F600010A22FEF70A
:1044F00053FC307068BB3248009031A000F1140EBC
:104500009EE81050051D2ECD076A059400F1240485
:10451000406B0191029203931ECC0D900AA81CC01F
:104520006C4620460495CDE90871CDE906CEFBF72F
:104530008AFE40F2AC05C2F200050246331D284651
:104540002146FEF7DDFF2846FEF76AFB2AA000F0B1
:1045500055FA40F2AC0044F6DB21C2F20000C0F68E
:1045600000010122FEF718FC307018B126A000F0FF
:1045700045FA19E06C4620464021FBF759FE40F20F
:10458000AC05C2F2000506F1080328462146642264
:10459000FEF7D2FD2846FEF743FB1FA000F02EFADF
:1045A00021A0214600F0A0F9FEE700BFB9D2D4D87F
:1045B000CEC4BCFECFB5CDB3CAA7B0DC0D000000A1
:1045C00048656C6C6F2C2074686973206973206176
:1045D00020746573742066696C6520666F72205361
:1045E000442063617264207573696E67204641548C
:1045F00046532E0D0A000000CEC4BCFED0B4C8EB5A
:10460000B3C9B9A60D000000CEC4BCFEB4F2BFAA67
:10461000CAA7B0DC0D000000CEC4BCFEB6C1C8A164
:10462000B3C9B9A60D000000257300002DE9F041C3
:10463000C66A8E4204BF0020BDE8F0810446C078FF
:104640000D4610B3607804F130084146324601232C
:10465000FEF7D6FA01460120002918BFBDE8F08117
:10466000216AA269711A00209142E0700DD2A778E8
:10467000022F0AD3A16960780E44414632460123D5
:10468000FEF7BEFA013F012FF4D8607804F1300143
:104690002A460123FEF798FA00281CBF4FF0FF3589
:1046A0000120E562BDE8F0812DE9F04381B00229E7
:1046B00044D343698B4241D90378032B50D0022B5A
:1046C00040D0012B3AD11446026A01EB51070D4646
:1046D00002EB57210646FFF7A9FF002849D13046D3
:1046E00006F130097E1C6FF35F275FEAC57821462B
:1046F00006D019F80710224601F00F0164F30B11E0
:10470000026A09F807100121074607F8031F02EBA8
:104710005621FFF78BFF01460120002949D1B8F14E
:10472000000F6FF35F2647D119F80600C4F3032189
:1047300000F0F000084409F8060037E0022001B05C
:10474000BDE8F0831446026A0D4602EB11210646CD
:10475000FFF76CFF68B9E8B206EB4000048624E07E
:104760001446026A0D4602EBD1110646FFF75EFFC2
:1047700020B1012001B0BDE8F08300BF05F07F004B
:1047800006EB800090F8331004F0706201F0F00145
:1047900042EA0161220A80F83120220C090E80F8D9
:1047A000304080F8322080F83310F71C0120387038
:1047B000002001B0BDE8F083200909F80600F5E704
:1047C000F0B581B00446C07818B3E56A607804F1AA
:1047D000300631462A4601230127FEF711FA18B1A7
:1047E000384601B0F0BD00BF216AA269691A0020F5
:1047F0009142E0700DD2A778022F0AD3A1696078A8
:104800000D4431462A460123FEF7FAF9013F012FF4
:10481000F4D8207803282DD1207901282AD104F159
:1048200034004FF4FD71FBF703FD45F25220C4F252
:104830006110254645F8300F4AF65520A5F8FE01CF
:1048400047F27220C6F2411055E90921C5F8E4018A
:1048500055F8140CC5F8EC21421C15F82F0CC5F8BE
:10486000E8112946012345F8042CFEF7C9F9002078
:1048700005F82C0C607800210022FEF799F9074614
:10488000002818BF0127384601B0F0BDF0B581B04F
:104890000446C07818B3E56A607804F13006314602
:1048A0002A4601230127FEF7ABF918B1384601B0BB
:1048B000F0BD00BF206AA169281A00278842E7706E
:1048C000F4D2A778022F0AD3A16960780D4431464B
:1048D0002A460123FEF794F9013F012FF4D800275F
:1048E000384601B0F0BD00000FB4054B10B503A968
:1048F000044A029800F017F810BC5DF814FB0000A1
:10490000954300084C00002002E008C8121F08C1AF
:10491000002AFAD170477047002001E001C1121F40
:10492000002AFBD170472DE9F84F994692468846F8
:104930000546002706E025280AD051464A469047FA
:104940006D1C7F1C28780028F5D13846BDE8F88F0B
:10495000002315F8011F18462E2915D115F8011F3F
:1049600004232A290DD06FF02F022978A1F13004F9
:10497000092C09D800EB800002EB400008446D1CB4
:10498000F3E758F8040B6D1C2A78002ADDD0632A5F
:1049900007D0732A0FD0104651464A4690477F1CD5
:1049A0002AE018F8042B8DF8002000218DF8011062
:1049B0006E46012103E058F8046B4FF0FF315A07AF
:1049C0004FF0000401D409E0641C84420BDA8C42ED
:1049D000FADB325D002AF7D105E0641C8C42FCDB77
:1049E000305D0028F9D1274404E016F8010B514648
:1049F0004A469047641EF8D26D1CA3E710B50446E2
:104A000001E0FFF7C7FC14F8010B04490028F8D1B6
:104A1000BDE810400A20FFF7BDBC00004C0000209C
:104A2000000000000000000001020304060708095E
:104A30000000000001020304435545414141414348
:104A400045454549494941414592924F4F4F55553A
:104A5000594F554F9C4F9E9F41494F55A5A5A6A71D
:104A6000A8A9AAABACADAEAFB0B1B2B3B4414141AD
:104A7000B8B9BABBBCBDBEBFC0C1C2C3C4C5414149
:104A8000C8C9CACBCCCDCECFD1D14545454949497E
:104A900049D9DADBDCDD49DF4FE14F4F4F4FE6E824
:104AA000E85555555959EEEFF0F1F2F3F4F5F6F7F4
:104AB000F8F9FAFBFCFDFEFFE5240008AD2500082F
:104AC00089250008D12500081D2500084572726F50
:104AD000725F48616E646C65720D005344312E74D0
:104AE00078740000084B000800000020100000004F
:104AF00008490008184B000810000020D0090000E9
:104B0000184900080000000001000000100000002B
:084B1000010000000024F40084
:040000050800018965
:00000001FF
