:020000040800F2
:10000000980C002049020008F72400084124000849
:10001000F52400084B1100082530000800000000FE
:100020000000000000000000000000007B2F00081E
:100030004D11000800000000F92400087D2F000881
:1000400063020008630200086302000863020008FC
:1000500063020008630200086302000863020008EC
:1000600063020008630200086302000863020008DC
:1000700063020008630200086302000863020008CC
:1000800063020008630200086302000863020008BC
:1000900063020008630200086302000863020008AC
:1000A000630200086302000863020008630200089C
:1000B000630200086302000863020008630200088C
:1000C000630200086302000863020008630200087C
:1000D000630200086302000863020008630200086C
:1000E000630200086302000863020008630200085C
:1000F000630200086302000863020008630200084C
:10010000630200082D25000863020008630200084E
:10011000630200086302000863020008630200082B
:10012000630200086302000863020008630200081B
:10013000630200086302000863020008630200080B
:1001400063020008630200086302000863020008FB
:1001500063020008630200086302000863020008EB
:1001600063020008630200086302000863020008DB
:100170006302000863020008630200080000000038
:10018000630200086302000800F002F800F04CF877
:100190000AA090E8000C82448344AAF10107DA45E2
:1001A00001D100F041F8AFF2090EBAE80F0013F0E8
:1001B000010F18BFFB1A43F001031847DC4400008D
:1001C000FC440000103A24BF78C878C1FAD852071E
:1001D00024BF30C830C144BF04680C6070470000C1
:1001E0000023002400250026103A28BF78C1FBD840
:1001F000520728BF30C148BF0B607047752900F017
:100200002581732900F01282002070471FB504F089
:10021000D8F99DE8030000F033FD00F039FA1FBD66
:1002200010B500F09EFA10BD00F001FB1146FFF77B
:10023000EDFF03F025FF00F0F1FC03B4FFF7F0FF42
:1002400003BC00F08FFE00000948804709480047C2
:10025000FEE7FEE7FEE7FEE7FEE7FEE7FEE7FEE776
:10026000FEE7FEE704480549054A064B70470000D3
:10027000153000088901000898060020980C00201D
:10028000980800209808002053EA020C00F06980CA
:100290002DE9F04B4FF00006002B1FBFB3FA83F59A
:1002A00003FA05F424FA05F65E4012BF1643B2FACB
:1002B00082F502FA05F4C5F120051EBF22FA05FCFD
:1002C00044EA0C04203556EA044C4FEA144418BFA3
:1002D000641C4FF000084FF00009904271EB030CD2
:1002E00039D3002919BFB1FA81F701FA07F6B0FA3C
:1002F00080F700FA07F6C7F120071EBF20FA07FCB7
:1003000046EA0C062037B6FBF4FCA7EB0507103FC6
:1003100007F01F0BCBF120060CFA0BFB2CFA06F6AC
:1003200044BFB3460026202FA4BF5E464FF0000B0B
:100330005BEA060C08BF4FF0010B19EB0B09ABFB96
:10034000027C48EB0608C01B06FB02CC0BFB03CC6F
:1003500071EB0C01C1E70B46024641464846BDE839
:10036000F08B13B54FF000004FF00001AFF30080A9
:10037000BDE81C40704700000FB4044910B503AA43
:10038000029800F057F910BC5DF814FB90050020AE
:100390002DE9F0410E460446002020622046E16827
:1003A000884730B3252805D0D4E901219047206A39
:1003B000401CF2E7E168204600278847050018D076
:1003C000A5F14100192802D820354FF400673246C4
:1003D000294620462760FFF711FF40B1012804D0CD
:1003E000F61D26F007060836D8E7361DD6E728465C
:1003F000DAE7206ABDE8F08170B50C460546012AAF
:1004000005D02878800600D5EA69002302E00123A0
:1004100005E05B1C934202D2E05C0028F9D1A86998
:10042000E618C01AA861286A184428622846AFF363
:10043000008004E0D5E9012114F8010B9047B44293
:10044000F8D32846AFF3008070BD00002DE9F041DD
:100450000646002410687529314616A510D0AFF362
:100460000080002802DA404213A507E031688A07BD
:1004700001D512A502E0490704D511A5012401E028
:10048000AFF3008000210A2206F1240709E0B0FB47
:10049000F2FCB0FBF2F302FB1C003030785418463B
:1004A000491C0028F3D123462A463046BDE8F041D6
:1004B00000F051B8000000002D0000002B000000EB
:1004C0002000000010B5431C02E010F8011B71B1C0
:1004D0008107FAD14FF0013202C88C1A8C4314EA1A
:1004E000C211F9D0C01A0A0603D0C01E10BDC01A2E
:1004F00010BD0A0401D0801E10BD0902FCD0401EB0
:1005000010BD4FF0000200B51346944696462039C0
:1005100022BFA0E80C50A0E80C50B1F12001BFF4BC
:10052000F7AF090728BFA0E80C5048BF0CC05DF822
:1005300004EB890028BF40F8042B08BF704748BF70
:1005400020F8022B11F0804F18BF00F8012B7047E4
:100550007047704770472DE9F0470D46994692461F
:10056000044600F124080168880604D5E06921F0FA
:100570001001216000E00120A84201DD471B00E0DE
:100580000027A1697A1902EB0900081AA0612078F6
:10059000C00602D42046AFF30080002608E0D4E96C
:1005A00001211AF806009047206A401C761C206240
:1005B0004E45F4DB2078C0060AD52046AFF3008014
:1005C00006E0D4E9012130209047206A401C2062D7
:1005D000381EA7F10107F4DC07E0D4E9012118F87F
:1005E00005009047206A401C2062281EA5F10105E5
:1005F000F3DC2046AFF300802078000602D502200D
:10060000BDE8F0870120FBE710B5436913B1AFF3F4
:10061000008001E0FFF7F0FE012010BD127800F12C
:1006200024010A7000224A700122EDE711684FF0A0
:10063000FF32E9E7074B70B50D467B4400F011F837
:100640000446284600F020F810B14FF0FF3070BD8E
:10065000204670BD6338000001694A1C02610878B9
:10066000704700B58FB0CDE90131002105910549F2
:100670007944CDE9031011466846FFF789FE0FB0B3
:1006800000BD0000E5FFFFFF007B00F08000704729
:1006900010B542485421FFF734FF41485421FFF779
:1006A00030FF40485421FFF72CFF3F493B483C4A6C
:1006B0003F4B08603D490A603A491960531C036585
:1006C000481C1065012008653B48344A39A178442C
:1006D00000F008FA20B9384878440A3800F0A7FA40
:1006E00037482F4A35A1784400F0FCF920B9344846
:1006F00078440A3800F09BFA32482A4A2FA17844FD
:1007000000F0F0F920B92F4878440A3800F08FFA49
:1007100040232248DC000021224600F0BFF920B12E
:1007200025487844543800F082FA1D482246402378
:10073000002100F0B3F920B121487844543800F08A
:1007400076FA184822461023002100F0A7F9002865
:1007500006D01C487844BDE81040563800F067BA0F
:1007600010BD104870B5006D20F001040B4800F07A
:100770002FFA0B4800F02CFA0A4800F029FA09E099
:10078000206D20F00105204600F022FA204600F0FE
:1007900073F82C46002CF3D170BD00003C050020FE
:1007A00090050020E4050020200000202400002007
:1007B0002800002072000000BA3F0000770000000F
:1007C000A63F0000923F00000EB5CDE90001FFF703
:1007D00079FE029069460120ABBE0EBD08B56946A0
:1007E00000900220ABBE08BD1FB58DE8070069462A
:1007F0000520ABBE04B010BD1FB58DE80F006946E3
:100800000620ABBEF6E708B5694600900920ABBEEE
:1008100008BD1CB5CDE9000169460A20ABBE1CBD70
:10082000704708B5694600900C20ABBE08BD754600
:1008300000F004FAAE4605006946534620F0070072
:10084000854618B020B5FFF70DFDBDE820404FF0FC
:1008500000064FF000074FF000084FF0000B21F0AA
:100860000701AC46ACE8C009ACE8C009ACE8C00977
:10087000ACE8C0098D46704770B50446051F00F00E
:10088000E3F90068002C14BF446870BD002C18BF49
:10089000AC423CBF20466468F8D301680A18AA42FB
:1008A00018BF456003D12A680546114401602868D5
:1008B0004119A1421CBF6C6070BD6168696021680C
:1008C0000844286070BD2DE9F04705460C46C8680D
:1008D00020F4201040F48000C860800602D508464D
:1008E00000F0FFFAE06841F282014FF0FF39014069
:1008F000022903D0204600F09DFAB5E000F4204123
:10090000B1F5004F0FD1C00306D56168E06A884297
:1009100000D80846606006E02069E06260606069B7
:10092000FFF77FFFA061A0680022EEB200280DDA79
:10093000E1688B050AD4C043A06041F49030226086
:10094000E0606068411C61600670A5E0E068904668
:10095000226040F40050E060206968BB6069FFF7E6
:1009600052FF012704F12405A0B1A08910F4407FB3
:1009700008D0E06900F0B3F9206118B1E06840F4F4
:10098000006016E0E7612561E06820F4407040F403
:1009900080600EE0E06900F0A2F900282061F1D04B
:1009A000E06840F4006010F4407FE06002D140F461
:1009B0008070E06020696060E06825696FF0010A7E
:1009C000C1051FD56168E06A884200D80846411B0E
:1009D00004D02246284600F037FAF0BBE068010256
:1009E00003D5E562C4E9015854E0691CE162616025
:1009F000E16940F48030491EC4E9021030462E708F
:100A0000BDE8F087010202D500F480320AE0606898
:100A1000411C61600670E0680A2E40F48030E0609E
:100A200006D00022E16A6068814203D90B4602E0E9
:100A30000122F7E70346A7895B1B7F0503D4E7691B
:100A40009F4200DDE2B1814200D80146E5620F1A03
:100A5000C4E90158002B09DD00E005E022461946F3
:100A6000284600F0F1F908B14846C9E747B1A06946
:100A7000E5626560C01BA061E06840F01000E060C6
:100A8000E068000208D56168A069E562491B084476
:100A90006560A0615046B3E73046B1E770B5C46801
:100AA000A50713D0650211D4B2F5807F09D0B2F545
:100AB000007F06D0B2F5806F08D1012300F1240138
:100AC00006E05D1E6FF07F46B54201D3012070BD88
:100AD0000161C361416024F470611143C160002071
:100AE00070BD00002DE9F0410C4607461646104641
:100AF00000F06EF82078611C61280AD0722802D0BC
:100B000077283CD102E00125002405E002250424D9
:100B100002E0082448F2020511F8010B2B2806D048
:100B2000622809D011F8010C74280AD00BE045F0B6
:100B3000030544F00204EFE745F0040544F0010426
:100B4000EAE744F0100438462146FFF73DFE411C19
:100B500015D00021316171604FF40071F560F161D1
:100B60007061200704D530460222002100F0E6F82B
:100B7000306D40F0010030653046BDE8F081002066
:100B8000FBE72DE9F0410D460646104C206DC107EC
:100B900004D0410804D020F00104F7E722460EE01B
:100BA000542000F09CF807000ED0206D47F00101A2
:100BB0000843542120653846FFF7A3FC3A462946EE
:100BC0003046BDE8F0418DE70020D6E73C05002027
:100BD0002DE9F04704464FF000094FF0FF37C56894
:100BE000D4E90486A80707D0204600F057F930461C
:100BF000FFF7F4FD002802DA3846BDE8F087280543
:100C000002D54046FFF738FE4C212046FFF779FC1D
:100C1000206D20F0010020654846EEE710B504463F
:100C2000AFF300802046BDE81040FFF706BB10B5CB
:100C300000F07EF9BDE8104000F074B9004870473C
:100C4000380600207047000000487047400600202A
:100C5000704770477047704738B504460A46002011
:100C60006946AFF30080002808BF38BD02460099EE
:100C7000204600F084F9012038BD012000F0D3B9EE
:100C8000F8B5AFF30080054600200C46102000BFE9
:100C90000646A819A0420DD9324669460020AFF396
:100CA0000080070008BF00F0BEF90098A04218BFFE
:100CB0000546C419FFF7C8FF05600746F01D20F080
:100CC00007004619284600F053F9B44208BFF8BDA2
:100CD000A21B31463868BDE8F84000F050B970B545
:100CE0000646FFF7B1FF056806F10B0020F0070488
:100CF000B4429CBF002070BD2B466A68BAB1106830
:100D0000A04210D304F1080188423CBF50685860EB
:100D100007D35168101941601168091B01605860C0
:100D20001460101D70BD13465268002AE7D1214699
:100D30002846FFF791FF0028DED170BD2DE9F04174
:100D4000044616460D464769007B80072ED038467C
:100D5000FFF759FD50BB3EB3012E02D0022E25D124
:100D600004E0204600F025F905441DE03846FFF771
:100D700058FDE168002841F01001E16005DA2046E5
:100D800000F058F80120BDE8F081C9030BD5626876
:100D9000E16A914200D81146A26911442269891A78
:100DA000814200DD08460544002D01DA0220EAE711
:100DB000E16A6068E268814206D29103E06203D58D
:100DC00022F4003141F01002A6690027AE4213DC84
:100DD000E16A814201D90B4600E0034603EB060CB1
:100DE0002369ACEB030CAC4506DD814201D98C468E
:100DF00000E084469C4505D1A760276042F02000B2
:100E0000A5620DE0AD1BE669AE1B8142A66000D96C
:100E10000846C01A281A20605819606022F0200085
:100E200003490840E060002084F84870ABE7000008
:100E3000BFCFD7FFC16821F4001141F08001C1602C
:100E400000218160016070472DE9F047814614461A
:100E50000E464FF0FF383248D5685769054209D031
:100E60003846A169FFF7D5FC002811DB2C48C043A8
:100E70000540E5602B46324649463846FFF7B4FC4C
:100E8000A16920F00042B21A11440028A16103D0E8
:100E90002046FFF7CFFF4046BDE8F08770B5044617
:100EA0000569C06A6168884200D80846E16821F493
:100EB0002011E160C90312D5A84208D02246411B87
:100EC0002846FFF7C1FF10B14FF0FF3070BD002082
:100ED000E562C4E90150E06820F48030E060002061
:100EE00070BD10B50446C06820F02000E060A16A23
:100EF000A06988420DD02046FFF7D0FFE06820F4BB
:100F0000405040F01000E060A06AA0612069E062FB
:100F1000606044F24001E0688843E06010BD00007A
:100F200010000200002801D000F01CB8704700003B
:100F300010B5014602A000F05DF8012010BD0000D0
:100F400053494752545245443A2052656469726588
:100F500063743A2063616E2774206F70656E3A2067
:100F60000000000001491820ABBEFEE72600020089
:100F700000210160C0E9011070471020704703464E
:100F800040688C46002818BF88423CBF0346406832
:100F9000F8D318681844884207D00CF1030020F0F9
:100FA0000700001D411A521A0146081D0A60FFF78A
:100FB00063BC10B50146C268900703D0900607D500
:100FC000886A0AE000F03EF801210160881E10BD29
:100FD0008B69486818440B69C01A91F848301BB1F6
:100FE00091F84910401A10BD1103FCD50028FADD14
:100FF000401E10BD70B505460C460A2000E06D1C71
:1010000000F018F835B128780028F8D102E0641C07
:1010100000F010F814B120780028F8D1BDE8704035
:101020000A2000F007B810B500F010F8BDE8104035
:10103000FFF778BF08B569468DF800000320ABBE06
:1010400008BD0000004870473806002010B5012890
:1010500005D0002103A0FFF7CDFF012010BD09A19D
:10106000F8E7000053494752544D454D3A204F751B
:1010700074206F662068656170206D656D6F727990
:10108000000000003A2048656170206D656D6F7248
:101090007920636F72727570746564007047000028
:1010A0000146014800F012BE2C00002010B5044893
:1010B00000F01EFE042801D0012010BD002010BD4C
:1010C0002C00002010B500F015F8012801D00120F7
:1010D00010BD074800F026FF040006D14FF4006160
:1010E000034800F099FC00B10124204610BD000027
:1010F0002C00002008B501208DF800009DF80000AC
:1011000008BD000038B50024009313460A46014686
:10111000034800F0B1FF00B10124204638BD0000B3
:101120002C0000207047000038B5002400931346BF
:101130000A460146034801F097F800B10124204611
:1011400038BD00002C0000207047FEE770470022E9
:10115000AFF3008030B50E4B054601205C7A002CC1
:1011600014D1587A1C54587A03EB800045605D7A9C
:1011700003F108002A54587A421C5A723030087021
:101180003A2048702F208870CC70002030BD0000BD
:101190003005002090F83510022903D080214165E8
:1011A00001207047052180F835100068016821F0A2
:1011B000010101600020704770B5044600F006F997
:1011C0000546601C02D004480078044400F0FEF894
:1011D000401BA042FAD370BD080000202DE9F84F53
:1011E000DFF8BCA10022012503264FF00F090AF108
:1011F000040BAAF1040E00BF0B6805FA02F42340A9
:10120000A34270D10F7907F00307012F01D0022FFD
:1012100016D187684FEA420806FA08FC27EA0C074D
:10122000D1F80CC00CFA08FC4CEA070CC0F808C056
:101230004768A7430C79C4F3001494403C434460CE
:101240000C79E443A4070AD0C4684FEA420C06FABA
:101250000CF7BC438F6807FA0CF72743C7600C797B
:1012600004F00304022C12D1D40800EB840CDCF847
:1012700020405707FF0E09FA07F824EA0804D1F8BE
:10128000108008FA07F848EA0408CCF820800468BF
:101290004FEA420C06FA0CF7BC430F7907F003073C
:1012A00007FA0CF7274307604C6814F4403F70D0EE
:1012B0003C4C276847F480472760246822F00307E6
:1012C00004F480440094384C07EB040CDCF8084824
:1012D00097074FEA177809FA08F7BC43334FB8422B
:1012E00002D1002724E054E0314FB84201D1012758
:1012F0001EE0304FB84201D1022719E02E4FB8420C
:1013000001D1032714E02D4FB84201D104270FE08B
:101310002B4FB84201D105270AE02A4FB84201D12C
:10132000062705E0284FB84201D1072700E008272B
:1013300007FA08F72743CCF80878DAF80040574650
:10134000D1F804C09C435FEACC2C00D51C433C6020
:10135000DBF800405F46D1F804C09C435FEA8C2C68
:1013600000D51C433C60DEF800407746D1F804C04D
:101370009C435FEA8C3C00D51C433C60084F083F0F
:101380003C68D1F804C09C435FEACC3C00D51C43C8
:101390003C60521C102AFFF42FAFBDE8F88F00000C
:1013A000083C014044380240003001400000024047
:1013B0000004024000080240000C024000100240FD
:1013C0000014024000180240001C024001488068DE
:1013D000704700000800002002488168027811442C
:1013E00081607047080000200B4810B5016841F487
:1013F00000710160016841F480610160016841F49D
:1014000080710160032000F06FF80F2000F006F8F3
:1014100000F024F8002010BD003C024070B50D4DD6
:1014200004464FF47A712878B1FBF0F00A49096854
:10143000B1FBF0F000F0F0FF48B9102C07D2002209
:101440002146501E00F030F800206C6070BD012075
:1014500070BD000008000020140000200A4808B5F4
:10146000016841F480410160006800F48040009010
:101470000548001F016841F080510160006800F0DC
:101480008050009008BD000044380240002809DB6D
:1014900000F01F02012191404009800000F1E0208E
:1014A000C0F8001170470000F0B40E4B1B680C46EA
:1014B000C3F30223C3F10705042D00D90425191D28
:1014C000072901D2002300E0DB1E012606FA05F100
:1014D000491E214099409E40761E16403143F0BC83
:1014E00001F0A1BD0CED00E0064900F0070208681C
:1014F0004FF6FF03184040EA0220034A10430860F9
:10150000704700000CED00E00000FA052DE9F047FF
:101510000E46050065D0DFF81481D8F80000F7B258
:1015200000F00700B04207D288F80070D8F8000039
:1015300000F00700B04254D128683D4C810712D515
:10154000400703D5206840F4E05020602878000769
:1015500003D5206840F4604020602068A96820F02E
:10156000F000084320602878C0072DD03049686813
:101570000839012812D0022813D0032811D0096895
:10158000890700292DDA216821F003010143216038
:10159000FFF71CFF814641F2883A0EE00968890393
:1015A000EFE709688901ECE7FFF710FFA0EB0901FD
:1015B000514502D90320BDE8F0872068696800F032
:1015C0000C00B0EB810FEFD1D8F80010404601F0CD
:1015D0000701B14207D90770006800F00700B04268
:1015E00001D00120E7E72878400705D52068E968A1
:1015F00020F4E050084320602878000706D52068D2
:10160000296920F4604040EAC100206000F018F829
:101610002168084AC1F30311515CC84006490860BB
:1016200006480068FFF7FAFE0020C4E7003C0240CD
:1016300008380240E0450008140000200C0000209B
:10164000154810B5006810F00C02144813D0144966
:10165000042A0FD0082A0ED10F4C241F22682368B9
:1016600002F03F025B0207D52068C0F38810A0FBA0
:10167000010106E0084610BD2168C1F38811A1FBF5
:1016800000010023FEF700FE2168C1F30141491C5F
:101690004900B0FBF1F010BD083802400024F4000E
:1016A00040787D012DE9F84F04006ED02078DFF8F6
:1016B0004C93C007A9F104054AD009F10400016860
:1016C000C1F38101012908D00068C0F3810002281C
:1016D0000AD1D9F80000400206D52868800337D522
:1016E00060680028E1D033E06068B0F5803F10D03A
:1016F000B0F5A02F286810D020F48030286028682A
:1017000020F4802028606068A8B1FFF75FFE0646DD
:101710000DE0286840F48030F4E740F48020286031
:10172000F7E700BFFFF752FE801B642873D82868D4
:101730008003F7D50CE0FFF749FE064605E000BF41
:10174000FFF744FE801B6428F0D828688003F7D494
:101750002078DFF8AC8280074FF0000A3ED5A7481A
:10176000001D016811F00C0F08D00068C0F3810063
:1017700002280BD1D9F80000400207D4286880075E
:1017800016D5E068012800D112E033E1E068B8B175
:101790000120C8F80000FFF719FE064605E000BF6B
:1017A000FFF714FE801B0228C0D828688007F7D5F1
:1017B0002868216920F0F80040EAC10028600DE0A7
:1017C000C8F800A0FFF702FE064604E0FFF7FEFDA2
:1017D000801B02281FD828688007F7D420780007CC
:1017E00022D5864F87486169703771B10121016048
:1017F000FFF7ECFD064604E0FFF7E8FD801B02283A
:1018000009D838688007F7D50EE0C0F800A0FFF7C8
:10181000DDFD064605E082E0FFF7D8FD801B0228CB
:101820007DD838688007F7D42078400768D5DFF87E
:10183000CCB100270BF13C0BDBF80000C0000BD44F
:10184000DBF8001041F08051CBF80010DBF800000D
:10185000012700F0805000906B4E3068C00510D416
:10186000306840F480703060FFF7B0FD009005E014
:10187000FFF7ACFD0099401A022850D83068C00527
:10188000F6D55E4EA0686C3601280FD0052830686A
:1018900010D020F001003060306820F0040030608B
:1018A000A068B8B1FFF792FD00900FE0306840F0FB
:1018B0000100F4E740F004003060F7E7FFF786FD31
:1018C0000099411A41F28830814266D83068800719
:1018D000F4D50EE0FFF77AFD009007E0FFF776FD04
:1018E0000099411A41F28830814256D83068800709
:1018F000F4D42FB1DBF8001021F08051CBF80010A8
:10190000A069C8B33D49091D0968C1F381010229D5
:101910004AD00228504607D0C8F8600000E03CE0FA
:10192000FFF754FD04463BE04746C8F86000FFF768
:101930004DFD064605E000BFFFF748FD801B02286D
:101940002BD828688001F7D4D4E907010843A16A9D
:101950002E4A490802EB0141626A41EA82110843BA
:1019600094F82C1040EA0161C9F800100120386693
:10197000FFF72CFD044606E03EE000BFFFF726FD22
:10198000001B022809D828688001F7D534E000BF81
:10199000FFF71CFD001B022802D90320BDE8F88FC9
:1019A00028688001F4D427E00128F7D0D9F8000096
:1019B000E26900F4800191421CD1226A00F03F01EB
:1019C000914217D147F6C071626A0140B1EB821FA4
:1019D00010D1A26A4FF0FF3300F4403103EB520202
:1019E000B1EB024F06D194F82C1000F07060B0EB10
:1019F000016F01D00120D1E70020CFE70438024079
:101A000000004742800E4742007000400000FFFF88
:101A100010B5FFF743FB10BD2DE9FE430446002639
:101A200003200D4684F83400606C03285ED0B5F5C1
:101A3000805F5BD04FF4006700204FF08068BD42AC
:101A40001FD18146009001900021206800F06BFDBD
:101A5000800113D46946204601F0ECF807000DD14F
:101A60000198400334D5B4F850000104206800F018
:101A700091FD070002D10221206823E0A06B3843CA
:101A800028E01DB1A06B40F0006023E0814600908B
:101A900001900021206800F046FD8001EED46946E7
:101AA000204601F0C7F80700E8D10198C0030FD520
:101AB000B4F850000104206800F06CFD0700DDD18F
:101AC0000021206800F0B3FD0700D7D14F46D5E7CD
:101AD0004746D3E7A063A06B144F4FF0010848B10D
:101AE0002068876384F8348001260EE0A06B40F004
:101AF0008050EFE7211DD4E9050C0EC9CDE9005057
:101B0000CDF808C0206800F017FD4FF40071206880
:101B100000F074FD28B121688F63A16B0143A163BC
:101B2000012684F834803046BDE8FE83FF0540007E
:101B300070470000F0B5426E920F0A70426EC2F319
:101B400083624A70426EC2F301628A70426E120C66
:101B5000CA70B0F86420120A0A7190F864204A71C1
:101B6000826E120DCA80826EC2F303420A72B0F80E
:101B70006820C2F3C0324A72B0F86820C2F38032E3
:101B80008A72B0F86820C2F34032CA72B0F8682096
:101B9000C2F300320A7300264E73426C4FF4007594
:101BA000012462B1012A3AD0026847499163816BEE
:101BB00041F08051816380F834400120F0BDB0F8DD
:101BC0006820C36E9205120D42EA93720A61C26EDA
:101BD000C2F3C2620A75C26EC2F302624A75C26E75
:101BE000C2F342528A75C26EC2F38242CA75C26E95
:101BF000C2F3C2320A760A69521C42650B7E03F0B8
:101C000007039B1C9A4042650B7A03F00F0704FA06
:101C100007F383655B0A5A43C0E917250EE090F885
:101C20006820C36E9206920A42EA13420A610A6968
:101C3000521C92024265C0E91652056630F86C2FBC
:101C4000C2F3803201F8192F0288C2F3C6124A701B
:101C5000027802F07F028A704268D20FCA7042682E
:101C6000C2F341720A714268C2F382624A714268E9
:101C7000C2F383528A714268C2F34052CA710E7233
:101C80004268C2F300424A728288C2F3C0328A724A
:101C90008288C2F38032CA728288C2F340320A73E9
:101CA0008288C2F300324A738288C2F381228A7327
:101CB0008288C2F30122CA730079C0F34600087417
:101CC0004C740020F0BD0000FF054000426C0A602B
:101CD000826C4A60C26C8A60026DCA60426D0A61A1
:101CE000826D4A61C26D8A61006EC86100207047D2
:101CF00070B50446B0F8500000250104206800F0DB
:101D00007EFD18B1A16B0143A16304E000212068AE
:101D100000F009FC0546C5F3432070BDF8B5056B1E
:101D200004460068416B09041BD5290719D5D4E97D
:101D30000A56002E14D00027206800F013FC05F886
:101D4000010B010A05F8011B010C05F8021B000E2E
:101D5000361F7F1C05F8010C082FEDD3C4E90A5685
:101D6000F8BD416B4FF00006C9054FF0010744D59F
:101D7000390281632068C16B4CF23A329143C163EE
:101D80002068C16A21F00101C16228071DD515F044
:101D9000220F09D0206800F063FD28B1A16B014338
:101DA000A1632046FFF7C4FE216840F23A508863E1
:101DB00084F834702663A80703D0204600F04CFA5C
:101DC000F8BD204600F04CFAF8BD2806FCD5A80660
:101DD00009D5206800F044FD28B1A16B0143A1633F
:101DE0002046FFF7A5FEA807EED12068C16A21F0C2
:101DF0000801C16284F83470E3E7416B490424D5DB
:101E0000290722D5D4E90856002EDDD05FF000075F
:101E100015F8010B009015F8011B361F40EA012050
:101E2000009015F8021B40EA0140009015F8011CD3
:101E300040EA016000906946206800F0A6FB7F1C24
:101E4000082FE5D3C4E90856F8BD416B40F23A22A9
:101E50001142F9D0416B890703D5A16B41F0020112
:101E6000A163416B090703D5A16B41F00801A16390
:101E7000416B890603D5A16B41F02001A163416B41
:101E8000C90603D5A16B41F01001A163416B89051F
:101E900003D5A16B41F00801A16340F23A7181635F
:101EA0002068C16B40F23A329143C163206800F070
:101EB000D7FCA16B0843A063280706D584F83470CB
:101EC00026632046FFF734FEF8BD2806FCD515F042
:101ED000300F0CD0E16B11480865E06BFFF75AF941
:101EE0000028F1D0E06BBDE8F84000F081BEA80703
:101EF0000CD0216C0A480865206CFFF74BF90028CC
:101F0000E2D0206CBDE8F84000F050BEA66384F833
:101F1000347026632046FFF77BFDF8BDF12B0008E7
:101F2000AD2B000870B504000ED094F834000025E5
:101F300018B92577204600F04DF8032084F83400C6
:101F4000204600F00BF808B1012070BDA5632563A1
:101F5000012084F83400002070BD0000FEB500258B
:101F6000044676200095CDE901502B462A462946A5
:101F7000206800F0E1FA154E46F8A05F206800F0F6
:101F8000EDFA012535600220FFF716F9204600F032
:101F900039FF28B184F83450A16B0143A16313E0E9
:101FA000204600F0B7FE0028F4D14FF400712068FD
:101FB00000F024FB002808D0226805499163A16B3A
:101FC0000143A16384F834500120FEBD0080254206
:101FD000FF054000F0B587B0044614216846FEF7BF
:101FE00090FA2149206888423BD1204800240168AA
:101FF00041F400610160006800F4006005901B4836
:102000001438016841F004010160016801F0040125
:102010000591016841F0080101600068022500F0A7
:10202000080005904FF4F850CDE9000502AA0326F8
:102030000C2782E8D00069460D48FFF7CFF804204E
:10204000CDE9000502AA694682E8D0000948FFF7F9
:10205000C5F8002211463120FFF726FA3120FFF79C
:1020600015FA07B0F0BD0000002C014044380240D2
:1020700000080240000C02402DE9F04F87B09B465B
:1020800016460D460446FFF7A1F900903DB194F8BD
:102090003400012807D0A06B40F000500DE0A06B89
:1020A00040F0006009E00020A063E26D06EB0B0148
:1020B000914204D9A06B40F00070A0638AE0032134
:1020C00084F834102168C862616C012900D076025E
:1020D0004FF0FF3101914FEA4B2102914FF001087F
:1020E00003AA902102278146CDF8188082E8820257
:1020F00001A9206800F001FABBF1010F05D927639F
:102100003146206800F0ECFA05E0C4F83080314632
:10211000206800F0FEFADFF83CA130B12268C2F876
:1021200038A0A16B0143A16350E0029E1FE0406B09
:10213000000413D596B10027206800F013FA05F8C3
:10214000010B010A05F8011B010C05F8021B000E2A
:10215000361F7F1C05F8010C082FEDD3FFF736F969
:1021600001460098091A1098814220D2F8B12068DF
:10217000426B40F22A310A42D9D0416BC90509D5D8
:10218000BBF1010F06D9616C032903D000F068FB95
:102190000028C3D12068416B090702D4416B89052F
:1021A0001AD5C0F838A0A06B40F0080050E02168B4
:1021B000C1F838A0A06B40F00040A06384F83480E0
:1021C000C4F83090032007B0BDE8F08F84F8348065
:1021D000C4F830900120F6E7416B890705D5C0F8B7
:1021E00038A0A06B40F0020032E0416B89061BD59D
:1021F000C0F838A0A06B40F0200029E000F0B2F950
:1022000005F8010B010A05F8011B010C05F8021B7A
:10221000000E05F8010C361FFFF7D8F80099411A97
:10222000109881420ED268B12068416B890201D5B5
:10223000002EE3D1216840F23A50886384F834805C
:102240000020C0E72168C1F838A0A06B40F0004032
:10225000A063BBE7FF05400010B5FEF763FF10BDAC
:1022600010B5FEF771FF10BD2DE9F04F8DB09B4604
:1022700016460D460446FFF7A9F80A903DB194F8BA
:102280003400012807D0A06B40F000500DE0A06B97
:1022900040F0006009E00020A063E26D06EB0B0156
:1022A000914204D9A06B40F00070A0637AE0032152
:1022B00084F834102168C862616C012900D076026C
:1022C0004FF0FF3103914FEA4B2104919021CDE96A
:1022D00005104FF00109CDE90709824603A92068DE
:1022E00000F00BF9BBF1010F06D920202063314625
:1022F000206800F0CFFA05E0102020633146206806
:1023000000F0E1FA5FEA000806D0216841488863DE
:10231000A06B40EA080074E0049E27E0406B400494
:102320001CD5DEB15FF0000715F8010B009015F821
:10233000011B361F40EA0120009015F8021B40EAFD
:102340000140009015F8011C40EA016000906946C8
:10235000206800F01AF97F1C082FE5D3FFF736F844
:102360000A99411A1698814220D2F8B12068416B2F
:1023700040F21A321142D1D0416BC90523D5BBF1CD
:10238000010F20D9616C03291DD000F069FAD0B18A
:10239000226820499163A16B0143A16384F83490C2
:1023A000C4F830A001200DB0BDE8F08F21681948B5
:1023B0008863A06B40EA0800A06384F83490C4F8F6
:1023C00030A00320EFE72068416B090702D4416B7E
:1023D000890505D50F498163A06B40F0080010E026
:1023E000416B890705D50B498163A06B40F0020062
:1023F00007E0416BC90606D506498163A06B40F032
:102400001000A063CAE740F23A51816384F8349027
:102410000020C8E7FF05400010B5401EB0F1807FE6
:1024200001D3012010BD4FF0E02460610F2160173F
:1024300000F0F9FD0020A06107202061002010BD00
:10244000FEE7000010B504490448FEF780FE02498B
:10245000491E087010BD000003000020CC45000894
:10246000114808B5016841F004010160016801F0FC
:1024700004010091016841F080010160016801F0F0
:1024800080010091016841F001010160016801F0E3
:1024900001010091016841F008010160006800F04D
:1024A0000800009008BD00003038024070B50F48A9
:1024B0000D490022C0E900128260CD140621C260DD
:1024C000C0E905210261FFF72DFD094C08B101208B
:1024D000207029460548FFF79FFA002802D020788F
:1024E000401C207070BD0000002C01402C0000201A
:1024F00000000020FEE7FEE770470A6842624A6873
:102500008262D1E902231A43D1E904310B43C16A43
:102510001A4321F0F7011143C1620020704700689F
:1025200000F0030070470844406970470148FFF716
:10253000F5BB00002C00002070B50DF1100C11430C
:102540009CE870002343194329434268314347F60E
:10255000FF639A430A434260002070BD032101607B
:1025600000207047D0F8800070470A688260D1E987
:1025700001231A43D1E903310B43C1681A436FF3B6
:102580000B011143C160002070470968C0F880103A
:102590000020704710B585B004463720CDE9001003
:1025A00040200290002003904FF480600490694620
:1025B0002046FFF7DAFF41F288323721204600F04B
:1025C0009BF905B010BD000010B504460A4885B05F
:1025D00001432920CDE90010402002900020039003
:1025E0004FF48060049069462046FFF7BEFF204606
:1025F00000F03AFA05B010BD0000108010B585B0AB
:1026000004461020CDE900104020029000200390E5
:102610004FF48060049069462046FFF7A6FF41F220
:1026200088321021204600F067F905B010BD10B5C2
:1026300085B004460620CDE900104020029000201D
:1026400003904FF48060049069462046FFF78DFFA9
:1026500041F288320621204600F04EF905B010BD47
:1026600030B585B000240546009401944FF4806095
:102670000294CDE9034069462846FFF776FF0B48F0
:102680004FF4FA510068B0FBF1F041F28831484351
:10269000401E03D24FF0004005B030BD696B090603
:1026A000F6D5C520A8632046F6E7000014000020F8
:1026B00010B585B004464FF4D57000900820019005
:1026C00040200290002003904FF4806004906946FF
:1026D0002046FFF74AFF204600F02CFA05B010BD57
:1026E00010B585B004461220CDE9001040200290BC
:1026F000002003904FF48060049069462046FFF765
:1027000034FF41F288321221204600F0F5F805B07E
:1027100010BD10B585B004461120CDE90010402051
:102720000290002003904FF4806004906946204698
:10273000FFF71BFF41F288321121204600F0DCF840
:1027400005B010BD10B585B004460720CDE90020C6
:1027500040200290002003904FF48060049069466E
:102760002046FFF702FF41F288320721204600F0A1
:10277000C3F805B010BD10B585B004460021022095
:10278000CDE90010C020CDE902014FF48060049033
:1027900069462046FFF7E9FE204600F03DF905B006
:1027A00010BD10B585B004460920CDE90010C02049
:1027B0000290002003904FF4806004906946204608
:1027C000FFF7D3FE204600F027F905B010BD10B585
:1027D00085B0044600213320CDE900104020CDE92A
:1027E00002010001049069462046FFF7BEFE41F257
:1027F00088323321204600F07FF805B010BD10B5B7
:1028000085B004460D20CDE9001040200290002044
:1028100003904FF48060049069462046FFF7A5FEC0
:1028200041F288320D21204600F066F805B010BD57
:1028300030B585B00C46054600210320CDE90010D7
:102840004020CDE902010001049069462846FFF7C7
:102850008CFE22460321284600F028F905B030BD41
:1028600010B585B0044600210C20CDE900104020B1
:10287000CDE902010001049069462046FFF775FE8C
:10288000034A0C21204600F037F805B010BD0000C7
:1028900000E1F50510B585B004461920CDE900101A
:1028A00040200290002003904FF48060049069461D
:1028B0002046FFF75AFE41F288321921204600F0E7
:1028C0001BF805B010BD10B585B004461820CDE941
:1028D000001040200290002003904FF4806004908C
:1028E00069462046FFF741FE41F288321821204612
:1028F00000F002F805B010BD454B10B51B684FF451
:10290000FA54B3FBF4F353435B1E02D24FF0004082
:1029100010BD426B12F0450FF6D01205F4D4426B95
:10292000520703D504218163084610BD426BD207CC
:1029300002D00121816305E0C52282630269D2B21F
:102940008A4201D0012010BD0021FFF7ECFD314982
:10295000084201D1002010BD002802DA4FF00070BB
:1029600010BD410001D5402010BD810001D580205F
:1029700010BDC10002D54FF4807010BD010102D519
:102980004FF4007010BD410102D54FF4806010BDBE
:10299000C10102D54FF4006010BD010202D54FF411
:1029A000805010BD410202D54FF4005010BD81028D
:1029B00002D54FF4804010BDC10202D54FF4004053
:1029C00010BD410302D54FF4003010BD810302D584
:1029D0004FF4802010BDC10302D54FF4002010BD7C
:1029E000010402D54FF4801010BD410402D54FF40C
:1029F000001010BD810402D54FF4800010BD000707
:102A000002D54FF4000010BD4FF4803010BD00001F
:102A10001400002008E0FFFD12494FF4FA52096843
:102A2000B1FBF2F141F288325143491E02D24FF01C
:102A300000407047426B12F0450FF6D01205F4D4F7
:102A4000416B490703D50421816308467047416BF8
:102A5000C90703D00121816308467047C5218163FE
:102A600000207047140000200F494FF4FA52096803
:102A7000B1FBF2F141F288325143491E02D24FF0CC
:102A800000407047426B12F0450FF6D01205F4D4A7
:102A9000416B490703D50421816308467047C5216E
:102AA00081630020704700001400002030B5204BE7
:102AB0004FF4FA541B68B3FBF4F341F288346343D8
:102AC0005B1E02D24FF0004030BD446B14F0450F46
:102AD000F6D02405F4D4436B5B0703D5042181634E
:102AE000084630BD436BDB0702D00121816303E060
:102AF0000369DBB28B4201D0012030BDC521816367
:102B00000021FFF710FD10F4604F04D0410406D5FA
:102B10004FF4005030BD000C1080002030BD000488
:102B200002D54FF4805030BD4FF4803030BD0000EE
:102B30001400002014494FF4FA520968B1FBF2F175
:102B400041F288325143491E02D24FF00040704793
:102B5000426B12F0450FF6D01205F4D4416B4907D1
:102B600003D50421816308467047416BC90703D030
:102B70000121816308467047416B490601D5402118
:102B800081630020704700001400002010B5064C3F
:102B900001202070FEF78AFA18B9207820F0010091
:102BA0002070207810BD00000100002010B5846B5B
:102BB00040F23A50216888632046FFF799F80121D6
:102BC00084F8341000212163062801D0052805D19E
:102BD0002068FFF745FEA16B0843A063A06B0028A7
:102BE000204602D0FEF7A4FF10BDFEF711FF10BD76
:102BF00010B5846B40F23A50216888632046FFF795
:102C000077F8012184F8341000212163062801D0CF
:102C1000052805D12068FFF723FEA16B0843A063B8
:102C2000A06B0028204602D0FEF782FF10BDFEF701
:102C3000EFFE10BD2DE9F04788B00D460446FEF7C3
:102C4000C5FB00268246009601963746082120687B
:102C5000FFF7D4FC00282CD1B4F850000104206800
:102C6000FFF798FC002824D1401E4FF00808CDE95A
:102C7000020830204FF00209CDE904090120CDE916
:102C8000067002A92068FFF738FC2068FFF79FFD57
:102C900000280ED16F462068416B11F02A0F0BD02F
:102CA000416B090702D4416B89051AD5C0F83880F9
:102CB000082008B0BDE8F087416B890205D5FFF711
:102CC00051FC47F82600761C02E0416B8904E7D5E9
:102CD000FEF77CFBA0EB0A00401CDCD14FF000406B
:102CE000E7E7416B890703D5C0F838900220E0E799
:102CF000416B890603D5202181630846D9E740F25C
:102D00003A518163019800BA2860009800BA68605F
:102D10000020CEE710B590B004460120ADF8380091
:102D20002068FFF7FCFB002854D0606C032842D0D9
:102D30002068FFF720FD00284AD100212068FFF716
:102D4000F2FB606704212068FFF7EDFBA067082114
:102D50002068FFF7E8FBE0670C212068FFF7E3FB42
:102D6000C4F88000606C032825D00EA92068FFF706
:102D70005FFD00282CD1606C03281CD0BDF8380002
:102D8000206501042068FFF70CFD002820D10021F8
:102D90002068FFF7C8FB606604212068FFF7C3FBCB
:102DA000A06608212068FFF7BEFBE0660C212068C2
:102DB000FFF7B9FB206704212068FFF7B4FB000D83
:102DC000E06403A92046FEF7B5FE30B14FF0805015
:102DD00010B010BD4FF08060FAE7B4F85000002347
:102DE00002042068FFF7AEFC0028F1D104F11000C6
:102DF00007C88DE8070094E80F00FFF79DFB00204F
:102E0000E6E700002DE9F84F002604460096354617
:102E1000B0460068FFF724FC002827D12068FFF7A0
:102E200047FC4FF0805B4FF001094FF6FF7748B148
:102E3000A6642068FFF714FC002817D1A06C0128B5
:102E400002D020E0C4F8489000212068FFF7A2FBE0
:102E500058B918E000212068FFF79CFB002805D135
:102E600051462068FFF7B0FB10B15846BDE8F88F17
:102E700000212068FFF757FB05464FEAD0780098FD
:102E8000401C009002E0DFF82CA00098B84202D26B
:102E9000B8F1000FDED00098B84202D34FF0807036
:102EA000E4E7680002D5C4F8449000E066640020BE
:102EB000DCE70000000010C170B5064C054601209B
:102EC0002070FEF7FFF818B92846FFF75FFE207064
:102ED000207870BD0100002010B5124888B014465B
:102EE0000078C00702D0032008B010BDC1B101298D
:102EF00005D0022908D003290CD00420F4E7684645
:102F0000FEF7CEF806980AE06846FEF7C9F807987B
:102F1000208005E06846FEF7C3F80798400A206065
:102F20000020E1E70100002070B51D461646084666
:102F30000124A31E2A463146FEF7E4F828B900BF53
:102F4000FEF7B4F80028FBD10024204670BDFFF73F
:102F50001DBE000070B51D46164608460124A31E7E
:102F60002A463146FEF7E0F828B900BFFEF79EF882
:102F70000028FBD10024204670BD7047FEF72CBA14
:102F800030B593B030216846FDF7BBFA14210CA888
:102F9000FDF7B7FA1D480025016841F08051016036
:102FA000006800F0805011901948016841F4804198
:102FB00001600068022400F4804011900120039019
:102FC00010200490009406940820CDE90750A82012
:102FD000CDE9090407200B906846FEF763FB08B1B2
:102FE00072B6FEE70CA90F2081E831004FF4A05023
:102FF0000F904FF48050109005210CA8FEF786FA30
:10300000002801D072B6FEE713B030BD4038024050
:10301000007000400248016841F47001016070478F
:1030200088ED00E0FEE70907090E002804DB00F147
:10303000E02080F80014704700F00F0000F1E0205D
:1030400080F8141D7047000010B504460020E070A1
:10305000401EE062204601F044F908B1042010BD92
:1030600004F22E2001F006F8A0F52A41553901D0CE
:10307000032010BD94F83000E92805D0EB2814D1C6
:1030800094F83200902810D104F1660000F0E7FFB8
:103090000749B1EB002F06D004F1820000F0DFFFFA
:1030A0000449884201D1002010BD022010BD00005B
:1030B0000046415446415433F0B50022144D1346A6
:1030C00005EB021426685EB10768BE4209D1666846
:1030D0008768BE4205D1A4684669B44204D000E0C6
:1030E0000123521C022AEBD3022A01D069B904E061
:1030F0004BB9022907D01220F0BD05EB02108089E0
:10310000B0F5807F01D00020F0BD1020F0BD0000A0
:103110001005002030B50021054B0C4603EB0112D1
:103120001568854200D11460491C0229F6D330BDD0
:10313000100500200268490AC06A5289B1FBF2F109
:10314000001D04C81AB1914203D3891AF8E7002080
:1031500070470068084470474269891E921E8A427F
:1031600001D800207047826A408901FB0020704727
:103170002DE9F04105680F00804606D000F09DFE65
:10318000022809D20120BDE8F081EE6816B1686915
:10319000B04207D8012605E0411CF4D0696981429C
:1031A000F1D83E4634466869641CA04202D8022425
:1031B000022E0AD32146404600F07FFE38B1012896
:1031C000E1D0411CDFD0B442EDD10020DBE74FF06D
:1031D000FF3632462146284601F09CF830B957B1F7
:1031E00022463946284601F095F820B101280FD033
:1031F00001242046C7E7EC60D5E90401891E884216
:1032000001D8401E2861287940F001002871F0E7BC
:103210003446EEE72DE9F0410E4624300D680446B1
:103220000B22202101F056F80020014608272A5CD5
:10323000401C202A12D92F2A0BD05C2A09D02E2A12
:1032400001D0B94214D30B2F22D02E2A20D10CE06A
:10325000401C2B5C2F2BFBD05C2BF9D0284430601A
:10326000B1B12078E5281FD020E008210B27DEE748
:10327000802A03D3114B1A4412F8802C10A300E0CB
:103280005B1C93F800C0BCF1000F04D09445F7D14B
:103290000620BDE8F081A2F16103192B01D8203A84
:1032A000D2B26254491CC2E705202070202A01D8FE
:1032B000042000E00020E0720020EAE7F04500086A
:1032C000222A2B2C3A3B3C3D3E3F5B5D7C7F00003D
:1032D000401E022812D20A4901EB00118889B0F57C
:1032E000807F05D008B1401E80B2888110B103E014
:1032F0000020FAE700200860002070470220704795
:10330000100500202DE9F04104460021056800F079
:10331000D8F8002826D12846E16900F0E2FF020033
:103320001FD1206A017899B1C17A01F03F01A171E2
:10333000C17A09070FD404F124010B2610F8013BD0
:1033400011F8017BDB1B761E04D0002BF6D002E0C7
:10335000042206E02BB10021204600F005F802000F
:10336000D9D01046BDE8F0812DE9F0470546476900
:103370000468C0698946203710B1B7F5001F02D331
:103380000420BDE8F087F90560D1401CE861A96917
:103390004FF0000829B16089401E10EA572F05D070
:1033A00054E02089B0EB571F1DD94FE0284600F0AC
:1033B00084FD064601281BD9701C33D06069B042D9
:1033C0003ED8B9F1000F0ED02846A969FFF7D0FE0C
:1033D00006000BD0012E0BD0701C23D0204601F02C
:1033E000ADF8F8B906E0C5F81C80C9E70720C8E7C2
:1033F0000220C6E74FF40072002104F1300000F013
:1034000069FF4FF0000831462046FFF7A5FE4FF058
:103410000109E0620DE000BF84F80390204601F04E
:103420008DF808B10120ACE7E06A08F10108401C02
:10343000E06261894145EFD8E16AA1EB0800E062F2
:1034400031462046AE61FFF787FEE861C7F308000A
:10345000204430306F612862002092E770B5044646
:103460000021066800F02DF80DE03046E16900F01B
:1034700038FF50B9206A0078E52809D040B1012111
:103480002046FFF771FF0028EFD0042807D007E09F
:103490003046E16900F025FF050003D00FE007206A
:1034A00005460CE020220021206A00F013FF0B22C9
:1034B00004F12401206A00F003FF0120F070284687
:1034C00070BD2DE9F04107680E460546B1F5001FB5
:1034D00036D2F00634D16E61AC6824B9387803284E
:1034E00005D37C6A1CB178894FEA402812E03889FC
:1034F000B0EB561F24D9786A12E0284600F0DDFCB4
:103500000446401C1AD0022C1AD37869A04217D95D
:10351000A6EB080646452146EFD23846FFF71CFECB
:10352000C5E9064060B100EB5620E861C6F308002B
:103530003844303028620020BDE8F0810120FBE7EC
:103540000220F9E770B5094C05460020615D0029AD
:103550000AD104EB850160194968007A0968884737
:10356000002801D10121615570BD00003005002007
:1035700030B4054C231804EB80001B7A40680469C2
:103580001846A44630BC60473005002030B4054DD5
:103590002C1805EB8000247A406885682046AC46EC
:1035A00030BC604730050020044A111802EB80004F
:1035B000097A40684268084610470000300500203C
:1035C00030B4054D2C1805EB8000247A4068C5689E
:1035D0002046AC4630BC60473005002038B5044674
:1035E00000F0EBF900280CD16946204600F0CFFF2F
:1035F000002806D12069FFF76BFE002801D10021C9
:10360000216038BD2DE9F74181B0904602980090C5
:10361000684600F0B3FC040003D50B2004B0BDE8FD
:10362000F0810D4E002756F824501DB12846FFF7B3
:1036300071FD2F700198002800D0077046F8240013
:1036400002D0B8F1010F01D00020E7E7002201A964
:1036500002A800F0C1FAE1E71C0000202DE9F743C1
:1036600092B005000BD002F03F063246694613A81F
:1036700000F0B2FA04004FF0000804D0ECE009209A
:1036800015B0BDE8F0830098049004A8139900F0E9
:10369000CDFB04000ED19DF83F00000601D50624A5
:1036A00008E0700801D0012100E0002104A8FFF724
:1036B00003FD044616F01C0F5DD04FF00109C4B1A4
:1036C000042C10D10020674902E0401C022804D2DB
:1036D00001EB00121268002AF7D1022807D004A8D3
:1036E000FFF7BCFE044646F008065CB1B4E01224C5
:1036F000B2E09DF8160010F0110F47D1700701D508
:103700000824A9E0300747D500F036FC07460C989E
:1037100039460E3000F0C1FE0C983946163000F0E4
:10372000BCFE0C982021C1720C99009800F084FC1A
:10373000074600220C99009800F09BFE0C9800218F
:103740001C3000F0AAFE009981F8039017B3D1F85D
:103750002C900022394604A800F051FE04007BD1D1
:103760004946009800F0BDFD04000098A7F101074C
:10377000C7600DD070E0ECBB9DF81600C10601D506
:10378000042469E0B10703D5C00701D0072463E032
:10379000300701D546F040060098C06A68620C9870
:1037A000A862700801D0012100E0002104A800F007
:1037B00003FC2861B8B30C99009800F03DFCA860A8
:1037C0000C981C3000F04BFCC5F82C80E860009988
:1037D0002960009905F130004FF40072C988A98072
:1037E0002E7585F81580C5F8208000218146C5F822
:1037F000188000E030E000F06DFDB0062ED5EE68D8
:1038000066B3AE610098A968408947020FE0284678
:1038100000F053FB0146012800D80224481C03D0C5
:10382000F61B24B105E01BE00124F61B01E0BE42BB
:10383000EDD8E96184B9F00510D00098FFF78CFC51
:1038400070B100EB56222A62009801234946407865
:10385000FFF79CFE10B10124C5F8008020460FE759
:103860000224F9E7100500202DE9FE4F88460021CB
:10387000196099461546044602A900F088FE002802
:1038800012D1607D00280FD1207DC0070BD0E168E8
:10389000A0690127081A4FF0020A04F1300B854293
:1038A00000D9054684E00720BDE8FE8FA169C80560
:1038B00066D102984089401E10EA512611D129B1E3
:1038C000E06A28B12046FFF735FC05E0A06803E078
:1038D0002046E16900F0F1FA02281BD3411C4AD0CE
:1038E000E061E1690298FFF737FC98B1304401903C
:1038F000680A009025D0029932184889824201D97D
:10390000801B0090DDE9003248784146FFF73EFE1B
:1039100088BB03E084F815A00220C5E7207D0006DF
:103920000CD5216A0198081A0099884206D208EB42
:1039300040204FF40072594600F0C2FC0098460245
:103940002CE0226A0198824218D0207D00060AD518
:103950000298012359464078FFF732FE58B9207D7E
:1039600000F07F0020750298012359464078019AA3
:10397000FFF70CFE10B16775012095E701982062F2
:10398000208BC0F30800C0F50076AE4200D92E4669
:10399000011932464046303100F092FCA069B04433
:1039A0003044A061D9F800008119AD1BC9F800109E
:1039B000002D7FF47BAF002076E7F8B5044669461A
:1039C00000F0E5FD00280ED1217D4A060BD5080642
:1039D0000ED50098226A0123407804F13001FFF7E8
:1039E000EFFD08B10120F8BD207D00F07F002075BB
:1039F00000F0C2FA0646616A009800F072FC0028E6
:103A0000F1D1A56A2946E87A40F02000E872A26860
:103A1000206800F02EFD05F11C00E16800F03DFD7E
:103A2000314605F1160000F038FD002105F11200C5
:103A300000F03BFD00980121C17000F03BFD217DAD
:103A400001F0BF012175F8BD2DE9FE4F04460020AD
:103A5000884618609946154602A9204600F097FD51
:103A6000002806D1607D002803D1207D800702D484
:103A70000720BDE8FE8FA069012742194FF0020A16
:103A800004F1300B824200D2C5439BE0A169C80516
:103A900075D102984089401E10EA512618D129B1EB
:103AA000E06A38B12046FFF745FB07E0A06838B967
:103AB000002100E0E1692046FFF75AFB00287DD095
:103AC00001282DD0411C54D0E061A16801B9A0604B
:103AD000207D00060BD50298226A012340785946C2
:103AE000FFF76EFDA0BB207D00F07F002075E1692F
:103AF0000298FFF731FB98B130440190680A0090BA
:103B000027D03218029841898A4201D9891B009135
:103B1000DDE9003240784146FFF752FDC0B903E0CD
:103B200084F815A00220A4E7216A0198081A0099D8
:103B300088420AD208EB40214FF40072584600F048
:103B4000BFFB207D00F07F0020750098460228E032
:103B50000FE0216A019881420FD0E168A069884294
:103B60000BD20298012359464078019AFFF70EFDC7
:103B700018B1677501207CE701E001982062208B75
:103B8000C0F30800C0F50076AE4200D92E462044AE
:103B900032464146303000F093FB207D40F08000FB
:103BA0002075A069B0443044A061E168884200D823
:103BB0000846E060D9F80000811900E005E0AD1B7F
:103BC000C9F80010002D7FF461AF207D40F0400067
:103BD000207500204DE700002DE9FF4100279046A9
:103BE0000E460F6000F0CAF9050003D50B2004B0A3
:103BF000BDE8F0818A4850F825409CB134602078B7
:103C000008F0FE0620B16078FFF7CEFCC1070BD0AC
:103C10002770E8B2B8466070FFF794FCC10708D07F
:103C20000320E4E70C20E2E70EB1400704D40020B3
:103C3000DDE71EB1400701D50A20D8E7002631464E
:103C40002046FFF701FA022822D100254FEA0D078E
:103C500004EB051090F8F21100F5F77019B1083077
:103C600000F0FDF900E0002047F825006D1C042D50
:103C7000EED3002557F8256036B131462046FFF7D0
:103C8000E3F9022801D203E003206D1C042DF1D3D7
:103C9000042809D002286DD204F13B0000F0EAF9B3
:103CA000B0F5007F66D101E00120A0E704F14600F5
:103CB00000F0E0F918B904F1540000F0D0F9A06167
:103CC00094F84050A570012D01D0022D52D14543EA
:103CD00094F83D006081E8B3411E08424AD104F1E6
:103CE000410000F0C7F92081000743D104F14300EF
:103CF00000F0C0F9070004D104F1500000F0AFF962
:103D0000074604F13E0000F0B5F9010032D02389E6
:103D1000481900EB131297422CD3B81A6789B0FBED
:103D2000F7F0B8B103274FF6F57C604500D80227BD
:103D300040F6F57C604500D80127801C3244A26221
:103D400031446061C4E90761032F15D013B12944E0
:103D5000616200E00EE0022F1FD000F0010100EBD5
:103D6000400001EB500000BFA16900F2FF10B1EB71
:103D7000502F14D20D203AE704F15A0000F07AF9DE
:103D80000028F7D120890028F4D104F15C0000F06C
:103D900066F9606260698000E6E74000E4E74FF0A2
:103DA000FF302061E06080202071032F2CD104F1CE
:103DB000600000F05FF9012826D1711C204600F058
:103DC00090FA08BB84F8048004F22E2000F052F927
:103DD000A0F52A41553917D104F1300000F03FF920
:103DE0001049884210D104F5057000F038F90E49E9
:103DF000884209D104F5067000F031F9206104F51C
:103E0000077000F02CF9E06005492770091F088849
:103E1000401C0880E0802046FFF77CF907E700009F
:103E20001C000020525261417272416173B5044618
:103E30000568019801E0401C019001782F29FAD013
:103E40005C29F8D00021A16001980078202806D2D2
:103E5000802084F82F002046FFF733FB7CBD01A9AA
:103E60002046FFF7D7F90028F8D12046FFF74AFA95
:103E700094F82F1028B10428F0D14907EED405207A
:103E80007CBD4907FCD4A079C006F8D5A08AC0F350
:103E9000080041192846303100F0CEF8A060DEE776
:103EA0008A68002A01DCFCF70EBD521E8A604A684F
:103EB000C0B2531C4B60107070472DE9F04104688C
:103EC0000D4602290BD36069A84208D920784FF02B
:103ED000FF36012807D002282BD0032839D001262D
:103EE0003046BDE8F081206A05EB550700EB57210D
:103EF000204600F0F6F90028F2D1C7F3080020446C
:103F00007F1C90F83080206A00EB5721204600F09B
:103F1000E8F90028E4D1C7F30800204490F83010F5
:103F200048EA0120E90701D00609D9E7C0F30B06EA
:103F3000D6E7206A00EB1521204600F0D2F90028D0
:103F4000CED1E8B204EB4000303000F093F80646E2
:103F5000C6E7206A00EBD511204600F0C2F9002820
:103F6000BED140F2FF1000EA85002044303000F05E
:103F700076F820F07046B3E70020704710B504468D
:103F80004FF0FF302268002A13D0114600E0491C90
:103F90000B78212B0ED33A2BF9D112F8013B303B91
:103FA0000A2B06D28A4204D1002B02D1491C1846A2
:103FB000216010BD002010BDF0B502461D4BD2F8A7
:103FC0000050002003EB00142668AE4207D166685B
:103FD0009768BE4203D1A4685669B44202D0401C1F
:103FE0000228EFD3022814D1002002E0401C02284E
:103FF00004D203EB00142468002CF7D102280ED061
:1040000003EB00142560956865605269A260002288
:10401000A281002903EB0011898902D019B1002087
:10402000F0BD491C01E04FF4807103EB0012401C0D
:104030009181F0BD1005002070B506460D4601F1D6
:104040001A0000F017F804463078032805D105F16E
:10405000140000F00FF844EA0044204670BDC17817
:10406000827842EA01214278007842EA012140EA5E
:10407000012070474178007840EA01207047000035
:104080009CB0FDF7B1F9FEF77BFFFEF7E9F9FEF70B
:104090000DFAFEF7D7F900222F493048FFF7B2FAA0
:1040A00008B12FA000E034A0FCF766F938A0FCF7B7
:1040B00063F901223CA13F48FFF7D0FA08B13EA0C6
:1040C00000E042A0FCF758F947A0FCF755F919ABFE
:1040D000632269463748FFF7C7FB18B146A0FCF7D3
:1040E0004BF907E0199900206A460DF8010047A036
:1040F000FCF742F92F48FFF771FA49A0FCF73CF9A9
:104100004BA0FCF739F90A2250A12A48FFF7A6FA7A
:1041100008B151A00EE056A0FCF72EF95BA4204692
:10412000FCF7D0F902461AAB21462248FFF78CFC77
:1041300018B15AA0FCF720F903E05DA01A99FCF72A
:104140001BF91C48FFF74AFA35A0FCF715F900BF28
:10415000FEF7ACF9FCE7000003000020B0000020EF
:1041600053442063617264206D6F756E74206661C4
:10417000696C65640A000000534420636172642026
:104180006D6F756E7420737563636573730A0000D9
:104190004F70656E696E672066696C652074657323
:1041A000742E7478740A0000746573742E747874B5
:1041B00000000000E00200204572726F72206F70F4
:1041C000656E696E672066696C650A0046696C6594
:1041D000206F70656E6564207375636365737366C5
:1041E000756C6C790A00000052656164696E672025
:1041F00066696C650A0000004572726F7220726514
:104200006164696E672066696C650A005265616465
:104210002025752062797465733A2025730A0000A1
:1042200046696C6520636C6F7365640A000000006A
:104230004372656174696E672066696C6520667794
:1042400072697465312E7478740A00006677726939
:104250007465312E747874004572726F72206372C7
:10426000656174696E672066696C650A000000000C
:1042700046696C652063726561746564207375635B
:104280006365737366756C6C790A000048656C6CC5
:104290006F20776F726C64210A0000004572726FA4
:1042A000722077726974696E672066696C650A00AE
:1042B00057726F74652025752062797465730A00E2
:1042C000002A05D011F8013B00F8013B521EF9D13C
:1042D000704700005FFA81F100F8011B521EFBD10C
:1042E000704770B50446C06A0D460026A8420FD03C
:1042F000204600F023F906000AD1607801232A46FF
:1043000004F13001FFF742F908B1751E0126E5629C
:10431000304670BD2DE9F047022617460D4604468B
:10432000022969D36069A84266D920784FF0010953
:10433000012804D0022836D003285DD143E0216A49
:1043400005EB550801EB58212046FFF7CAFF060090
:1043500052D1C8F308002044303008F10108E907C1
:1043600004D00178FAB262F31F1100E039460170FF
:1043700084F80390216A204601EB5821FFF7B1FF32
:10438000060039D1C8F3080020443030E90702D0D4
:10439000C7F3071105E00178C7F3032201F0F0012C
:1043A0001143017026E0206A00EB15212046FFF73B
:1043B00098FF060020D1E8B204EB4000B9B23030DB
:1043C00000F073F816E0206A00EBD5112046FFF7E5
:1043D00088FF060010D140F2FF1000EA850020445B
:1043E00030300546FFF73BFE67F31B0001462846C9
:1043F00000F053F884F803903046BDE8F0872DE9CB
:10440000F041056813460E46074602292DD3686918
:10441000B0422AD93BB14FF0FF3219462846FFF788
:1044200079FF00281FD131463846FFF746FD0400CA
:1044300018D0012C19D0601C19D000223146284612
:10444000FFF768FF00280ED1D5E90410821E9142C3
:1044500005D2491C2961297941F0010129712646BB
:10446000B042E0D80020BDE8F0810220FBE7012047
:10447000F9E770B50C460646154691B204F11A00EC
:1044800000F013F83078032806D1290C04F1140049
:10449000BDE8704000F009B870BD0170090A4170B4
:1044A000090A8170090AC17070470170090A4170D8
:1044B0007047000070B5044600F040F8050036D1A2
:1044C000207803282CD12079012829D1420204F137
:1044D000300000210646FFF7FDFE4AF6552104F2A2
:1044E0002E20FFF7E2FF13493046FFF7D6FF1249AF
:1044F00004F50570FFF7D1FF04F506702169FFF799
:10450000CCFF04F50770E168FFF7C7FFE2690123FC
:10451000521CE26260783146FFF752F800202071A9
:10452000002260781146FFF723F800B101252846E4
:1045300070BD000052526141727241612DE9F0413B
:104540000446C0780027F8B1E56A04F130016078CC
:1045500001232A468846FFF733F808B1012713E004
:104560000020E070206AA169281A88420CD2A6783F
:1045700008E0A0690123054460782A464146FFF718
:104580001FF8761E022EF4D23846BDE8F08170B5D1
:104590000E4604004FF009050CD0206850B1017898
:1045A00041B1A188C288914204D14078FEF7FCFF56
:1045B000C00703D000203060284670BD0025206869
:1045C000F9E74FF04070E1EE100A7047B92E00088D
:1045D0004F2F0008292F0008552F0008D92E00085A
:1045E00000000000000000000102030406070809A3
:1045F000435545414141414345454549494941416B
:104600004592924F4F4F5555594F554F9C4F9E9F36
:1046100041494F55A5A5A6A7A8A9AAABACADAEAF79
:10462000B0B1B2B3B4414141B8B9BABBBCBDBEBF71
:10463000C0C1C2C3C4C54141C8C9CACBCCCDCECF0D
:10464000D1D145454549494949D9DADBDCDD49DF66
:104650004FE14F4F4F4FE6E8E85555555959EEEFAA
:10466000F0F1F2F3F4F5F6F7F8F9FAFBFCFDFEFFD2
:1046700001000400100040000001000200000100E1
:104680000200040008001000200000003A747400CA
:104690003A7474003A747400B846000800000020B0
:1046A0002C000000C4010008E44600082C00002093
:1046B0006C0C0000E0010008000100000000000098
:1046C0000100000010000000000000000024F400C1
:1046D00000000000000000000000000000000000DA
:0446E00000000000D6
:040000050800018965
:00000001FF
