:020000040800F2
:10000000C017002465030008D13600083935000800
:10001000C936000861050008D94500080000000045
:10002000000000000000000000000000313900085E
:100030006905000800000000D936000839390008B9
:100040007F0300087F0300087F0300087F03000888
:100050007F0300087F0300087F0300087F03000878
:100060007F0300087F0300087F0300087F03000868
:100070007F0300087F0300087F0300087F03000858
:100080007F0300087F0300087F0300087F03000848
:100090007F0300087F0300087F0300087F03000838
:1000A0007F0300087F0300087F0300087F03000828
:1000B0007F0300087F0300087F0300087F03000818
:1000C0007F0300087F0300087F0300087F03000808
:1000D0007F0300087F0300087F03000891450008A4
:1000E0007F0300087F030008000000007F03000872
:1000F0007F0300087F0300087F0300087F030008D8
:100100007F0300087F0300087F0300087F030008C7
:100110007F0300087F0300087F0300087F030008B7
:100120007F0300087F0300087F0300087F030008A7
:100130007F0300087F0300087F0300087F03000897
:1001400000000000000000000000000000000000AF
:100150007F0300087F0300087F0300087F03000877
:100160007F0300087F0300087F0300087F03000867
:100170007F0300087F0300087F0300087F03000857
:100180007F0300087F0300087F0300087F03000847
:100190007F0300087F0300087F0300087F03000837
:1001A0007F0300087F0300087F0300087F03000827
:1001B0007F0300087F0300087F0300087F03000817
:1001C0007F0300087F0300087F0300087F03000807
:1001D0007F0300087F0300087F0300087F030008F7
:1001E0007F0300087F0300087F0300087F030008E7
:1001F0007F0300087F0300087F0300087F030008D7
:100200007F0300087F0300087F0300087F030008C6
:100210007F0300087F0300087F0300087F030008B6
:100220007F0300087F0300087F0300080000000030
:100230007F0300087F030008000000007F03000820
:100240007F0300087F0300087F0300087F03000886
:100250007F0300087F0300087F0300087F03000876
:100260007F0300087F0300087F0300087F03000866
:100270007F0300087F0300087F03000800000000E0
:100280007F0300087F0300087F03000800000000D0
:10029000000000007F03000800F002F800F052F8B0
:1002A00014A696E8000CB244B344DA4501D100F03C
:1002B00049F8BAE80F000FA696E83000A5EB040550
:1002C00004EB0607AAEB0704A7F101074FEA15158F
:1002D0004FEA3414A4F10104AC4201D300F032F827
:1002E00013F0010F18BFFB1A43F0010300F001F8EF
:1002F000DBE718478C430000AC430000103A24BFF2
:1003000078C878C1FAD8520724BF30C830C144BF7A
:1003100004680C6070470000704700000023002450
:1003200000250026103A28BF78C1FBD8520728BF05
:1003300030C148BF0B6070471FB504F072F91FBD94
:1003400010B510BD00F0D0F81146FFF7F5FF04F02E
:1003500047F900F0EEF803B4FFF7F2FF03BC00F03A
:10036000F5F800000948804709480047FEE7FEE726
:10037000FEE7FEE7FEE7FEE7FEE7FEE7FEE7FEE755
:1003800004480549054A064B70470000813A0008B9
:1003900099020008C0010024C0170024C0030024F3
:1003A000C003002453EA020C00F069802DE9F04BF1
:1003B0004FF00006002B1FBFB3FA83F503FA05F4D4
:1003C00024FA05F65E4012BF1643B2FA82F502FA2D
:1003D00005F4C5F120051EBF22FA05FC44EA0C0411
:1003E000203556EA044C4FEA144418BF641C4FF001
:1003F00000084FF00009904271EB030C39D300293B
:1004000019BFB1FA81F701FA07F6B0FA80F700FADE
:1004100007F6C7F120071EBF20FA07FC46EA0C06C4
:100420002037B6FBF4FCA7EB0507103F07F01F0BC6
:10043000CBF120062CFA06F60CFA0BFB44BFB346B0
:100440000026202FA4BF5E464FF0000B5BEA060C8F
:1004500008BF4FF0010B19EB0B0948EB0608ABFB8B
:10046000027C06FB02CC0BFB03CCC01B71EB0C0126
:10047000C1E70B46024641464846BDE8F08B13B53E
:10048000084318BF4FF0FF300146AFF30080BDE8CE
:100490001C4070474FF0000200B513469446964644
:1004A000203922BFA0E80C50A0E80C50B1F1200187
:1004B000BFF4F7AF090728BFA0E80C5048BF0CC035
:1004C0005DF804EB890028BF40F8042B08BF704793
:1004D00048BF20F8022B11F0804F18BF00F8012B05
:1004E0007047704770477047754600F02BF8AE466E
:1004F00005006946534620F00700854618B020B530
:10050000FFF73EFFBDE820404FF000064FF0000728
:100510004FF000084FF0000BAC46ACE8C009ACE867
:10052000C009ACE8C009ACE8C00921F007018D465C
:10053000704710B50446AFF300802046BDE8104078
:10054000FFF709BF00487047280000240149182020
:10055000ABBEFEE72600020070470000000000006E
:10056000FEE70000000000007047000000000000EF
:10057000EFF3108072B600BFFEE70000000000003D
:1005800040F29003C2F200435A7A002A1CBF0120B5
:10059000704780B593F809C08646002003F80C0028
:1005A0005A7A03EB8202C2F804E05A7A1A441072B3
:1005B00093F809C00CF101025A720CF130020A7072
:1005C00042F63A72A1F80120C87080BD0000000018
:1005D0002DE9F041044600F0CFFC1CB3054694F829
:1005E0003500022822D140F20F472668C4F20207E4
:1005F00040F26F48BE426FF00E00C4F202081DDCEC
:100600006F21C4F202018E422ADC3F21C4F20201B2
:100610008E4241DC1021C4F202018E4263D02821B7
:100620005CE000BF0120BDE8F08100BF8020606574
:100630000120002184F83410BDE8F08146451BDC20
:1006400040F23F41C4F202018E422DDC40F21041E3
:10065000C4F202018E4246D040F228413EE000BF83
:100660009F21C4F202018E4228DC7021C4F20201F3
:100670008E4238D0882131E040F29F41C4F202011D
:100680008E4223DC40F27041C4F202018E422AD035
:1006900040F2884122E000BF4021C4F202018E42B4
:1006A00021D058211AE000BF40F24041C4F20201BB
:1006B0008E4218D040F2584110E000BFA021C4F291
:1006C00002018E420FD0B82108E000BF40F2B841CD
:1006D000C4F202018E4206D040F2A041C4F20201EF
:1006E0008E42314607D13146306820F01E0041F875
:1006F000140B6FF080000A68464500EA02000860AB
:100700001ADC9F20C4F20200864233DC5720C4F278
:10071000020086425ADC1020C4F20200864200F039
:1007200097802820C4F20200864200F09180402089
:10073000C4F202008AE000BF45F22F40C5F6020075
:1007400086422DDC40F2B740C4F2020086424BDC08
:1007500040F27040C4F20200864279D040F28840F4
:10076000C4F20200864273D040F2A040C4F20200FC
:100770006CE000BF40F22740C4F20200864243DC36
:10078000A020C4F20200864262D0B820C4F2020067
:1007900086425DD040F21040C4F2020056E000BF35
:1007A00045F26B40C5F6020086423FDC45F2304020
:1007B000C5F6020086424BD045F24440C5F6020021
:1007C000864245D045F258403EE000BF5820C4F272
:1007D000020086423CD07020C4F20200864237D02C
:1007E0008820C4F2020031E040F2B840C4F20200B6
:1007F00086422DD045F20840C5F60200864227D039
:1008000045F21C4020E000BF40F22840C4F2020044
:1008100086421DD040F24040C4F20200864217D00A
:1008200040F25840C4F2020010E000BF45F26C40B4
:10083000C5F6020086420BD045F29440C5F6020090
:10084000864205D045F28040C5F60200864204D1BA
:10085000206E016821F480710160306820F0010091
:10086000306000BF3068C00710D000F085FB401B2F
:100870000628F7D320206065032084F83500012086
:10088000002184F83410BDE8F08100BF2068082101
:10089000B8424FF03F0211DC6F23C4F202039842CA
:1008A0001EDC3F23C4F20203984235DC1023C4F25D
:1008B0000203984257D0282350E000BF40451BDC7C
:1008C00040F23F43C4F2020398422DDC40F2104351
:1008D000C4F20203984246D040F228433EE000BFF3
:1008E0009F23C4F20203984228DC7023C4F202035F
:1008F000984238D0882331E040F29F43C4F202038B
:10090000984223DC40F27043C4F2020398422AD09A
:1009100040F2884322E000BF4023C4F20203984221
:1009200021D058231AE000BF40F24043C4F2020332
:10093000984218D040F2584310E000BFA023C4F200
:10094000020398420FD0B82308E000BF40F2A04352
:10095000C4F20203984206D040F2B843C4F2020344
:10096000984240F0C580D4E9163707F01F0740458C
:1009700002FA07F25A5019DC9F21C4F202018842A0
:1009800032DC5721C4F20201884259DC1021C4F242
:100990000201884200F096802821C4F202018842B8
:1009A00000F090804021C4F2020189E045F22F411D
:1009B000C5F6020188422DDC40F2B741C4F20201C3
:1009C00088424BDC40F27041C4F20201884279D087
:1009D00040F28841C4F20201884273D040F2A04143
:1009E000C4F202016CE000BF40F22741C4F20201F0
:1009F000884243DCA021C4F20201884262D0B821BF
:100A0000C4F2020188425DD040F21041C4F20201FA
:100A100056E000BF45F26B41C5F6020188423FDC5B
:100A200045F23041C5F6020188424BD045F24441BF
:100A3000C5F60201884245D045F258413EE000BF6C
:100A40005821C4F2020188423CD07021C4F2020154
:100A5000884237D08821C4F2020131E040F2B84127
:100A6000C4F2020188422DD045F20841C5F60201C8
:100A7000884227D045F21C4120E000BF40F22841C7
:100A8000C4F2020188421DD040F24041C4F202018A
:100A9000884217D040F25841C4F2020110E000BF72
:100AA00045F26C41C5F6020188420BD045F29441F3
:100AB000C5F60201884205D045F28041C5F6020123
:100AC00088420BD1616EA26EE06E4A6030B101685F
:100AD00021F480710160D4E91C014160012084F897
:100AE00035000020002184F83410BDE8F08100BFFB
:100AF0000421012237E70000F0B190F835100229F7
:100B000018D180B540F20F420168C4F2020291424E
:100B100014DC6F23C4F20203994225DC3F23C4F2A4
:100B2000020399423CDC1023C4F2020399425DD0D7
:100B3000282357E0802141650120704740F26F4330
:100B4000C4F2020399421BDC40F23F43C4F20203A9
:100B500099422DDC40F21043C4F20203994245D081
:100B600040F228433EE000BF9F23C4F202039942B3
:100B700028DC7023C4F20203994237D0882331E085
:100B800040F29F43C4F20203994223DC40F27043D7
:100B9000C4F20203994229D040F2884322E000BF08
:100BA0004023C4F20203994220D058231AE000BF28
:100BB00040F24043C4F20203994217D040F2584336
:100BC00010E000BFA023C4F2020399420ED0B82364
:100BD00008E000BF40F2B843C4F20203994205D0D6
:100BE00040F2A043C4F20203994275D191424FF002
:100BF000040280F8352011DC6F20C4F2020081422B
:100C000022DC3F20C4F20200814239DC1020C4F211
:100C10000200814259D0282054E000BF40F26F40CA
:100C2000C4F2020081421BDC40F23F40C4F20200E9
:100C300081422DDC40F21040C4F20200814244D0D7
:100C400040F228403EE000BF9F20C4F202008142F3
:100C500028DC7020C4F20200814236D0882031E0C6
:100C600040F29F40C4F20200814223DC40F2704017
:100C7000C4F20200814228D040F2884022E000BF46
:100C80004020C4F2020081421FD058201AE000BF69
:100C900040F24040C4F20200814216D040F2584077
:100CA00010E000BFA020C4F2020081420DD0B820A5
:100CB00008E000BF40F2B840C4F20200814204D014
:100CC00040F2A040C4F202008142086820F0010016
:100CD0000860002080BD00BF0A6822F00E020A6092
:100CE00045F25742C5F6020291420A6822F001021B
:100CF0000A600FDC45F22F42C5F60202914219DC70
:100D000045F20842C5F60202914229D045F21C4242
:100D100022E000BF45F27F42C5F60202914213DC99
:100D200045F25842C5F60202914219D045F26C4292
:100D300012E000BF45F23042C5F6020291420FD0E8
:100D400045F2444208E000BF45F29442C5F6020273
:100D5000914205D045F28042C5F6020291421AD175
:100D6000D0E9181CD0E916E30A6822F480720A6000
:100D700003F01F01012202FA01F1CEF80410816E86
:100D8000CCF80410C16E31B10A6822F480720A6096
:100D9000D0E91C124A60012180F83510016D002253
:100DA000002980F8342094D08847002080BD0000BE
:100DB0002DE9F04F83B00F68002F00F0C98000F1DB
:100DC000264642F2004506F1FF76C5F602050A22E4
:100DD000A8424FEAB62540F2040C08BF092200F1F0
:100DE00020030093092DC5F6000C38BF4FEAB62248
:100DF000002400264FF0000801920AE008F10108E3
:100E00000F6837FA08F206F1020604F1040400F054
:100E10009F80012202FA08FE17EA0E09EED0D1F8EF
:100E200004B003220BF00307B2407D1E6FEA020AF2
:100E3000012D11D88268CD6802EA0A02B5402A4322
:100E40008260CBF30015426822EA0E0205FA08F52B
:100E50002A43426004E000BF032F01D103271FE0B3
:100E6000C2688D6802EA0A02B540022F42EA050212
:100E7000C26015D16FF0030204F01C0502EA580BA2
:100E8000009A0F2352F80BE0AB400F692EEA0303E0
:100E9000AF403B4342F80B30D1F804B00BF00307EE
:100EA000026807FA06F302EA0A021BF4403F42EA2C
:100EB00003020260A2D044F2F44340F2084EC5F6A9
:100EC0000203C5F6000E0F251A6842F002021A60EE
:100ED0001A6802F00202029228F00302029B04F058
:100EE0000C0352F80E709D40AF43019D05FA03F3C9
:100EF0003B4342F80E304FF0B04EDEF800204B6816
:100F000042EA0907DD0258BF22EA09079D02CEF82E
:100F10000070DCF8002042EA090758BF22EA0907FE
:100F20009D03CCF80070DCF8802042EA090758BF26
:100F300022EA0907DB03CCF88070DCF87C2042EA67
:100F4000090758BF22EA0907CCF87C7056E700BFB2
:100F500003B0BDE8F08F0000002A08BF09048161DA
:100F6000704700000000000041F20000C5F600409C
:100F70000068000C7047000040F2B810C2F2004058
:100F8000006870470000000040F2000040F2B81115
:100F9000C2F20040C2F2004100780A6810440860C2
:100FA000704700000000000080B5032000F0FCF84E
:100FB00001F0B2F944F2184144F24863C5F6020167
:100FC000C0F600030A68C2F303229A5C096801F0C4
:100FD0000F0102F01F02595CD04040F20C02C2F235
:100FE000004201F01F0120FA01F1116040F20801F6
:100FF000C2F2004108600F2000F00AF800281CBF70
:10100000012080BD00F07CF8002080BD00000000C1
:10101000B0B540F20005C2F200452978F1B10446AE
:1010200040F20800C2F200404FF47A72B2FBF1F1D4
:101030000068B0FBF1F001F0DFFD0F2C01464FF02E
:1010400001000AD8002918BFB0BD4FF0FF300022C0
:10105000214600F079F800206C60B0BD0120B0BDE1
:1010600010B54EF6A05E4378CEF2000E90F800C0A8
:101070004EF8083CDEF8003023F00103CEF80030D3
:1010800043684EF8043C037BC27A817A447B1206A3
:1010900042EA0372837B42EAC141C27B41EA844156
:1010A000447A41EA4341007A41EA024141EA04219B
:1010B00041EA400040EA0C00CEF8000010BD0000FC
:1010C0004EF62450CEF20000BFF35F8F016821F48A
:1010D00080310160002101677047000000000000BE
:1010E0004EF6245140F00100CEF200010867086876
:1010F00040F480300860BFF34F8FBFF36F8F7047AD
:1011000081B044F2F440C5F60200016841F00201EA
:101110000160006800F002000090009801B0704784
:10112000002848BF704700F01F01012202FA01F1B8
:101130004EF20012C0F34A10CEF2000242F8201024
:10114000704700000000000070B54EF60C5C4FF0D8
:10115000FF36CEF2000C00F1604505F56445DCF881
:101160000030C3F3022E8EF00703042B28BF0423A4
:10117000BEF1030406FA03F321EA030100F00F03B2
:1011800038BF0024043B0028634406FA04F048BF3B
:1011900003F10C05A14022EA000008430001287079
:1011A00070BD0000000000004EF60C514FF6FF032A
:1011B000CEF200010A681A4060F30A2242F0806011
:1011C00040F0FD7008607047B0B544F60C05C5F6F8
:1011D000020529684907296806D401F00701081AA1
:1011E00018BF0120B0BD00BF21F0070108432860EF
:1011F000FFF7C2FE044600BF55F8080C800407D470
:10120000FFF7BAFE001BB0F57A7FF5D90120B0BD1B
:101210000020B0BD0000000080B500F0F5FF44F2F2
:10122000204144F24862C5F60201C0F60002096896
:10123000C1F30211515C01F01F01C84080BD0000E4
:1012400080B544F2384EC5F6020E5EF8103C5EF8EA
:10125000101C5EF80C2CC1F3053CDEF80410BCF148
:10126000000F15D0C908D20601EAE2716FF35F31B1
:1012700000EE101A03F003010229B8EE400A0DD067
:1012800081B95EF8381C890610D49FED361A1BE030
:1012900000218160C0E9001180BD00BF9FED301AC0
:1012A00012E000BF9FED2D1A0EE000BF5EF8381C63
:1012B00049F20002C0F2D032C1F3C10122FA01F1B9
:1012C00001EE101AB8EE411ADEF800109FED263A32
:1012D0006FF35F2102EE101ADEF80010C1F3462111
:1012E000B8EE422A00EE032A00EE10CAB7EE003A2A
:1012F000B8EE400A81EE000A32EE031A02EE101A2E
:10130000B8EE422A20EE010A32EE031A80EE011AEC
:10131000BCEEC11A80ED001ADEF80010C1F30641E0
:1013200001EE101AB8EE411A31EE031A80EE011ADE
:10133000BCEEC11A80ED011ADEF80010C1F306619F
:1013400001EE101AB8EE411A31EE031A80EE010ACE
:10135000BCEEC00A10EE101A816080BD0024744AF1
:1013600020BCBE4B0024744C00000039000000007B
:1013700080B544F2404EC5F6020E5EF8183C5EF8A9
:10138000181C5EF8142CC1F3055CDEF80410BCF1E7
:10139000000F15D0C908D20501EAE2716FF35F3181
:1013A00000EE101A03F003010229B8EE400A0DD036
:1013B00081B95EF8401C890610D49FED361A1BE0F7
:1013C00000218160C0E9001180BD00BF9FED301A8F
:1013D00012E000BF9FED2D1A0EE000BF5EF8401C2A
:1013E00049F20002C0F2D032C1F3C10122FA01F188
:1013F00001EE101AB8EE411ADEF800109FED263A01
:101400006FF35F2102EE101ADEF80010C1F34621DF
:10141000B8EE422A00EE032A00EE10CAB7EE003AF8
:10142000B8EE400A81EE000A32EE031A02EE101AFC
:10143000B8EE422A20EE010A32EE031A80EE011ABB
:10144000BCEEC11A80ED001ADEF80010C1F30641AF
:1014500001EE101AB8EE411A31EE031A80EE011AAD
:10146000BCEEC11A80ED011ADEF80010C1F306616E
:1014700001EE101AB8EE411A31EE031A80EE010A9D
:10148000BCEEC00A10EE101A816080BD0024744AC0
:1014900020BCBE4B0024744C00000039000000004A
:1014A0002DE9F0470446C07844F22C480007C5F601
:1014B000020828D5A06E4FEA305103292AD8DFE868
:1014C00001F0030B131B00BFD8F8001041F40031EA
:1014D000C8F8001010E000BF04F10800022102F07B
:1014E000FFF8064680B906E004F12800022102F068
:1014F0008BF9064640B9A06ED8F8241021F44011AB
:101500000843C8F8240000266078C00706D1354695
:101510002FE000BF01266078C007F8D0A06D042836
:1015200058D83546DFE800F004140E0B0B0000BF5E
:10153000D8F80000354640F40030C8F800002F46C7
:10154000C5B90DE004F12800002102F05DF904E0C6
:1015500004F10800002102F0C3F805462F464DB9FA
:10156000D8F82400A16D20F0070000250843C8F832
:10157000240037466078800731D5E06D4FEAB0101F
:1015800004285FD8DFE800F004140E0A0A0000BF48
:10159000D8F8000040F40030C8F800002E46FDB92D
:1015A0000EE000BF04F12800002102F02DF904E054
:1015B00004F10800002102F093F805462E467DB99B
:1015C000D8F82400E16D20F4E07000250843C8F845
:1015D000240004E00125012760788007CDD43E4631
:1015E0006078400733D5D4F8A8004FEA705004283B
:1015F00060D8DFE800F003130D090900D8F80000F7
:1016000040F40030C8F80000A9460DBB0EE000BF52
:1016100004F12800002102F0F7F804E004F10800CA
:10162000002102F05DF80546A9468DB9D8F82C00D6
:10163000D4F8A81020F4600000250843C8F82C0056
:1016400005E000BF0125012660784007CBD4B146F4
:101650006078000734D5D4F8AC004FEA3060042835
:101660005ED8DFE800F003130D090900D8F8000088
:1016700040F40030C8F800002F4615BB0EE000BF54
:1016800004F12800002102F0BFF804E004F1080092
:10169000002102F025F805462F4695B9D8F82C0010
:1016A000D4F8AC1020F0E06000250843C8F82C0006
:1016B00006E000BF01254FF0010960780007CAD499
:1016C0004F46E078800730D5E06C4FEA30100328B1
:1016D00020D8DFE800F00903150900BFD8F80000A2
:1016E00040F40030C8F800002E46ADB9D8F820000C
:1016F000E16C20F0300000250843C8F8200014E019
:1017000004F10800022101F0EBFF05462E461DB949
:10171000ECE700BF012501266078C00609D434E05B
:1017200001250127E0788007CED43E466078C006C8
:101730002BD5206E4FEA3030042839D8DFE800F08E
:1017400004140E0A0A0000BFD8F8000040F400306C
:10175000C8F800002F46CDB90EE000BF04F1280004
:10176000002102F051F804E004F10800002101F02A
:10177000B7FF05462F464DB9D8F82400216E20F456
:10178000E04000250843C8F824003746607880060A
:1017900035D5606E4FEA3040052815D8DFE800F0F7
:1017A000041A0E04040400BF2E46DDB91EE000BF7B
:1017B0000125012760788006EBD420E004F12800A1
:1017C000012102F021F80AE0012501266078400697
:1017D00019D449E004F10800012101F081FF054618
:1017E0002E461DB1607840060DD43DE0D8F82400A7
:1017F000616E20F4E02000250843C8F824003E462E
:101800006078400630D5D4F8B0004FEA3070052833
:101810000ED8DFE800F00313070303032F46ADB92A
:1018200018E000BF04F12800012101F0EDFF0AE0FB
:1018300001250127607800061AD43CE004F1080075
:10184000012101F04DFF05462F461DB160780006CD
:101850000ED430E0D8F82C00D4F8B01020F0E040DE
:1018600000250843C8F82C0037466078000622D5CA
:10187000206F58B1B0F1005F0CD0B0F1805F37D16C
:10188000D8F8000040F40030C8F800002E469DB99A
:1018900008E000BF04F10800012101F021FF054626
:1018A0002E464DB9D8F82400216F20F04050002575
:1018B0000843C8F824003E46E078C0071DD0A06C5D
:1018C000032855D8DFE800F008024A08D8F80000DD
:1018D00040F40030C8F80000A9467DB9D8F82000CF
:1018E000A16C20F0030000250843C8F8200004E0A4
:1018F00001250126E078C007E1D1B146A078400675
:1019000002D44F4618E000BFD8F8D40340F48070EA
:10191000C8F8D403FFF730FB064600BFD8F8D4035D
:10192000C00507D4FFF728FB801B6428F6D90325E0
:10193000032701E02F46FDB12078C00700F06F803B
:10194000E06F4FEAF00005284ED8DFE800F00353BF
:1019500047030303002D2E4654D157E004F108003D
:10196000022101F0BDFE0546002DA946C6D1B5E70E
:1019700001254FF00109C1E7D8F84410D4F8B400AC
:10198000414011F4407F11D0D8F84410D8F84420D9
:1019900042F48032C8F84420D8F8442021F4407141
:1019A00022F48032C8F84420C8F84410B0F5807F93
:1019B00040F0E082FFF7E0FA064641F2883A03255C
:1019C000032700BFD8F84400800700F1D182FFF759
:1019D000D3FA801B5045F5D9AEE700BF04F12800CB
:1019E000012101F011FF0AE001250126207880077E
:1019F00019D446E004F10800012101F071FE05460A
:101A00002E461DB1207880070DD43AE0D8F8280082
:101A1000E16F20F0380000250843C8F828003E4652
:101A2000207880072DD5A06F05280FD8DFE800F0BB
:101A300004140804040400BF2F46ADB918E000BF29
:101A400004F12800012101F0DFFE0AE00125012751
:101A50002078400719D447E004F10800012101F083
:101A60003FFE05462F461DB1207840070DD43BE0D0
:101A7000D8F82800A16F20F0070000250843C8F817
:101A800028003746207840072ED5D4F89400052842
:101A90000ED8DFE800F00313070303032E46ADB9A9
:101AA00018E000BF04F12800012101F0ADFE0AE0BA
:101AB00001250126207880061AD44BE004F10800A5
:101AC000012101F00DFE05462E461DB1207880064D
:101AD0000ED43FE0D8F82C00D4F8941020F0070082
:101AE00000250843C8F82C003E462078800631D5F2
:101AF000D4F890004FEA307005280FD8DFE800F0E6
:101B000004140804040400BF2F46ADB918E000BF58
:101B100004F12800022101F077FE0AE001250127E7
:101B2000207840061AD44BE004F10800002101F0AF
:101B3000D7FD05462F461DB1207840060ED43FE064
:101B4000D8F82800D4F8901020F0E0400025084391
:101B5000C8F8280037462078400631D5D4F89C00D4
:101B60004FEAB02005280FD8DFE800F0041408047D
:101B7000040400BF2E46ADB918E000BF04F12800F0
:101B8000022101F041FE0AE001250126207800062D
:101B90001AD44EE004F10800002101F0A1FD054631
:101BA0002E461DB1207800060ED442E0D8F82C0055
:101BB000D4F89C1020F4E05000250843C8F82C000D
:101BC0003E462078000634D5D4F8A0004FEA7030A5
:101BD000052815D8DFE800F0041A0E04040400BF3D
:101BE0002F46E5B12068010727D4C1063ED4000383
:101BF00055D477E004F12800022101F005FE0AE047
:101C00000125012720680107EFD516E004F108003F
:101C1000002101F065FD0546002D2F46E2D1D8F8E0
:101C20002C00D4F8A01020F4604000250843C8F828
:101C30002C00374620680107D7D5D4F88400B0F5CA
:101C4000805F09D104F12800022101F0DDFD0028A8
:101C500018BF0127D4F88400D8F8281021F4405187
:101C60000843C8F828002068C106C0D5D4F89800F9
:101C7000B0F5807F09D104F12800022101F0C4FDF4
:101C8000002818BF0127D4F89800D8F82C1021F4A8
:101C900040710843C8F82C002068000322D5D4F80E
:101CA000A400B0F5003F11D0B0F5803F08D0002867
:101CB00044D104F10800002101F012FD05E000BF4D
:101CC00004F12800022101F09FFD05462E4655B97A
:101CD000D8F82C00D4F8A41020F440300025084394
:101CE000C8F82C003E46A07840072CD5D4F88800D0
:101CF000B0F5401F0BD0B0F5001F0BD0B0F5801F22
:101D00002AD1D8F8000040F40030C8F800002F466F
:101D1000D5B907E004F12800012101F075FD054661
:101D20002F468DB9D8F82800D4F8881020F4401038
:101D300000250843C8F8280005E000BF012501265A
:101D4000A0784007D2D43746A078C00709D13E46D4
:101D50002168880015D532E001250127A078C00749
:101D6000F5D0206DB0F5803F10D018BBD8F800003A
:101D700040F40030C8F800002E4685B12168880084
:101D80001DD460688A0326D469E000BF04F108000E
:101D9000022101F0A5FC0546002D2E46EED1D8F813
:101DA0002000216D20F4803000250843C8F8200071
:101DB000CDE700BF0125012621688800E1D504F1A7
:101DC0002800022101F020FD002818BF0126D4E9D7
:101DD00000108A0343D5D4F880206FF0010303EB91
:101DE0003223022B0BD34FEA322343B1012B40F0B5
:101DF000B980D8F8003043F40033C8F800303DB360
:101E0000CA022FD4CA0037D48A0240D44A0048D428
:101E1000CA0F55D109025DD4C10766D181076FD4BD
:101E2000410779D4010700F18380C10600F18C805D
:101E3000800607D504F12800022101F0E5FC002806
:101E400018BF0125002D18BF01252846BDE8F087E1
:101E5000D8F8283023F440731A43C8F828203546B0
:101E6000CA02CFD5D8F82420636F22F000421A436B
:101E7000C8F82420CA00C7D558F81C2CD4F8B830AC
:101E800022F480421A4348F81C2C8A02BED5D8F8A6
:101E90002420E36E22F080721A43C8F824204A00FE
:101EA000B6D558F81C2C22F4004248F81C2CD4F863
:101EB000BC2058F81C3C1A4348F81C2CCA0FA9D067
:101EC000D8F82020636D22F040521A43C8F8202031
:101ED0000902A1D5D8F82810D4F88C2021F44001AB
:101EE0001143C8F82810C10798D004F10800002158
:101EF00001F0F6FB002818BF0546606881078FD502
:101F000004F10800012101F0EBFB002818BF054691
:101F1000606841077FF586AF04F10800022101F0F7
:101F2000DFFB002818BF0546606801077FF57DAF1D
:101F300004F12800002101F067FC002818BF0546C5
:101F40006068C1067FF574AF04F12800012101F03B
:101F50005BFC002818BF0546606880063FF56AAF45
:101F600070E700BF0125CA027FF54CAF7AE700BFDA
:101F7000D4F8B4004FF6CF7358F81C2CC0F2FF030E
:101F800000F4407122F47C5203EA10136FF31F3007
:101F9000B1F5407F08BF1A43002548F81C2CD8F83B
:101FA00044100843C8F84400FFF7ABBC0000000031
:101FB0002DE9F04381B0002800F0208142F20009B1
:101FC0000446C5F20029D9F8000000F00F0088424D
:101FD0000DD2D9F8000020F00F000843C9F8000026
:101FE000D9F8000000F00F00884240F00781206817
:101FF00044F218464207C5F602060AD5226933683C
:1020000003F070039A4204D9336823F070031A4333
:10201000326002070AD56269736803F070039A425E
:1020200004D9736823F070031A437260C2060AD59C
:10203000A269736803F4E0639A4204D9736823F4D5
:10204000E0631A43726082060AD5E269B36803F05E
:1020500070039A4204D9B36823F070031A43B26044
:1020600010F002020AD0E368376807F00F07BB429E
:1020700004D9376827F00F073B433360C3073FD0CD
:10208000306820F47062D4E901031A4332600128F9
:1020900056F8182C0AD0032804D002280AD192033B
:1020A0000BD4ABE0920108D4A8E000BFD20504D461
:1020B000A4E000BF520740F1A180884656F8081CF2
:1020C00021F00701084346F8080CFEF755FF0546C6
:1020D00041F2883756F8080C616800F03800B0EB20
:1020E000C10F09D0FEF748FF401BB842F2D90320C8
:1020F00001B0BDE8F08300BF2068414600F0020255
:1021000052B1E268336803F00F039A4204D2336895
:1021100023F00F031A433260D9F8002002F00F02B7
:102120008A420CD9D9F8002022F00F020A43C9F8DC
:102130000020D9F8002002F00F028A425ED1410748
:102140000AD52169326802F07002914204D23268E5
:1021500022F070021143316001070AD5616972688B
:1021600002F07002914204D2726822F070021143B0
:102170007160C1060AD5A169726802F4E0629142F9
:1021800004D2726822F4E0621143716080060AD5BD
:10219000E069B16801F07001884204D2B16821F0B1
:1021A00070010843B06000F0B7F8316844F248624B
:1021B000C0F60002C1F30321515C336803F00F0342
:1021C00001F01F01D25C20FA01F102F01F0040F281
:1021D0000C02C2F2004221FA00F0106040F204004A
:1021E00040F20802C2F20040C2F2004200681160F0
:1021F00001B0BDE8F043FEF70BBF00BF012001B006
:10220000BDE8F0830000000080B500F085F844F2DE
:10221000184144F24863C5F60201C0F600030A689B
:10222000C2F303229A5C096801F00F0102F01F0259
:10223000595C20FA02F201F01F0040F20C01C2F2D8
:10224000004122FA00F0086040F20801C2F20041A9
:102250000A6080BD0000000080B500F05DF844F227
:10226000184C44F24863C5F6020CC0F60003DCF8D3
:102270000020C2F303229A5CDCF8001001F00F0189
:1022800002F01F02595CD04040F20C02C2F2004240
:1022900001F01F0120FA01F1116040F20802C2F2C0
:1022A00000421060DCF80400C0F30210185C00F07B
:1022B0001F0021FA00F080BD80B500F02DF844F237
:1022C000184C44F24863C5F6020CC0F60003DCF873
:1022D0000020C2F303229A5CDCF8001001F00F0129
:1022E00002F01F02595CD04040F20C02C2F20042E0
:1022F00001F01F0120FA01F1116040F20802C2F260
:1023000000421060DCF80400C0F30220185C00F00A
:102310001F0021FA00F080BD44F20041C5F6020121
:102320000869C0F3C200032816D002280ED098BB5B
:102330000868800649F20000C0F2D03058BF7047EC
:102340000968C1F3C101C840704700BF47F64000AB
:10235000C0F27D10704700BF8A6A886AC0F3051C0E
:10236000C86ABCF1000F4B6B1CD000F0010040426A
:1023700000EAD3006FF35F3000EE100A02F00300B2
:102380000228B8EE400A0FD090B90868800613D42E
:102390009FED251A1DE000BF40F60010C0F23D0081
:1023A000704700BF002070479FED1E1A11E000BF6C
:1023B0009FED1B1A0DE000BF086849F20002C0F251
:1023C000D032C0F3C10022FA00F001EE100AB8EEDC
:1023D000411A086B9FED153A6FF35F2002EE100A69
:1023E000086BC0F34620B8EE422A013000EE032A03
:1023F00000EE10CAB7EE003AB8EE400A81EE000ACD
:1024000032EE031A20EE010A01EE100AB8EE411A6C
:1024100080EE010ABCEEC00A10EE100A704700BF41
:102420000024744A20BCBE4B0024744C00000039C8
:1024300070B3F0B581B00446007844F20046C0079E
:10244000C5F6020626D12078800740F1C2803069A7
:1024500010F03801B06A3FD0182908BF5FEA8070D9
:102460003AD0E0683168002862D021F019010843B1
:102470003060FEF781FD05463068400748D4FEF71E
:102480007BFD401B0228F7D9032001B0F0BD00BF3F
:1024900001207047306900F03801B06A102905D07A
:1024A00018290BD100F00300022807D130688003FF
:1024B000C9D560680028C6D13CE100BF61683068BA
:1024C00000294FD0B1F5A02F44D0B1F5803F5FD1A6
:1024D00040F4803062E000BF30684007E06802D519
:1024E000002800F02781316821F01901084330608D
:1024F000FEF742FD054600BF3068400708D4FEF7EE
:102500003BFD401B02284FF00300F5D901B0F0BDA0
:10251000FEF72AFD41F2030188424FD82069716815
:10252000402821F47C3151D141F4003050E000BF0B
:1025300021F001003060FEF71FFD054630684007BE
:1025400047D5FEF719FD401B02284FF00300F5D9CF
:10255000DCE700BF40F480203060306840F4803019
:102560001CE000BF20F480303060306820F4802010
:102570003060FEF701FD0546306880037FF563AFEC
:10258000FEF7FAFC401B64284FF00300F4D9BDE7C6
:1025900020F480303060306820F480203060FEF716
:1025A000EBFC0546306880033FF54DAFFEF7E4FCD9
:1025B000401B6428F6D9032001B0F0BD7068216982
:1025C00020F0FE4040EA016002E000BF41EA003036
:1025D00070602078C00654D5306900F03801B06AC8
:1025E000082905D0182919D100F00300012815D1B8
:1025F0003068C00503D5E069802840F09B80FEF775
:10260000B3FC41F2030188421ED8206A7168202879
:1026100021F0F84132D141F0804031E0E0690028FA
:10262000306819D040F080003060FEF7A5FC054608
:102630003068C005E3D4FEF79FFC401B02284FF032
:102640000300F5D962E700BFF068216A20F07C50F2
:1026500040EA0160F06014E020F080003060FEF796
:102660008BFC05463068C0050BD5FEF785FC401B8A
:1026700002284FF00300F5D948E700BF41EA806027
:102680007060207800073FD42078800656D42078E8
:10269000400769D4656A9DB3306900F03800182896
:1026A00040F0A880012DB16A306B43D001F00302E5
:1026B000A36A9A423ED1C1F30511E26A914239D12F
:1026C0000146226B6FF35F21013A914232D1C0F390
:1026D0004622616B01398A422CD1C0F30642A16BBC
:1026E00001398A4226D1C0F30660E16B0139884284
:1026F00020D1706BA16CC0F3CC00814240F03481DA
:10270000002001B0F0BD00BF60690028706F41D0AB
:1027100040F001007067FEF72FFC0546706F8007E0
:10272000B2D4FEF729FC401B0228F7D9032001B0E0
:10273000F0BD00BF012001B0F0BD00BFA0690028BE
:10274000306845D040F480503060FEF715FC0546F7
:10275000306880049BD4FEF70FFC401B0228F7D999
:10276000032001B0F0BD00BFD6F8000440F4807033
:10277000C6F80004FEF700FC054600BFD6F80004CA
:10278000C00519D4FEF7F8FB401B6428F6D90320D6
:1027900001B0F0BD20F001007067FEF7EDFB0546CB
:1027A000706F80077FF570AFFEF7E6FB401B0228D5
:1027B0004FF00300F4D9A9E6A168306F002943D097
:1027C000052939D0012957D140F001005AE000BF56
:1027D00020F480503060FEF7CFFB0546306880045F
:1027E0007FF555AFFEF7C8FB401B02284FF00300F2
:1027F000F4D98BE6306820F080703060FEF7BCFBC7
:10280000022D05460CD100BF306880014CD5FEF783
:10281000B3FB401B02284FF00300F5D976E600BF5A
:10282000306880017FF56CAFFEF7A6FB401B0228E5
:102830004FF00300F4D969E640F004003067306FD0
:1028400040F001001EE000BF20F001003067306F53
:1028500020F004003067FEF78FFB054641F2883711
:10286000306F80077FF516AFFEF786FB401BB8423E
:102870004FF00300F4D949E620F001003067306FD3
:1028800020F004003067FEF777FB054641F28837F9
:10289000306F80073FF5FEAEFEF76EFB401BB8427F
:1028A0004FF00300F4D931E604F12807B06A40F292
:1028B000F33188438ECF0843591E40EA02104FF48B
:1028C0007E426FF35F21B06202EB47204FF4FE02BD
:1028D00080B2E36B0844A16B02EB01414FF0FE4272
:1028E00001F4FE0102EB0362084402F0FE410844D9
:1028F0003063F06A4FF6F87120F00100F062706BFF
:10290000A26C884340EAC2007063F06A216C20F038
:102910000C000843F062F06A616C20F0020008438A
:10292000F062F06A40F48030F062F06A40F4003007
:10293000F062F06A40F48020F062F06A40F001003A
:10294000F062306840F080703060FEF715FB04469E
:10295000306880013FF5D4AEFEF70EFB001B022865
:102960004FF00300F4D9D1E5F06A20F00100F062E5
:10297000FEF702FB0546FEF7FFFAA842FBD0706B9C
:102980004FF6F871A26C884340EAC2007063F06AA7
:1029900040F00100F062002001B0F0BD0000000036
:1029A00000284DD02DE9F04F81B043F600040168B6
:1029B000C4F2000443F2000E43F6004CA142C4F2FC
:1029C000010EC4F2000C4FF00002826203D0614598
:1029D00018BF714542D1C26B0125C368A14203F102
:1029E000080305EB52124FEAD30303FB02F218BFB0
:1029F000714527D1102A34D890F8811031B90021BF
:102A000080F88010044600F0ABF82046022180F8E0
:102A10008110D0E90019D0F818800D68B8F1806FE6
:102A200025F001050D608D6805F4F81E26D1B9F179
:102A3000000F1BD0B9F5800F20D1856B25BB19E0A5
:102A400001207047614518BF082A0AD80CF5744365
:102A50009942CFD06145CDD0CEE700BFC2680F2AE2
:102A6000B9D9012001B0BDE8F08F00BF856BB5F189
:102A7000805F06D10D6845F480550D605FEA4925F9
:102A800002D44FF0010C0FE0C468072C0AD30D6884
:102A900025F4807C056D45EA0C050D604FF0000CB7
:102AA00007E000BF4FF0000C0C6824F480740C6049
:102AB000C468C769836A47EA0E07C26B3B438768ED
:102AC0001A43B9F1000FD0E904BA42EA04028A605D
:102AD000426B856B436A42EA0302036A42EA0502DB
:102AE00042EA0B0242EA0A02D0E9126442EA030215
:102AF000836D42EA040242EA070242EA060242EA1F
:102B0000030242EA080242EA0902CA600ED00A6DD4
:102B1000BCF1000F22F001020A6515D1CA68436DAD
:102B200022F000421A43CA600EE000BF8A68012307
:102B300063F3CC228A608A68022363F34A228A60A4
:102B40000A6D22F001020A650021C0F884100121FB
:102B500080F88110002001B0BDE8F08F0000000077
:102B6000B0B5B8B0044602A80830B82100253395A6
:102B7000CDE93655CDE93455FDF78CFC43F2000123
:102B80002068C4F20101884202D038B0B0BD00BF55
:102B90004FF48050029002A80395FEF781FC08B123
:102BA000FDF7E6FC44F2E040C5F60200016941F49D
:102BB00080510161016901F480510191019901681D
:102BC00041F001010160006833A900F001000190AB
:102BD0000198E0203390022034900020CDE93500A8
:102BE000052037900020C5F60200FEF7E1F838B066
:102BF000B0BD000000000000411E0020B0EB116FCE
:102C000002D00120704700BF4EF21002F023CEF236
:102C1000000251604EF62351CEF200010B700721E5
:102C2000906011607047000090F88410012901D174
:102C3000022070472421C0F8881001680A680B68D8
:102C400022F0005223F001030B60002343660A6068
:102C50002021C0F8881080F88430002070470000E0
:102C600070470000000000007047000000000000F6
:102C700090F88420012A01D10220704770B52422E7
:102C8000C0F888200268D0F864E0BEF1000FD2F8E6
:102C900000C0136823F001031360936823F060639E
:102CA00041EA0301916019D0916844F2706E936813
:102CB000C0F6000E5B0F44F27865C1F34266C0F6C1
:102CC00000051EF80340E95C2301B3FBF1F11EF897
:102CD0000630AE5D1B01B3FBF6F301E001210123D9
:102CE000A0F86A102021A0F86830C2F800C0C0F82F
:102CF0008810002180F88410002070BD00000000C2
:102D000090F88420012A01D10220704770B5242256
:102D1000C0F888200268D0F864E0BEF1000FD2F855
:102D200000C0136823F001031360936823F060432D
:102D300041EA0301916019D0916844F2706E936882
:102D4000C0F6000E5B0F44F27865C1F34266C0F630
:102D500000051EF80340E95C2301B3FBF1F11EF806
:102D60000630AE5D1B01B3FBF6F301E00121012348
:102D7000A0F86A102021A0F86830C2F800C0C0F89E
:102D80008810002180F88410002070BD0000000031
:102D900070470000000000007047000000000000C5
:102DA000704700000000000070B5016840F62F0277
:102DB000CB691A40202A0A688E680BD102F02004E1
:102DC00006F080552D1917D0416F69B3BDE87040EA
:102DD000084700BF40F60F052B420DD0012540F2F9
:102DE0002014C1F20005C0F2004406EA050C02EA14
:102DF000040515EB0C0525D1DD06C46E16D5012C96
:102E000014D112F0100511D010220A628968490607
:102E100066D4B0F85C10B0F85E20B0F85E30002BDD
:102E200018BF914240F05C8270BD00BFDD0215D535
:102E300016F4800512D04FF480120A62BDE870408B
:102E4000FFF7AABFDD0718BF12F4807540F01E819E
:102E50009D0706F0010E00F125812EE1190606D529
:102E600002F0800106F40006891940F0BF8259067D
:102E700040F1008112F0400100F0FC80016851E84F
:102E8000001F026821F0400142E80013F3B101681D
:102E900051E8001F026821F0400142E80013002BB6
:102EA0001FBF016851E8001F026821F040011CBFEC
:102EB00042E80013002B09D0016851E8001F0268A6
:102EC00021F0400142E80013002BD7D12021C0F8A7
:102ED000881000218167BDE8704000F029BB00BF69
:102EE000D0F880100A68526893B2002B9CD0B0F8DA
:102EF0005C60B34298D2A0F85E20C969B1F5807FCA
:102F000000F0AC80016851E8001F026821F4807174
:102F100042E80013F3B1016851E8001F026821F490
:102F2000807142E80013002B1FBF016851E8001FA9
:102F3000026821F480711CBF42E80013002B09D005
:102F4000016851E8001F026821F4807142E8001313
:102F5000002BD7D1016851E8021F026821F001015E
:102F600042E80213F3B1016851E8021F026821F040
:102F7000010142E80213002B1FBF016851E8021F44
:102F8000026821F001011CBF42E80213002B09D0A6
:102F9000016851E8021F026821F0010142E80213B2
:102FA000002BD7D1016851E8021F026821F04001CF
:102FB00042E80213F3B1016851E8021F026821F0F0
:102FC000400142E80213002B1FBF016851E8021FB5
:102FD000026821F040011CBF42E80213002B09D017
:102FE000016851E8021F026821F0400142E8021323
:102FF000002BD7D12021C0F88C100021C1660168B8
:1030000051E8001F026821F0100142E80013F3B1FB
:10301000016851E8001F026821F0100142E8001326
:10302000002B1FBF016851E8001F026821F010014A
:103030001CBF42E80013002B09D0016851E8001FB3
:10304000026821F0100142E80013002BD7D1D0F81C
:10305000801004460846FDF7BBFA204602210167AE
:10306000B0F85C10B0F85E20891A89B2BDE87040F3
:10307000FFF7F6BD190240F1C58112F0804100F062
:10308000C181BDE87040FFF783BE00BF01250D621E
:10309000D0F8905045F00105C0F890509D0706F01B
:1030A000010E0AD5BEF1000F07D002240C62D0F841
:1030B000904044F00404C0F890405C070AD5BEF18B
:1030C000000F07D004250D62D0F8905045F002059E
:1030D000C0F890501D070CD502F0200555EA0C05EC
:1030E00007D008250D62D0F8905045F00805C0F8CB
:1030F00090501D050BD512F0806508D04FF4006587
:103100000D62D0F8905045F02005C0F89050D0F8EE
:103110009050002D3FF488AE9B060BD502F02002A4
:1031200006F08053D21805D0426F1AB1044690477A
:1031300020462168D0F89020896801F0400102F013
:103140002802891806D10446FFF72AFE0020C4F899
:10315000900070BD016851E8001F026821F4907171
:1031600042E80013F3B1016851E8001F026821F43E
:10317000907142E80013002B1FBF016851E8001F47
:10318000026821F490711CBF42E80013002B09D0A3
:10319000016851E8001F026821F4907142E80013B1
:1031A000002BD7D14FF6FE71CEF6FF71026852E8C0
:1031B000022F03680A4043E80226DEB1026852E8A3
:1031C000022F03680A4043E80226002E1FBF026850
:1031D00052E8022F03680A401CBF43E80226002E73
:1031E00008D0026852E8022F03680A4043E802262A
:1031F000002EDBD1C16E012927D1016851E8001FE3
:10320000026821F0100142E80013F3B1016851E8AF
:10321000001F026821F0100142E80013002B1FBFBD
:10322000016851E8001F026821F010011CBF42E84C
:103230000013002B09D0016851E8001F026821F03B
:10324000100142E80013002BD7D12021C0F88C10C8
:103250000021C166026841679168490640F1CE804D
:10326000016851E8021F026821F0400142E80213A0
:10327000F3B1016851E8021F026821F0400142E801
:103280000213002B1FBF016851E8021F026821F0E2
:1032900040011CBF42E80213002B09D0016851E82D
:1032A000021F026821F0400142E80213002BD7D12F
:1032B000D0F88010002900F0A18043F6A152044606
:1032C0000846C0F600020A65FDF716FC00283FF428
:1032D000ABADD4F88000016DBDE87040084700BF79
:1032E000891A026852E8002F036822F4907243E8BA
:1032F0000026F6B1026852E8002F036822F49072AB
:1033000043E80026002E1FBF026852E8002F036822
:1033100022F490721CBF43E80026002E09D00268F8
:1033200052E8002F036822F4907243E80026002E32
:10333000D7D14FF6FE72CEF6FF72036853E8023F14
:103340000668134046E80235DDB1036853E8023FE2
:103350000668134046E80235002D1FBF036853E896
:10336000023F066813401CBF46E80235002D08D016
:10337000036853E8023F0668134046E80235002D13
:10338000DBD12022C0F88C200022C266426702688E
:1033900052E8002F036822F0100243E80026F6B13D
:1033A000026852E8002F036822F0100243E800266A
:1033B000002E1FBF026852E8002F036822F010029F
:1033C0001CBF43E80026002E09D0026852E8002FF7
:1033D000036822F0100243E80026002ED7D189B2FC
:1033E00002220267BDE87040FFF73ABC816F0029F6
:1033F0003FF41AADBDE87040084700BFBDE870401B
:10340000FFF7CEBCD9017FF50FADB2F1FF3FC8BFCA
:1034100070BDBDE87040FFF727BC00000000000051
:1034200010B5D8B10446D0F8880028B9002084F837
:103430008400204600F028F82420C4F88800206882
:10344000A16A0268002922F00101016002D0204631
:1034500000F07EFB204600F0ABFC08B1012010BD5F
:103460002068416821F490414160816821F02A017F
:103470008160016841F0010101602046BDE8104013
:1034800000F0D6BB00000000B0B5B8B0044602A8FA
:103490000830B82100253395CDE93655CDE93455AE
:1034A000FCF7F8FF44F600012068C4F200018842EE
:1034B00002D038B0B0BD00BF02A803950224029428
:1034C000FDF7EEFF08B1FDF753F844F2E040C5F612
:1034D0000200816841F480218160816801F48021CB
:1034E00001910199016841F002010160006833A96E
:1034F00000F00200019001984FF44060CDE93304E0
:103500000020CDE935000720379040F20040C5F695
:103510000200FDF74DFC272000210022FDF714FEDC
:103520002720FDF7FDFD38B0B0BD00000000000011
:103530007047000000000000FEE7000000000000EF
:1035400010B540F2880440F21400C2F20044C2F206
:103550000040611CFDF714F8207010BD0000000051
:1035600070B586B044F2E0400025C5F6020005952E
:10357000CDE90355CDE901550168002441F004016E
:1035800001600168C5F6020401F004010091009990
:10359000016841F0800101600168002201F08001B2
:1035A00000910099016841F0010101600168102655
:1035B00001F0010100910099016841F002010160F0
:1035C0000068102100F00200009000982046FDF7EE
:1035D000C3FC012001A9CDE902052046019604950E
:1035E000FDF7E6FB06B070BD10B540F29C0443F257
:1035F0000000C2F20044C4F20100032120604FF435
:10360000800060600020A060C4E9031060614FF09A
:103610008061C4E90610C4E90800C4E90A004FF05B
:103620008040606304F138002421FCF733FF20461A
:10363000FFF7B6F9002808BF10BDBDE81040FCF741
:1036400097BF00000000000080B540F2241044F64F
:103650000001C2F20040C4F200010C2201604FF4EC
:10366000E13141600021C0E902110161C0E9052199
:10367000C0E90711C0E90911FFF7D2FE08B1FCF754
:1036800077FF40F224100021C2F20040FFF738FB20
:1036900008B1FCF76DFF40F224100021C2F2004097
:1036A000FFF7E6FA08B1FCF763FF40F22410C2F21C
:1036B0000040FFF7B9FA002808BF80BDBDE8804090
:1036C000FCF756BF00000000FEE70000000000000D
:1036D000FEE700000000000070470000000000004E
:1036E000F0B581B044F22C47C5F6020757F8042C18
:1036F00002F00302032A03D1012001B0F0BD00BF94
:10370000054657F82C0C0C4620F0806047F82C0C2E
:10371000FDF732FC064600BF57F82C0C000105D51A
:10372000FDF72AFC801B0228F6D964E057F8040C48
:10373000EE6895E80E0020F47C30012C40EA013060
:10374000A2F101016FF35F214FF47E4202EB4322AD
:1037500047F8040C92B24FF0FE4302EB01004FF425
:10376000FE012A6901EB064101F4FE0103EB02624E
:10377000084402F0FE410844F8603868696920F0A6
:10378000C00040EA010038603868A96920F02000D4
:1037900040EA0100386038684FF6F87120F01000F8
:1037A00038603869EA6920EA01004FF4001140EA04
:1037B000C2003861386808BF4FF4801140F0100033
:1037C000002C386008BF4FF4002138680843386087
:1037D00057F82C0C40F0806047F82C0CFDF7CCFB20
:1037E000044600BF57F82C0C000107D4FDF7C4FBBA
:1037F000001B0328F6D3032001B0F0BD002001B068
:10380000F0BD000000000000F0B581B044F22C478C
:10381000C5F6020757F8042C02F00302032A03D16D
:10382000012001B0F0BD00BF054657F82C0C0C4636
:1038300020F0805047F82C0CFDF79EFB064600BF99
:1038400057F82C0C800005D5FDF796FB801B02284D
:10385000F6D964E057F8040CEE6895E80E0020F005
:103860007C70012C40EA0150A2F101016FF35F214D
:103870004FF47E4202EB432247F8040C92B24FF021
:10388000FE4302EB01004FF4FE012A6901EB064101
:1038900001F4FE0103EB0262084402F0FE41084419
:1038A00078613868696920F4406040EA0100386056
:1038B0003868A96920F4007040EA0100386038686F
:1038C0004FF6F87120F480703860B869EA6920EA30
:1038D00001004FF0807140EAC200B861386808BF4B
:1038E0004FF4000140F48070002C386008BF4FF4A2
:1038F000800138680843386057F82C0C40F080503D
:1039000047F82C0CFDF738FB044600BF57F82C0C89
:10391000800007D4FDF730FB001B0328F6D30320FB
:1039200001B0F0BD002001B0F0BD000000000000BB
:103930007047000000000000FDF726BB00000000FB
:1039400070B59CB044F6180440F22C4509A84C21EF
:10395000C5F60204C5F60005FCF79CFD0220002612
:10396000CDE90766CDE90566CDE90366CDE90166D7
:10397000FDF72AFC0096286820F0010028602868DE
:1039800000F001000090206840F440402060206872
:1039900000F44040009000982068800409D420681A
:1039A00080045CBF20685FEA804002D42068800405
:1039B000F2D54FF6DC40CFF6FF70215841F00201FE
:1039C0002150205800F00200009000980020009044
:1039D000206840F440402060206800F4404000909F
:1039E000286840F001002860286800F0010000907D
:1039F00000982068800409D4206880045CBF206897
:103A00005FEA804002D420688004F2D50220099049
:103A100001210C9112900025042114913C21402495
:103A2000CDE9151005210D94CDE917100C20139543
:103A3000CDE9190509A81B95FEF7FAFC20B1EFF3B3
:103A4000108072B6FEE700BF3F20019003200421E2
:103A5000CDE9020508200694CDE904044FF4806006
:103A6000CDE9070401A8FEF7A3FA28B1EFF310800F
:103A700072B600BFFEE700BF1CB070BD00000000C2
:103A80004EF6885042F2000CCEF20000C5F2002C37
:103A9000016841F470010160DCF8000000F00F00E3
:103AA000062806D8DCF80000072161F30300CCF8F3
:103AB000000044F200404EF67F52C5F60200CEF6FA
:103AC000F622016841F001010160002101610368F3
:103AD0001A400260DCF80020120706D5DCF800204E
:103AE000072363F30302CCF8002040F20022816137
:103AF000C161C0F20222016282620022C0F2FF12A2
:103B0000C26240F28022C0F201120263416382630A
:103B1000C16302644164026822F48022026001668B
:103B200041F20000C5F600400068B1EB507F05D1BE
:103B300048F208100121C5F20010016044F20000B3
:103B400043F2D201C5F2002001607047000000007E
:103B5000816A0A070CD4CA0715D18A071ED44A07FE
:103B600027D4CA0630D48A0639D44A0642D454E04F
:103B70000268D0F838C0536823F4004343EA0C03CA
:103B80005360CA07E9D00268D0F82CC0536823F408
:103B9000003343EA0C0353608A07E0D50268D0F88B
:103BA00030C0536823F4803343EA0C0353604A0760
:103BB000D7D50268D0F834C0536823F4802343EA91
:103BC0000C035360CA06CED50268D0F83CC0936897
:103BD00023F4805343EA0C0393608A06C5D5026838
:103BE000D0F840C0936823F4005343EA0C03936079
:103BF0004A0612D50268D0F844C0BCF5801F53684D
:103C000023F4801343EA0C03536006D1536823F472
:103C1000C00C836C43EA0C035360090658BF70471D
:103C20000168C06C4A6822F4002210434860704763
:103C3000B0B582B004460020C4F89000FDF79CF9AE
:103C4000216805460A68120737D54FF40011002293
:103C50006FF07E40009020462B4600F0EDFA58B3FE
:103C6000206850E8000F216820F0800041E8000241
:103C7000002A1FBF206850E8000F216820F0800054
:103C80001CBF41E80002002A12D0206850E8000F53
:103C9000216820F0800041E800024AB1206850E825
:103CA000000F216820F0800041E80002002AD7D1EF
:103CB0000320202188226CE02168086840075FD536
:103CC0004FF4800100226FF07E40009020462B468A
:103CD00000F0B2FA002853D0206850E8000F2168A5
:103CE00020F4907041E80002F2B1206850E8000F23
:103CF000216820F4907041E80002002A1FBF20686C
:103D000050E8000F216820F490701CBF41E80002C9
:103D1000002A09D0206850E8000F216820F4907034
:103D200041E80002002AD7D1206850E8020F21683C
:103D300020F0010041E80202002A1FBF206850E87D
:103D4000020F216820F001001CBF41E80202002A96
:103D500012D0206850E8020F216820F0010041E8ED
:103D600002024AB1206850E8020F216820F00100E9
:103D700041E80202002AD7D1032020218C2208E04A
:103D80002020C4F88800C4F88C0000217022002094
:103D9000E166A150002184F8841002B0B0BD00009B
:103DA000806B0021A0F85E10A0F85610FEF7F8BF57
:103DB000F0B583B00446006846F6F31640F6004EB0
:103DC00022696569D4E902130A43E7690168CCF600
:103DD000FF762A4331401143C5F6000E3943016096
:103DE0004168704521F4405144F2544C41EA0301CA
:103DF0004160A2694FF2FF431CBF216A0A438168F8
:103E0000C1F2FF131940C5F6020C1143816047F25D
:103E1000FF72C16AC4F2000221F00F01656A90428C
:103E20004FF0800341EA0501C1621FDD40F6FF71DA
:103E3000C4F2010188423BDD704500F0258141F26A
:103E40000041C4F20101884205D041F20001C4F2F0
:103E50000101884244D1DCF80010C1F3C202062AF5
:103E60003ED244F23C61C0F6000137E044F6FF3137
:103E7000C4F2000188420DDC44F20041C4F20001AA
:103E8000884221D044F60001C4F2000188421BD0D0
:103E900026E000BF44F60041C4F20001884213D07E
:103EA00045F20001C4F2000188420DD018E000BFC5
:103EB00047F60001C4F20001884205D047F60041F0
:103EC000C4F2000188420BD1DCF8001001F00702B7
:103ED000062A05D244F24261C0F600018B181B7815
:103EE000704540F60010C0F23D0000F05380B7F579
:103EF000004F40F07B80402B4FF0010100F28F819A
:103F0000DFE813F0420038018D018D0140018D0181
:103F10008D018D014C018D018D018D018D018D0172
:103F20008D018D0114018D018D018D018D018D019A
:103F30008D018D018D018D018D018D018D018D0111
:103F40008D018D0152018D018D018D018D018D013C
:103F50008D018D018D018D018D018D018D018D01F1
:103F60008D018D018D018D018D018D018D018D01E1
:103F70008D018D018D018D018D018D018D018D01D1
:103F80008D018D01300100BFFEF766F9002840F079
:103F90000A8140E19A1E01211E2A00F27F80DFE89B
:103FA00012F01F003E0191003E013E013E019700CC
:103FB0003E013E013E013E013E013E013E018300C5
:103FC0003E013E013E013E013E013E013E013E01F9
:103FD0003E013E013E013E013E013E013E019F0089
:103FE000FDF71AF9002840F07A8014E1402B4FF0D9
:103FF000010100F21481DFE813F04100C100120159
:104000001201CB00120112011201F3001201120180
:1040100012011201120112011201A7001201120174
:1040200012011201120112011201120112011201F8
:1040300012011201120112011201F9001201120102
:1040400012011201120112011201120112011201D8
:1040500012011201120112011201120112011201C8
:1040600012011201120112011201120112011201B8
:1040700012011201120112011201B900FEF7ECF84F
:10408000002840F0B280C6E0DCF8041001F007021E
:10409000062ABFF425AF66A120E700BF402B40F001
:1040A000BE804FF400401BE05CF8540C800649F2DF
:1040B0000000C0F2D03013D55CF8541CC1F3C1012C
:1040C000C8400DE06846FDF7BBF8019838B9A2E09A
:1040D0006846FDF74DF90198002800F09C80656A5C
:1040E00044F258616268C0F6000131F81510B0FB67
:1040F000F1F002EB420188424FF00101C0F08F80E5
:104100001303984200F28B80010E0023000210EB93
:10411000520041F10001FCF745F94FF60052A0F5BD
:104120004071C0F20F02914273D377E05CF8540CF7
:10413000800649F20000C0F2D03035D55CF8541C3E
:10414000C1F3C101C8402FE05CF8540C800649F26D
:104150000000C0F2D03049D55CF8541CC1F3C10155
:10416000C84043E04FF400401EE000BF4FF4004061
:104170003CE000BFFEF7A0F8A8B94CE0FEF79CF8C1
:1041800098BB48E06846FDF75BF8019858B942E0F3
:104190006846FDF755F8019838BB3CE06846FDF7E6
:1041A000E7F80198B8B3656A44F25861C0F60001B7
:1041B00031F81510B0FBF1F061684A0802EB4000DD
:1041C0004FF6EF72B0FBF1F0A0F11001914225D84B
:1041D0004FF6F0710140C0F34200084419E000BFFF
:1041E0006846FDF7C5F80198A8B1656A44F25861C0
:1041F0006268C0F6000131F81510B0FBF1F000EB79
:104200005200B0FBF2F0A0F110014FF6EF729142B4
:1042100004D82168C860002101E000BF01214FF0EF
:104220000110A0660020C4E91D00084603B0F0BDDF
:1042300002040810204000002DE9F041804600688B
:104240000D46C7693940491BB1FA81F149099142CC
:1042500025D1069C34B31646611C29D1C169294079
:10426000491BB1FA81F14909B14218D1C16929400C
:10427000491BB1FA81F14909B14201BFC169294025
:10428000491BB1FA81F104BF4909B14207D1C169A3
:104290002940491BB1FA81F14909B142DED0002021
:1042A000BDE8F081FCF768FE0320BDE8F08100BFA7
:1042B0001F4607E0C0692840401BB0FA80F0400963
:1042C000B042ECD1FCF758FEC01BA04200F2B68011
:1042D000D8F8000001684907ECD5402D18BF802DA3
:1042E000E8D0C169090700F1AD80C1690905E1D5D0
:1042F0004FF400610162D8F8000050E8000FD8F8D0
:10430000001020F4907041E8000222B3D8F80000B9
:1043100050E8000FD8F8001020F4907041E8000237
:10432000002A1FBFD8F8000050E8000FD8F800108E
:1043300020F490701CBF41E80002002A0BD0D8F88E
:10434000000050E8000FD8F8001020F4907041E809
:104350000002002ACFD14FF6FE70CEF6FF70D8F8DB
:10436000001051E8021FD8F80020014042E8021373
:104370000BB3D8F8001051E8021FD8F80020014014
:1043800042E80213002B1FBFD8F8001051E8021FAB
:10439000D8F8002001401CBF42E80213002B0AD0CD
:1043A000D8F8001051E8021FD8F80020014042E878
:1043B0000213002BD3D1D8F86C0001282FD1D8F8E4
:1043C000000050E8000FD8F8001020F0100041E87D
:1043D000000222B3D8F8000050E8000FD8F800100F
:1043E00020F0100041E80002002A1FBFD8F80000AA
:1043F00050E8000FD8F8001020F010001CBF41E872
:104400000002002A0BD0D8F8000050E8000FD8F8BE
:10441000001020F0100041E80002002ACFD1202037
:10442000C8F88C000021C8F86C10C8F87410C8F8DF
:104430009000032088F88410BDE8F0810320BDE8D7
:10444000F08100BF08210162D8F8000050E8000F99
:10445000D8F8001020F4907041E8000222B3D8F898
:10446000000050E8000FD8F8001020F4907041E8E8
:104470000002002A1FBFD8F8000050E8000FD8F84B
:10448000001020F490701CBF41E80002002A0BD0FD
:10449000D8F8000050E8000FD8F8001020F4907011
:1044A00041E80002002ACFD14FF6FE70CEF6FF7031
:1044B000D8F8001051E8021FD8F80020014042E867
:1044C00002130BB3D8F8001051E8021FD8F80020EF
:1044D000014042E80213002B1FBFD8F8001051E83A
:1044E000021FD8F8002001401CBF42E80213002B35
:1044F0000AD0D8F8001051E8021FD8F80020014077
:1045000042E80213002BD3D1D8F86C0001282FD138
:10451000D8F8000050E8000FD8F8001020F0100084
:1045200041E8000222B3D8F8000050E8000FD8F8A4
:10453000001020F0100041E80002002A1FBFD8F848
:10454000000050E8000FD8F8001020F010001CBF49
:1045500041E80002002A0BD0D8F8000050E8000F14
:10456000D8F8001020F0100041E80002002ACFD156
:104570002020C8F88C000020C8F86C00C8F874002F
:104580000821C8F8901088F884000120BDE8F08167
:1045900040F22410C2F20040FEF706BC000000000A
:1045A00040F210000121C2F2004001700078704713
:1045B000012070470000000000207047000000004C
:1045C00040F210000121C2F20040017000787047F3
:1045D0000020704700000000FEE70000000000001F
:1045E00084B001200090FCF76BFD0020019048F2A0
:1045F0001F70029040F2011003906846FCF730FDF6
:104600000420FCF76DFDFCF7CFFCFFF799F9FEF7EE
:10461000A7FFFFF719F8FEF7E7FFFEF791FF00BFCE
:10462000FEE7F1EE100A4FF6FF71C0F2C03120EA4A
:10463000010040F04070E1EE100A704701040810DC
:104640002040000408102040000000000102030484
:104650000102030406070809010002000400060025
:1046600008000A000C00100020004000800000013B
:10467000010101030701000008040204080101010F
:10468000A04600080000002428000000FC020008EA
:10469000C846000828000024981700001C030008E2
:1046A00001000000100000000090D0030090D00333
:1046B00001000000A1450008C1450008B9450008F7
:0846C000D1450008B1450008D6
:040000050800029954
:00000001FF
